{
	"contracts/TestGas.sol": {
		"TestGas": {
			"abi": [
				{
					"anonymous": false,
					"inputs": [
						{
							"indexed": false,
							"internalType": "bytes",
							"name": "message",
							"type": "bytes"
						}
					],
					"name": "VoteCast",
					"type": "event"
				},
				{
					"anonymous": false,
					"inputs": [
						{
							"indexed": false,
							"internalType": "string",
							"name": "message",
							"type": "string"
						}
					],
					"name": "VoteMessage",
					"type": "event"
				},
				{
					"inputs": [
						{
							"internalType": "uint256",
							"name": "",
							"type": "uint256"
						}
					],
					"name": "banlist",
					"outputs": [
						{
							"internalType": "uint256",
							"name": "",
							"type": "uint256"
						}
					],
					"stateMutability": "view",
					"type": "function"
				},
				{
					"inputs": [],
					"name": "deleteArrV1",
					"outputs": [],
					"stateMutability": "nonpayable",
					"type": "function"
				},
				{
					"inputs": [
						{
							"internalType": "uint256",
							"name": "",
							"type": "uint256"
						}
					],
					"name": "votes",
					"outputs": [
						{
							"internalType": "uint256",
							"name": "",
							"type": "uint256"
						}
					],
					"stateMutability": "view",
					"type": "function"
				}
			],
			"devdoc": {
				"kind": "dev",
				"methods": {},
				"version": 1
			},
			"evm": {
				"assembly": "    /* \"contracts/TestGas.sol\":58:790  contract TestGas {... */\n  mstore(0x40, 0x80)\n  callvalue\n  dup1\n  iszero\n  tag_1\n  jumpi\n  0x00\n  dup1\n  revert\ntag_1:\n  pop\n  dataSize(sub_0)\n  dup1\n  dataOffset(sub_0)\n  0x00\n  codecopy\n  0x00\n  return\nstop\n\nsub_0: assembly {\n        /* \"contracts/TestGas.sol\":58:790  contract TestGas {... */\n      mstore(0x40, 0x80)\n      callvalue\n      dup1\n      iszero\n      tag_1\n      jumpi\n      0x00\n      dup1\n      revert\n    tag_1:\n      pop\n      jumpi(tag_2, lt(calldatasize, 0x04))\n      shr(0xe0, calldataload(0x00))\n      dup1\n      0x0a80fca2\n      eq\n      tag_3\n      jumpi\n      dup1\n      0x51640a0f\n      eq\n      tag_4\n      jumpi\n      dup1\n      0x5df81330\n      eq\n      tag_5\n      jumpi\n    tag_2:\n      0x00\n      dup1\n      revert\n        /* \"contracts/TestGas.sol\":241:788  function deleteArrV1() public {... */\n    tag_3:\n      tag_6\n      tag_7\n      jump\t// in\n    tag_6:\n      stop\n        /* \"contracts/TestGas.sol\":111:136  uint256[3] public banlist */\n    tag_4:\n      tag_8\n      0x04\n      dup1\n      calldatasize\n      sub\n      dup2\n      add\n      swap1\n      tag_9\n      swap2\n      swap1\n      tag_10\n      jump\t// in\n    tag_9:\n      tag_11\n      jump\t// in\n    tag_8:\n      mload(0x40)\n      tag_12\n      swap2\n      swap1\n      tag_13\n      jump\t// in\n    tag_12:\n      mload(0x40)\n      dup1\n      swap2\n      sub\n      swap1\n      return\n        /* \"contracts/TestGas.sol\":81:104  uint256[3] public votes */\n    tag_5:\n      tag_14\n      0x04\n      dup1\n      calldatasize\n      sub\n      dup2\n      add\n      swap1\n      tag_15\n      swap2\n      swap1\n      tag_10\n      jump\t// in\n    tag_15:\n      tag_16\n      jump\t// in\n    tag_14:\n      mload(0x40)\n      tag_17\n      swap2\n      swap1\n      tag_13\n      jump\t// in\n    tag_17:\n      mload(0x40)\n      dup1\n      swap2\n      sub\n      swap1\n      return\n        /* \"contracts/TestGas.sol\":241:788  function deleteArrV1() public {... */\n    tag_7:\n        /* \"contracts/TestGas.sol\":553:581  VoteMessage(\"Before Voting\") */\n      0x7a0caa6bd4269af271f17881c1e76f93e77e8eaa0a4190595ca672d25cf7c7e5\n      mload(0x40)\n      tag_19\n      swap1\n      tag_20\n      jump\t// in\n    tag_19:\n      mload(0x40)\n      dup1\n      swap2\n      sub\n      swap1\n      log1\n        /* \"contracts/TestGas.sol\":592:611  banlist = [2, 3, 3] */\n      mload(0x40)\n      dup1\n      0x60\n      add\n      0x40\n      mstore\n      dup1\n        /* \"contracts/TestGas.sol\":603:604  2 */\n      0x02\n        /* \"contracts/TestGas.sol\":592:611  banlist = [2, 3, 3] */\n      0xff\n      and\n      dup2\n      mstore\n      0x20\n      add\n        /* \"contracts/TestGas.sol\":606:607  3 */\n      0x03\n        /* \"contracts/TestGas.sol\":592:611  banlist = [2, 3, 3] */\n      0xff\n      and\n      dup2\n      mstore\n      0x20\n      add\n        /* \"contracts/TestGas.sol\":609:610  3 */\n      0x03\n        /* \"contracts/TestGas.sol\":592:611  banlist = [2, 3, 3] */\n      0xff\n      and\n      dup2\n      mstore\n      pop\n        /* \"contracts/TestGas.sol\":592:599  banlist */\n      0x03\n        /* \"contracts/TestGas.sol\":592:611  banlist = [2, 3, 3] */\n      swap1\n      0x03\n      tag_21\n      swap3\n      swap2\n      swap1\n      tag_22\n      jump\t// in\n    tag_21:\n      pop\n        /* \"contracts/TestGas.sol\":627:651  VoteCast(bytes(\"log 3\")) */\n      0x3e320555e452b60d697d0bf594540dcde1c6233f396d2f2b4f424514f64b327f\n        /* \"contracts/TestGas.sol\":636:650  bytes(\"log 3\") */\n      mload(0x40)\n      dup1\n      0x40\n      add\n      0x40\n      mstore\n      dup1\n      0x05\n      dup2\n      mstore\n      0x20\n      add\n      0x6c6f672033000000000000000000000000000000000000000000000000000000\n      dup2\n      mstore\n      pop\n        /* \"contracts/TestGas.sol\":627:651  VoteCast(bytes(\"log 3\")) */\n      mload(0x40)\n      tag_23\n      swap2\n      swap1\n      tag_24\n      jump\t// in\n    tag_23:\n      mload(0x40)\n      dup1\n      swap2\n      sub\n      swap1\n      log1\n        /* \"contracts/TestGas.sol\":241:788  function deleteArrV1() public {... */\n      jump\t// out\n        /* \"contracts/TestGas.sol\":111:136  uint256[3] public banlist */\n    tag_11:\n      0x03\n      dup2\n      0x03\n      dup2\n      lt\n      tag_25\n      jumpi\n      0x00\n      dup1\n      revert\n    tag_25:\n      add\n      0x00\n      swap2\n      pop\n      swap1\n      pop\n      sload\n      dup2\n      jump\t// out\n        /* \"contracts/TestGas.sol\":81:104  uint256[3] public votes */\n    tag_16:\n      0x00\n      dup2\n      0x03\n      dup2\n      lt\n      tag_27\n      jumpi\n      0x00\n      dup1\n      revert\n    tag_27:\n      add\n      0x00\n      swap2\n      pop\n      swap1\n      pop\n      sload\n      dup2\n      jump\t// out\n    tag_22:\n      dup3\n      0x03\n      dup2\n      add\n      swap3\n      dup3\n      iszero\n      tag_29\n      jumpi\n      swap2\n      0x20\n      mul\n      dup3\n      add\n    tag_30:\n      dup3\n      dup2\n      gt\n      iszero\n      tag_31\n      jumpi\n      dup3\n      mload\n      dup3\n      swap1\n      0xff\n      and\n      swap1\n      sstore\n      swap2\n      0x20\n      add\n      swap2\n      swap1\n      0x01\n      add\n      swap1\n      jump(tag_30)\n    tag_31:\n    tag_29:\n      pop\n      swap1\n      pop\n      tag_32\n      swap2\n      swap1\n      tag_33\n      jump\t// in\n    tag_32:\n      pop\n      swap1\n      jump\t// out\n    tag_33:\n    tag_34:\n      dup1\n      dup3\n      gt\n      iszero\n      tag_35\n      jumpi\n      0x00\n      dup2\n      0x00\n      swap1\n      sstore\n      pop\n      0x01\n      add\n      jump(tag_34)\n    tag_35:\n      pop\n      swap1\n      jump\t// out\n        /* \"#utility.yul\":88:205   */\n    tag_37:\n        /* \"#utility.yul\":197:198   */\n      0x00\n        /* \"#utility.yul\":194:195   */\n      dup1\n        /* \"#utility.yul\":187:199   */\n      revert\n        /* \"#utility.yul\":334:411   */\n    tag_39:\n        /* \"#utility.yul\":371:378   */\n      0x00\n        /* \"#utility.yul\":400:405   */\n      dup2\n        /* \"#utility.yul\":389:405   */\n      swap1\n      pop\n        /* \"#utility.yul\":334:411   */\n      swap2\n      swap1\n      pop\n      jump\t// out\n        /* \"#utility.yul\":417:539   */\n    tag_40:\n        /* \"#utility.yul\":490:514   */\n      tag_57\n        /* \"#utility.yul\":508:513   */\n      dup2\n        /* \"#utility.yul\":490:514   */\n      tag_39\n      jump\t// in\n    tag_57:\n        /* \"#utility.yul\":483:488   */\n      dup2\n        /* \"#utility.yul\":480:515   */\n      eq\n        /* \"#utility.yul\":470:533   */\n      tag_58\n      jumpi\n        /* \"#utility.yul\":529:530   */\n      0x00\n        /* \"#utility.yul\":526:527   */\n      dup1\n        /* \"#utility.yul\":519:531   */\n      revert\n        /* \"#utility.yul\":470:533   */\n    tag_58:\n        /* \"#utility.yul\":417:539   */\n      pop\n      jump\t// out\n        /* \"#utility.yul\":545:684   */\n    tag_41:\n        /* \"#utility.yul\":591:596   */\n      0x00\n        /* \"#utility.yul\":629:635   */\n      dup2\n        /* \"#utility.yul\":616:636   */\n      calldataload\n        /* \"#utility.yul\":607:636   */\n      swap1\n      pop\n        /* \"#utility.yul\":645:678   */\n      tag_60\n        /* \"#utility.yul\":672:677   */\n      dup2\n        /* \"#utility.yul\":645:678   */\n      tag_40\n      jump\t// in\n    tag_60:\n        /* \"#utility.yul\":545:684   */\n      swap3\n      swap2\n      pop\n      pop\n      jump\t// out\n        /* \"#utility.yul\":690:1019   */\n    tag_10:\n        /* \"#utility.yul\":749:755   */\n      0x00\n        /* \"#utility.yul\":798:800   */\n      0x20\n        /* \"#utility.yul\":786:795   */\n      dup3\n        /* \"#utility.yul\":777:784   */\n      dup5\n        /* \"#utility.yul\":773:796   */\n      sub\n        /* \"#utility.yul\":769:801   */\n      slt\n        /* \"#utility.yul\":766:885   */\n      iszero\n      tag_62\n      jumpi\n        /* \"#utility.yul\":804:883   */\n      tag_63\n      tag_37\n      jump\t// in\n    tag_63:\n        /* \"#utility.yul\":766:885   */\n    tag_62:\n        /* \"#utility.yul\":924:925   */\n      0x00\n        /* \"#utility.yul\":949:1002   */\n      tag_64\n        /* \"#utility.yul\":994:1001   */\n      dup5\n        /* \"#utility.yul\":985:991   */\n      dup3\n        /* \"#utility.yul\":974:983   */\n      dup6\n        /* \"#utility.yul\":970:992   */\n      add\n        /* \"#utility.yul\":949:1002   */\n      tag_41\n      jump\t// in\n    tag_64:\n        /* \"#utility.yul\":939:1002   */\n      swap2\n      pop\n        /* \"#utility.yul\":895:1012   */\n      pop\n        /* \"#utility.yul\":690:1019   */\n      swap3\n      swap2\n      pop\n      pop\n      jump\t// out\n        /* \"#utility.yul\":1025:1143   */\n    tag_42:\n        /* \"#utility.yul\":1112:1136   */\n      tag_66\n        /* \"#utility.yul\":1130:1135   */\n      dup2\n        /* \"#utility.yul\":1112:1136   */\n      tag_39\n      jump\t// in\n    tag_66:\n        /* \"#utility.yul\":1107:1110   */\n      dup3\n        /* \"#utility.yul\":1100:1137   */\n      mstore\n        /* \"#utility.yul\":1025:1143   */\n      pop\n      pop\n      jump\t// out\n        /* \"#utility.yul\":1149:1371   */\n    tag_13:\n        /* \"#utility.yul\":1242:1246   */\n      0x00\n        /* \"#utility.yul\":1280:1282   */\n      0x20\n        /* \"#utility.yul\":1269:1278   */\n      dup3\n        /* \"#utility.yul\":1265:1283   */\n      add\n        /* \"#utility.yul\":1257:1283   */\n      swap1\n      pop\n        /* \"#utility.yul\":1293:1364   */\n      tag_68\n        /* \"#utility.yul\":1361:1362   */\n      0x00\n        /* \"#utility.yul\":1350:1359   */\n      dup4\n        /* \"#utility.yul\":1346:1363   */\n      add\n        /* \"#utility.yul\":1337:1343   */\n      dup5\n        /* \"#utility.yul\":1293:1364   */\n      tag_42\n      jump\t// in\n    tag_68:\n        /* \"#utility.yul\":1149:1371   */\n      swap3\n      swap2\n      pop\n      pop\n      jump\t// out\n        /* \"#utility.yul\":1377:1546   */\n    tag_43:\n        /* \"#utility.yul\":1461:1472   */\n      0x00\n        /* \"#utility.yul\":1495:1501   */\n      dup3\n        /* \"#utility.yul\":1490:1493   */\n      dup3\n        /* \"#utility.yul\":1483:1502   */\n      mstore\n        /* \"#utility.yul\":1535:1539   */\n      0x20\n        /* \"#utility.yul\":1530:1533   */\n      dup3\n        /* \"#utility.yul\":1526:1540   */\n      add\n        /* \"#utility.yul\":1511:1540   */\n      swap1\n      pop\n        /* \"#utility.yul\":1377:1546   */\n      swap3\n      swap2\n      pop\n      pop\n      jump\t// out\n        /* \"#utility.yul\":1552:1715   */\n    tag_44:\n        /* \"#utility.yul\":1692:1707   */\n      0x4265666f726520566f74696e6700000000000000000000000000000000000000\n        /* \"#utility.yul\":1688:1689   */\n      0x00\n        /* \"#utility.yul\":1680:1686   */\n      dup3\n        /* \"#utility.yul\":1676:1690   */\n      add\n        /* \"#utility.yul\":1669:1708   */\n      mstore\n        /* \"#utility.yul\":1552:1715   */\n      pop\n      jump\t// out\n        /* \"#utility.yul\":1721:2087   */\n    tag_45:\n        /* \"#utility.yul\":1863:1866   */\n      0x00\n        /* \"#utility.yul\":1884:1951   */\n      tag_72\n        /* \"#utility.yul\":1948:1950   */\n      0x0d\n        /* \"#utility.yul\":1943:1946   */\n      dup4\n        /* \"#utility.yul\":1884:1951   */\n      tag_43\n      jump\t// in\n    tag_72:\n        /* \"#utility.yul\":1877:1951   */\n      swap2\n      pop\n        /* \"#utility.yul\":1960:2053   */\n      tag_73\n        /* \"#utility.yul\":2049:2052   */\n      dup3\n        /* \"#utility.yul\":1960:2053   */\n      tag_44\n      jump\t// in\n    tag_73:\n        /* \"#utility.yul\":2078:2080   */\n      0x20\n        /* \"#utility.yul\":2073:2076   */\n      dup3\n        /* \"#utility.yul\":2069:2081   */\n      add\n        /* \"#utility.yul\":2062:2081   */\n      swap1\n      pop\n        /* \"#utility.yul\":1721:2087   */\n      swap2\n      swap1\n      pop\n      jump\t// out\n        /* \"#utility.yul\":2093:2512   */\n    tag_20:\n        /* \"#utility.yul\":2259:2263   */\n      0x00\n        /* \"#utility.yul\":2297:2299   */\n      0x20\n        /* \"#utility.yul\":2286:2295   */\n      dup3\n        /* \"#utility.yul\":2282:2300   */\n      add\n        /* \"#utility.yul\":2274:2300   */\n      swap1\n      pop\n        /* \"#utility.yul\":2346:2355   */\n      dup2\n        /* \"#utility.yul\":2340:2344   */\n      dup2\n        /* \"#utility.yul\":2336:2356   */\n      sub\n        /* \"#utility.yul\":2332:2333   */\n      0x00\n        /* \"#utility.yul\":2321:2330   */\n      dup4\n        /* \"#utility.yul\":2317:2334   */\n      add\n        /* \"#utility.yul\":2310:2357   */\n      mstore\n        /* \"#utility.yul\":2374:2505   */\n      tag_75\n        /* \"#utility.yul\":2500:2504   */\n      dup2\n        /* \"#utility.yul\":2374:2505   */\n      tag_45\n      jump\t// in\n    tag_75:\n        /* \"#utility.yul\":2366:2505   */\n      swap1\n      pop\n        /* \"#utility.yul\":2093:2512   */\n      swap2\n      swap1\n      pop\n      jump\t// out\n        /* \"#utility.yul\":2518:2616   */\n    tag_46:\n        /* \"#utility.yul\":2569:2575   */\n      0x00\n        /* \"#utility.yul\":2603:2608   */\n      dup2\n        /* \"#utility.yul\":2597:2609   */\n      mload\n        /* \"#utility.yul\":2587:2609   */\n      swap1\n      pop\n        /* \"#utility.yul\":2518:2616   */\n      swap2\n      swap1\n      pop\n      jump\t// out\n        /* \"#utility.yul\":2622:2790   */\n    tag_47:\n        /* \"#utility.yul\":2705:2716   */\n      0x00\n        /* \"#utility.yul\":2739:2745   */\n      dup3\n        /* \"#utility.yul\":2734:2737   */\n      dup3\n        /* \"#utility.yul\":2727:2746   */\n      mstore\n        /* \"#utility.yul\":2779:2783   */\n      0x20\n        /* \"#utility.yul\":2774:2777   */\n      dup3\n        /* \"#utility.yul\":2770:2784   */\n      add\n        /* \"#utility.yul\":2755:2784   */\n      swap1\n      pop\n        /* \"#utility.yul\":2622:2790   */\n      swap3\n      swap2\n      pop\n      pop\n      jump\t// out\n        /* \"#utility.yul\":2796:3042   */\n    tag_48:\n        /* \"#utility.yul\":2877:2878   */\n      0x00\n        /* \"#utility.yul\":2887:3000   */\n    tag_79:\n        /* \"#utility.yul\":2901:2907   */\n      dup4\n        /* \"#utility.yul\":2898:2899   */\n      dup2\n        /* \"#utility.yul\":2895:2908   */\n      lt\n        /* \"#utility.yul\":2887:3000   */\n      iszero\n      tag_81\n      jumpi\n        /* \"#utility.yul\":2986:2987   */\n      dup1\n        /* \"#utility.yul\":2981:2984   */\n      dup3\n        /* \"#utility.yul\":2977:2988   */\n      add\n        /* \"#utility.yul\":2971:2989   */\n      mload\n        /* \"#utility.yul\":2967:2968   */\n      dup2\n        /* \"#utility.yul\":2962:2965   */\n      dup5\n        /* \"#utility.yul\":2958:2969   */\n      add\n        /* \"#utility.yul\":2951:2990   */\n      mstore\n        /* \"#utility.yul\":2923:2925   */\n      0x20\n        /* \"#utility.yul\":2920:2921   */\n      dup2\n        /* \"#utility.yul\":2916:2926   */\n      add\n        /* \"#utility.yul\":2911:2926   */\n      swap1\n      pop\n        /* \"#utility.yul\":2887:3000   */\n      jump(tag_79)\n    tag_81:\n        /* \"#utility.yul\":3034:3035   */\n      0x00\n        /* \"#utility.yul\":3025:3031   */\n      dup5\n        /* \"#utility.yul\":3020:3023   */\n      dup5\n        /* \"#utility.yul\":3016:3032   */\n      add\n        /* \"#utility.yul\":3009:3036   */\n      mstore\n        /* \"#utility.yul\":2858:3042   */\n      pop\n        /* \"#utility.yul\":2796:3042   */\n      pop\n      pop\n      pop\n      jump\t// out\n        /* \"#utility.yul\":3048:3150   */\n    tag_49:\n        /* \"#utility.yul\":3089:3095   */\n      0x00\n        /* \"#utility.yul\":3140:3142   */\n      0x1f\n        /* \"#utility.yul\":3136:3143   */\n      not\n        /* \"#utility.yul\":3131:3133   */\n      0x1f\n        /* \"#utility.yul\":3124:3129   */\n      dup4\n        /* \"#utility.yul\":3120:3134   */\n      add\n        /* \"#utility.yul\":3116:3144   */\n      and\n        /* \"#utility.yul\":3106:3144   */\n      swap1\n      pop\n        /* \"#utility.yul\":3048:3150   */\n      swap2\n      swap1\n      pop\n      jump\t// out\n        /* \"#utility.yul\":3156:3529   */\n    tag_50:\n        /* \"#utility.yul\":3242:3245   */\n      0x00\n        /* \"#utility.yul\":3270:3308   */\n      tag_84\n        /* \"#utility.yul\":3302:3307   */\n      dup3\n        /* \"#utility.yul\":3270:3308   */\n      tag_46\n      jump\t// in\n    tag_84:\n        /* \"#utility.yul\":3324:3394   */\n      tag_85\n        /* \"#utility.yul\":3387:3393   */\n      dup2\n        /* \"#utility.yul\":3382:3385   */\n      dup6\n        /* \"#utility.yul\":3324:3394   */\n      tag_47\n      jump\t// in\n    tag_85:\n        /* \"#utility.yul\":3317:3394   */\n      swap4\n      pop\n        /* \"#utility.yul\":3403:3468   */\n      tag_86\n        /* \"#utility.yul\":3461:3467   */\n      dup2\n        /* \"#utility.yul\":3456:3459   */\n      dup6\n        /* \"#utility.yul\":3449:3453   */\n      0x20\n        /* \"#utility.yul\":3442:3447   */\n      dup7\n        /* \"#utility.yul\":3438:3454   */\n      add\n        /* \"#utility.yul\":3403:3468   */\n      tag_48\n      jump\t// in\n    tag_86:\n        /* \"#utility.yul\":3493:3522   */\n      tag_87\n        /* \"#utility.yul\":3515:3521   */\n      dup2\n        /* \"#utility.yul\":3493:3522   */\n      tag_49\n      jump\t// in\n    tag_87:\n        /* \"#utility.yul\":3488:3491   */\n      dup5\n        /* \"#utility.yul\":3484:3523   */\n      add\n        /* \"#utility.yul\":3477:3523   */\n      swap2\n      pop\n        /* \"#utility.yul\":3246:3529   */\n      pop\n        /* \"#utility.yul\":3156:3529   */\n      swap3\n      swap2\n      pop\n      pop\n      jump\t// out\n        /* \"#utility.yul\":3535:3844   */\n    tag_24:\n        /* \"#utility.yul\":3646:3650   */\n      0x00\n        /* \"#utility.yul\":3684:3686   */\n      0x20\n        /* \"#utility.yul\":3673:3682   */\n      dup3\n        /* \"#utility.yul\":3669:3687   */\n      add\n        /* \"#utility.yul\":3661:3687   */\n      swap1\n      pop\n        /* \"#utility.yul\":3733:3742   */\n      dup2\n        /* \"#utility.yul\":3727:3731   */\n      dup2\n        /* \"#utility.yul\":3723:3743   */\n      sub\n        /* \"#utility.yul\":3719:3720   */\n      0x00\n        /* \"#utility.yul\":3708:3717   */\n      dup4\n        /* \"#utility.yul\":3704:3721   */\n      add\n        /* \"#utility.yul\":3697:3744   */\n      mstore\n        /* \"#utility.yul\":3761:3837   */\n      tag_89\n        /* \"#utility.yul\":3832:3836   */\n      dup2\n        /* \"#utility.yul\":3823:3829   */\n      dup5\n        /* \"#utility.yul\":3761:3837   */\n      tag_50\n      jump\t// in\n    tag_89:\n        /* \"#utility.yul\":3753:3837   */\n      swap1\n      pop\n        /* \"#utility.yul\":3535:3844   */\n      swap3\n      swap2\n      pop\n      pop\n      jump\t// out\n\n    auxdata: 0xa264697066735822122097eac125e876a439a4c9ffe41747bbb02278beaaeb9c66075a82d803a7efe9a564736f6c63430008110033\n}\n",
				"bytecode": {
					"linkReferences": {},
					"object": "608060405234801561001057600080fd5b5061041a806100206000396000f3fe608060405234801561001057600080fd5b50600436106100415760003560e01c80630a80fca21461004657806351640a0f146100505780635df8133014610080575b600080fd5b61004e6100b0565b005b61006a6004803603810190610065919061025e565b61018b565b604051610077919061029a565b60405180910390f35b61009a6004803603810190610095919061025e565b6101a6565b6040516100a7919061029a565b60405180910390f35b7f7a0caa6bd4269af271f17881c1e76f93e77e8eaa0a4190595ca672d25cf7c7e56040516100dd90610312565b60405180910390a16040518060600160405280600260ff168152602001600360ff168152602001600360ff16815250600390600361011c9291906101c1565b507f3e320555e452b60d697d0bf594540dcde1c6233f396d2f2b4f424514f64b327f6040518060400160405280600581526020017f6c6f67203300000000000000000000000000000000000000000000000000000081525060405161018191906103c2565b60405180910390a1565b6003816003811061019b57600080fd5b016000915090505481565b600081600381106101b657600080fd5b016000915090505481565b82600381019282156101f5579160200282015b828111156101f4578251829060ff169055916020019190600101906101d4565b5b5090506102029190610206565b5090565b5b8082111561021f576000816000905550600101610207565b5090565b600080fd5b6000819050919050565b61023b81610228565b811461024657600080fd5b50565b60008135905061025881610232565b92915050565b60006020828403121561027457610273610223565b5b600061028284828501610249565b91505092915050565b61029481610228565b82525050565b60006020820190506102af600083018461028b565b92915050565b600082825260208201905092915050565b7f4265666f726520566f74696e6700000000000000000000000000000000000000600082015250565b60006102fc600d836102b5565b9150610307826102c6565b602082019050919050565b6000602082019050818103600083015261032b816102ef565b9050919050565b600081519050919050565b600082825260208201905092915050565b60005b8381101561036c578082015181840152602081019050610351565b60008484015250505050565b6000601f19601f8301169050919050565b600061039482610332565b61039e818561033d565b93506103ae81856020860161034e565b6103b781610378565b840191505092915050565b600060208201905081810360008301526103dc8184610389565b90509291505056fea264697066735822122097eac125e876a439a4c9ffe41747bbb02278beaaeb9c66075a82d803a7efe9a564736f6c63430008110033",
					"opcodes": "PUSH1 0x80 PUSH1 0x40 MSTORE CALLVALUE DUP1 ISZERO PUSH2 0x10 JUMPI PUSH1 0x0 DUP1 REVERT JUMPDEST POP PUSH2 0x41A DUP1 PUSH2 0x20 PUSH1 0x0 CODECOPY PUSH1 0x0 RETURN INVALID PUSH1 0x80 PUSH1 0x40 MSTORE CALLVALUE DUP1 ISZERO PUSH2 0x10 JUMPI PUSH1 0x0 DUP1 REVERT JUMPDEST POP PUSH1 0x4 CALLDATASIZE LT PUSH2 0x41 JUMPI PUSH1 0x0 CALLDATALOAD PUSH1 0xE0 SHR DUP1 PUSH4 0xA80FCA2 EQ PUSH2 0x46 JUMPI DUP1 PUSH4 0x51640A0F EQ PUSH2 0x50 JUMPI DUP1 PUSH4 0x5DF81330 EQ PUSH2 0x80 JUMPI JUMPDEST PUSH1 0x0 DUP1 REVERT JUMPDEST PUSH2 0x4E PUSH2 0xB0 JUMP JUMPDEST STOP JUMPDEST PUSH2 0x6A PUSH1 0x4 DUP1 CALLDATASIZE SUB DUP2 ADD SWAP1 PUSH2 0x65 SWAP2 SWAP1 PUSH2 0x25E JUMP JUMPDEST PUSH2 0x18B JUMP JUMPDEST PUSH1 0x40 MLOAD PUSH2 0x77 SWAP2 SWAP1 PUSH2 0x29A JUMP JUMPDEST PUSH1 0x40 MLOAD DUP1 SWAP2 SUB SWAP1 RETURN JUMPDEST PUSH2 0x9A PUSH1 0x4 DUP1 CALLDATASIZE SUB DUP2 ADD SWAP1 PUSH2 0x95 SWAP2 SWAP1 PUSH2 0x25E JUMP JUMPDEST PUSH2 0x1A6 JUMP JUMPDEST PUSH1 0x40 MLOAD PUSH2 0xA7 SWAP2 SWAP1 PUSH2 0x29A JUMP JUMPDEST PUSH1 0x40 MLOAD DUP1 SWAP2 SUB SWAP1 RETURN JUMPDEST PUSH32 0x7A0CAA6BD4269AF271F17881C1E76F93E77E8EAA0A4190595CA672D25CF7C7E5 PUSH1 0x40 MLOAD PUSH2 0xDD SWAP1 PUSH2 0x312 JUMP JUMPDEST PUSH1 0x40 MLOAD DUP1 SWAP2 SUB SWAP1 LOG1 PUSH1 0x40 MLOAD DUP1 PUSH1 0x60 ADD PUSH1 0x40 MSTORE DUP1 PUSH1 0x2 PUSH1 0xFF AND DUP2 MSTORE PUSH1 0x20 ADD PUSH1 0x3 PUSH1 0xFF AND DUP2 MSTORE PUSH1 0x20 ADD PUSH1 0x3 PUSH1 0xFF AND DUP2 MSTORE POP PUSH1 0x3 SWAP1 PUSH1 0x3 PUSH2 0x11C SWAP3 SWAP2 SWAP1 PUSH2 0x1C1 JUMP JUMPDEST POP PUSH32 0x3E320555E452B60D697D0BF594540DCDE1C6233F396D2F2B4F424514F64B327F PUSH1 0x40 MLOAD DUP1 PUSH1 0x40 ADD PUSH1 0x40 MSTORE DUP1 PUSH1 0x5 DUP2 MSTORE PUSH1 0x20 ADD PUSH32 0x6C6F672033000000000000000000000000000000000000000000000000000000 DUP2 MSTORE POP PUSH1 0x40 MLOAD PUSH2 0x181 SWAP2 SWAP1 PUSH2 0x3C2 JUMP JUMPDEST PUSH1 0x40 MLOAD DUP1 SWAP2 SUB SWAP1 LOG1 JUMP JUMPDEST PUSH1 0x3 DUP2 PUSH1 0x3 DUP2 LT PUSH2 0x19B JUMPI PUSH1 0x0 DUP1 REVERT JUMPDEST ADD PUSH1 0x0 SWAP2 POP SWAP1 POP SLOAD DUP2 JUMP JUMPDEST PUSH1 0x0 DUP2 PUSH1 0x3 DUP2 LT PUSH2 0x1B6 JUMPI PUSH1 0x0 DUP1 REVERT JUMPDEST ADD PUSH1 0x0 SWAP2 POP SWAP1 POP SLOAD DUP2 JUMP JUMPDEST DUP3 PUSH1 0x3 DUP2 ADD SWAP3 DUP3 ISZERO PUSH2 0x1F5 JUMPI SWAP2 PUSH1 0x20 MUL DUP3 ADD JUMPDEST DUP3 DUP2 GT ISZERO PUSH2 0x1F4 JUMPI DUP3 MLOAD DUP3 SWAP1 PUSH1 0xFF AND SWAP1 SSTORE SWAP2 PUSH1 0x20 ADD SWAP2 SWAP1 PUSH1 0x1 ADD SWAP1 PUSH2 0x1D4 JUMP JUMPDEST JUMPDEST POP SWAP1 POP PUSH2 0x202 SWAP2 SWAP1 PUSH2 0x206 JUMP JUMPDEST POP SWAP1 JUMP JUMPDEST JUMPDEST DUP1 DUP3 GT ISZERO PUSH2 0x21F JUMPI PUSH1 0x0 DUP2 PUSH1 0x0 SWAP1 SSTORE POP PUSH1 0x1 ADD PUSH2 0x207 JUMP JUMPDEST POP SWAP1 JUMP JUMPDEST PUSH1 0x0 DUP1 REVERT JUMPDEST PUSH1 0x0 DUP2 SWAP1 POP SWAP2 SWAP1 POP JUMP JUMPDEST PUSH2 0x23B DUP2 PUSH2 0x228 JUMP JUMPDEST DUP2 EQ PUSH2 0x246 JUMPI PUSH1 0x0 DUP1 REVERT JUMPDEST POP JUMP JUMPDEST PUSH1 0x0 DUP2 CALLDATALOAD SWAP1 POP PUSH2 0x258 DUP2 PUSH2 0x232 JUMP JUMPDEST SWAP3 SWAP2 POP POP JUMP JUMPDEST PUSH1 0x0 PUSH1 0x20 DUP3 DUP5 SUB SLT ISZERO PUSH2 0x274 JUMPI PUSH2 0x273 PUSH2 0x223 JUMP JUMPDEST JUMPDEST PUSH1 0x0 PUSH2 0x282 DUP5 DUP3 DUP6 ADD PUSH2 0x249 JUMP JUMPDEST SWAP2 POP POP SWAP3 SWAP2 POP POP JUMP JUMPDEST PUSH2 0x294 DUP2 PUSH2 0x228 JUMP JUMPDEST DUP3 MSTORE POP POP JUMP JUMPDEST PUSH1 0x0 PUSH1 0x20 DUP3 ADD SWAP1 POP PUSH2 0x2AF PUSH1 0x0 DUP4 ADD DUP5 PUSH2 0x28B JUMP JUMPDEST SWAP3 SWAP2 POP POP JUMP JUMPDEST PUSH1 0x0 DUP3 DUP3 MSTORE PUSH1 0x20 DUP3 ADD SWAP1 POP SWAP3 SWAP2 POP POP JUMP JUMPDEST PUSH32 0x4265666F726520566F74696E6700000000000000000000000000000000000000 PUSH1 0x0 DUP3 ADD MSTORE POP JUMP JUMPDEST PUSH1 0x0 PUSH2 0x2FC PUSH1 0xD DUP4 PUSH2 0x2B5 JUMP JUMPDEST SWAP2 POP PUSH2 0x307 DUP3 PUSH2 0x2C6 JUMP JUMPDEST PUSH1 0x20 DUP3 ADD SWAP1 POP SWAP2 SWAP1 POP JUMP JUMPDEST PUSH1 0x0 PUSH1 0x20 DUP3 ADD SWAP1 POP DUP2 DUP2 SUB PUSH1 0x0 DUP4 ADD MSTORE PUSH2 0x32B DUP2 PUSH2 0x2EF JUMP JUMPDEST SWAP1 POP SWAP2 SWAP1 POP JUMP JUMPDEST PUSH1 0x0 DUP2 MLOAD SWAP1 POP SWAP2 SWAP1 POP JUMP JUMPDEST PUSH1 0x0 DUP3 DUP3 MSTORE PUSH1 0x20 DUP3 ADD SWAP1 POP SWAP3 SWAP2 POP POP JUMP JUMPDEST PUSH1 0x0 JUMPDEST DUP4 DUP2 LT ISZERO PUSH2 0x36C JUMPI DUP1 DUP3 ADD MLOAD DUP2 DUP5 ADD MSTORE PUSH1 0x20 DUP2 ADD SWAP1 POP PUSH2 0x351 JUMP JUMPDEST PUSH1 0x0 DUP5 DUP5 ADD MSTORE POP POP POP POP JUMP JUMPDEST PUSH1 0x0 PUSH1 0x1F NOT PUSH1 0x1F DUP4 ADD AND SWAP1 POP SWAP2 SWAP1 POP JUMP JUMPDEST PUSH1 0x0 PUSH2 0x394 DUP3 PUSH2 0x332 JUMP JUMPDEST PUSH2 0x39E DUP2 DUP6 PUSH2 0x33D JUMP JUMPDEST SWAP4 POP PUSH2 0x3AE DUP2 DUP6 PUSH1 0x20 DUP7 ADD PUSH2 0x34E JUMP JUMPDEST PUSH2 0x3B7 DUP2 PUSH2 0x378 JUMP JUMPDEST DUP5 ADD SWAP2 POP POP SWAP3 SWAP2 POP POP JUMP JUMPDEST PUSH1 0x0 PUSH1 0x20 DUP3 ADD SWAP1 POP DUP2 DUP2 SUB PUSH1 0x0 DUP4 ADD MSTORE PUSH2 0x3DC DUP2 DUP5 PUSH2 0x389 JUMP JUMPDEST SWAP1 POP SWAP3 SWAP2 POP POP JUMP INVALID LOG2 PUSH5 0x6970667358 0x22 SLT KECCAK256 SWAP8 0xEA 0xC1 0x25 0xE8 PUSH23 0xA439A4C9FFE41747BBB02278BEAAEB9C66075A82D803A7 0xEF 0xE9 0xA5 PUSH5 0x736F6C6343 STOP ADDMOD GT STOP CALLER "
				},
				"gasEstimates": {
					"creation": {
						"codeDepositCost": "210000",
						"executionCost": "251",
						"totalCost": "210251"
					},
					"external": {
						"banlist(uint256)": "infinite",
						"deleteArrV1()": "infinite",
						"votes(uint256)": "infinite"
					}
				},
				"methodIdentifiers": {
					"banlist(uint256)": "51640a0f",
					"deleteArrV1()": "0a80fca2",
					"votes(uint256)": "5df81330"
				}
			},
			"storageLayout": {
				"storage": [
					{
						"astId": 5,
						"contract": "contracts/TestGas.sol:TestGas",
						"label": "votes",
						"offset": 0,
						"slot": "0",
						"type": "t_array(t_uint256)3_storage"
					},
					{
						"astId": 9,
						"contract": "contracts/TestGas.sol:TestGas",
						"label": "banlist",
						"offset": 0,
						"slot": "3",
						"type": "t_array(t_uint256)3_storage"
					}
				],
				"types": {
					"t_array(t_uint256)3_storage": {
						"base": "t_uint256",
						"encoding": "inplace",
						"label": "uint256[3]",
						"numberOfBytes": "96"
					},
					"t_uint256": {
						"encoding": "inplace",
						"label": "uint256",
						"numberOfBytes": "32"
					}
				}
			},
			"userdoc": {
				"kind": "user",
				"methods": {},
				"version": 1
			}
		}
	}
}