{
	"contracts/guardian.sol": {
		"GuardianContract": {
			"abi": [
				{
					"inputs": [],
					"stateMutability": "nonpayable",
					"type": "constructor"
				},
				{
					"inputs": [
						{
							"internalType": "address",
							"name": "_guardian",
							"type": "address"
						}
					],
					"name": "addGuardain",
					"outputs": [],
					"stateMutability": "nonpayable",
					"type": "function"
				},
				{
					"inputs": [],
					"name": "currentGuardians",
					"outputs": [
						{
							"internalType": "uint256",
							"name": "",
							"type": "uint256"
						}
					],
					"stateMutability": "view",
					"type": "function"
				},
				{
					"inputs": [],
					"name": "geTotalBalance",
					"outputs": [
						{
							"internalType": "uint256",
							"name": "",
							"type": "uint256"
						}
					],
					"stateMutability": "view",
					"type": "function"
				},
				{
					"inputs": [
						{
							"internalType": "address",
							"name": "_guardian",
							"type": "address"
						},
						{
							"internalType": "uint256",
							"name": "_amount",
							"type": "uint256"
						}
					],
					"name": "giveAllowance",
					"outputs": [],
					"stateMutability": "nonpayable",
					"type": "function"
				},
				{
					"inputs": [
						{
							"internalType": "address",
							"name": "",
							"type": "address"
						}
					],
					"name": "guardians",
					"outputs": [
						{
							"internalType": "bool",
							"name": "isGuardian",
							"type": "bool"
						},
						{
							"internalType": "uint256",
							"name": "balance",
							"type": "uint256"
						}
					],
					"stateMutability": "view",
					"type": "function"
				},
				{
					"inputs": [],
					"name": "maxGuardians",
					"outputs": [
						{
							"internalType": "uint256",
							"name": "",
							"type": "uint256"
						}
					],
					"stateMutability": "view",
					"type": "function"
				},
				{
					"inputs": [],
					"name": "newOwner",
					"outputs": [
						{
							"internalType": "address",
							"name": "",
							"type": "address"
						}
					],
					"stateMutability": "view",
					"type": "function"
				},
				{
					"inputs": [],
					"name": "owner",
					"outputs": [
						{
							"internalType": "address",
							"name": "",
							"type": "address"
						}
					],
					"stateMutability": "view",
					"type": "function"
				},
				{
					"inputs": [
						{
							"internalType": "address",
							"name": "_newOwner",
							"type": "address"
						}
					],
					"name": "proposeNewOwner",
					"outputs": [],
					"stateMutability": "nonpayable",
					"type": "function"
				},
				{
					"inputs": [
						{
							"internalType": "uint256",
							"name": "_amount",
							"type": "uint256"
						},
						{
							"internalType": "address payable",
							"name": "_to",
							"type": "address"
						}
					],
					"name": "sendMoney",
					"outputs": [],
					"stateMutability": "nonpayable",
					"type": "function"
				},
				{
					"inputs": [],
					"name": "votesForNewOwner",
					"outputs": [
						{
							"internalType": "uint256",
							"name": "",
							"type": "uint256"
						}
					],
					"stateMutability": "view",
					"type": "function"
				},
				{
					"stateMutability": "payable",
					"type": "receive"
				}
			],
			"devdoc": {
				"kind": "dev",
				"methods": {},
				"version": 1
			},
			"evm": {
				"assembly": "    /* \"contracts/guardian.sol\":58:2029  contract GuardianContract {... */\n  mstore(0x40, 0x80)\n    /* \"contracts/guardian.sol\":224:225  5 */\n  0x05\n    /* \"contracts/guardian.sol\":197:225  uint public maxGuardians = 5 */\n  0x01\n  sstore\n    /* \"contracts/guardian.sol\":385:435  constructor () {... */\n  callvalue\n  dup1\n  iszero\n  tag_1\n  jumpi\n  0x00\n  dup1\n  revert\ntag_1:\n  pop\n    /* \"contracts/guardian.sol\":418:428  msg.sender */\n  caller\n    /* \"contracts/guardian.sol\":410:415  owner */\n  0x00\n  dup1\n    /* \"contracts/guardian.sol\":410:428  owner = msg.sender */\n  0x0100\n  exp\n  dup2\n  sload\n  dup2\n  0xffffffffffffffffffffffffffffffffffffffff\n  mul\n  not\n  and\n  swap1\n  dup4\n  0xffffffffffffffffffffffffffffffffffffffff\n  and\n  mul\n  or\n  swap1\n  sstore\n  pop\n    /* \"contracts/guardian.sol\":58:2029  contract GuardianContract {... */\n  dataSize(sub_0)\n  dup1\n  dataOffset(sub_0)\n  0x00\n  codecopy\n  0x00\n  return\nstop\n\nsub_0: assembly {\n        /* \"contracts/guardian.sol\":58:2029  contract GuardianContract {... */\n      mstore(0x40, 0x80)\n      jumpi(tag_1, lt(calldatasize, 0x04))\n      shr(0xe0, calldataload(0x00))\n      dup1\n      0x8da5cb5b\n      gt\n      tag_14\n      jumpi\n      dup1\n      0x8da5cb5b\n      eq\n      tag_8\n      jumpi\n      dup1\n      0x8f6d38a5\n      eq\n      tag_9\n      jumpi\n      dup1\n      0x958ff7fb\n      eq\n      tag_10\n      jumpi\n      dup1\n      0xb1f8100d\n      eq\n      tag_11\n      jumpi\n      dup1\n      0xbabd957d\n      eq\n      tag_12\n      jumpi\n      dup1\n      0xd4ee1d90\n      eq\n      tag_13\n      jumpi\n      jump(tag_2)\n    tag_14:\n      dup1\n      0x062a7544\n      eq\n      tag_3\n      jumpi\n      dup1\n      0x0633b14a\n      eq\n      tag_4\n      jumpi\n      dup1\n      0x3c911347\n      eq\n      tag_5\n      jumpi\n      dup1\n      0x5bf36423\n      eq\n      tag_6\n      jumpi\n      dup1\n      0x8be04352\n      eq\n      tag_7\n      jumpi\n      jump(tag_2)\n    tag_1:\n      jumpi(tag_2, calldatasize)\n      stop\n    tag_2:\n      0x00\n      dup1\n      revert\n        /* \"contracts/guardian.sol\":586:867  function sendMoney(uint _amount, address payable _to) public {... */\n    tag_3:\n      callvalue\n      dup1\n      iszero\n      tag_17\n      jumpi\n      0x00\n      dup1\n      revert\n    tag_17:\n      pop\n      tag_18\n      0x04\n      dup1\n      calldatasize\n      sub\n      dup2\n      add\n      swap1\n      tag_19\n      swap2\n      swap1\n      tag_20\n      jump\t// in\n    tag_19:\n      tag_21\n      jump\t// in\n    tag_18:\n      stop\n        /* \"contracts/guardian.sol\":265:314  mapping(address => GuardianInfo) public guardians */\n    tag_4:\n      callvalue\n      dup1\n      iszero\n      tag_22\n      jumpi\n      0x00\n      dup1\n      revert\n    tag_22:\n      pop\n      tag_23\n      0x04\n      dup1\n      calldatasize\n      sub\n      dup2\n      add\n      swap1\n      tag_24\n      swap2\n      swap1\n      tag_25\n      jump\t// in\n    tag_24:\n      tag_26\n      jump\t// in\n    tag_23:\n      mload(0x40)\n      tag_27\n      swap3\n      swap2\n      swap1\n      tag_28\n      jump\t// in\n    tag_27:\n      mload(0x40)\n      dup1\n      swap2\n      sub\n      swap1\n      return\n        /* \"contracts/guardian.sol\":231:259  uint public currentGuardians */\n    tag_5:\n      callvalue\n      dup1\n      iszero\n      tag_29\n      jumpi\n      0x00\n      dup1\n      revert\n    tag_29:\n      pop\n      tag_30\n      tag_31\n      jump\t// in\n    tag_30:\n      mload(0x40)\n      tag_32\n      swap2\n      swap1\n      tag_33\n      jump\t// in\n    tag_32:\n      mload(0x40)\n      dup1\n      swap2\n      sub\n      swap1\n      return\n        /* \"contracts/guardian.sol\":873:1145  function addGuardain(address _guardian) public {... */\n    tag_6:\n      callvalue\n      dup1\n      iszero\n      tag_34\n      jumpi\n      0x00\n      dup1\n      revert\n    tag_34:\n      pop\n      tag_35\n      0x04\n      dup1\n      calldatasize\n      sub\n      dup2\n      add\n      swap1\n      tag_36\n      swap2\n      swap1\n      tag_25\n      jump\t// in\n    tag_36:\n      tag_37\n      jump\t// in\n    tag_35:\n      stop\n        /* \"contracts/guardian.sol\":197:225  uint public maxGuardians = 5 */\n    tag_7:\n      callvalue\n      dup1\n      iszero\n      tag_38\n      jumpi\n      0x00\n      dup1\n      revert\n    tag_38:\n      pop\n      tag_39\n      tag_40\n      jump\t// in\n    tag_39:\n      mload(0x40)\n      tag_41\n      swap2\n      swap1\n      tag_33\n      jump\t// in\n    tag_41:\n      mload(0x40)\n      dup1\n      swap2\n      sub\n      swap1\n      return\n        /* \"contracts/guardian.sol\":90:110  address public owner */\n    tag_8:\n      callvalue\n      dup1\n      iszero\n      tag_42\n      jumpi\n      0x00\n      dup1\n      revert\n    tag_42:\n      pop\n      tag_43\n      tag_44\n      jump\t// in\n    tag_43:\n      mload(0x40)\n      tag_45\n      swap2\n      swap1\n      tag_46\n      jump\t// in\n    tag_45:\n      mload(0x40)\n      dup1\n      swap2\n      sub\n      swap1\n      return\n        /* \"contracts/guardian.sol\":350:378  uint public votesForNewOwner */\n    tag_9:\n      callvalue\n      dup1\n      iszero\n      tag_47\n      jumpi\n      0x00\n      dup1\n      revert\n    tag_47:\n      pop\n      tag_48\n      tag_49\n      jump\t// in\n    tag_48:\n      mload(0x40)\n      tag_50\n      swap2\n      swap1\n      tag_33\n      jump\t// in\n    tag_50:\n      mload(0x40)\n      dup1\n      swap2\n      sub\n      swap1\n      return\n        /* \"contracts/guardian.sol\":1151:1485  function giveAllowance(address _guardian,uint _amount) public {... */\n    tag_10:\n      callvalue\n      dup1\n      iszero\n      tag_51\n      jumpi\n      0x00\n      dup1\n      revert\n    tag_51:\n      pop\n      tag_52\n      0x04\n      dup1\n      calldatasize\n      sub\n      dup2\n      add\n      swap1\n      tag_53\n      swap2\n      swap1\n      tag_54\n      jump\t// in\n    tag_53:\n      tag_55\n      jump\t// in\n    tag_52:\n      stop\n        /* \"contracts/guardian.sol\":1491:2026  function proposeNewOwner(address _newOwner) public {... */\n    tag_11:\n      callvalue\n      dup1\n      iszero\n      tag_56\n      jumpi\n      0x00\n      dup1\n      revert\n    tag_56:\n      pop\n      tag_57\n      0x04\n      dup1\n      calldatasize\n      sub\n      dup2\n      add\n      swap1\n      tag_58\n      swap2\n      swap1\n      tag_25\n      jump\t// in\n    tag_58:\n      tag_59\n      jump\t// in\n    tag_57:\n      stop\n        /* \"contracts/guardian.sol\":482:580  function geTotalBalance () public view returns(uint) {... */\n    tag_12:\n      callvalue\n      dup1\n      iszero\n      tag_60\n      jumpi\n      0x00\n      dup1\n      revert\n    tag_60:\n      pop\n      tag_61\n      tag_62\n      jump\t// in\n    tag_61:\n      mload(0x40)\n      tag_63\n      swap2\n      swap1\n      tag_33\n      jump\t// in\n    tag_63:\n      mload(0x40)\n      dup1\n      swap2\n      sub\n      swap1\n      return\n        /* \"contracts/guardian.sol\":321:344  address public newOwner */\n    tag_13:\n      callvalue\n      dup1\n      iszero\n      tag_64\n      jumpi\n      0x00\n      dup1\n      revert\n    tag_64:\n      pop\n      tag_65\n      tag_66\n      jump\t// in\n    tag_65:\n      mload(0x40)\n      tag_67\n      swap2\n      swap1\n      tag_46\n      jump\t// in\n    tag_67:\n      mload(0x40)\n      dup1\n      swap2\n      sub\n      swap1\n      return\n        /* \"contracts/guardian.sol\":586:867  function sendMoney(uint _amount, address payable _to) public {... */\n    tag_21:\n        /* \"contracts/guardian.sol\":676:697  address(this).balance */\n      selfbalance\n        /* \"contracts/guardian.sol\":665:672  _amount */\n      dup3\n        /* \"contracts/guardian.sol\":665:697  _amount <= address(this).balance */\n      gt\n      iszero\n        /* \"contracts/guardian.sol\":665:804  _amount <= address(this).balance && (msg.sender == owner || (guardians[msg.sender].isGuardian && guardians[msg.sender].balance >= _amount)) */\n      dup1\n      iszero\n      tag_69\n      jumpi\n      pop\n        /* \"contracts/guardian.sol\":716:721  owner */\n      0x00\n      dup1\n      sload\n      swap1\n      0x0100\n      exp\n      swap1\n      div\n      0xffffffffffffffffffffffffffffffffffffffff\n      and\n        /* \"contracts/guardian.sol\":702:721  msg.sender == owner */\n      0xffffffffffffffffffffffffffffffffffffffff\n      and\n        /* \"contracts/guardian.sol\":702:712  msg.sender */\n      caller\n        /* \"contracts/guardian.sol\":702:721  msg.sender == owner */\n      0xffffffffffffffffffffffffffffffffffffffff\n      and\n      eq\n        /* \"contracts/guardian.sol\":702:803  msg.sender == owner || (guardians[msg.sender].isGuardian && guardians[msg.sender].balance >= _amount) */\n      dup1\n      tag_70\n      jumpi\n      pop\n        /* \"contracts/guardian.sol\":726:735  guardians */\n      0x03\n        /* \"contracts/guardian.sol\":726:747  guardians[msg.sender] */\n      0x00\n        /* \"contracts/guardian.sol\":736:746  msg.sender */\n      caller\n        /* \"contracts/guardian.sol\":726:747  guardians[msg.sender] */\n      0xffffffffffffffffffffffffffffffffffffffff\n      and\n      0xffffffffffffffffffffffffffffffffffffffff\n      and\n      dup2\n      mstore\n      0x20\n      add\n      swap1\n      dup2\n      mstore\n      0x20\n      add\n      0x00\n      keccak256\n        /* \"contracts/guardian.sol\":726:758  guardians[msg.sender].isGuardian */\n      0x00\n      add\n      0x00\n      swap1\n      sload\n      swap1\n      0x0100\n      exp\n      swap1\n      div\n      0xff\n      and\n        /* \"contracts/guardian.sol\":726:802  guardians[msg.sender].isGuardian && guardians[msg.sender].balance >= _amount */\n      dup1\n      iszero\n      tag_71\n      jumpi\n      pop\n        /* \"contracts/guardian.sol\":795:802  _amount */\n      dup2\n        /* \"contracts/guardian.sol\":762:771  guardians */\n      0x03\n        /* \"contracts/guardian.sol\":762:783  guardians[msg.sender] */\n      0x00\n        /* \"contracts/guardian.sol\":772:782  msg.sender */\n      caller\n        /* \"contracts/guardian.sol\":762:783  guardians[msg.sender] */\n      0xffffffffffffffffffffffffffffffffffffffff\n      and\n      0xffffffffffffffffffffffffffffffffffffffff\n      and\n      dup2\n      mstore\n      0x20\n      add\n      swap1\n      dup2\n      mstore\n      0x20\n      add\n      0x00\n      keccak256\n        /* \"contracts/guardian.sol\":762:791  guardians[msg.sender].balance */\n      0x01\n      add\n      sload\n        /* \"contracts/guardian.sol\":762:802  guardians[msg.sender].balance >= _amount */\n      lt\n      iszero\n        /* \"contracts/guardian.sol\":726:802  guardians[msg.sender].isGuardian && guardians[msg.sender].balance >= _amount */\n    tag_71:\n        /* \"contracts/guardian.sol\":702:803  msg.sender == owner || (guardians[msg.sender].isGuardian && guardians[msg.sender].balance >= _amount) */\n    tag_70:\n        /* \"contracts/guardian.sol\":665:804  _amount <= address(this).balance && (msg.sender == owner || (guardians[msg.sender].isGuardian && guardians[msg.sender].balance >= _amount)) */\n    tag_69:\n        /* \"contracts/guardian.sol\":657:829  require(_amount <= address(this).balance && (msg.sender == owner || (guardians[msg.sender].isGuardian && guardians[msg.sender].balance >= _amount)), \"You have to be owner\") */\n      tag_72\n      jumpi\n      mload(0x40)\n      0x08c379a000000000000000000000000000000000000000000000000000000000\n      dup2\n      mstore\n      0x04\n      add\n      tag_73\n      swap1\n      tag_74\n      jump\t// in\n    tag_73:\n      mload(0x40)\n      dup1\n      swap2\n      sub\n      swap1\n      revert\n    tag_72:\n        /* \"contracts/guardian.sol\":839:842  _to */\n      dup1\n        /* \"contracts/guardian.sol\":839:851  _to.transfer */\n      0xffffffffffffffffffffffffffffffffffffffff\n      and\n        /* \"contracts/guardian.sol\":839:860  _to.transfer(_amount) */\n      0x08fc\n        /* \"contracts/guardian.sol\":852:859  _amount */\n      dup4\n        /* \"contracts/guardian.sol\":839:860  _to.transfer(_amount) */\n      swap1\n      dup2\n      iszero\n      mul\n      swap1\n      mload(0x40)\n      0x00\n      mload(0x40)\n      dup1\n      dup4\n      sub\n      dup2\n      dup6\n      dup9\n      dup9\n      call\n      swap4\n      pop\n      pop\n      pop\n      pop\n      iszero\n      dup1\n      iszero\n      tag_76\n      jumpi\n      returndatasize\n      0x00\n      dup1\n      returndatacopy\n      revert(0x00, returndatasize)\n    tag_76:\n      pop\n        /* \"contracts/guardian.sol\":586:867  function sendMoney(uint _amount, address payable _to) public {... */\n      pop\n      pop\n      jump\t// out\n        /* \"contracts/guardian.sol\":265:314  mapping(address => GuardianInfo) public guardians */\n    tag_26:\n      mstore(0x20, 0x03)\n      dup1\n      0x00\n      mstore\n      keccak256(0x00, 0x40)\n      0x00\n      swap2\n      pop\n      swap1\n      pop\n      dup1\n      0x00\n      add\n      0x00\n      swap1\n      sload\n      swap1\n      0x0100\n      exp\n      swap1\n      div\n      0xff\n      and\n      swap1\n      dup1\n      0x01\n      add\n      sload\n      swap1\n      pop\n      dup3\n      jump\t// out\n        /* \"contracts/guardian.sol\":231:259  uint public currentGuardians */\n    tag_31:\n      sload(0x02)\n      dup2\n      jump\t// out\n        /* \"contracts/guardian.sol\":873:1145  function addGuardain(address _guardian) public {... */\n    tag_37:\n        /* \"contracts/guardian.sol\":952:957  owner */\n      0x00\n      dup1\n      sload\n      swap1\n      0x0100\n      exp\n      swap1\n      div\n      0xffffffffffffffffffffffffffffffffffffffff\n      and\n        /* \"contracts/guardian.sol\":938:957  msg.sender == owner */\n      0xffffffffffffffffffffffffffffffffffffffff\n      and\n        /* \"contracts/guardian.sol\":938:948  msg.sender */\n      caller\n        /* \"contracts/guardian.sol\":938:957  msg.sender == owner */\n      0xffffffffffffffffffffffffffffffffffffffff\n      and\n      eq\n        /* \"contracts/guardian.sol\":938:992  msg.sender == owner && currentGuardians < maxGuardians */\n      dup1\n      iszero\n      tag_78\n      jumpi\n      pop\n        /* \"contracts/guardian.sol\":980:992  maxGuardians */\n      sload(0x01)\n        /* \"contracts/guardian.sol\":961:977  currentGuardians */\n      sload(0x02)\n        /* \"contracts/guardian.sol\":961:992  currentGuardians < maxGuardians */\n      lt\n        /* \"contracts/guardian.sol\":938:992  msg.sender == owner && currentGuardians < maxGuardians */\n    tag_78:\n        /* \"contracts/guardian.sol\":930:1061  require(msg.sender == owner && currentGuardians < maxGuardians, \"You needs to be owner. and can't be exceed than maximum guardian\") */\n      tag_79\n      jumpi\n      mload(0x40)\n      0x08c379a000000000000000000000000000000000000000000000000000000000\n      dup2\n      mstore\n      0x04\n      add\n      tag_80\n      swap1\n      tag_81\n      jump\t// in\n    tag_80:\n      mload(0x40)\n      dup1\n      swap2\n      sub\n      swap1\n      revert\n    tag_79:\n        /* \"contracts/guardian.sol\":1071:1087  currentGuardians */\n      0x02\n      0x00\n        /* \"contracts/guardian.sol\":1071:1089  currentGuardians++ */\n      dup2\n      sload\n      dup1\n      swap3\n      swap2\n      swap1\n      tag_82\n      swap1\n      tag_83\n      jump\t// in\n    tag_82:\n      swap2\n      swap1\n      pop\n      sstore\n      pop\n        /* \"contracts/guardian.sol\":1134:1138  true */\n      0x01\n        /* \"contracts/guardian.sol\":1099:1108  guardians */\n      0x03\n        /* \"contracts/guardian.sol\":1099:1119  guardians[_guardian] */\n      0x00\n        /* \"contracts/guardian.sol\":1109:1118  _guardian */\n      dup4\n        /* \"contracts/guardian.sol\":1099:1119  guardians[_guardian] */\n      0xffffffffffffffffffffffffffffffffffffffff\n      and\n      0xffffffffffffffffffffffffffffffffffffffff\n      and\n      dup2\n      mstore\n      0x20\n      add\n      swap1\n      dup2\n      mstore\n      0x20\n      add\n      0x00\n      keccak256\n        /* \"contracts/guardian.sol\":1099:1130  guardians[_guardian].isGuardian */\n      0x00\n      add\n      0x00\n        /* \"contracts/guardian.sol\":1099:1138  guardians[_guardian].isGuardian =  true */\n      0x0100\n      exp\n      dup2\n      sload\n      dup2\n      0xff\n      mul\n      not\n      and\n      swap1\n      dup4\n      iszero\n      iszero\n      mul\n      or\n      swap1\n      sstore\n      pop\n        /* \"contracts/guardian.sol\":873:1145  function addGuardain(address _guardian) public {... */\n      pop\n      jump\t// out\n        /* \"contracts/guardian.sol\":197:225  uint public maxGuardians = 5 */\n    tag_40:\n      sload(0x01)\n      dup2\n      jump\t// out\n        /* \"contracts/guardian.sol\":90:110  address public owner */\n    tag_44:\n      0x00\n      dup1\n      sload\n      swap1\n      0x0100\n      exp\n      swap1\n      div\n      0xffffffffffffffffffffffffffffffffffffffff\n      and\n      dup2\n      jump\t// out\n        /* \"contracts/guardian.sol\":350:378  uint public votesForNewOwner */\n    tag_49:\n      sload(0x05)\n      dup2\n      jump\t// out\n        /* \"contracts/guardian.sol\":1151:1485  function giveAllowance(address _guardian,uint _amount) public {... */\n    tag_55:\n        /* \"contracts/guardian.sol\":1245:1250  owner */\n      0x00\n      dup1\n      sload\n      swap1\n      0x0100\n      exp\n      swap1\n      div\n      0xffffffffffffffffffffffffffffffffffffffff\n      and\n        /* \"contracts/guardian.sol\":1231:1250  msg.sender == owner */\n      0xffffffffffffffffffffffffffffffffffffffff\n      and\n        /* \"contracts/guardian.sol\":1231:1241  msg.sender */\n      caller\n        /* \"contracts/guardian.sol\":1231:1250  msg.sender == owner */\n      0xffffffffffffffffffffffffffffffffffffffff\n      and\n      eq\n        /* \"contracts/guardian.sol\":1231:1285  msg.sender == owner && guardians[_guardian].isGuardian */\n      dup1\n      iszero\n      tag_85\n      jumpi\n      pop\n        /* \"contracts/guardian.sol\":1254:1263  guardians */\n      0x03\n        /* \"contracts/guardian.sol\":1254:1274  guardians[_guardian] */\n      0x00\n        /* \"contracts/guardian.sol\":1264:1273  _guardian */\n      dup4\n        /* \"contracts/guardian.sol\":1254:1274  guardians[_guardian] */\n      0xffffffffffffffffffffffffffffffffffffffff\n      and\n      0xffffffffffffffffffffffffffffffffffffffff\n      and\n      dup2\n      mstore\n      0x20\n      add\n      swap1\n      dup2\n      mstore\n      0x20\n      add\n      0x00\n      keccak256\n        /* \"contracts/guardian.sol\":1254:1285  guardians[_guardian].isGuardian */\n      0x00\n      add\n      0x00\n      swap1\n      sload\n      swap1\n      0x0100\n      exp\n      swap1\n      div\n      0xff\n      and\n        /* \"contracts/guardian.sol\":1231:1285  msg.sender == owner && guardians[_guardian].isGuardian */\n    tag_85:\n        /* \"contracts/guardian.sol\":1231:1321  msg.sender == owner && guardians[_guardian].isGuardian && _amount <= address(this).balance */\n      dup1\n      iszero\n      tag_86\n      jumpi\n      pop\n        /* \"contracts/guardian.sol\":1300:1321  address(this).balance */\n      selfbalance\n        /* \"contracts/guardian.sol\":1289:1296  _amount */\n      dup2\n        /* \"contracts/guardian.sol\":1289:1321  _amount <= address(this).balance */\n      gt\n      iszero\n        /* \"contracts/guardian.sol\":1231:1321  msg.sender == owner && guardians[_guardian].isGuardian && _amount <= address(this).balance */\n    tag_86:\n        /* \"contracts/guardian.sol\":1223:1430  require(msg.sender == owner && guardians[_guardian].isGuardian && _amount <= address(this).balance, \"You needs to be owner or must give one of the guardains and contract balance must be greater than amount\") */\n      tag_87\n      jumpi\n      mload(0x40)\n      0x08c379a000000000000000000000000000000000000000000000000000000000\n      dup2\n      mstore\n      0x04\n      add\n      tag_88\n      swap1\n      tag_89\n      jump\t// in\n    tag_88:\n      mload(0x40)\n      dup1\n      swap2\n      sub\n      swap1\n      revert\n    tag_87:\n        /* \"contracts/guardian.sol\":1471:1478  _amount */\n      dup1\n        /* \"contracts/guardian.sol\":1440:1449  guardians */\n      0x03\n        /* \"contracts/guardian.sol\":1440:1460  guardians[_guardian] */\n      0x00\n        /* \"contracts/guardian.sol\":1450:1459  _guardian */\n      dup5\n        /* \"contracts/guardian.sol\":1440:1460  guardians[_guardian] */\n      0xffffffffffffffffffffffffffffffffffffffff\n      and\n      0xffffffffffffffffffffffffffffffffffffffff\n      and\n      dup2\n      mstore\n      0x20\n      add\n      swap1\n      dup2\n      mstore\n      0x20\n      add\n      0x00\n      keccak256\n        /* \"contracts/guardian.sol\":1440:1468  guardians[_guardian].balance */\n      0x01\n      add\n        /* \"contracts/guardian.sol\":1440:1478  guardians[_guardian].balance = _amount */\n      dup2\n      swap1\n      sstore\n      pop\n        /* \"contracts/guardian.sol\":1151:1485  function giveAllowance(address _guardian,uint _amount) public {... */\n      pop\n      pop\n      jump\t// out\n        /* \"contracts/guardian.sol\":1491:2026  function proposeNewOwner(address _newOwner) public {... */\n    tag_59:\n        /* \"contracts/guardian.sol\":1560:1569  guardians */\n      0x03\n        /* \"contracts/guardian.sol\":1560:1581  guardians[msg.sender] */\n      0x00\n        /* \"contracts/guardian.sol\":1570:1580  msg.sender */\n      caller\n        /* \"contracts/guardian.sol\":1560:1581  guardians[msg.sender] */\n      0xffffffffffffffffffffffffffffffffffffffff\n      and\n      0xffffffffffffffffffffffffffffffffffffffff\n      and\n      dup2\n      mstore\n      0x20\n      add\n      swap1\n      dup2\n      mstore\n      0x20\n      add\n      0x00\n      keccak256\n        /* \"contracts/guardian.sol\":1560:1592  guardians[msg.sender].isGuardian */\n      0x00\n      add\n      0x00\n      swap1\n      sload\n      swap1\n      0x0100\n      exp\n      swap1\n      div\n      0xff\n      and\n        /* \"contracts/guardian.sol\":1560:1619  guardians[msg.sender].isGuardian && _newOwner != address(0) */\n      dup1\n      iszero\n      tag_91\n      jumpi\n      pop\n        /* \"contracts/guardian.sol\":1617:1618  0 */\n      0x00\n        /* \"contracts/guardian.sol\":1596:1619  _newOwner != address(0) */\n      0xffffffffffffffffffffffffffffffffffffffff\n      and\n        /* \"contracts/guardian.sol\":1596:1605  _newOwner */\n      dup2\n        /* \"contracts/guardian.sol\":1596:1619  _newOwner != address(0) */\n      0xffffffffffffffffffffffffffffffffffffffff\n      and\n      eq\n      iszero\n        /* \"contracts/guardian.sol\":1560:1619  guardians[msg.sender].isGuardian && _newOwner != address(0) */\n    tag_91:\n        /* \"contracts/guardian.sol\":1552:1656  require(guardians[msg.sender].isGuardian && _newOwner != address(0), \"You needs to be guardian to vote\") */\n      tag_92\n      jumpi\n      mload(0x40)\n      0x08c379a000000000000000000000000000000000000000000000000000000000\n      dup2\n      mstore\n      0x04\n      add\n      tag_93\n      swap1\n      tag_94\n      jump\t// in\n    tag_93:\n      mload(0x40)\n      dup1\n      swap2\n      sub\n      swap1\n      revert\n    tag_92:\n        /* \"contracts/guardian.sol\":1690:1691  0 */\n      0x00\n        /* \"contracts/guardian.sol\":1670:1692  newOwner != address(0) */\n      0xffffffffffffffffffffffffffffffffffffffff\n      and\n        /* \"contracts/guardian.sol\":1670:1678  newOwner */\n      0x04\n      0x00\n      swap1\n      sload\n      swap1\n      0x0100\n      exp\n      swap1\n      div\n      0xffffffffffffffffffffffffffffffffffffffff\n      and\n        /* \"contracts/guardian.sol\":1670:1692  newOwner != address(0) */\n      0xffffffffffffffffffffffffffffffffffffffff\n      and\n      eq\n        /* \"contracts/guardian.sol\":1666:1797  if (newOwner != address(0)){... */\n      tag_95\n      jumpi\n        /* \"contracts/guardian.sol\":1723:1732  _newOwner */\n      dup1\n        /* \"contracts/guardian.sol\":1711:1732  newOwner != _newOwner */\n      0xffffffffffffffffffffffffffffffffffffffff\n      and\n        /* \"contracts/guardian.sol\":1711:1719  newOwner */\n      0x04\n      0x00\n      swap1\n      sload\n      swap1\n      0x0100\n      exp\n      swap1\n      div\n      0xffffffffffffffffffffffffffffffffffffffff\n      and\n        /* \"contracts/guardian.sol\":1711:1732  newOwner != _newOwner */\n      0xffffffffffffffffffffffffffffffffffffffff\n      and\n      eq\n        /* \"contracts/guardian.sol\":1707:1787  if (newOwner != _newOwner) {... */\n      tag_96\n      jumpi\n        /* \"contracts/guardian.sol\":1771:1772  0 */\n      0x00\n        /* \"contracts/guardian.sol\":1752:1768  votesForNewOwner */\n      0x05\n        /* \"contracts/guardian.sol\":1752:1772  votesForNewOwner = 0 */\n      dup2\n      swap1\n      sstore\n      pop\n        /* \"contracts/guardian.sol\":1707:1787  if (newOwner != _newOwner) {... */\n    tag_96:\n        /* \"contracts/guardian.sol\":1666:1797  if (newOwner != address(0)){... */\n    tag_95:\n        /* \"contracts/guardian.sol\":1817:1826  _newOwner */\n      dup1\n        /* \"contracts/guardian.sol\":1806:1814  newOwner */\n      0x04\n      0x00\n        /* \"contracts/guardian.sol\":1806:1826  newOwner = _newOwner */\n      0x0100\n      exp\n      dup2\n      sload\n      dup2\n      0xffffffffffffffffffffffffffffffffffffffff\n      mul\n      not\n      and\n      swap1\n      dup4\n      0xffffffffffffffffffffffffffffffffffffffff\n      and\n      mul\n      or\n      swap1\n      sstore\n      pop\n        /* \"contracts/guardian.sol\":1836:1852  votesForNewOwner */\n      0x05\n      0x00\n        /* \"contracts/guardian.sol\":1836:1854  votesForNewOwner++ */\n      dup2\n      sload\n      dup1\n      swap3\n      swap2\n      swap1\n      tag_97\n      swap1\n      tag_83\n      jump\t// in\n    tag_97:\n      swap2\n      swap1\n      pop\n      sstore\n      pop\n        /* \"contracts/guardian.sol\":1906:1908  50 */\n      0x32\n        /* \"contracts/guardian.sol\":1891:1903  maxGuardians */\n      sload(0x01)\n        /* \"contracts/guardian.sol\":1885:1888  100 */\n      0x64\n        /* \"contracts/guardian.sol\":1868:1884  votesForNewOwner */\n      sload(0x05)\n        /* \"contracts/guardian.sol\":1868:1888  votesForNewOwner*100 */\n      tag_98\n      swap2\n      swap1\n      tag_99\n      jump\t// in\n    tag_98:\n        /* \"contracts/guardian.sol\":1868:1903  votesForNewOwner*100 / maxGuardians */\n      tag_100\n      swap2\n      swap1\n      tag_101\n      jump\t// in\n    tag_100:\n        /* \"contracts/guardian.sol\":1868:1908  votesForNewOwner*100 / maxGuardians > 50 */\n      gt\n        /* \"contracts/guardian.sol\":1864:2020  if (votesForNewOwner*100 / maxGuardians > 50) {... */\n      iszero\n      tag_102\n      jumpi\n        /* \"contracts/guardian.sol\":1932:1940  newOwner */\n      0x04\n      0x00\n      swap1\n      sload\n      swap1\n      0x0100\n      exp\n      swap1\n      div\n      0xffffffffffffffffffffffffffffffffffffffff\n      and\n        /* \"contracts/guardian.sol\":1924:1929  owner */\n      0x00\n      dup1\n        /* \"contracts/guardian.sol\":1924:1940  owner = newOwner */\n      0x0100\n      exp\n      dup2\n      sload\n      dup2\n      0xffffffffffffffffffffffffffffffffffffffff\n      mul\n      not\n      and\n      swap1\n      dup4\n      0xffffffffffffffffffffffffffffffffffffffff\n      and\n      mul\n      or\n      swap1\n      sstore\n      pop\n        /* \"contracts/guardian.sol\":1973:1974  0 */\n      0x00\n        /* \"contracts/guardian.sol\":1954:1962  newOwner */\n      0x04\n      0x00\n        /* \"contracts/guardian.sol\":1954:1975  newOwner = address(0) */\n      0x0100\n      exp\n      dup2\n      sload\n      dup2\n      0xffffffffffffffffffffffffffffffffffffffff\n      mul\n      not\n      and\n      swap1\n      dup4\n      0xffffffffffffffffffffffffffffffffffffffff\n      and\n      mul\n      or\n      swap1\n      sstore\n      pop\n        /* \"contracts/guardian.sol\":2008:2009  0 */\n      0x00\n        /* \"contracts/guardian.sol\":1989:2005  votesForNewOwner */\n      0x05\n        /* \"contracts/guardian.sol\":1989:2009  votesForNewOwner = 0 */\n      dup2\n      swap1\n      sstore\n      pop\n        /* \"contracts/guardian.sol\":1864:2020  if (votesForNewOwner*100 / maxGuardians > 50) {... */\n    tag_102:\n        /* \"contracts/guardian.sol\":1491:2026  function proposeNewOwner(address _newOwner) public {... */\n      pop\n      jump\t// out\n        /* \"contracts/guardian.sol\":482:580  function geTotalBalance () public view returns(uint) {... */\n    tag_62:\n        /* \"contracts/guardian.sol\":529:533  uint */\n      0x00\n        /* \"contracts/guardian.sol\":552:573  address(this).balance */\n      selfbalance\n        /* \"contracts/guardian.sol\":545:573  return address(this).balance */\n      swap1\n      pop\n        /* \"contracts/guardian.sol\":482:580  function geTotalBalance () public view returns(uint) {... */\n      swap1\n      jump\t// out\n        /* \"contracts/guardian.sol\":321:344  address public newOwner */\n    tag_66:\n      0x04\n      0x00\n      swap1\n      sload\n      swap1\n      0x0100\n      exp\n      swap1\n      div\n      0xffffffffffffffffffffffffffffffffffffffff\n      and\n      dup2\n      jump\t// out\n        /* \"#utility.yul\":88:205   */\n    tag_105:\n        /* \"#utility.yul\":197:198   */\n      0x00\n        /* \"#utility.yul\":194:195   */\n      dup1\n        /* \"#utility.yul\":187:199   */\n      revert\n        /* \"#utility.yul\":334:411   */\n    tag_107:\n        /* \"#utility.yul\":371:378   */\n      0x00\n        /* \"#utility.yul\":400:405   */\n      dup2\n        /* \"#utility.yul\":389:405   */\n      swap1\n      pop\n        /* \"#utility.yul\":334:411   */\n      swap2\n      swap1\n      pop\n      jump\t// out\n        /* \"#utility.yul\":417:539   */\n    tag_108:\n        /* \"#utility.yul\":490:514   */\n      tag_138\n        /* \"#utility.yul\":508:513   */\n      dup2\n        /* \"#utility.yul\":490:514   */\n      tag_107\n      jump\t// in\n    tag_138:\n        /* \"#utility.yul\":483:488   */\n      dup2\n        /* \"#utility.yul\":480:515   */\n      eq\n        /* \"#utility.yul\":470:533   */\n      tag_139\n      jumpi\n        /* \"#utility.yul\":529:530   */\n      0x00\n        /* \"#utility.yul\":526:527   */\n      dup1\n        /* \"#utility.yul\":519:531   */\n      revert\n        /* \"#utility.yul\":470:533   */\n    tag_139:\n        /* \"#utility.yul\":417:539   */\n      pop\n      jump\t// out\n        /* \"#utility.yul\":545:684   */\n    tag_109:\n        /* \"#utility.yul\":591:596   */\n      0x00\n        /* \"#utility.yul\":629:635   */\n      dup2\n        /* \"#utility.yul\":616:636   */\n      calldataload\n        /* \"#utility.yul\":607:636   */\n      swap1\n      pop\n        /* \"#utility.yul\":645:678   */\n      tag_141\n        /* \"#utility.yul\":672:677   */\n      dup2\n        /* \"#utility.yul\":645:678   */\n      tag_108\n      jump\t// in\n    tag_141:\n        /* \"#utility.yul\":545:684   */\n      swap3\n      swap2\n      pop\n      pop\n      jump\t// out\n        /* \"#utility.yul\":690:816   */\n    tag_110:\n        /* \"#utility.yul\":727:734   */\n      0x00\n        /* \"#utility.yul\":767:809   */\n      0xffffffffffffffffffffffffffffffffffffffff\n        /* \"#utility.yul\":760:765   */\n      dup3\n        /* \"#utility.yul\":756:810   */\n      and\n        /* \"#utility.yul\":745:810   */\n      swap1\n      pop\n        /* \"#utility.yul\":690:816   */\n      swap2\n      swap1\n      pop\n      jump\t// out\n        /* \"#utility.yul\":822:926   */\n    tag_111:\n        /* \"#utility.yul\":867:874   */\n      0x00\n        /* \"#utility.yul\":896:920   */\n      tag_144\n        /* \"#utility.yul\":914:919   */\n      dup3\n        /* \"#utility.yul\":896:920   */\n      tag_110\n      jump\t// in\n    tag_144:\n        /* \"#utility.yul\":885:920   */\n      swap1\n      pop\n        /* \"#utility.yul\":822:926   */\n      swap2\n      swap1\n      pop\n      jump\t// out\n        /* \"#utility.yul\":932:1070   */\n    tag_112:\n        /* \"#utility.yul\":1013:1045   */\n      tag_146\n        /* \"#utility.yul\":1039:1044   */\n      dup2\n        /* \"#utility.yul\":1013:1045   */\n      tag_111\n      jump\t// in\n    tag_146:\n        /* \"#utility.yul\":1006:1011   */\n      dup2\n        /* \"#utility.yul\":1003:1046   */\n      eq\n        /* \"#utility.yul\":993:1064   */\n      tag_147\n      jumpi\n        /* \"#utility.yul\":1060:1061   */\n      0x00\n        /* \"#utility.yul\":1057:1058   */\n      dup1\n        /* \"#utility.yul\":1050:1062   */\n      revert\n        /* \"#utility.yul\":993:1064   */\n    tag_147:\n        /* \"#utility.yul\":932:1070   */\n      pop\n      jump\t// out\n        /* \"#utility.yul\":1076:1231   */\n    tag_113:\n        /* \"#utility.yul\":1130:1135   */\n      0x00\n        /* \"#utility.yul\":1168:1174   */\n      dup2\n        /* \"#utility.yul\":1155:1175   */\n      calldataload\n        /* \"#utility.yul\":1146:1175   */\n      swap1\n      pop\n        /* \"#utility.yul\":1184:1225   */\n      tag_149\n        /* \"#utility.yul\":1219:1224   */\n      dup2\n        /* \"#utility.yul\":1184:1225   */\n      tag_112\n      jump\t// in\n    tag_149:\n        /* \"#utility.yul\":1076:1231   */\n      swap3\n      swap2\n      pop\n      pop\n      jump\t// out\n        /* \"#utility.yul\":1237:1727   */\n    tag_20:\n        /* \"#utility.yul\":1313:1319   */\n      0x00\n        /* \"#utility.yul\":1321:1327   */\n      dup1\n        /* \"#utility.yul\":1370:1372   */\n      0x40\n        /* \"#utility.yul\":1358:1367   */\n      dup4\n        /* \"#utility.yul\":1349:1356   */\n      dup6\n        /* \"#utility.yul\":1345:1368   */\n      sub\n        /* \"#utility.yul\":1341:1373   */\n      slt\n        /* \"#utility.yul\":1338:1457   */\n      iszero\n      tag_151\n      jumpi\n        /* \"#utility.yul\":1376:1455   */\n      tag_152\n      tag_105\n      jump\t// in\n    tag_152:\n        /* \"#utility.yul\":1338:1457   */\n    tag_151:\n        /* \"#utility.yul\":1496:1497   */\n      0x00\n        /* \"#utility.yul\":1521:1574   */\n      tag_153\n        /* \"#utility.yul\":1566:1573   */\n      dup6\n        /* \"#utility.yul\":1557:1563   */\n      dup3\n        /* \"#utility.yul\":1546:1555   */\n      dup7\n        /* \"#utility.yul\":1542:1564   */\n      add\n        /* \"#utility.yul\":1521:1574   */\n      tag_109\n      jump\t// in\n    tag_153:\n        /* \"#utility.yul\":1511:1574   */\n      swap3\n      pop\n        /* \"#utility.yul\":1467:1584   */\n      pop\n        /* \"#utility.yul\":1623:1625   */\n      0x20\n        /* \"#utility.yul\":1649:1710   */\n      tag_154\n        /* \"#utility.yul\":1702:1709   */\n      dup6\n        /* \"#utility.yul\":1693:1699   */\n      dup3\n        /* \"#utility.yul\":1682:1691   */\n      dup7\n        /* \"#utility.yul\":1678:1700   */\n      add\n        /* \"#utility.yul\":1649:1710   */\n      tag_113\n      jump\t// in\n    tag_154:\n        /* \"#utility.yul\":1639:1710   */\n      swap2\n      pop\n        /* \"#utility.yul\":1594:1720   */\n      pop\n        /* \"#utility.yul\":1237:1727   */\n      swap3\n      pop\n      swap3\n      swap1\n      pop\n      jump\t// out\n        /* \"#utility.yul\":1733:1829   */\n    tag_114:\n        /* \"#utility.yul\":1770:1777   */\n      0x00\n        /* \"#utility.yul\":1799:1823   */\n      tag_156\n        /* \"#utility.yul\":1817:1822   */\n      dup3\n        /* \"#utility.yul\":1799:1823   */\n      tag_110\n      jump\t// in\n    tag_156:\n        /* \"#utility.yul\":1788:1823   */\n      swap1\n      pop\n        /* \"#utility.yul\":1733:1829   */\n      swap2\n      swap1\n      pop\n      jump\t// out\n        /* \"#utility.yul\":1835:1957   */\n    tag_115:\n        /* \"#utility.yul\":1908:1932   */\n      tag_158\n        /* \"#utility.yul\":1926:1931   */\n      dup2\n        /* \"#utility.yul\":1908:1932   */\n      tag_114\n      jump\t// in\n    tag_158:\n        /* \"#utility.yul\":1901:1906   */\n      dup2\n        /* \"#utility.yul\":1898:1933   */\n      eq\n        /* \"#utility.yul\":1888:1951   */\n      tag_159\n      jumpi\n        /* \"#utility.yul\":1947:1948   */\n      0x00\n        /* \"#utility.yul\":1944:1945   */\n      dup1\n        /* \"#utility.yul\":1937:1949   */\n      revert\n        /* \"#utility.yul\":1888:1951   */\n    tag_159:\n        /* \"#utility.yul\":1835:1957   */\n      pop\n      jump\t// out\n        /* \"#utility.yul\":1963:2102   */\n    tag_116:\n        /* \"#utility.yul\":2009:2014   */\n      0x00\n        /* \"#utility.yul\":2047:2053   */\n      dup2\n        /* \"#utility.yul\":2034:2054   */\n      calldataload\n        /* \"#utility.yul\":2025:2054   */\n      swap1\n      pop\n        /* \"#utility.yul\":2063:2096   */\n      tag_161\n        /* \"#utility.yul\":2090:2095   */\n      dup2\n        /* \"#utility.yul\":2063:2096   */\n      tag_115\n      jump\t// in\n    tag_161:\n        /* \"#utility.yul\":1963:2102   */\n      swap3\n      swap2\n      pop\n      pop\n      jump\t// out\n        /* \"#utility.yul\":2108:2437   */\n    tag_25:\n        /* \"#utility.yul\":2167:2173   */\n      0x00\n        /* \"#utility.yul\":2216:2218   */\n      0x20\n        /* \"#utility.yul\":2204:2213   */\n      dup3\n        /* \"#utility.yul\":2195:2202   */\n      dup5\n        /* \"#utility.yul\":2191:2214   */\n      sub\n        /* \"#utility.yul\":2187:2219   */\n      slt\n        /* \"#utility.yul\":2184:2303   */\n      iszero\n      tag_163\n      jumpi\n        /* \"#utility.yul\":2222:2301   */\n      tag_164\n      tag_105\n      jump\t// in\n    tag_164:\n        /* \"#utility.yul\":2184:2303   */\n    tag_163:\n        /* \"#utility.yul\":2342:2343   */\n      0x00\n        /* \"#utility.yul\":2367:2420   */\n      tag_165\n        /* \"#utility.yul\":2412:2419   */\n      dup5\n        /* \"#utility.yul\":2403:2409   */\n      dup3\n        /* \"#utility.yul\":2392:2401   */\n      dup6\n        /* \"#utility.yul\":2388:2410   */\n      add\n        /* \"#utility.yul\":2367:2420   */\n      tag_116\n      jump\t// in\n    tag_165:\n        /* \"#utility.yul\":2357:2420   */\n      swap2\n      pop\n        /* \"#utility.yul\":2313:2430   */\n      pop\n        /* \"#utility.yul\":2108:2437   */\n      swap3\n      swap2\n      pop\n      pop\n      jump\t// out\n        /* \"#utility.yul\":2443:2533   */\n    tag_117:\n        /* \"#utility.yul\":2477:2484   */\n      0x00\n        /* \"#utility.yul\":2520:2525   */\n      dup2\n        /* \"#utility.yul\":2513:2526   */\n      iszero\n        /* \"#utility.yul\":2506:2527   */\n      iszero\n        /* \"#utility.yul\":2495:2527   */\n      swap1\n      pop\n        /* \"#utility.yul\":2443:2533   */\n      swap2\n      swap1\n      pop\n      jump\t// out\n        /* \"#utility.yul\":2539:2648   */\n    tag_118:\n        /* \"#utility.yul\":2620:2641   */\n      tag_168\n        /* \"#utility.yul\":2635:2640   */\n      dup2\n        /* \"#utility.yul\":2620:2641   */\n      tag_117\n      jump\t// in\n    tag_168:\n        /* \"#utility.yul\":2615:2618   */\n      dup3\n        /* \"#utility.yul\":2608:2642   */\n      mstore\n        /* \"#utility.yul\":2539:2648   */\n      pop\n      pop\n      jump\t// out\n        /* \"#utility.yul\":2654:2772   */\n    tag_119:\n        /* \"#utility.yul\":2741:2765   */\n      tag_170\n        /* \"#utility.yul\":2759:2764   */\n      dup2\n        /* \"#utility.yul\":2741:2765   */\n      tag_107\n      jump\t// in\n    tag_170:\n        /* \"#utility.yul\":2736:2739   */\n      dup3\n        /* \"#utility.yul\":2729:2766   */\n      mstore\n        /* \"#utility.yul\":2654:2772   */\n      pop\n      pop\n      jump\t// out\n        /* \"#utility.yul\":2778:3098   */\n    tag_28:\n        /* \"#utility.yul\":2893:2897   */\n      0x00\n        /* \"#utility.yul\":2931:2933   */\n      0x40\n        /* \"#utility.yul\":2920:2929   */\n      dup3\n        /* \"#utility.yul\":2916:2934   */\n      add\n        /* \"#utility.yul\":2908:2934   */\n      swap1\n      pop\n        /* \"#utility.yul\":2944:3009   */\n      tag_172\n        /* \"#utility.yul\":3006:3007   */\n      0x00\n        /* \"#utility.yul\":2995:3004   */\n      dup4\n        /* \"#utility.yul\":2991:3008   */\n      add\n        /* \"#utility.yul\":2982:2988   */\n      dup6\n        /* \"#utility.yul\":2944:3009   */\n      tag_118\n      jump\t// in\n    tag_172:\n        /* \"#utility.yul\":3019:3091   */\n      tag_173\n        /* \"#utility.yul\":3087:3089   */\n      0x20\n        /* \"#utility.yul\":3076:3085   */\n      dup4\n        /* \"#utility.yul\":3072:3090   */\n      add\n        /* \"#utility.yul\":3063:3069   */\n      dup5\n        /* \"#utility.yul\":3019:3091   */\n      tag_119\n      jump\t// in\n    tag_173:\n        /* \"#utility.yul\":2778:3098   */\n      swap4\n      swap3\n      pop\n      pop\n      pop\n      jump\t// out\n        /* \"#utility.yul\":3104:3326   */\n    tag_33:\n        /* \"#utility.yul\":3197:3201   */\n      0x00\n        /* \"#utility.yul\":3235:3237   */\n      0x20\n        /* \"#utility.yul\":3224:3233   */\n      dup3\n        /* \"#utility.yul\":3220:3238   */\n      add\n        /* \"#utility.yul\":3212:3238   */\n      swap1\n      pop\n        /* \"#utility.yul\":3248:3319   */\n      tag_175\n        /* \"#utility.yul\":3316:3317   */\n      0x00\n        /* \"#utility.yul\":3305:3314   */\n      dup4\n        /* \"#utility.yul\":3301:3318   */\n      add\n        /* \"#utility.yul\":3292:3298   */\n      dup5\n        /* \"#utility.yul\":3248:3319   */\n      tag_119\n      jump\t// in\n    tag_175:\n        /* \"#utility.yul\":3104:3326   */\n      swap3\n      swap2\n      pop\n      pop\n      jump\t// out\n        /* \"#utility.yul\":3332:3450   */\n    tag_120:\n        /* \"#utility.yul\":3419:3443   */\n      tag_177\n        /* \"#utility.yul\":3437:3442   */\n      dup2\n        /* \"#utility.yul\":3419:3443   */\n      tag_114\n      jump\t// in\n    tag_177:\n        /* \"#utility.yul\":3414:3417   */\n      dup3\n        /* \"#utility.yul\":3407:3444   */\n      mstore\n        /* \"#utility.yul\":3332:3450   */\n      pop\n      pop\n      jump\t// out\n        /* \"#utility.yul\":3456:3678   */\n    tag_46:\n        /* \"#utility.yul\":3549:3553   */\n      0x00\n        /* \"#utility.yul\":3587:3589   */\n      0x20\n        /* \"#utility.yul\":3576:3585   */\n      dup3\n        /* \"#utility.yul\":3572:3590   */\n      add\n        /* \"#utility.yul\":3564:3590   */\n      swap1\n      pop\n        /* \"#utility.yul\":3600:3671   */\n      tag_179\n        /* \"#utility.yul\":3668:3669   */\n      0x00\n        /* \"#utility.yul\":3657:3666   */\n      dup4\n        /* \"#utility.yul\":3653:3670   */\n      add\n        /* \"#utility.yul\":3644:3650   */\n      dup5\n        /* \"#utility.yul\":3600:3671   */\n      tag_120\n      jump\t// in\n    tag_179:\n        /* \"#utility.yul\":3456:3678   */\n      swap3\n      swap2\n      pop\n      pop\n      jump\t// out\n        /* \"#utility.yul\":3684:4158   */\n    tag_54:\n        /* \"#utility.yul\":3752:3758   */\n      0x00\n        /* \"#utility.yul\":3760:3766   */\n      dup1\n        /* \"#utility.yul\":3809:3811   */\n      0x40\n        /* \"#utility.yul\":3797:3806   */\n      dup4\n        /* \"#utility.yul\":3788:3795   */\n      dup6\n        /* \"#utility.yul\":3784:3807   */\n      sub\n        /* \"#utility.yul\":3780:3812   */\n      slt\n        /* \"#utility.yul\":3777:3896   */\n      iszero\n      tag_181\n      jumpi\n        /* \"#utility.yul\":3815:3894   */\n      tag_182\n      tag_105\n      jump\t// in\n    tag_182:\n        /* \"#utility.yul\":3777:3896   */\n    tag_181:\n        /* \"#utility.yul\":3935:3936   */\n      0x00\n        /* \"#utility.yul\":3960:4013   */\n      tag_183\n        /* \"#utility.yul\":4005:4012   */\n      dup6\n        /* \"#utility.yul\":3996:4002   */\n      dup3\n        /* \"#utility.yul\":3985:3994   */\n      dup7\n        /* \"#utility.yul\":3981:4003   */\n      add\n        /* \"#utility.yul\":3960:4013   */\n      tag_116\n      jump\t// in\n    tag_183:\n        /* \"#utility.yul\":3950:4013   */\n      swap3\n      pop\n        /* \"#utility.yul\":3906:4023   */\n      pop\n        /* \"#utility.yul\":4062:4064   */\n      0x20\n        /* \"#utility.yul\":4088:4141   */\n      tag_184\n        /* \"#utility.yul\":4133:4140   */\n      dup6\n        /* \"#utility.yul\":4124:4130   */\n      dup3\n        /* \"#utility.yul\":4113:4122   */\n      dup7\n        /* \"#utility.yul\":4109:4131   */\n      add\n        /* \"#utility.yul\":4088:4141   */\n      tag_109\n      jump\t// in\n    tag_184:\n        /* \"#utility.yul\":4078:4141   */\n      swap2\n      pop\n        /* \"#utility.yul\":4033:4151   */\n      pop\n        /* \"#utility.yul\":3684:4158   */\n      swap3\n      pop\n      swap3\n      swap1\n      pop\n      jump\t// out\n        /* \"#utility.yul\":4164:4333   */\n    tag_121:\n        /* \"#utility.yul\":4248:4259   */\n      0x00\n        /* \"#utility.yul\":4282:4288   */\n      dup3\n        /* \"#utility.yul\":4277:4280   */\n      dup3\n        /* \"#utility.yul\":4270:4289   */\n      mstore\n        /* \"#utility.yul\":4322:4326   */\n      0x20\n        /* \"#utility.yul\":4317:4320   */\n      dup3\n        /* \"#utility.yul\":4313:4327   */\n      add\n        /* \"#utility.yul\":4298:4327   */\n      swap1\n      pop\n        /* \"#utility.yul\":4164:4333   */\n      swap3\n      swap2\n      pop\n      pop\n      jump\t// out\n        /* \"#utility.yul\":4339:4509   */\n    tag_122:\n        /* \"#utility.yul\":4479:4501   */\n      0x596f75206861766520746f206265206f776e6572000000000000000000000000\n        /* \"#utility.yul\":4475:4476   */\n      0x00\n        /* \"#utility.yul\":4467:4473   */\n      dup3\n        /* \"#utility.yul\":4463:4477   */\n      add\n        /* \"#utility.yul\":4456:4502   */\n      mstore\n        /* \"#utility.yul\":4339:4509   */\n      pop\n      jump\t// out\n        /* \"#utility.yul\":4515:4881   */\n    tag_123:\n        /* \"#utility.yul\":4657:4660   */\n      0x00\n        /* \"#utility.yul\":4678:4745   */\n      tag_188\n        /* \"#utility.yul\":4742:4744   */\n      0x14\n        /* \"#utility.yul\":4737:4740   */\n      dup4\n        /* \"#utility.yul\":4678:4745   */\n      tag_121\n      jump\t// in\n    tag_188:\n        /* \"#utility.yul\":4671:4745   */\n      swap2\n      pop\n        /* \"#utility.yul\":4754:4847   */\n      tag_189\n        /* \"#utility.yul\":4843:4846   */\n      dup3\n        /* \"#utility.yul\":4754:4847   */\n      tag_122\n      jump\t// in\n    tag_189:\n        /* \"#utility.yul\":4872:4874   */\n      0x20\n        /* \"#utility.yul\":4867:4870   */\n      dup3\n        /* \"#utility.yul\":4863:4875   */\n      add\n        /* \"#utility.yul\":4856:4875   */\n      swap1\n      pop\n        /* \"#utility.yul\":4515:4881   */\n      swap2\n      swap1\n      pop\n      jump\t// out\n        /* \"#utility.yul\":4887:5306   */\n    tag_74:\n        /* \"#utility.yul\":5053:5057   */\n      0x00\n        /* \"#utility.yul\":5091:5093   */\n      0x20\n        /* \"#utility.yul\":5080:5089   */\n      dup3\n        /* \"#utility.yul\":5076:5094   */\n      add\n        /* \"#utility.yul\":5068:5094   */\n      swap1\n      pop\n        /* \"#utility.yul\":5140:5149   */\n      dup2\n        /* \"#utility.yul\":5134:5138   */\n      dup2\n        /* \"#utility.yul\":5130:5150   */\n      sub\n        /* \"#utility.yul\":5126:5127   */\n      0x00\n        /* \"#utility.yul\":5115:5124   */\n      dup4\n        /* \"#utility.yul\":5111:5128   */\n      add\n        /* \"#utility.yul\":5104:5151   */\n      mstore\n        /* \"#utility.yul\":5168:5299   */\n      tag_191\n        /* \"#utility.yul\":5294:5298   */\n      dup2\n        /* \"#utility.yul\":5168:5299   */\n      tag_123\n      jump\t// in\n    tag_191:\n        /* \"#utility.yul\":5160:5299   */\n      swap1\n      pop\n        /* \"#utility.yul\":4887:5306   */\n      swap2\n      swap1\n      pop\n      jump\t// out\n        /* \"#utility.yul\":5312:5563   */\n    tag_124:\n        /* \"#utility.yul\":5452:5486   */\n      0x596f75206e6565647320746f206265206f776e65722e20616e642063616e2774\n        /* \"#utility.yul\":5448:5449   */\n      0x00\n        /* \"#utility.yul\":5440:5446   */\n      dup3\n        /* \"#utility.yul\":5436:5450   */\n      add\n        /* \"#utility.yul\":5429:5487   */\n      mstore\n        /* \"#utility.yul\":5521:5555   */\n      0x20626520657863656564207468616e206d6178696d756d20677561726469616e\n        /* \"#utility.yul\":5516:5518   */\n      0x20\n        /* \"#utility.yul\":5508:5514   */\n      dup3\n        /* \"#utility.yul\":5504:5519   */\n      add\n        /* \"#utility.yul\":5497:5556   */\n      mstore\n        /* \"#utility.yul\":5312:5563   */\n      pop\n      jump\t// out\n        /* \"#utility.yul\":5569:5935   */\n    tag_125:\n        /* \"#utility.yul\":5711:5714   */\n      0x00\n        /* \"#utility.yul\":5732:5799   */\n      tag_194\n        /* \"#utility.yul\":5796:5798   */\n      0x40\n        /* \"#utility.yul\":5791:5794   */\n      dup4\n        /* \"#utility.yul\":5732:5799   */\n      tag_121\n      jump\t// in\n    tag_194:\n        /* \"#utility.yul\":5725:5799   */\n      swap2\n      pop\n        /* \"#utility.yul\":5808:5901   */\n      tag_195\n        /* \"#utility.yul\":5897:5900   */\n      dup3\n        /* \"#utility.yul\":5808:5901   */\n      tag_124\n      jump\t// in\n    tag_195:\n        /* \"#utility.yul\":5926:5928   */\n      0x40\n        /* \"#utility.yul\":5921:5924   */\n      dup3\n        /* \"#utility.yul\":5917:5929   */\n      add\n        /* \"#utility.yul\":5910:5929   */\n      swap1\n      pop\n        /* \"#utility.yul\":5569:5935   */\n      swap2\n      swap1\n      pop\n      jump\t// out\n        /* \"#utility.yul\":5941:6360   */\n    tag_81:\n        /* \"#utility.yul\":6107:6111   */\n      0x00\n        /* \"#utility.yul\":6145:6147   */\n      0x20\n        /* \"#utility.yul\":6134:6143   */\n      dup3\n        /* \"#utility.yul\":6130:6148   */\n      add\n        /* \"#utility.yul\":6122:6148   */\n      swap1\n      pop\n        /* \"#utility.yul\":6194:6203   */\n      dup2\n        /* \"#utility.yul\":6188:6192   */\n      dup2\n        /* \"#utility.yul\":6184:6204   */\n      sub\n        /* \"#utility.yul\":6180:6181   */\n      0x00\n        /* \"#utility.yul\":6169:6178   */\n      dup4\n        /* \"#utility.yul\":6165:6182   */\n      add\n        /* \"#utility.yul\":6158:6205   */\n      mstore\n        /* \"#utility.yul\":6222:6353   */\n      tag_197\n        /* \"#utility.yul\":6348:6352   */\n      dup2\n        /* \"#utility.yul\":6222:6353   */\n      tag_125\n      jump\t// in\n    tag_197:\n        /* \"#utility.yul\":6214:6353   */\n      swap1\n      pop\n        /* \"#utility.yul\":5941:6360   */\n      swap2\n      swap1\n      pop\n      jump\t// out\n        /* \"#utility.yul\":6366:6546   */\n    tag_126:\n        /* \"#utility.yul\":6414:6491   */\n      0x4e487b7100000000000000000000000000000000000000000000000000000000\n        /* \"#utility.yul\":6411:6412   */\n      0x00\n        /* \"#utility.yul\":6404:6492   */\n      mstore\n        /* \"#utility.yul\":6511:6515   */\n      0x11\n        /* \"#utility.yul\":6508:6509   */\n      0x04\n        /* \"#utility.yul\":6501:6516   */\n      mstore\n        /* \"#utility.yul\":6535:6539   */\n      0x24\n        /* \"#utility.yul\":6532:6533   */\n      0x00\n        /* \"#utility.yul\":6525:6540   */\n      revert\n        /* \"#utility.yul\":6552:6785   */\n    tag_83:\n        /* \"#utility.yul\":6591:6594   */\n      0x00\n        /* \"#utility.yul\":6614:6638   */\n      tag_200\n        /* \"#utility.yul\":6632:6637   */\n      dup3\n        /* \"#utility.yul\":6614:6638   */\n      tag_107\n      jump\t// in\n    tag_200:\n        /* \"#utility.yul\":6605:6638   */\n      swap2\n      pop\n        /* \"#utility.yul\":6660:6726   */\n      0xffffffffffffffffffffffffffffffffffffffffffffffffffffffffffffffff\n        /* \"#utility.yul\":6653:6658   */\n      dup3\n        /* \"#utility.yul\":6650:6727   */\n      sub\n        /* \"#utility.yul\":6647:6750   */\n      tag_201\n      jumpi\n        /* \"#utility.yul\":6730:6748   */\n      tag_202\n      tag_126\n      jump\t// in\n    tag_202:\n        /* \"#utility.yul\":6647:6750   */\n    tag_201:\n        /* \"#utility.yul\":6777:6778   */\n      0x01\n        /* \"#utility.yul\":6770:6775   */\n      dup3\n        /* \"#utility.yul\":6766:6779   */\n      add\n        /* \"#utility.yul\":6759:6779   */\n      swap1\n      pop\n        /* \"#utility.yul\":6552:6785   */\n      swap2\n      swap1\n      pop\n      jump\t// out\n        /* \"#utility.yul\":6791:7156   */\n    tag_127:\n        /* \"#utility.yul\":6931:6965   */\n      0x596f75206e6565647320746f206265206f776e6572206f72206d757374206769\n        /* \"#utility.yul\":6927:6928   */\n      0x00\n        /* \"#utility.yul\":6919:6925   */\n      dup3\n        /* \"#utility.yul\":6915:6929   */\n      add\n        /* \"#utility.yul\":6908:6966   */\n      mstore\n        /* \"#utility.yul\":7000:7034   */\n      0x7665206f6e65206f662074686520677561726461696e7320616e6420636f6e74\n        /* \"#utility.yul\":6995:6997   */\n      0x20\n        /* \"#utility.yul\":6987:6993   */\n      dup3\n        /* \"#utility.yul\":6983:6998   */\n      add\n        /* \"#utility.yul\":6976:7035   */\n      mstore\n        /* \"#utility.yul\":7069:7103   */\n      0x726163742062616c616e6365206d757374206265206772656174657220746861\n        /* \"#utility.yul\":7064:7066   */\n      0x40\n        /* \"#utility.yul\":7056:7062   */\n      dup3\n        /* \"#utility.yul\":7052:7067   */\n      add\n        /* \"#utility.yul\":7045:7104   */\n      mstore\n        /* \"#utility.yul\":7138:7148   */\n      0x6e20616d6f756e74000000000000000000000000000000000000000000000000\n        /* \"#utility.yul\":7133:7135   */\n      0x60\n        /* \"#utility.yul\":7125:7131   */\n      dup3\n        /* \"#utility.yul\":7121:7136   */\n      add\n        /* \"#utility.yul\":7114:7149   */\n      mstore\n        /* \"#utility.yul\":6791:7156   */\n      pop\n      jump\t// out\n        /* \"#utility.yul\":7162:7530   */\n    tag_128:\n        /* \"#utility.yul\":7304:7307   */\n      0x00\n        /* \"#utility.yul\":7325:7393   */\n      tag_205\n        /* \"#utility.yul\":7389:7392   */\n      0x68\n        /* \"#utility.yul\":7384:7387   */\n      dup4\n        /* \"#utility.yul\":7325:7393   */\n      tag_121\n      jump\t// in\n    tag_205:\n        /* \"#utility.yul\":7318:7393   */\n      swap2\n      pop\n        /* \"#utility.yul\":7402:7495   */\n      tag_206\n        /* \"#utility.yul\":7491:7494   */\n      dup3\n        /* \"#utility.yul\":7402:7495   */\n      tag_127\n      jump\t// in\n    tag_206:\n        /* \"#utility.yul\":7520:7523   */\n      0x80\n        /* \"#utility.yul\":7515:7518   */\n      dup3\n        /* \"#utility.yul\":7511:7524   */\n      add\n        /* \"#utility.yul\":7504:7524   */\n      swap1\n      pop\n        /* \"#utility.yul\":7162:7530   */\n      swap2\n      swap1\n      pop\n      jump\t// out\n        /* \"#utility.yul\":7536:7955   */\n    tag_89:\n        /* \"#utility.yul\":7702:7706   */\n      0x00\n        /* \"#utility.yul\":7740:7742   */\n      0x20\n        /* \"#utility.yul\":7729:7738   */\n      dup3\n        /* \"#utility.yul\":7725:7743   */\n      add\n        /* \"#utility.yul\":7717:7743   */\n      swap1\n      pop\n        /* \"#utility.yul\":7789:7798   */\n      dup2\n        /* \"#utility.yul\":7783:7787   */\n      dup2\n        /* \"#utility.yul\":7779:7799   */\n      sub\n        /* \"#utility.yul\":7775:7776   */\n      0x00\n        /* \"#utility.yul\":7764:7773   */\n      dup4\n        /* \"#utility.yul\":7760:7777   */\n      add\n        /* \"#utility.yul\":7753:7800   */\n      mstore\n        /* \"#utility.yul\":7817:7948   */\n      tag_208\n        /* \"#utility.yul\":7943:7947   */\n      dup2\n        /* \"#utility.yul\":7817:7948   */\n      tag_128\n      jump\t// in\n    tag_208:\n        /* \"#utility.yul\":7809:7948   */\n      swap1\n      pop\n        /* \"#utility.yul\":7536:7955   */\n      swap2\n      swap1\n      pop\n      jump\t// out\n        /* \"#utility.yul\":7961:8143   */\n    tag_129:\n        /* \"#utility.yul\":8101:8135   */\n      0x596f75206e6565647320746f20626520677561726469616e20746f20766f7465\n        /* \"#utility.yul\":8097:8098   */\n      0x00\n        /* \"#utility.yul\":8089:8095   */\n      dup3\n        /* \"#utility.yul\":8085:8099   */\n      add\n        /* \"#utility.yul\":8078:8136   */\n      mstore\n        /* \"#utility.yul\":7961:8143   */\n      pop\n      jump\t// out\n        /* \"#utility.yul\":8149:8515   */\n    tag_130:\n        /* \"#utility.yul\":8291:8294   */\n      0x00\n        /* \"#utility.yul\":8312:8379   */\n      tag_211\n        /* \"#utility.yul\":8376:8378   */\n      0x20\n        /* \"#utility.yul\":8371:8374   */\n      dup4\n        /* \"#utility.yul\":8312:8379   */\n      tag_121\n      jump\t// in\n    tag_211:\n        /* \"#utility.yul\":8305:8379   */\n      swap2\n      pop\n        /* \"#utility.yul\":8388:8481   */\n      tag_212\n        /* \"#utility.yul\":8477:8480   */\n      dup3\n        /* \"#utility.yul\":8388:8481   */\n      tag_129\n      jump\t// in\n    tag_212:\n        /* \"#utility.yul\":8506:8508   */\n      0x20\n        /* \"#utility.yul\":8501:8504   */\n      dup3\n        /* \"#utility.yul\":8497:8509   */\n      add\n        /* \"#utility.yul\":8490:8509   */\n      swap1\n      pop\n        /* \"#utility.yul\":8149:8515   */\n      swap2\n      swap1\n      pop\n      jump\t// out\n        /* \"#utility.yul\":8521:8940   */\n    tag_94:\n        /* \"#utility.yul\":8687:8691   */\n      0x00\n        /* \"#utility.yul\":8725:8727   */\n      0x20\n        /* \"#utility.yul\":8714:8723   */\n      dup3\n        /* \"#utility.yul\":8710:8728   */\n      add\n        /* \"#utility.yul\":8702:8728   */\n      swap1\n      pop\n        /* \"#utility.yul\":8774:8783   */\n      dup2\n        /* \"#utility.yul\":8768:8772   */\n      dup2\n        /* \"#utility.yul\":8764:8784   */\n      sub\n        /* \"#utility.yul\":8760:8761   */\n      0x00\n        /* \"#utility.yul\":8749:8758   */\n      dup4\n        /* \"#utility.yul\":8745:8762   */\n      add\n        /* \"#utility.yul\":8738:8785   */\n      mstore\n        /* \"#utility.yul\":8802:8933   */\n      tag_214\n        /* \"#utility.yul\":8928:8932   */\n      dup2\n        /* \"#utility.yul\":8802:8933   */\n      tag_130\n      jump\t// in\n    tag_214:\n        /* \"#utility.yul\":8794:8933   */\n      swap1\n      pop\n        /* \"#utility.yul\":8521:8940   */\n      swap2\n      swap1\n      pop\n      jump\t// out\n        /* \"#utility.yul\":8946:9294   */\n    tag_99:\n        /* \"#utility.yul\":8986:8993   */\n      0x00\n        /* \"#utility.yul\":9009:9029   */\n      tag_216\n        /* \"#utility.yul\":9027:9028   */\n      dup3\n        /* \"#utility.yul\":9009:9029   */\n      tag_107\n      jump\t// in\n    tag_216:\n        /* \"#utility.yul\":9004:9029   */\n      swap2\n      pop\n        /* \"#utility.yul\":9043:9063   */\n      tag_217\n        /* \"#utility.yul\":9061:9062   */\n      dup4\n        /* \"#utility.yul\":9043:9063   */\n      tag_107\n      jump\t// in\n    tag_217:\n        /* \"#utility.yul\":9038:9063   */\n      swap3\n      pop\n        /* \"#utility.yul\":9231:9232   */\n      dup2\n        /* \"#utility.yul\":9163:9229   */\n      0xffffffffffffffffffffffffffffffffffffffffffffffffffffffffffffffff\n        /* \"#utility.yul\":9159:9233   */\n      div\n        /* \"#utility.yul\":9156:9157   */\n      dup4\n        /* \"#utility.yul\":9153:9234   */\n      gt\n        /* \"#utility.yul\":9148:9149   */\n      dup3\n        /* \"#utility.yul\":9141:9150   */\n      iszero\n        /* \"#utility.yul\":9134:9151   */\n      iszero\n        /* \"#utility.yul\":9130:9235   */\n      and\n        /* \"#utility.yul\":9127:9258   */\n      iszero\n      tag_218\n      jumpi\n        /* \"#utility.yul\":9238:9256   */\n      tag_219\n      tag_126\n      jump\t// in\n    tag_219:\n        /* \"#utility.yul\":9127:9258   */\n    tag_218:\n        /* \"#utility.yul\":9286:9287   */\n      dup3\n        /* \"#utility.yul\":9283:9284   */\n      dup3\n        /* \"#utility.yul\":9279:9288   */\n      mul\n        /* \"#utility.yul\":9268:9288   */\n      swap1\n      pop\n        /* \"#utility.yul\":8946:9294   */\n      swap3\n      swap2\n      pop\n      pop\n      jump\t// out\n        /* \"#utility.yul\":9300:9480   */\n    tag_131:\n        /* \"#utility.yul\":9348:9425   */\n      0x4e487b7100000000000000000000000000000000000000000000000000000000\n        /* \"#utility.yul\":9345:9346   */\n      0x00\n        /* \"#utility.yul\":9338:9426   */\n      mstore\n        /* \"#utility.yul\":9445:9449   */\n      0x12\n        /* \"#utility.yul\":9442:9443   */\n      0x04\n        /* \"#utility.yul\":9435:9450   */\n      mstore\n        /* \"#utility.yul\":9469:9473   */\n      0x24\n        /* \"#utility.yul\":9466:9467   */\n      0x00\n        /* \"#utility.yul\":9459:9474   */\n      revert\n        /* \"#utility.yul\":9486:9671   */\n    tag_101:\n        /* \"#utility.yul\":9526:9527   */\n      0x00\n        /* \"#utility.yul\":9543:9563   */\n      tag_222\n        /* \"#utility.yul\":9561:9562   */\n      dup3\n        /* \"#utility.yul\":9543:9563   */\n      tag_107\n      jump\t// in\n    tag_222:\n        /* \"#utility.yul\":9538:9563   */\n      swap2\n      pop\n        /* \"#utility.yul\":9577:9597   */\n      tag_223\n        /* \"#utility.yul\":9595:9596   */\n      dup4\n        /* \"#utility.yul\":9577:9597   */\n      tag_107\n      jump\t// in\n    tag_223:\n        /* \"#utility.yul\":9572:9597   */\n      swap3\n      pop\n        /* \"#utility.yul\":9616:9617   */\n      dup3\n        /* \"#utility.yul\":9606:9641   */\n      tag_224\n      jumpi\n        /* \"#utility.yul\":9621:9639   */\n      tag_225\n      tag_131\n      jump\t// in\n    tag_225:\n        /* \"#utility.yul\":9606:9641   */\n    tag_224:\n        /* \"#utility.yul\":9663:9664   */\n      dup3\n        /* \"#utility.yul\":9660:9661   */\n      dup3\n        /* \"#utility.yul\":9656:9665   */\n      div\n        /* \"#utility.yul\":9651:9665   */\n      swap1\n      pop\n        /* \"#utility.yul\":9486:9671   */\n      swap3\n      swap2\n      pop\n      pop\n      jump\t// out\n\n    auxdata: 0xa2646970667358221220326c62785dddf6311e6d1d15e33c8c4a7acba2aa6a704f598f15bf2ba9ac6ad864736f6c634300080e0033\n}\n",
				"bytecode": {
					"linkReferences": {},
					"object": "6080604052600560015534801561001557600080fd5b50336000806101000a81548173ffffffffffffffffffffffffffffffffffffffff021916908373ffffffffffffffffffffffffffffffffffffffff160217905550610f85806100656000396000f3fe6080604052600436106100a05760003560e01c80638da5cb5b116100645780638da5cb5b146101925780638f6d38a5146101bd578063958ff7fb146101e8578063b1f8100d14610211578063babd957d1461023a578063d4ee1d9014610265576100a7565b8063062a7544146100ac5780630633b14a146100d55780633c911347146101135780635bf364231461013e5780638be0435214610167576100a7565b366100a757005b600080fd5b3480156100b857600080fd5b506100d360048036038101906100ce9190610a42565b610290565b005b3480156100e157600080fd5b506100fc60048036038101906100f79190610ac0565b61041a565b60405161010a929190610b17565b60405180910390f35b34801561011f57600080fd5b5061012861044b565b6040516101359190610b40565b60405180910390f35b34801561014a57600080fd5b5061016560048036038101906101609190610ac0565b610451565b005b34801561017357600080fd5b5061017c610564565b6040516101899190610b40565b60405180910390f35b34801561019e57600080fd5b506101a761056a565b6040516101b49190610b6a565b60405180910390f35b3480156101c957600080fd5b506101d261058e565b6040516101df9190610b40565b60405180910390f35b3480156101f457600080fd5b5061020f600480360381019061020a9190610b85565b610594565b005b34801561021d57600080fd5b5061023860048036038101906102339190610ac0565b6106d1565b005b34801561024657600080fd5b5061024f61097b565b60405161025c9190610b40565b60405180910390f35b34801561027157600080fd5b5061027a610983565b6040516102879190610b6a565b60405180910390f35b478211158015610390575060008054906101000a900473ffffffffffffffffffffffffffffffffffffffff1673ffffffffffffffffffffffffffffffffffffffff163373ffffffffffffffffffffffffffffffffffffffff16148061038f5750600360003373ffffffffffffffffffffffffffffffffffffffff1673ffffffffffffffffffffffffffffffffffffffff16815260200190815260200160002060000160009054906101000a900460ff16801561038e575081600360003373ffffffffffffffffffffffffffffffffffffffff1673ffffffffffffffffffffffffffffffffffffffff1681526020019081526020016000206001015410155b5b5b6103cf576040517f08c379a00000000000000000000000000000000000000000000000000000000081526004016103c690610c22565b60405180910390fd5b8073ffffffffffffffffffffffffffffffffffffffff166108fc839081150290604051600060405180830381858888f19350505050158015610415573d6000803e3d6000fd5b505050565b60036020528060005260406000206000915090508060000160009054906101000a900460ff16908060010154905082565b60025481565b60008054906101000a900473ffffffffffffffffffffffffffffffffffffffff1673ffffffffffffffffffffffffffffffffffffffff163373ffffffffffffffffffffffffffffffffffffffff161480156104af5750600154600254105b6104ee576040517f08c379a00000000000000000000000000000000000000000000000000000000081526004016104e590610cb4565b60405180910390fd5b6002600081548092919061050190610d03565b91905055506001600360008373ffffffffffffffffffffffffffffffffffffffff1673ffffffffffffffffffffffffffffffffffffffff16815260200190815260200160002060000160006101000a81548160ff02191690831515021790555050565b60015481565b60008054906101000a900473ffffffffffffffffffffffffffffffffffffffff1681565b60055481565b60008054906101000a900473ffffffffffffffffffffffffffffffffffffffff1673ffffffffffffffffffffffffffffffffffffffff163373ffffffffffffffffffffffffffffffffffffffff1614801561063b5750600360008373ffffffffffffffffffffffffffffffffffffffff1673ffffffffffffffffffffffffffffffffffffffff16815260200190815260200160002060000160009054906101000a900460ff165b80156106475750478111155b610686576040517f08c379a000000000000000000000000000000000000000000000000000000000815260040161067d90610e09565b60405180910390fd5b80600360008473ffffffffffffffffffffffffffffffffffffffff1673ffffffffffffffffffffffffffffffffffffffff168152602001908152602001600020600101819055505050565b600360003373ffffffffffffffffffffffffffffffffffffffff1673ffffffffffffffffffffffffffffffffffffffff16815260200190815260200160002060000160009054906101000a900460ff16801561075a5750600073ffffffffffffffffffffffffffffffffffffffff168173ffffffffffffffffffffffffffffffffffffffff1614155b610799576040517f08c379a000000000000000000000000000000000000000000000000000000000815260040161079090610e75565b60405180910390fd5b600073ffffffffffffffffffffffffffffffffffffffff16600460009054906101000a900473ffffffffffffffffffffffffffffffffffffffff1673ffffffffffffffffffffffffffffffffffffffff161461084e578073ffffffffffffffffffffffffffffffffffffffff16600460009054906101000a900473ffffffffffffffffffffffffffffffffffffffff1673ffffffffffffffffffffffffffffffffffffffff161461084d5760006005819055505b5b80600460006101000a81548173ffffffffffffffffffffffffffffffffffffffff021916908373ffffffffffffffffffffffffffffffffffffffff160217905550600560008154809291906108a290610d03565b9190505550603260015460646005546108bb9190610e95565b6108c59190610f1e565b111561097857600460009054906101000a900473ffffffffffffffffffffffffffffffffffffffff166000806101000a81548173ffffffffffffffffffffffffffffffffffffffff021916908373ffffffffffffffffffffffffffffffffffffffff1602179055506000600460006101000a81548173ffffffffffffffffffffffffffffffffffffffff021916908373ffffffffffffffffffffffffffffffffffffffff16021790555060006005819055505b50565b600047905090565b600460009054906101000a900473ffffffffffffffffffffffffffffffffffffffff1681565b600080fd5b6000819050919050565b6109c1816109ae565b81146109cc57600080fd5b50565b6000813590506109de816109b8565b92915050565b600073ffffffffffffffffffffffffffffffffffffffff82169050919050565b6000610a0f826109e4565b9050919050565b610a1f81610a04565b8114610a2a57600080fd5b50565b600081359050610a3c81610a16565b92915050565b60008060408385031215610a5957610a586109a9565b5b6000610a67858286016109cf565b9250506020610a7885828601610a2d565b9150509250929050565b6000610a8d826109e4565b9050919050565b610a9d81610a82565b8114610aa857600080fd5b50565b600081359050610aba81610a94565b92915050565b600060208284031215610ad657610ad56109a9565b5b6000610ae484828501610aab565b91505092915050565b60008115159050919050565b610b0281610aed565b82525050565b610b11816109ae565b82525050565b6000604082019050610b2c6000830185610af9565b610b396020830184610b08565b9392505050565b6000602082019050610b556000830184610b08565b92915050565b610b6481610a82565b82525050565b6000602082019050610b7f6000830184610b5b565b92915050565b60008060408385031215610b9c57610b9b6109a9565b5b6000610baa85828601610aab565b9250506020610bbb858286016109cf565b9150509250929050565b600082825260208201905092915050565b7f596f75206861766520746f206265206f776e6572000000000000000000000000600082015250565b6000610c0c601483610bc5565b9150610c1782610bd6565b602082019050919050565b60006020820190508181036000830152610c3b81610bff565b9050919050565b7f596f75206e6565647320746f206265206f776e65722e20616e642063616e277460008201527f20626520657863656564207468616e206d6178696d756d20677561726469616e602082015250565b6000610c9e604083610bc5565b9150610ca982610c42565b604082019050919050565b60006020820190508181036000830152610ccd81610c91565b9050919050565b7f4e487b7100000000000000000000000000000000000000000000000000000000600052601160045260246000fd5b6000610d0e826109ae565b91507fffffffffffffffffffffffffffffffffffffffffffffffffffffffffffffffff8203610d4057610d3f610cd4565b5b600182019050919050565b7f596f75206e6565647320746f206265206f776e6572206f72206d75737420676960008201527f7665206f6e65206f662074686520677561726461696e7320616e6420636f6e7460208201527f726163742062616c616e6365206d75737420626520677265617465722074686160408201527f6e20616d6f756e74000000000000000000000000000000000000000000000000606082015250565b6000610df3606883610bc5565b9150610dfe82610d4b565b608082019050919050565b60006020820190508181036000830152610e2281610de6565b9050919050565b7f596f75206e6565647320746f20626520677561726469616e20746f20766f7465600082015250565b6000610e5f602083610bc5565b9150610e6a82610e29565b602082019050919050565b60006020820190508181036000830152610e8e81610e52565b9050919050565b6000610ea0826109ae565b9150610eab836109ae565b9250817fffffffffffffffffffffffffffffffffffffffffffffffffffffffffffffffff0483118215151615610ee457610ee3610cd4565b5b828202905092915050565b7f4e487b7100000000000000000000000000000000000000000000000000000000600052601260045260246000fd5b6000610f29826109ae565b9150610f34836109ae565b925082610f4457610f43610eef565b5b82820490509291505056fea2646970667358221220326c62785dddf6311e6d1d15e33c8c4a7acba2aa6a704f598f15bf2ba9ac6ad864736f6c634300080e0033",
					"opcodes": "PUSH1 0x80 PUSH1 0x40 MSTORE PUSH1 0x5 PUSH1 0x1 SSTORE CALLVALUE DUP1 ISZERO PUSH2 0x15 JUMPI PUSH1 0x0 DUP1 REVERT JUMPDEST POP CALLER PUSH1 0x0 DUP1 PUSH2 0x100 EXP DUP2 SLOAD DUP2 PUSH20 0xFFFFFFFFFFFFFFFFFFFFFFFFFFFFFFFFFFFFFFFF MUL NOT AND SWAP1 DUP4 PUSH20 0xFFFFFFFFFFFFFFFFFFFFFFFFFFFFFFFFFFFFFFFF AND MUL OR SWAP1 SSTORE POP PUSH2 0xF85 DUP1 PUSH2 0x65 PUSH1 0x0 CODECOPY PUSH1 0x0 RETURN INVALID PUSH1 0x80 PUSH1 0x40 MSTORE PUSH1 0x4 CALLDATASIZE LT PUSH2 0xA0 JUMPI PUSH1 0x0 CALLDATALOAD PUSH1 0xE0 SHR DUP1 PUSH4 0x8DA5CB5B GT PUSH2 0x64 JUMPI DUP1 PUSH4 0x8DA5CB5B EQ PUSH2 0x192 JUMPI DUP1 PUSH4 0x8F6D38A5 EQ PUSH2 0x1BD JUMPI DUP1 PUSH4 0x958FF7FB EQ PUSH2 0x1E8 JUMPI DUP1 PUSH4 0xB1F8100D EQ PUSH2 0x211 JUMPI DUP1 PUSH4 0xBABD957D EQ PUSH2 0x23A JUMPI DUP1 PUSH4 0xD4EE1D90 EQ PUSH2 0x265 JUMPI PUSH2 0xA7 JUMP JUMPDEST DUP1 PUSH4 0x62A7544 EQ PUSH2 0xAC JUMPI DUP1 PUSH4 0x633B14A EQ PUSH2 0xD5 JUMPI DUP1 PUSH4 0x3C911347 EQ PUSH2 0x113 JUMPI DUP1 PUSH4 0x5BF36423 EQ PUSH2 0x13E JUMPI DUP1 PUSH4 0x8BE04352 EQ PUSH2 0x167 JUMPI PUSH2 0xA7 JUMP JUMPDEST CALLDATASIZE PUSH2 0xA7 JUMPI STOP JUMPDEST PUSH1 0x0 DUP1 REVERT JUMPDEST CALLVALUE DUP1 ISZERO PUSH2 0xB8 JUMPI PUSH1 0x0 DUP1 REVERT JUMPDEST POP PUSH2 0xD3 PUSH1 0x4 DUP1 CALLDATASIZE SUB DUP2 ADD SWAP1 PUSH2 0xCE SWAP2 SWAP1 PUSH2 0xA42 JUMP JUMPDEST PUSH2 0x290 JUMP JUMPDEST STOP JUMPDEST CALLVALUE DUP1 ISZERO PUSH2 0xE1 JUMPI PUSH1 0x0 DUP1 REVERT JUMPDEST POP PUSH2 0xFC PUSH1 0x4 DUP1 CALLDATASIZE SUB DUP2 ADD SWAP1 PUSH2 0xF7 SWAP2 SWAP1 PUSH2 0xAC0 JUMP JUMPDEST PUSH2 0x41A JUMP JUMPDEST PUSH1 0x40 MLOAD PUSH2 0x10A SWAP3 SWAP2 SWAP1 PUSH2 0xB17 JUMP JUMPDEST PUSH1 0x40 MLOAD DUP1 SWAP2 SUB SWAP1 RETURN JUMPDEST CALLVALUE DUP1 ISZERO PUSH2 0x11F JUMPI PUSH1 0x0 DUP1 REVERT JUMPDEST POP PUSH2 0x128 PUSH2 0x44B JUMP JUMPDEST PUSH1 0x40 MLOAD PUSH2 0x135 SWAP2 SWAP1 PUSH2 0xB40 JUMP JUMPDEST PUSH1 0x40 MLOAD DUP1 SWAP2 SUB SWAP1 RETURN JUMPDEST CALLVALUE DUP1 ISZERO PUSH2 0x14A JUMPI PUSH1 0x0 DUP1 REVERT JUMPDEST POP PUSH2 0x165 PUSH1 0x4 DUP1 CALLDATASIZE SUB DUP2 ADD SWAP1 PUSH2 0x160 SWAP2 SWAP1 PUSH2 0xAC0 JUMP JUMPDEST PUSH2 0x451 JUMP JUMPDEST STOP JUMPDEST CALLVALUE DUP1 ISZERO PUSH2 0x173 JUMPI PUSH1 0x0 DUP1 REVERT JUMPDEST POP PUSH2 0x17C PUSH2 0x564 JUMP JUMPDEST PUSH1 0x40 MLOAD PUSH2 0x189 SWAP2 SWAP1 PUSH2 0xB40 JUMP JUMPDEST PUSH1 0x40 MLOAD DUP1 SWAP2 SUB SWAP1 RETURN JUMPDEST CALLVALUE DUP1 ISZERO PUSH2 0x19E JUMPI PUSH1 0x0 DUP1 REVERT JUMPDEST POP PUSH2 0x1A7 PUSH2 0x56A JUMP JUMPDEST PUSH1 0x40 MLOAD PUSH2 0x1B4 SWAP2 SWAP1 PUSH2 0xB6A JUMP JUMPDEST PUSH1 0x40 MLOAD DUP1 SWAP2 SUB SWAP1 RETURN JUMPDEST CALLVALUE DUP1 ISZERO PUSH2 0x1C9 JUMPI PUSH1 0x0 DUP1 REVERT JUMPDEST POP PUSH2 0x1D2 PUSH2 0x58E JUMP JUMPDEST PUSH1 0x40 MLOAD PUSH2 0x1DF SWAP2 SWAP1 PUSH2 0xB40 JUMP JUMPDEST PUSH1 0x40 MLOAD DUP1 SWAP2 SUB SWAP1 RETURN JUMPDEST CALLVALUE DUP1 ISZERO PUSH2 0x1F4 JUMPI PUSH1 0x0 DUP1 REVERT JUMPDEST POP PUSH2 0x20F PUSH1 0x4 DUP1 CALLDATASIZE SUB DUP2 ADD SWAP1 PUSH2 0x20A SWAP2 SWAP1 PUSH2 0xB85 JUMP JUMPDEST PUSH2 0x594 JUMP JUMPDEST STOP JUMPDEST CALLVALUE DUP1 ISZERO PUSH2 0x21D JUMPI PUSH1 0x0 DUP1 REVERT JUMPDEST POP PUSH2 0x238 PUSH1 0x4 DUP1 CALLDATASIZE SUB DUP2 ADD SWAP1 PUSH2 0x233 SWAP2 SWAP1 PUSH2 0xAC0 JUMP JUMPDEST PUSH2 0x6D1 JUMP JUMPDEST STOP JUMPDEST CALLVALUE DUP1 ISZERO PUSH2 0x246 JUMPI PUSH1 0x0 DUP1 REVERT JUMPDEST POP PUSH2 0x24F PUSH2 0x97B JUMP JUMPDEST PUSH1 0x40 MLOAD PUSH2 0x25C SWAP2 SWAP1 PUSH2 0xB40 JUMP JUMPDEST PUSH1 0x40 MLOAD DUP1 SWAP2 SUB SWAP1 RETURN JUMPDEST CALLVALUE DUP1 ISZERO PUSH2 0x271 JUMPI PUSH1 0x0 DUP1 REVERT JUMPDEST POP PUSH2 0x27A PUSH2 0x983 JUMP JUMPDEST PUSH1 0x40 MLOAD PUSH2 0x287 SWAP2 SWAP1 PUSH2 0xB6A JUMP JUMPDEST PUSH1 0x40 MLOAD DUP1 SWAP2 SUB SWAP1 RETURN JUMPDEST SELFBALANCE DUP3 GT ISZERO DUP1 ISZERO PUSH2 0x390 JUMPI POP PUSH1 0x0 DUP1 SLOAD SWAP1 PUSH2 0x100 EXP SWAP1 DIV PUSH20 0xFFFFFFFFFFFFFFFFFFFFFFFFFFFFFFFFFFFFFFFF AND PUSH20 0xFFFFFFFFFFFFFFFFFFFFFFFFFFFFFFFFFFFFFFFF AND CALLER PUSH20 0xFFFFFFFFFFFFFFFFFFFFFFFFFFFFFFFFFFFFFFFF AND EQ DUP1 PUSH2 0x38F JUMPI POP PUSH1 0x3 PUSH1 0x0 CALLER PUSH20 0xFFFFFFFFFFFFFFFFFFFFFFFFFFFFFFFFFFFFFFFF AND PUSH20 0xFFFFFFFFFFFFFFFFFFFFFFFFFFFFFFFFFFFFFFFF AND DUP2 MSTORE PUSH1 0x20 ADD SWAP1 DUP2 MSTORE PUSH1 0x20 ADD PUSH1 0x0 KECCAK256 PUSH1 0x0 ADD PUSH1 0x0 SWAP1 SLOAD SWAP1 PUSH2 0x100 EXP SWAP1 DIV PUSH1 0xFF AND DUP1 ISZERO PUSH2 0x38E JUMPI POP DUP2 PUSH1 0x3 PUSH1 0x0 CALLER PUSH20 0xFFFFFFFFFFFFFFFFFFFFFFFFFFFFFFFFFFFFFFFF AND PUSH20 0xFFFFFFFFFFFFFFFFFFFFFFFFFFFFFFFFFFFFFFFF AND DUP2 MSTORE PUSH1 0x20 ADD SWAP1 DUP2 MSTORE PUSH1 0x20 ADD PUSH1 0x0 KECCAK256 PUSH1 0x1 ADD SLOAD LT ISZERO JUMPDEST JUMPDEST JUMPDEST PUSH2 0x3CF JUMPI PUSH1 0x40 MLOAD PUSH32 0x8C379A000000000000000000000000000000000000000000000000000000000 DUP2 MSTORE PUSH1 0x4 ADD PUSH2 0x3C6 SWAP1 PUSH2 0xC22 JUMP JUMPDEST PUSH1 0x40 MLOAD DUP1 SWAP2 SUB SWAP1 REVERT JUMPDEST DUP1 PUSH20 0xFFFFFFFFFFFFFFFFFFFFFFFFFFFFFFFFFFFFFFFF AND PUSH2 0x8FC DUP4 SWAP1 DUP2 ISZERO MUL SWAP1 PUSH1 0x40 MLOAD PUSH1 0x0 PUSH1 0x40 MLOAD DUP1 DUP4 SUB DUP2 DUP6 DUP9 DUP9 CALL SWAP4 POP POP POP POP ISZERO DUP1 ISZERO PUSH2 0x415 JUMPI RETURNDATASIZE PUSH1 0x0 DUP1 RETURNDATACOPY RETURNDATASIZE PUSH1 0x0 REVERT JUMPDEST POP POP POP JUMP JUMPDEST PUSH1 0x3 PUSH1 0x20 MSTORE DUP1 PUSH1 0x0 MSTORE PUSH1 0x40 PUSH1 0x0 KECCAK256 PUSH1 0x0 SWAP2 POP SWAP1 POP DUP1 PUSH1 0x0 ADD PUSH1 0x0 SWAP1 SLOAD SWAP1 PUSH2 0x100 EXP SWAP1 DIV PUSH1 0xFF AND SWAP1 DUP1 PUSH1 0x1 ADD SLOAD SWAP1 POP DUP3 JUMP JUMPDEST PUSH1 0x2 SLOAD DUP2 JUMP JUMPDEST PUSH1 0x0 DUP1 SLOAD SWAP1 PUSH2 0x100 EXP SWAP1 DIV PUSH20 0xFFFFFFFFFFFFFFFFFFFFFFFFFFFFFFFFFFFFFFFF AND PUSH20 0xFFFFFFFFFFFFFFFFFFFFFFFFFFFFFFFFFFFFFFFF AND CALLER PUSH20 0xFFFFFFFFFFFFFFFFFFFFFFFFFFFFFFFFFFFFFFFF AND EQ DUP1 ISZERO PUSH2 0x4AF JUMPI POP PUSH1 0x1 SLOAD PUSH1 0x2 SLOAD LT JUMPDEST PUSH2 0x4EE JUMPI PUSH1 0x40 MLOAD PUSH32 0x8C379A000000000000000000000000000000000000000000000000000000000 DUP2 MSTORE PUSH1 0x4 ADD PUSH2 0x4E5 SWAP1 PUSH2 0xCB4 JUMP JUMPDEST PUSH1 0x40 MLOAD DUP1 SWAP2 SUB SWAP1 REVERT JUMPDEST PUSH1 0x2 PUSH1 0x0 DUP2 SLOAD DUP1 SWAP3 SWAP2 SWAP1 PUSH2 0x501 SWAP1 PUSH2 0xD03 JUMP JUMPDEST SWAP2 SWAP1 POP SSTORE POP PUSH1 0x1 PUSH1 0x3 PUSH1 0x0 DUP4 PUSH20 0xFFFFFFFFFFFFFFFFFFFFFFFFFFFFFFFFFFFFFFFF AND PUSH20 0xFFFFFFFFFFFFFFFFFFFFFFFFFFFFFFFFFFFFFFFF AND DUP2 MSTORE PUSH1 0x20 ADD SWAP1 DUP2 MSTORE PUSH1 0x20 ADD PUSH1 0x0 KECCAK256 PUSH1 0x0 ADD PUSH1 0x0 PUSH2 0x100 EXP DUP2 SLOAD DUP2 PUSH1 0xFF MUL NOT AND SWAP1 DUP4 ISZERO ISZERO MUL OR SWAP1 SSTORE POP POP JUMP JUMPDEST PUSH1 0x1 SLOAD DUP2 JUMP JUMPDEST PUSH1 0x0 DUP1 SLOAD SWAP1 PUSH2 0x100 EXP SWAP1 DIV PUSH20 0xFFFFFFFFFFFFFFFFFFFFFFFFFFFFFFFFFFFFFFFF AND DUP2 JUMP JUMPDEST PUSH1 0x5 SLOAD DUP2 JUMP JUMPDEST PUSH1 0x0 DUP1 SLOAD SWAP1 PUSH2 0x100 EXP SWAP1 DIV PUSH20 0xFFFFFFFFFFFFFFFFFFFFFFFFFFFFFFFFFFFFFFFF AND PUSH20 0xFFFFFFFFFFFFFFFFFFFFFFFFFFFFFFFFFFFFFFFF AND CALLER PUSH20 0xFFFFFFFFFFFFFFFFFFFFFFFFFFFFFFFFFFFFFFFF AND EQ DUP1 ISZERO PUSH2 0x63B JUMPI POP PUSH1 0x3 PUSH1 0x0 DUP4 PUSH20 0xFFFFFFFFFFFFFFFFFFFFFFFFFFFFFFFFFFFFFFFF AND PUSH20 0xFFFFFFFFFFFFFFFFFFFFFFFFFFFFFFFFFFFFFFFF AND DUP2 MSTORE PUSH1 0x20 ADD SWAP1 DUP2 MSTORE PUSH1 0x20 ADD PUSH1 0x0 KECCAK256 PUSH1 0x0 ADD PUSH1 0x0 SWAP1 SLOAD SWAP1 PUSH2 0x100 EXP SWAP1 DIV PUSH1 0xFF AND JUMPDEST DUP1 ISZERO PUSH2 0x647 JUMPI POP SELFBALANCE DUP2 GT ISZERO JUMPDEST PUSH2 0x686 JUMPI PUSH1 0x40 MLOAD PUSH32 0x8C379A000000000000000000000000000000000000000000000000000000000 DUP2 MSTORE PUSH1 0x4 ADD PUSH2 0x67D SWAP1 PUSH2 0xE09 JUMP JUMPDEST PUSH1 0x40 MLOAD DUP1 SWAP2 SUB SWAP1 REVERT JUMPDEST DUP1 PUSH1 0x3 PUSH1 0x0 DUP5 PUSH20 0xFFFFFFFFFFFFFFFFFFFFFFFFFFFFFFFFFFFFFFFF AND PUSH20 0xFFFFFFFFFFFFFFFFFFFFFFFFFFFFFFFFFFFFFFFF AND DUP2 MSTORE PUSH1 0x20 ADD SWAP1 DUP2 MSTORE PUSH1 0x20 ADD PUSH1 0x0 KECCAK256 PUSH1 0x1 ADD DUP2 SWAP1 SSTORE POP POP POP JUMP JUMPDEST PUSH1 0x3 PUSH1 0x0 CALLER PUSH20 0xFFFFFFFFFFFFFFFFFFFFFFFFFFFFFFFFFFFFFFFF AND PUSH20 0xFFFFFFFFFFFFFFFFFFFFFFFFFFFFFFFFFFFFFFFF AND DUP2 MSTORE PUSH1 0x20 ADD SWAP1 DUP2 MSTORE PUSH1 0x20 ADD PUSH1 0x0 KECCAK256 PUSH1 0x0 ADD PUSH1 0x0 SWAP1 SLOAD SWAP1 PUSH2 0x100 EXP SWAP1 DIV PUSH1 0xFF AND DUP1 ISZERO PUSH2 0x75A JUMPI POP PUSH1 0x0 PUSH20 0xFFFFFFFFFFFFFFFFFFFFFFFFFFFFFFFFFFFFFFFF AND DUP2 PUSH20 0xFFFFFFFFFFFFFFFFFFFFFFFFFFFFFFFFFFFFFFFF AND EQ ISZERO JUMPDEST PUSH2 0x799 JUMPI PUSH1 0x40 MLOAD PUSH32 0x8C379A000000000000000000000000000000000000000000000000000000000 DUP2 MSTORE PUSH1 0x4 ADD PUSH2 0x790 SWAP1 PUSH2 0xE75 JUMP JUMPDEST PUSH1 0x40 MLOAD DUP1 SWAP2 SUB SWAP1 REVERT JUMPDEST PUSH1 0x0 PUSH20 0xFFFFFFFFFFFFFFFFFFFFFFFFFFFFFFFFFFFFFFFF AND PUSH1 0x4 PUSH1 0x0 SWAP1 SLOAD SWAP1 PUSH2 0x100 EXP SWAP1 DIV PUSH20 0xFFFFFFFFFFFFFFFFFFFFFFFFFFFFFFFFFFFFFFFF AND PUSH20 0xFFFFFFFFFFFFFFFFFFFFFFFFFFFFFFFFFFFFFFFF AND EQ PUSH2 0x84E JUMPI DUP1 PUSH20 0xFFFFFFFFFFFFFFFFFFFFFFFFFFFFFFFFFFFFFFFF AND PUSH1 0x4 PUSH1 0x0 SWAP1 SLOAD SWAP1 PUSH2 0x100 EXP SWAP1 DIV PUSH20 0xFFFFFFFFFFFFFFFFFFFFFFFFFFFFFFFFFFFFFFFF AND PUSH20 0xFFFFFFFFFFFFFFFFFFFFFFFFFFFFFFFFFFFFFFFF AND EQ PUSH2 0x84D JUMPI PUSH1 0x0 PUSH1 0x5 DUP2 SWAP1 SSTORE POP JUMPDEST JUMPDEST DUP1 PUSH1 0x4 PUSH1 0x0 PUSH2 0x100 EXP DUP2 SLOAD DUP2 PUSH20 0xFFFFFFFFFFFFFFFFFFFFFFFFFFFFFFFFFFFFFFFF MUL NOT AND SWAP1 DUP4 PUSH20 0xFFFFFFFFFFFFFFFFFFFFFFFFFFFFFFFFFFFFFFFF AND MUL OR SWAP1 SSTORE POP PUSH1 0x5 PUSH1 0x0 DUP2 SLOAD DUP1 SWAP3 SWAP2 SWAP1 PUSH2 0x8A2 SWAP1 PUSH2 0xD03 JUMP JUMPDEST SWAP2 SWAP1 POP SSTORE POP PUSH1 0x32 PUSH1 0x1 SLOAD PUSH1 0x64 PUSH1 0x5 SLOAD PUSH2 0x8BB SWAP2 SWAP1 PUSH2 0xE95 JUMP JUMPDEST PUSH2 0x8C5 SWAP2 SWAP1 PUSH2 0xF1E JUMP JUMPDEST GT ISZERO PUSH2 0x978 JUMPI PUSH1 0x4 PUSH1 0x0 SWAP1 SLOAD SWAP1 PUSH2 0x100 EXP SWAP1 DIV PUSH20 0xFFFFFFFFFFFFFFFFFFFFFFFFFFFFFFFFFFFFFFFF AND PUSH1 0x0 DUP1 PUSH2 0x100 EXP DUP2 SLOAD DUP2 PUSH20 0xFFFFFFFFFFFFFFFFFFFFFFFFFFFFFFFFFFFFFFFF MUL NOT AND SWAP1 DUP4 PUSH20 0xFFFFFFFFFFFFFFFFFFFFFFFFFFFFFFFFFFFFFFFF AND MUL OR SWAP1 SSTORE POP PUSH1 0x0 PUSH1 0x4 PUSH1 0x0 PUSH2 0x100 EXP DUP2 SLOAD DUP2 PUSH20 0xFFFFFFFFFFFFFFFFFFFFFFFFFFFFFFFFFFFFFFFF MUL NOT AND SWAP1 DUP4 PUSH20 0xFFFFFFFFFFFFFFFFFFFFFFFFFFFFFFFFFFFFFFFF AND MUL OR SWAP1 SSTORE POP PUSH1 0x0 PUSH1 0x5 DUP2 SWAP1 SSTORE POP JUMPDEST POP JUMP JUMPDEST PUSH1 0x0 SELFBALANCE SWAP1 POP SWAP1 JUMP JUMPDEST PUSH1 0x4 PUSH1 0x0 SWAP1 SLOAD SWAP1 PUSH2 0x100 EXP SWAP1 DIV PUSH20 0xFFFFFFFFFFFFFFFFFFFFFFFFFFFFFFFFFFFFFFFF AND DUP2 JUMP JUMPDEST PUSH1 0x0 DUP1 REVERT JUMPDEST PUSH1 0x0 DUP2 SWAP1 POP SWAP2 SWAP1 POP JUMP JUMPDEST PUSH2 0x9C1 DUP2 PUSH2 0x9AE JUMP JUMPDEST DUP2 EQ PUSH2 0x9CC JUMPI PUSH1 0x0 DUP1 REVERT JUMPDEST POP JUMP JUMPDEST PUSH1 0x0 DUP2 CALLDATALOAD SWAP1 POP PUSH2 0x9DE DUP2 PUSH2 0x9B8 JUMP JUMPDEST SWAP3 SWAP2 POP POP JUMP JUMPDEST PUSH1 0x0 PUSH20 0xFFFFFFFFFFFFFFFFFFFFFFFFFFFFFFFFFFFFFFFF DUP3 AND SWAP1 POP SWAP2 SWAP1 POP JUMP JUMPDEST PUSH1 0x0 PUSH2 0xA0F DUP3 PUSH2 0x9E4 JUMP JUMPDEST SWAP1 POP SWAP2 SWAP1 POP JUMP JUMPDEST PUSH2 0xA1F DUP2 PUSH2 0xA04 JUMP JUMPDEST DUP2 EQ PUSH2 0xA2A JUMPI PUSH1 0x0 DUP1 REVERT JUMPDEST POP JUMP JUMPDEST PUSH1 0x0 DUP2 CALLDATALOAD SWAP1 POP PUSH2 0xA3C DUP2 PUSH2 0xA16 JUMP JUMPDEST SWAP3 SWAP2 POP POP JUMP JUMPDEST PUSH1 0x0 DUP1 PUSH1 0x40 DUP4 DUP6 SUB SLT ISZERO PUSH2 0xA59 JUMPI PUSH2 0xA58 PUSH2 0x9A9 JUMP JUMPDEST JUMPDEST PUSH1 0x0 PUSH2 0xA67 DUP6 DUP3 DUP7 ADD PUSH2 0x9CF JUMP JUMPDEST SWAP3 POP POP PUSH1 0x20 PUSH2 0xA78 DUP6 DUP3 DUP7 ADD PUSH2 0xA2D JUMP JUMPDEST SWAP2 POP POP SWAP3 POP SWAP3 SWAP1 POP JUMP JUMPDEST PUSH1 0x0 PUSH2 0xA8D DUP3 PUSH2 0x9E4 JUMP JUMPDEST SWAP1 POP SWAP2 SWAP1 POP JUMP JUMPDEST PUSH2 0xA9D DUP2 PUSH2 0xA82 JUMP JUMPDEST DUP2 EQ PUSH2 0xAA8 JUMPI PUSH1 0x0 DUP1 REVERT JUMPDEST POP JUMP JUMPDEST PUSH1 0x0 DUP2 CALLDATALOAD SWAP1 POP PUSH2 0xABA DUP2 PUSH2 0xA94 JUMP JUMPDEST SWAP3 SWAP2 POP POP JUMP JUMPDEST PUSH1 0x0 PUSH1 0x20 DUP3 DUP5 SUB SLT ISZERO PUSH2 0xAD6 JUMPI PUSH2 0xAD5 PUSH2 0x9A9 JUMP JUMPDEST JUMPDEST PUSH1 0x0 PUSH2 0xAE4 DUP5 DUP3 DUP6 ADD PUSH2 0xAAB JUMP JUMPDEST SWAP2 POP POP SWAP3 SWAP2 POP POP JUMP JUMPDEST PUSH1 0x0 DUP2 ISZERO ISZERO SWAP1 POP SWAP2 SWAP1 POP JUMP JUMPDEST PUSH2 0xB02 DUP2 PUSH2 0xAED JUMP JUMPDEST DUP3 MSTORE POP POP JUMP JUMPDEST PUSH2 0xB11 DUP2 PUSH2 0x9AE JUMP JUMPDEST DUP3 MSTORE POP POP JUMP JUMPDEST PUSH1 0x0 PUSH1 0x40 DUP3 ADD SWAP1 POP PUSH2 0xB2C PUSH1 0x0 DUP4 ADD DUP6 PUSH2 0xAF9 JUMP JUMPDEST PUSH2 0xB39 PUSH1 0x20 DUP4 ADD DUP5 PUSH2 0xB08 JUMP JUMPDEST SWAP4 SWAP3 POP POP POP JUMP JUMPDEST PUSH1 0x0 PUSH1 0x20 DUP3 ADD SWAP1 POP PUSH2 0xB55 PUSH1 0x0 DUP4 ADD DUP5 PUSH2 0xB08 JUMP JUMPDEST SWAP3 SWAP2 POP POP JUMP JUMPDEST PUSH2 0xB64 DUP2 PUSH2 0xA82 JUMP JUMPDEST DUP3 MSTORE POP POP JUMP JUMPDEST PUSH1 0x0 PUSH1 0x20 DUP3 ADD SWAP1 POP PUSH2 0xB7F PUSH1 0x0 DUP4 ADD DUP5 PUSH2 0xB5B JUMP JUMPDEST SWAP3 SWAP2 POP POP JUMP JUMPDEST PUSH1 0x0 DUP1 PUSH1 0x40 DUP4 DUP6 SUB SLT ISZERO PUSH2 0xB9C JUMPI PUSH2 0xB9B PUSH2 0x9A9 JUMP JUMPDEST JUMPDEST PUSH1 0x0 PUSH2 0xBAA DUP6 DUP3 DUP7 ADD PUSH2 0xAAB JUMP JUMPDEST SWAP3 POP POP PUSH1 0x20 PUSH2 0xBBB DUP6 DUP3 DUP7 ADD PUSH2 0x9CF JUMP JUMPDEST SWAP2 POP POP SWAP3 POP SWAP3 SWAP1 POP JUMP JUMPDEST PUSH1 0x0 DUP3 DUP3 MSTORE PUSH1 0x20 DUP3 ADD SWAP1 POP SWAP3 SWAP2 POP POP JUMP JUMPDEST PUSH32 0x596F75206861766520746F206265206F776E6572000000000000000000000000 PUSH1 0x0 DUP3 ADD MSTORE POP JUMP JUMPDEST PUSH1 0x0 PUSH2 0xC0C PUSH1 0x14 DUP4 PUSH2 0xBC5 JUMP JUMPDEST SWAP2 POP PUSH2 0xC17 DUP3 PUSH2 0xBD6 JUMP JUMPDEST PUSH1 0x20 DUP3 ADD SWAP1 POP SWAP2 SWAP1 POP JUMP JUMPDEST PUSH1 0x0 PUSH1 0x20 DUP3 ADD SWAP1 POP DUP2 DUP2 SUB PUSH1 0x0 DUP4 ADD MSTORE PUSH2 0xC3B DUP2 PUSH2 0xBFF JUMP JUMPDEST SWAP1 POP SWAP2 SWAP1 POP JUMP JUMPDEST PUSH32 0x596F75206E6565647320746F206265206F776E65722E20616E642063616E2774 PUSH1 0x0 DUP3 ADD MSTORE PUSH32 0x20626520657863656564207468616E206D6178696D756D20677561726469616E PUSH1 0x20 DUP3 ADD MSTORE POP JUMP JUMPDEST PUSH1 0x0 PUSH2 0xC9E PUSH1 0x40 DUP4 PUSH2 0xBC5 JUMP JUMPDEST SWAP2 POP PUSH2 0xCA9 DUP3 PUSH2 0xC42 JUMP JUMPDEST PUSH1 0x40 DUP3 ADD SWAP1 POP SWAP2 SWAP1 POP JUMP JUMPDEST PUSH1 0x0 PUSH1 0x20 DUP3 ADD SWAP1 POP DUP2 DUP2 SUB PUSH1 0x0 DUP4 ADD MSTORE PUSH2 0xCCD DUP2 PUSH2 0xC91 JUMP JUMPDEST SWAP1 POP SWAP2 SWAP1 POP JUMP JUMPDEST PUSH32 0x4E487B7100000000000000000000000000000000000000000000000000000000 PUSH1 0x0 MSTORE PUSH1 0x11 PUSH1 0x4 MSTORE PUSH1 0x24 PUSH1 0x0 REVERT JUMPDEST PUSH1 0x0 PUSH2 0xD0E DUP3 PUSH2 0x9AE JUMP JUMPDEST SWAP2 POP PUSH32 0xFFFFFFFFFFFFFFFFFFFFFFFFFFFFFFFFFFFFFFFFFFFFFFFFFFFFFFFFFFFFFFFF DUP3 SUB PUSH2 0xD40 JUMPI PUSH2 0xD3F PUSH2 0xCD4 JUMP JUMPDEST JUMPDEST PUSH1 0x1 DUP3 ADD SWAP1 POP SWAP2 SWAP1 POP JUMP JUMPDEST PUSH32 0x596F75206E6565647320746F206265206F776E6572206F72206D757374206769 PUSH1 0x0 DUP3 ADD MSTORE PUSH32 0x7665206F6E65206F662074686520677561726461696E7320616E6420636F6E74 PUSH1 0x20 DUP3 ADD MSTORE PUSH32 0x726163742062616C616E6365206D757374206265206772656174657220746861 PUSH1 0x40 DUP3 ADD MSTORE PUSH32 0x6E20616D6F756E74000000000000000000000000000000000000000000000000 PUSH1 0x60 DUP3 ADD MSTORE POP JUMP JUMPDEST PUSH1 0x0 PUSH2 0xDF3 PUSH1 0x68 DUP4 PUSH2 0xBC5 JUMP JUMPDEST SWAP2 POP PUSH2 0xDFE DUP3 PUSH2 0xD4B JUMP JUMPDEST PUSH1 0x80 DUP3 ADD SWAP1 POP SWAP2 SWAP1 POP JUMP JUMPDEST PUSH1 0x0 PUSH1 0x20 DUP3 ADD SWAP1 POP DUP2 DUP2 SUB PUSH1 0x0 DUP4 ADD MSTORE PUSH2 0xE22 DUP2 PUSH2 0xDE6 JUMP JUMPDEST SWAP1 POP SWAP2 SWAP1 POP JUMP JUMPDEST PUSH32 0x596F75206E6565647320746F20626520677561726469616E20746F20766F7465 PUSH1 0x0 DUP3 ADD MSTORE POP JUMP JUMPDEST PUSH1 0x0 PUSH2 0xE5F PUSH1 0x20 DUP4 PUSH2 0xBC5 JUMP JUMPDEST SWAP2 POP PUSH2 0xE6A DUP3 PUSH2 0xE29 JUMP JUMPDEST PUSH1 0x20 DUP3 ADD SWAP1 POP SWAP2 SWAP1 POP JUMP JUMPDEST PUSH1 0x0 PUSH1 0x20 DUP3 ADD SWAP1 POP DUP2 DUP2 SUB PUSH1 0x0 DUP4 ADD MSTORE PUSH2 0xE8E DUP2 PUSH2 0xE52 JUMP JUMPDEST SWAP1 POP SWAP2 SWAP1 POP JUMP JUMPDEST PUSH1 0x0 PUSH2 0xEA0 DUP3 PUSH2 0x9AE JUMP JUMPDEST SWAP2 POP PUSH2 0xEAB DUP4 PUSH2 0x9AE JUMP JUMPDEST SWAP3 POP DUP2 PUSH32 0xFFFFFFFFFFFFFFFFFFFFFFFFFFFFFFFFFFFFFFFFFFFFFFFFFFFFFFFFFFFFFFFF DIV DUP4 GT DUP3 ISZERO ISZERO AND ISZERO PUSH2 0xEE4 JUMPI PUSH2 0xEE3 PUSH2 0xCD4 JUMP JUMPDEST JUMPDEST DUP3 DUP3 MUL SWAP1 POP SWAP3 SWAP2 POP POP JUMP JUMPDEST PUSH32 0x4E487B7100000000000000000000000000000000000000000000000000000000 PUSH1 0x0 MSTORE PUSH1 0x12 PUSH1 0x4 MSTORE PUSH1 0x24 PUSH1 0x0 REVERT JUMPDEST PUSH1 0x0 PUSH2 0xF29 DUP3 PUSH2 0x9AE JUMP JUMPDEST SWAP2 POP PUSH2 0xF34 DUP4 PUSH2 0x9AE JUMP JUMPDEST SWAP3 POP DUP3 PUSH2 0xF44 JUMPI PUSH2 0xF43 PUSH2 0xEEF JUMP JUMPDEST JUMPDEST DUP3 DUP3 DIV SWAP1 POP SWAP3 SWAP2 POP POP JUMP INVALID LOG2 PUSH5 0x6970667358 0x22 SLT KECCAK256 ORIGIN PUSH13 0x62785DDDF6311E6D1D15E33C8C 0x4A PUSH27 0xCBA2AA6A704F598F15BF2BA9AC6AD864736F6C634300080E003300 "
				},
				"gasEstimates": {
					"creation": {
						"codeDepositCost": "794600",
						"executionCost": "47203",
						"totalCost": "841803"
					},
					"external": {
						"addGuardain(address)": "55640",
						"currentGuardians()": "2474",
						"geTotalBalance()": "427",
						"giveAllowance(address,uint256)": "27342",
						"guardians(address)": "5105",
						"maxGuardians()": "2518",
						"newOwner()": "2624",
						"owner()": "2511",
						"proposeNewOwner(address)": "infinite",
						"sendMoney(uint256,address)": "infinite",
						"votesForNewOwner()": "2451"
					}
				},
				"methodIdentifiers": {
					"addGuardain(address)": "5bf36423",
					"currentGuardians()": "3c911347",
					"geTotalBalance()": "babd957d",
					"giveAllowance(address,uint256)": "958ff7fb",
					"guardians(address)": "0633b14a",
					"maxGuardians()": "8be04352",
					"newOwner()": "d4ee1d90",
					"owner()": "8da5cb5b",
					"proposeNewOwner(address)": "b1f8100d",
					"sendMoney(uint256,address)": "062a7544",
					"votesForNewOwner()": "8f6d38a5"
				}
			},
			"storageLayout": {
				"storage": [
					{
						"astId": 3,
						"contract": "contracts/guardian.sol:GuardianContract",
						"label": "owner",
						"offset": 0,
						"slot": "0",
						"type": "t_address"
					},
					{
						"astId": 11,
						"contract": "contracts/guardian.sol:GuardianContract",
						"label": "maxGuardians",
						"offset": 0,
						"slot": "1",
						"type": "t_uint256"
					},
					{
						"astId": 13,
						"contract": "contracts/guardian.sol:GuardianContract",
						"label": "currentGuardians",
						"offset": 0,
						"slot": "2",
						"type": "t_uint256"
					},
					{
						"astId": 18,
						"contract": "contracts/guardian.sol:GuardianContract",
						"label": "guardians",
						"offset": 0,
						"slot": "3",
						"type": "t_mapping(t_address,t_struct(GuardianInfo)8_storage)"
					},
					{
						"astId": 20,
						"contract": "contracts/guardian.sol:GuardianContract",
						"label": "newOwner",
						"offset": 0,
						"slot": "4",
						"type": "t_address"
					},
					{
						"astId": 22,
						"contract": "contracts/guardian.sol:GuardianContract",
						"label": "votesForNewOwner",
						"offset": 0,
						"slot": "5",
						"type": "t_uint256"
					}
				],
				"types": {
					"t_address": {
						"encoding": "inplace",
						"label": "address",
						"numberOfBytes": "20"
					},
					"t_bool": {
						"encoding": "inplace",
						"label": "bool",
						"numberOfBytes": "1"
					},
					"t_mapping(t_address,t_struct(GuardianInfo)8_storage)": {
						"encoding": "mapping",
						"key": "t_address",
						"label": "mapping(address => struct GuardianContract.GuardianInfo)",
						"numberOfBytes": "32",
						"value": "t_struct(GuardianInfo)8_storage"
					},
					"t_struct(GuardianInfo)8_storage": {
						"encoding": "inplace",
						"label": "struct GuardianContract.GuardianInfo",
						"members": [
							{
								"astId": 5,
								"contract": "contracts/guardian.sol:GuardianContract",
								"label": "isGuardian",
								"offset": 0,
								"slot": "0",
								"type": "t_bool"
							},
							{
								"astId": 7,
								"contract": "contracts/guardian.sol:GuardianContract",
								"label": "balance",
								"offset": 0,
								"slot": "1",
								"type": "t_uint256"
							}
						],
						"numberOfBytes": "64"
					},
					"t_uint256": {
						"encoding": "inplace",
						"label": "uint256",
						"numberOfBytes": "32"
					}
				}
			},
			"userdoc": {
				"kind": "user",
				"methods": {},
				"version": 1
			}
		}
	}
}