{
	"contracts/guardian.sol": {
		"GuardianContract": {
			"abi": [
				{
					"inputs": [],
					"stateMutability": "nonpayable",
					"type": "constructor"
				},
				{
					"inputs": [
						{
							"internalType": "address",
							"name": "_guardian",
							"type": "address"
						}
					],
					"name": "addGuardain",
					"outputs": [],
					"stateMutability": "nonpayable",
					"type": "function"
				},
				{
					"inputs": [],
					"name": "currentGuardians",
					"outputs": [
						{
							"internalType": "uint256",
							"name": "",
							"type": "uint256"
						}
					],
					"stateMutability": "view",
					"type": "function"
				},
				{
					"inputs": [],
					"name": "geTotalBalance",
					"outputs": [
						{
							"internalType": "uint256",
							"name": "",
							"type": "uint256"
						}
					],
					"stateMutability": "view",
					"type": "function"
				},
				{
					"inputs": [
						{
							"internalType": "address",
							"name": "_guardian",
							"type": "address"
						},
						{
							"internalType": "uint256",
							"name": "_amount",
							"type": "uint256"
						}
					],
					"name": "giveAllowance",
					"outputs": [],
					"stateMutability": "nonpayable",
					"type": "function"
				},
				{
					"inputs": [
						{
							"internalType": "address",
							"name": "",
							"type": "address"
						}
					],
					"name": "guardians",
					"outputs": [
						{
							"internalType": "bool",
							"name": "isGuardian",
							"type": "bool"
						},
						{
							"internalType": "uint256",
							"name": "balance",
							"type": "uint256"
						}
					],
					"stateMutability": "view",
					"type": "function"
				},
				{
					"inputs": [],
					"name": "maxGuardians",
					"outputs": [
						{
							"internalType": "uint256",
							"name": "",
							"type": "uint256"
						}
					],
					"stateMutability": "view",
					"type": "function"
				},
				{
					"inputs": [],
					"name": "newOwner",
					"outputs": [
						{
							"internalType": "address payable",
							"name": "",
							"type": "address"
						}
					],
					"stateMutability": "view",
					"type": "function"
				},
				{
					"inputs": [],
					"name": "owner",
					"outputs": [
						{
							"internalType": "address payable",
							"name": "",
							"type": "address"
						}
					],
					"stateMutability": "view",
					"type": "function"
				},
				{
					"inputs": [
						{
							"internalType": "address payable",
							"name": "_newOwner",
							"type": "address"
						}
					],
					"name": "proposeNewOwner",
					"outputs": [],
					"stateMutability": "nonpayable",
					"type": "function"
				},
				{
					"inputs": [
						{
							"internalType": "address",
							"name": "_guardian",
							"type": "address"
						}
					],
					"name": "removeGuardian",
					"outputs": [],
					"stateMutability": "nonpayable",
					"type": "function"
				},
				{
					"inputs": [
						{
							"internalType": "uint256",
							"name": "_amount",
							"type": "uint256"
						},
						{
							"internalType": "address payable",
							"name": "_to",
							"type": "address"
						},
						{
							"internalType": "bytes",
							"name": "_payload",
							"type": "bytes"
						}
					],
					"name": "sendMoney",
					"outputs": [
						{
							"internalType": "bytes",
							"name": "",
							"type": "bytes"
						}
					],
					"stateMutability": "nonpayable",
					"type": "function"
				},
				{
					"inputs": [
						{
							"internalType": "uint256",
							"name": "",
							"type": "uint256"
						}
					],
					"name": "votedGuardians",
					"outputs": [
						{
							"internalType": "address",
							"name": "",
							"type": "address"
						}
					],
					"stateMutability": "view",
					"type": "function"
				},
				{
					"inputs": [],
					"name": "votesForNewOwner",
					"outputs": [
						{
							"internalType": "uint256",
							"name": "",
							"type": "uint256"
						}
					],
					"stateMutability": "view",
					"type": "function"
				},
				{
					"stateMutability": "payable",
					"type": "receive"
				}
			],
			"devdoc": {
				"kind": "dev",
				"methods": {},
				"version": 1
			},
			"evm": {
				"assembly": "    /* \"contracts/guardian.sol\":225:3587  contract GuardianContract {... */\n  mstore(0x40, 0x80)\n    /* \"contracts/guardian.sol\":405:406  5 */\n  0x05\n    /* \"contracts/guardian.sol\":375:406  uint256 public maxGuardians = 5 */\n  0x01\n  sstore\n    /* \"contracts/guardian.sol\":617:675  constructor() {... */\n  callvalue\n  dup1\n  iszero\n  tag_1\n  jumpi\n  0x00\n  dup1\n  revert\ntag_1:\n  pop\n    /* \"contracts/guardian.sol\":657:667  msg.sender */\n  caller\n    /* \"contracts/guardian.sol\":641:646  owner */\n  0x00\n  dup1\n    /* \"contracts/guardian.sol\":641:668  owner = payable(msg.sender) */\n  0x0100\n  exp\n  dup2\n  sload\n  dup2\n  0xffffffffffffffffffffffffffffffffffffffff\n  mul\n  not\n  and\n  swap1\n  dup4\n  0xffffffffffffffffffffffffffffffffffffffff\n  and\n  mul\n  or\n  swap1\n  sstore\n  pop\n    /* \"contracts/guardian.sol\":225:3587  contract GuardianContract {... */\n  dataSize(sub_0)\n  dup1\n  dataOffset(sub_0)\n  0x00\n  codecopy\n  0x00\n  return\nstop\n\nsub_0: assembly {\n        /* \"contracts/guardian.sol\":225:3587  contract GuardianContract {... */\n      mstore(0x40, 0x80)\n      jumpi(tag_1, lt(calldatasize, 0x04))\n      shr(0xe0, calldataload(0x00))\n      dup1\n      0x8da5cb5b\n      gt\n      tag_16\n      jumpi\n      dup1\n      0x958ff7fb\n      gt\n      tag_17\n      jumpi\n      dup1\n      0x958ff7fb\n      eq\n      tag_12\n      jumpi\n      dup1\n      0xb1f8100d\n      eq\n      tag_13\n      jumpi\n      dup1\n      0xbabd957d\n      eq\n      tag_14\n      jumpi\n      dup1\n      0xd4ee1d90\n      eq\n      tag_15\n      jumpi\n      jump(tag_2)\n    tag_17:\n      dup1\n      0x8da5cb5b\n      eq\n      tag_9\n      jumpi\n      dup1\n      0x8f6d38a5\n      eq\n      tag_10\n      jumpi\n      dup1\n      0x93046e73\n      eq\n      tag_11\n      jumpi\n      jump(tag_2)\n    tag_16:\n      dup1\n      0x0633b14a\n      eq\n      tag_3\n      jumpi\n      dup1\n      0x110f6cf3\n      eq\n      tag_4\n      jumpi\n      dup1\n      0x3c911347\n      eq\n      tag_5\n      jumpi\n      dup1\n      0x5bf36423\n      eq\n      tag_6\n      jumpi\n      dup1\n      0x71404156\n      eq\n      tag_7\n      jumpi\n      dup1\n      0x8be04352\n      eq\n      tag_8\n      jumpi\n      jump(tag_2)\n    tag_1:\n      jumpi(tag_2, calldatasize)\n      stop\n    tag_2:\n      0x00\n      dup1\n      revert\n        /* \"contracts/guardian.sol\":449:498  mapping(address => GuardianInfo) public guardians */\n    tag_3:\n      callvalue\n      dup1\n      iszero\n      tag_20\n      jumpi\n      0x00\n      dup1\n      revert\n    tag_20:\n      pop\n      tag_21\n      0x04\n      dup1\n      calldatasize\n      sub\n      dup2\n      add\n      swap1\n      tag_22\n      swap2\n      swap1\n      tag_23\n      jump\t// in\n    tag_22:\n      tag_24\n      jump\t// in\n    tag_21:\n      mload(0x40)\n      tag_25\n      swap3\n      swap2\n      swap1\n      tag_26\n      jump\t// in\n    tag_25:\n      mload(0x40)\n      dup1\n      swap2\n      sub\n      swap1\n      return\n        /* \"contracts/guardian.sol\":579:610  address[] public votedGuardians */\n    tag_4:\n      callvalue\n      dup1\n      iszero\n      tag_27\n      jumpi\n      0x00\n      dup1\n      revert\n    tag_27:\n      pop\n      tag_28\n      0x04\n      dup1\n      calldatasize\n      sub\n      dup2\n      add\n      swap1\n      tag_29\n      swap2\n      swap1\n      tag_30\n      jump\t// in\n    tag_29:\n      tag_31\n      jump\t// in\n    tag_28:\n      mload(0x40)\n      tag_32\n      swap2\n      swap1\n      tag_33\n      jump\t// in\n    tag_32:\n      mload(0x40)\n      dup1\n      swap2\n      sub\n      swap1\n      return\n        /* \"contracts/guardian.sol\":412:443  uint256 public currentGuardians */\n    tag_5:\n      callvalue\n      dup1\n      iszero\n      tag_34\n      jumpi\n      0x00\n      dup1\n      revert\n    tag_34:\n      pop\n      tag_35\n      tag_36\n      jump\t// in\n    tag_35:\n      mload(0x40)\n      tag_37\n      swap2\n      swap1\n      tag_38\n      jump\t// in\n    tag_37:\n      mload(0x40)\n      dup1\n      swap2\n      sub\n      swap1\n      return\n        /* \"contracts/guardian.sol\":1413:1718  function addGuardain(address _guardian) public {... */\n    tag_6:\n      callvalue\n      dup1\n      iszero\n      tag_39\n      jumpi\n      0x00\n      dup1\n      revert\n    tag_39:\n      pop\n      tag_40\n      0x04\n      dup1\n      calldatasize\n      sub\n      dup2\n      add\n      swap1\n      tag_41\n      swap2\n      swap1\n      tag_23\n      jump\t// in\n    tag_41:\n      tag_42\n      jump\t// in\n    tag_40:\n      stop\n        /* \"contracts/guardian.sol\":1724:2037  function removeGuardian(address _guardian) public {... */\n    tag_7:\n      callvalue\n      dup1\n      iszero\n      tag_43\n      jumpi\n      0x00\n      dup1\n      revert\n    tag_43:\n      pop\n      tag_44\n      0x04\n      dup1\n      calldatasize\n      sub\n      dup2\n      add\n      swap1\n      tag_45\n      swap2\n      swap1\n      tag_23\n      jump\t// in\n    tag_45:\n      tag_46\n      jump\t// in\n    tag_44:\n      stop\n        /* \"contracts/guardian.sol\":375:406  uint256 public maxGuardians = 5 */\n    tag_8:\n      callvalue\n      dup1\n      iszero\n      tag_47\n      jumpi\n      0x00\n      dup1\n      revert\n    tag_47:\n      pop\n      tag_48\n      tag_49\n      jump\t// in\n    tag_48:\n      mload(0x40)\n      tag_50\n      swap2\n      swap1\n      tag_38\n      jump\t// in\n    tag_50:\n      mload(0x40)\n      dup1\n      swap2\n      sub\n      swap1\n      return\n        /* \"contracts/guardian.sol\":257:285  address payable public owner */\n    tag_9:\n      callvalue\n      dup1\n      iszero\n      tag_51\n      jumpi\n      0x00\n      dup1\n      revert\n    tag_51:\n      pop\n      tag_52\n      tag_53\n      jump\t// in\n    tag_52:\n      mload(0x40)\n      tag_54\n      swap2\n      swap1\n      tag_55\n      jump\t// in\n    tag_54:\n      mload(0x40)\n      dup1\n      swap2\n      sub\n      swap1\n      return\n        /* \"contracts/guardian.sol\":542:573  uint256 public votesForNewOwner */\n    tag_10:\n      callvalue\n      dup1\n      iszero\n      tag_56\n      jumpi\n      0x00\n      dup1\n      revert\n    tag_56:\n      pop\n      tag_57\n      tag_58\n      jump\t// in\n    tag_57:\n      mload(0x40)\n      tag_59\n      swap2\n      swap1\n      tag_38\n      jump\t// in\n    tag_59:\n      mload(0x40)\n      dup1\n      swap2\n      sub\n      swap1\n      return\n        /* \"contracts/guardian.sol\":823:1407  function sendMoney(... */\n    tag_11:\n      callvalue\n      dup1\n      iszero\n      tag_60\n      jumpi\n      0x00\n      dup1\n      revert\n    tag_60:\n      pop\n      tag_61\n      0x04\n      dup1\n      calldatasize\n      sub\n      dup2\n      add\n      swap1\n      tag_62\n      swap2\n      swap1\n      tag_63\n      jump\t// in\n    tag_62:\n      tag_64\n      jump\t// in\n    tag_61:\n      mload(0x40)\n      tag_65\n      swap2\n      swap1\n      tag_66\n      jump\t// in\n    tag_65:\n      mload(0x40)\n      dup1\n      swap2\n      sub\n      swap1\n      return\n        /* \"contracts/guardian.sol\":2043:2447  function giveAllowance(address _guardian, uint256 _amount) public {... */\n    tag_12:\n      callvalue\n      dup1\n      iszero\n      tag_67\n      jumpi\n      0x00\n      dup1\n      revert\n    tag_67:\n      pop\n      tag_68\n      0x04\n      dup1\n      calldatasize\n      sub\n      dup2\n      add\n      swap1\n      tag_69\n      swap2\n      swap1\n      tag_70\n      jump\t// in\n    tag_69:\n      tag_71\n      jump\t// in\n    tag_68:\n      stop\n        /* \"contracts/guardian.sol\":2453:3585  function proposeNewOwner(address payable _newOwner) public {... */\n    tag_13:\n      callvalue\n      dup1\n      iszero\n      tag_72\n      jumpi\n      0x00\n      dup1\n      revert\n    tag_72:\n      pop\n      tag_73\n      0x04\n      dup1\n      calldatasize\n      sub\n      dup2\n      add\n      swap1\n      tag_74\n      swap2\n      swap1\n      tag_75\n      jump\t// in\n    tag_74:\n      tag_76\n      jump\t// in\n    tag_73:\n      stop\n        /* \"contracts/guardian.sol\":716:817  function geTotalBalance() public view returns (uint256) {... */\n    tag_14:\n      callvalue\n      dup1\n      iszero\n      tag_77\n      jumpi\n      0x00\n      dup1\n      revert\n    tag_77:\n      pop\n      tag_78\n      tag_79\n      jump\t// in\n    tag_78:\n      mload(0x40)\n      tag_80\n      swap2\n      swap1\n      tag_38\n      jump\t// in\n    tag_80:\n      mload(0x40)\n      dup1\n      swap2\n      sub\n      swap1\n      return\n        /* \"contracts/guardian.sol\":505:536  address payable public newOwner */\n    tag_15:\n      callvalue\n      dup1\n      iszero\n      tag_81\n      jumpi\n      0x00\n      dup1\n      revert\n    tag_81:\n      pop\n      tag_82\n      tag_83\n      jump\t// in\n    tag_82:\n      mload(0x40)\n      tag_84\n      swap2\n      swap1\n      tag_55\n      jump\t// in\n    tag_84:\n      mload(0x40)\n      dup1\n      swap2\n      sub\n      swap1\n      return\n        /* \"contracts/guardian.sol\":449:498  mapping(address => GuardianInfo) public guardians */\n    tag_24:\n      mstore(0x20, 0x03)\n      dup1\n      0x00\n      mstore\n      keccak256(0x00, 0x40)\n      0x00\n      swap2\n      pop\n      swap1\n      pop\n      dup1\n      0x00\n      add\n      0x00\n      swap1\n      sload\n      swap1\n      0x0100\n      exp\n      swap1\n      div\n      0xff\n      and\n      swap1\n      dup1\n      0x01\n      add\n      sload\n      swap1\n      pop\n      dup3\n      jump\t// out\n        /* \"contracts/guardian.sol\":579:610  address[] public votedGuardians */\n    tag_31:\n      0x06\n      dup2\n      dup2\n      sload\n      dup2\n      lt\n      tag_85\n      jumpi\n      0x00\n      dup1\n      revert\n    tag_85:\n      swap1\n      0x00\n      mstore\n      keccak256(0x00, 0x20)\n      add\n      0x00\n      swap2\n      pop\n      sload\n      swap1\n      0x0100\n      exp\n      swap1\n      div\n      0xffffffffffffffffffffffffffffffffffffffff\n      and\n      dup2\n      jump\t// out\n        /* \"contracts/guardian.sol\":412:443  uint256 public currentGuardians */\n    tag_36:\n      sload(0x02)\n      dup2\n      jump\t// out\n        /* \"contracts/guardian.sol\":1413:1718  function addGuardain(address _guardian) public {... */\n    tag_42:\n        /* \"contracts/guardian.sol\":1505:1510  owner */\n      0x00\n      dup1\n      sload\n      swap1\n      0x0100\n      exp\n      swap1\n      div\n      0xffffffffffffffffffffffffffffffffffffffff\n      and\n        /* \"contracts/guardian.sol\":1491:1510  msg.sender == owner */\n      0xffffffffffffffffffffffffffffffffffffffff\n      and\n        /* \"contracts/guardian.sol\":1491:1501  msg.sender */\n      caller\n        /* \"contracts/guardian.sol\":1491:1510  msg.sender == owner */\n      0xffffffffffffffffffffffffffffffffffffffff\n      and\n      eq\n        /* \"contracts/guardian.sol\":1491:1545  msg.sender == owner && currentGuardians < maxGuardians */\n      dup1\n      iszero\n      tag_88\n      jumpi\n      pop\n        /* \"contracts/guardian.sol\":1533:1545  maxGuardians */\n      sload(0x01)\n        /* \"contracts/guardian.sol\":1514:1530  currentGuardians */\n      sload(0x02)\n        /* \"contracts/guardian.sol\":1514:1545  currentGuardians < maxGuardians */\n      lt\n        /* \"contracts/guardian.sol\":1491:1545  msg.sender == owner && currentGuardians < maxGuardians */\n    tag_88:\n        /* \"contracts/guardian.sol\":1470:1635  require(... */\n      tag_89\n      jumpi\n      mload(0x40)\n      0x08c379a000000000000000000000000000000000000000000000000000000000\n      dup2\n      mstore\n      0x04\n      add\n      tag_90\n      swap1\n      tag_91\n      jump\t// in\n    tag_90:\n      mload(0x40)\n      dup1\n      swap2\n      sub\n      swap1\n      revert\n    tag_89:\n        /* \"contracts/guardian.sol\":1645:1661  currentGuardians */\n      0x02\n      0x00\n        /* \"contracts/guardian.sol\":1645:1663  currentGuardians++ */\n      dup2\n      sload\n      dup1\n      swap3\n      swap2\n      swap1\n      tag_92\n      swap1\n      tag_93\n      jump\t// in\n    tag_92:\n      swap2\n      swap1\n      pop\n      sstore\n      pop\n        /* \"contracts/guardian.sol\":1707:1711  true */\n      0x01\n        /* \"contracts/guardian.sol\":1673:1682  guardians */\n      0x03\n        /* \"contracts/guardian.sol\":1673:1693  guardians[_guardian] */\n      0x00\n        /* \"contracts/guardian.sol\":1683:1692  _guardian */\n      dup4\n        /* \"contracts/guardian.sol\":1673:1693  guardians[_guardian] */\n      0xffffffffffffffffffffffffffffffffffffffff\n      and\n      0xffffffffffffffffffffffffffffffffffffffff\n      and\n      dup2\n      mstore\n      0x20\n      add\n      swap1\n      dup2\n      mstore\n      0x20\n      add\n      0x00\n      keccak256\n        /* \"contracts/guardian.sol\":1673:1704  guardians[_guardian].isGuardian */\n      0x00\n      add\n      0x00\n        /* \"contracts/guardian.sol\":1673:1711  guardians[_guardian].isGuardian = true */\n      0x0100\n      exp\n      dup2\n      sload\n      dup2\n      0xff\n      mul\n      not\n      and\n      swap1\n      dup4\n      iszero\n      iszero\n      mul\n      or\n      swap1\n      sstore\n      pop\n        /* \"contracts/guardian.sol\":1413:1718  function addGuardain(address _guardian) public {... */\n      pop\n      jump\t// out\n        /* \"contracts/guardian.sol\":1724:2037  function removeGuardian(address _guardian) public {... */\n    tag_46:\n        /* \"contracts/guardian.sol\":1819:1824  owner */\n      0x00\n      dup1\n      sload\n      swap1\n      0x0100\n      exp\n      swap1\n      div\n      0xffffffffffffffffffffffffffffffffffffffff\n      and\n        /* \"contracts/guardian.sol\":1805:1824  msg.sender == owner */\n      0xffffffffffffffffffffffffffffffffffffffff\n      and\n        /* \"contracts/guardian.sol\":1805:1815  msg.sender */\n      caller\n        /* \"contracts/guardian.sol\":1805:1824  msg.sender == owner */\n      0xffffffffffffffffffffffffffffffffffffffff\n      and\n      eq\n        /* \"contracts/guardian.sol\":1805:1859  msg.sender == owner && guardians[_guardian].isGuardian */\n      dup1\n      iszero\n      tag_95\n      jumpi\n      pop\n        /* \"contracts/guardian.sol\":1828:1837  guardians */\n      0x03\n        /* \"contracts/guardian.sol\":1828:1848  guardians[_guardian] */\n      0x00\n        /* \"contracts/guardian.sol\":1838:1847  _guardian */\n      dup3\n        /* \"contracts/guardian.sol\":1828:1848  guardians[_guardian] */\n      0xffffffffffffffffffffffffffffffffffffffff\n      and\n      0xffffffffffffffffffffffffffffffffffffffff\n      and\n      dup2\n      mstore\n      0x20\n      add\n      swap1\n      dup2\n      mstore\n      0x20\n      add\n      0x00\n      keccak256\n        /* \"contracts/guardian.sol\":1828:1859  guardians[_guardian].isGuardian */\n      0x00\n      add\n      0x00\n      swap1\n      sload\n      swap1\n      0x0100\n      exp\n      swap1\n      div\n      0xff\n      and\n        /* \"contracts/guardian.sol\":1805:1859  msg.sender == owner && guardians[_guardian].isGuardian */\n    tag_95:\n        /* \"contracts/guardian.sol\":1784:1947  require(... */\n      tag_96\n      jumpi\n      mload(0x40)\n      0x08c379a000000000000000000000000000000000000000000000000000000000\n      dup2\n      mstore\n      0x04\n      add\n      tag_97\n      swap1\n      tag_98\n      jump\t// in\n    tag_97:\n      mload(0x40)\n      dup1\n      swap2\n      sub\n      swap1\n      revert\n    tag_96:\n        /* \"contracts/guardian.sol\":1957:1973  currentGuardians */\n      0x02\n      0x00\n        /* \"contracts/guardian.sol\":1957:1975  currentGuardians-- */\n      dup2\n      sload\n      dup1\n      swap3\n      swap2\n      swap1\n      tag_99\n      swap1\n      tag_100\n      jump\t// in\n    tag_99:\n      swap2\n      swap1\n      pop\n      sstore\n      pop\n        /* \"contracts/guardian.sol\":2008:2030  GuardianInfo(false, 0) */\n      mload(0x40)\n      dup1\n      0x40\n      add\n      0x40\n      mstore\n      dup1\n        /* \"contracts/guardian.sol\":2021:2026  false */\n      0x00\n        /* \"contracts/guardian.sol\":2008:2030  GuardianInfo(false, 0) */\n      iszero\n      iszero\n      dup2\n      mstore\n      0x20\n      add\n        /* \"contracts/guardian.sol\":2028:2029  0 */\n      0x00\n        /* \"contracts/guardian.sol\":2008:2030  GuardianInfo(false, 0) */\n      dup2\n      mstore\n      pop\n        /* \"contracts/guardian.sol\":1985:1994  guardians */\n      0x03\n        /* \"contracts/guardian.sol\":1985:2005  guardians[_guardian] */\n      0x00\n        /* \"contracts/guardian.sol\":1995:2004  _guardian */\n      dup4\n        /* \"contracts/guardian.sol\":1985:2005  guardians[_guardian] */\n      0xffffffffffffffffffffffffffffffffffffffff\n      and\n      0xffffffffffffffffffffffffffffffffffffffff\n      and\n      dup2\n      mstore\n      0x20\n      add\n      swap1\n      dup2\n      mstore\n      0x20\n      add\n      0x00\n      keccak256\n        /* \"contracts/guardian.sol\":1985:2030  guardians[_guardian] = GuardianInfo(false, 0) */\n      0x00\n      dup3\n      add\n      mload\n      dup2\n      0x00\n      add\n      exp(0x0100, 0x00)\n      dup2\n      sload\n      dup2\n      0xff\n      mul\n      not\n      and\n      swap1\n      dup4\n      iszero\n      iszero\n      mul\n      or\n      swap1\n      sstore\n      pop\n      0x20\n      dup3\n      add\n      mload\n      dup2\n      0x01\n      add\n      sstore\n      swap1\n      pop\n      pop\n        /* \"contracts/guardian.sol\":1724:2037  function removeGuardian(address _guardian) public {... */\n      pop\n      jump\t// out\n        /* \"contracts/guardian.sol\":375:406  uint256 public maxGuardians = 5 */\n    tag_49:\n      sload(0x01)\n      dup2\n      jump\t// out\n        /* \"contracts/guardian.sol\":257:285  address payable public owner */\n    tag_53:\n      0x00\n      dup1\n      sload\n      swap1\n      0x0100\n      exp\n      swap1\n      div\n      0xffffffffffffffffffffffffffffffffffffffff\n      and\n      dup2\n      jump\t// out\n        /* \"contracts/guardian.sol\":542:573  uint256 public votesForNewOwner */\n    tag_58:\n      sload(0x05)\n      dup2\n      jump\t// out\n        /* \"contracts/guardian.sol\":823:1407  function sendMoney(... */\n    tag_64:\n        /* \"contracts/guardian.sol\":949:961  bytes memory */\n      0x60\n        /* \"contracts/guardian.sol\":1005:1026  address(this).balance */\n      selfbalance\n        /* \"contracts/guardian.sol\":994:1001  _amount */\n      dup5\n        /* \"contracts/guardian.sol\":994:1026  _amount <= address(this).balance */\n      gt\n      iszero\n        /* \"contracts/guardian.sol\":994:1193  _amount <= address(this).balance &&... */\n      dup1\n      iszero\n      tag_102\n      jumpi\n      pop\n        /* \"contracts/guardian.sol\":1061:1066  owner */\n      0x00\n      dup1\n      sload\n      swap1\n      0x0100\n      exp\n      swap1\n      div\n      0xffffffffffffffffffffffffffffffffffffffff\n      and\n        /* \"contracts/guardian.sol\":1047:1066  msg.sender == owner */\n      0xffffffffffffffffffffffffffffffffffffffff\n      and\n        /* \"contracts/guardian.sol\":1047:1057  msg.sender */\n      caller\n        /* \"contracts/guardian.sol\":1047:1066  msg.sender == owner */\n      0xffffffffffffffffffffffffffffffffffffffff\n      and\n      eq\n        /* \"contracts/guardian.sol\":1047:1192  msg.sender == owner ||... */\n      dup1\n      tag_103\n      jumpi\n      pop\n        /* \"contracts/guardian.sol\":1091:1100  guardians */\n      0x03\n        /* \"contracts/guardian.sol\":1091:1112  guardians[msg.sender] */\n      0x00\n        /* \"contracts/guardian.sol\":1101:1111  msg.sender */\n      caller\n        /* \"contracts/guardian.sol\":1091:1112  guardians[msg.sender] */\n      0xffffffffffffffffffffffffffffffffffffffff\n      and\n      0xffffffffffffffffffffffffffffffffffffffff\n      and\n      dup2\n      mstore\n      0x20\n      add\n      swap1\n      dup2\n      mstore\n      0x20\n      add\n      0x00\n      keccak256\n        /* \"contracts/guardian.sol\":1091:1123  guardians[msg.sender].isGuardian */\n      0x00\n      add\n      0x00\n      swap1\n      sload\n      swap1\n      0x0100\n      exp\n      swap1\n      div\n      0xff\n      and\n        /* \"contracts/guardian.sol\":1091:1191  guardians[msg.sender].isGuardian &&... */\n      dup1\n      iszero\n      tag_104\n      jumpi\n      pop\n        /* \"contracts/guardian.sol\":1184:1191  _amount */\n      dup4\n        /* \"contracts/guardian.sol\":1151:1160  guardians */\n      0x03\n        /* \"contracts/guardian.sol\":1151:1172  guardians[msg.sender] */\n      0x00\n        /* \"contracts/guardian.sol\":1161:1171  msg.sender */\n      caller\n        /* \"contracts/guardian.sol\":1151:1172  guardians[msg.sender] */\n      0xffffffffffffffffffffffffffffffffffffffff\n      and\n      0xffffffffffffffffffffffffffffffffffffffff\n      and\n      dup2\n      mstore\n      0x20\n      add\n      swap1\n      dup2\n      mstore\n      0x20\n      add\n      0x00\n      keccak256\n        /* \"contracts/guardian.sol\":1151:1180  guardians[msg.sender].balance */\n      0x01\n      add\n      sload\n        /* \"contracts/guardian.sol\":1151:1191  guardians[msg.sender].balance >= _amount */\n      lt\n      iszero\n        /* \"contracts/guardian.sol\":1091:1191  guardians[msg.sender].isGuardian &&... */\n    tag_104:\n        /* \"contracts/guardian.sol\":1047:1192  msg.sender == owner ||... */\n    tag_103:\n        /* \"contracts/guardian.sol\":994:1193  _amount <= address(this).balance &&... */\n    tag_102:\n        /* \"contracts/guardian.sol\":973:1239  require(... */\n      tag_105\n      jumpi\n      mload(0x40)\n      0x08c379a000000000000000000000000000000000000000000000000000000000\n      dup2\n      mstore\n      0x04\n      add\n      tag_106\n      swap1\n      tag_107\n      jump\t// in\n    tag_106:\n      mload(0x40)\n      dup1\n      swap2\n      sub\n      swap1\n      revert\n    tag_105:\n        /* \"contracts/guardian.sol\":1250:1262  bool success */\n      0x00\n        /* \"contracts/guardian.sol\":1264:1287  bytes memory returnData */\n      dup1\n        /* \"contracts/guardian.sol\":1291:1294  _to */\n      dup5\n        /* \"contracts/guardian.sol\":1291:1299  _to.call */\n      0xffffffffffffffffffffffffffffffffffffffff\n      and\n        /* \"contracts/guardian.sol\":1307:1314  _amount */\n      dup7\n        /* \"contracts/guardian.sol\":1329:1337  _payload */\n      dup6\n        /* \"contracts/guardian.sol\":1291:1347  _to.call{value: _amount}(... */\n      mload(0x40)\n      tag_108\n      swap2\n      swap1\n      tag_109\n      jump\t// in\n    tag_108:\n      0x00\n      mload(0x40)\n      dup1\n      dup4\n      sub\n      dup2\n      dup6\n      dup8\n      gas\n      call\n      swap3\n      pop\n      pop\n      pop\n      returndatasize\n      dup1\n      0x00\n      dup2\n      eq\n      tag_112\n      jumpi\n      mload(0x40)\n      swap2\n      pop\n      and(add(returndatasize, 0x3f), not(0x1f))\n      dup3\n      add\n      0x40\n      mstore\n      returndatasize\n      dup3\n      mstore\n      returndatasize\n      0x00\n      0x20\n      dup5\n      add\n      returndatacopy\n      jump(tag_111)\n    tag_112:\n      0x60\n      swap2\n      pop\n    tag_111:\n      pop\n        /* \"contracts/guardian.sol\":1249:1347  (bool success, bytes memory returnData) = _to.call{value: _amount}(... */\n      swap2\n      pop\n      swap2\n      pop\n        /* \"contracts/guardian.sol\":1365:1372  success */\n      dup2\n        /* \"contracts/guardian.sol\":1357:1373  require(success) */\n      tag_113\n      jumpi\n      0x00\n      dup1\n      revert\n    tag_113:\n        /* \"contracts/guardian.sol\":1390:1400  returnData */\n      dup1\n        /* \"contracts/guardian.sol\":1383:1400  return returnData */\n      swap3\n      pop\n      pop\n      pop\n        /* \"contracts/guardian.sol\":823:1407  function sendMoney(... */\n      swap4\n      swap3\n      pop\n      pop\n      pop\n      jump\t// out\n        /* \"contracts/guardian.sol\":2043:2447  function giveAllowance(address _guardian, uint256 _amount) public {... */\n    tag_71:\n        /* \"contracts/guardian.sol\":2154:2159  owner */\n      0x00\n      dup1\n      sload\n      swap1\n      0x0100\n      exp\n      swap1\n      div\n      0xffffffffffffffffffffffffffffffffffffffff\n      and\n        /* \"contracts/guardian.sol\":2140:2159  msg.sender == owner */\n      0xffffffffffffffffffffffffffffffffffffffff\n      and\n        /* \"contracts/guardian.sol\":2140:2150  msg.sender */\n      caller\n        /* \"contracts/guardian.sol\":2140:2159  msg.sender == owner */\n      0xffffffffffffffffffffffffffffffffffffffff\n      and\n      eq\n        /* \"contracts/guardian.sol\":2140:2210  msg.sender == owner &&... */\n      dup1\n      iszero\n      tag_115\n      jumpi\n      pop\n        /* \"contracts/guardian.sol\":2179:2188  guardians */\n      0x03\n        /* \"contracts/guardian.sol\":2179:2199  guardians[_guardian] */\n      0x00\n        /* \"contracts/guardian.sol\":2189:2198  _guardian */\n      dup4\n        /* \"contracts/guardian.sol\":2179:2199  guardians[_guardian] */\n      0xffffffffffffffffffffffffffffffffffffffff\n      and\n      0xffffffffffffffffffffffffffffffffffffffff\n      and\n      dup2\n      mstore\n      0x20\n      add\n      swap1\n      dup2\n      mstore\n      0x20\n      add\n      0x00\n      keccak256\n        /* \"contracts/guardian.sol\":2179:2210  guardians[_guardian].isGuardian */\n      0x00\n      add\n      0x00\n      swap1\n      sload\n      swap1\n      0x0100\n      exp\n      swap1\n      div\n      0xff\n      and\n        /* \"contracts/guardian.sol\":2140:2210  msg.sender == owner &&... */\n    tag_115:\n        /* \"contracts/guardian.sol\":2140:2262  msg.sender == owner &&... */\n      dup1\n      iszero\n      tag_116\n      jumpi\n      pop\n        /* \"contracts/guardian.sol\":2241:2262  address(this).balance */\n      selfbalance\n        /* \"contracts/guardian.sol\":2230:2237  _amount */\n      dup2\n        /* \"contracts/guardian.sol\":2230:2262  _amount <= address(this).balance */\n      gt\n      iszero\n        /* \"contracts/guardian.sol\":2140:2262  msg.sender == owner &&... */\n    tag_116:\n        /* \"contracts/guardian.sol\":2119:2392  require(... */\n      tag_117\n      jumpi\n      mload(0x40)\n      0x08c379a000000000000000000000000000000000000000000000000000000000\n      dup2\n      mstore\n      0x04\n      add\n      tag_118\n      swap1\n      tag_119\n      jump\t// in\n    tag_118:\n      mload(0x40)\n      dup1\n      swap2\n      sub\n      swap1\n      revert\n    tag_117:\n        /* \"contracts/guardian.sol\":2433:2440  _amount */\n      dup1\n        /* \"contracts/guardian.sol\":2402:2411  guardians */\n      0x03\n        /* \"contracts/guardian.sol\":2402:2422  guardians[_guardian] */\n      0x00\n        /* \"contracts/guardian.sol\":2412:2421  _guardian */\n      dup5\n        /* \"contracts/guardian.sol\":2402:2422  guardians[_guardian] */\n      0xffffffffffffffffffffffffffffffffffffffff\n      and\n      0xffffffffffffffffffffffffffffffffffffffff\n      and\n      dup2\n      mstore\n      0x20\n      add\n      swap1\n      dup2\n      mstore\n      0x20\n      add\n      0x00\n      keccak256\n        /* \"contracts/guardian.sol\":2402:2430  guardians[_guardian].balance */\n      0x01\n      add\n        /* \"contracts/guardian.sol\":2402:2440  guardians[_guardian].balance = _amount */\n      dup2\n      swap1\n      sstore\n      pop\n        /* \"contracts/guardian.sol\":2043:2447  function giveAllowance(address _guardian, uint256 _amount) public {... */\n      pop\n      pop\n      jump\t// out\n        /* \"contracts/guardian.sol\":2453:3585  function proposeNewOwner(address payable _newOwner) public {... */\n    tag_76:\n        /* \"contracts/guardian.sol\":2543:2552  guardians */\n      0x03\n        /* \"contracts/guardian.sol\":2543:2564  guardians[msg.sender] */\n      0x00\n        /* \"contracts/guardian.sol\":2553:2563  msg.sender */\n      caller\n        /* \"contracts/guardian.sol\":2543:2564  guardians[msg.sender] */\n      0xffffffffffffffffffffffffffffffffffffffff\n      and\n      0xffffffffffffffffffffffffffffffffffffffff\n      and\n      dup2\n      mstore\n      0x20\n      add\n      swap1\n      dup2\n      mstore\n      0x20\n      add\n      0x00\n      keccak256\n        /* \"contracts/guardian.sol\":2543:2575  guardians[msg.sender].isGuardian */\n      0x00\n      add\n      0x00\n      swap1\n      sload\n      swap1\n      0x0100\n      exp\n      swap1\n      div\n      0xff\n      and\n        /* \"contracts/guardian.sol\":2543:2602  guardians[msg.sender].isGuardian && _newOwner != address(0) */\n      dup1\n      iszero\n      tag_121\n      jumpi\n      pop\n        /* \"contracts/guardian.sol\":2600:2601  0 */\n      0x00\n        /* \"contracts/guardian.sol\":2579:2602  _newOwner != address(0) */\n      0xffffffffffffffffffffffffffffffffffffffff\n      and\n        /* \"contracts/guardian.sol\":2579:2588  _newOwner */\n      dup2\n        /* \"contracts/guardian.sol\":2579:2602  _newOwner != address(0) */\n      0xffffffffffffffffffffffffffffffffffffffff\n      and\n      eq\n      iszero\n        /* \"contracts/guardian.sol\":2543:2602  guardians[msg.sender].isGuardian && _newOwner != address(0) */\n    tag_121:\n        /* \"contracts/guardian.sol\":2522:2660  require(... */\n      tag_122\n      jumpi\n      mload(0x40)\n      0x08c379a000000000000000000000000000000000000000000000000000000000\n      dup2\n      mstore\n      0x04\n      add\n      tag_123\n      swap1\n      tag_124\n      jump\t// in\n    tag_123:\n      mload(0x40)\n      dup1\n      swap2\n      sub\n      swap1\n      revert\n    tag_122:\n        /* \"contracts/guardian.sol\":2987:2996  uint256 i */\n      0x00\n        /* \"contracts/guardian.sol\":2982:3126  for (uint256 i = 0; i < votedGuardians.length; i++) {... */\n    tag_125:\n        /* \"contracts/guardian.sol\":3006:3020  votedGuardians */\n      0x06\n        /* \"contracts/guardian.sol\":3006:3027  votedGuardians.length */\n      dup1\n      sload\n      swap1\n      pop\n        /* \"contracts/guardian.sol\":3002:3003  i */\n      dup2\n        /* \"contracts/guardian.sol\":3002:3027  i < votedGuardians.length */\n      lt\n        /* \"contracts/guardian.sol\":2982:3126  for (uint256 i = 0; i < votedGuardians.length; i++) {... */\n      iszero\n      tag_126\n      jumpi\n        /* \"contracts/guardian.sol\":3077:3087  msg.sender */\n      caller\n        /* \"contracts/guardian.sol\":3056:3087  votedGuardians[i] != msg.sender */\n      0xffffffffffffffffffffffffffffffffffffffff\n      and\n        /* \"contracts/guardian.sol\":3056:3070  votedGuardians */\n      0x06\n        /* \"contracts/guardian.sol\":3071:3072  i */\n      dup3\n        /* \"contracts/guardian.sol\":3056:3073  votedGuardians[i] */\n      dup2\n      sload\n      dup2\n      lt\n      tag_128\n      jumpi\n      tag_129\n      tag_130\n      jump\t// in\n    tag_129:\n    tag_128:\n      swap1\n      0x00\n      mstore\n      keccak256(0x00, 0x20)\n      add\n      0x00\n      swap1\n      sload\n      swap1\n      0x0100\n      exp\n      swap1\n      div\n      0xffffffffffffffffffffffffffffffffffffffff\n      and\n        /* \"contracts/guardian.sol\":3056:3087  votedGuardians[i] != msg.sender */\n      0xffffffffffffffffffffffffffffffffffffffff\n      and\n      sub\n        /* \"contracts/guardian.sol\":3048:3115  require(votedGuardians[i] != msg.sender, \"You already voted, duh!\") */\n      tag_132\n      jumpi\n      mload(0x40)\n      0x08c379a000000000000000000000000000000000000000000000000000000000\n      dup2\n      mstore\n      0x04\n      add\n      tag_133\n      swap1\n      tag_134\n      jump\t// in\n    tag_133:\n      mload(0x40)\n      dup1\n      swap2\n      sub\n      swap1\n      revert\n    tag_132:\n        /* \"contracts/guardian.sol\":3029:3032  i++ */\n      dup1\n      dup1\n      tag_135\n      swap1\n      tag_93\n      jump\t// in\n    tag_135:\n      swap2\n      pop\n      pop\n        /* \"contracts/guardian.sol\":2982:3126  for (uint256 i = 0; i < votedGuardians.length; i++) {... */\n      jump(tag_125)\n    tag_126:\n      pop\n        /* \"contracts/guardian.sol\":3135:3149  votedGuardians */\n      0x06\n        /* \"contracts/guardian.sol\":3155:3165  msg.sender */\n      caller\n        /* \"contracts/guardian.sol\":3135:3166  votedGuardians.push(msg.sender) */\n      swap1\n      dup1\n      0x01\n      dup2\n      sload\n      add\n      dup1\n      dup3\n      sstore\n      dup1\n      swap2\n      pop\n      pop\n      0x01\n      swap1\n      sub\n      swap1\n      0x00\n      mstore\n      keccak256(0x00, 0x20)\n      add\n      0x00\n      swap1\n      swap2\n      swap1\n      swap2\n      swap1\n      swap2\n      0x0100\n      exp\n      dup2\n      sload\n      dup2\n      0xffffffffffffffffffffffffffffffffffffffff\n      mul\n      not\n      and\n      swap1\n      dup4\n      0xffffffffffffffffffffffffffffffffffffffff\n      and\n      mul\n      or\n      swap1\n      sstore\n      pop\n        /* \"contracts/guardian.sol\":3200:3201  0 */\n      0x00\n        /* \"contracts/guardian.sol\":3180:3202  newOwner != address(0) */\n      0xffffffffffffffffffffffffffffffffffffffff\n      and\n        /* \"contracts/guardian.sol\":3180:3188  newOwner */\n      0x04\n      0x00\n      swap1\n      sload\n      swap1\n      0x0100\n      exp\n      swap1\n      div\n      0xffffffffffffffffffffffffffffffffffffffff\n      and\n        /* \"contracts/guardian.sol\":3180:3202  newOwner != address(0) */\n      0xffffffffffffffffffffffffffffffffffffffff\n      and\n      eq\n        /* \"contracts/guardian.sol\":3176:3308  if (newOwner != address(0)) {... */\n      tag_137\n      jumpi\n        /* \"contracts/guardian.sol\":3234:3243  _newOwner */\n      dup1\n        /* \"contracts/guardian.sol\":3222:3243  newOwner != _newOwner */\n      0xffffffffffffffffffffffffffffffffffffffff\n      and\n        /* \"contracts/guardian.sol\":3222:3230  newOwner */\n      0x04\n      0x00\n      swap1\n      sload\n      swap1\n      0x0100\n      exp\n      swap1\n      div\n      0xffffffffffffffffffffffffffffffffffffffff\n      and\n        /* \"contracts/guardian.sol\":3222:3243  newOwner != _newOwner */\n      0xffffffffffffffffffffffffffffffffffffffff\n      and\n      eq\n        /* \"contracts/guardian.sol\":3218:3298  if (newOwner != _newOwner) {... */\n      tag_138\n      jumpi\n        /* \"contracts/guardian.sol\":3282:3283  0 */\n      0x00\n        /* \"contracts/guardian.sol\":3263:3279  votesForNewOwner */\n      0x05\n        /* \"contracts/guardian.sol\":3263:3283  votesForNewOwner = 0 */\n      dup2\n      swap1\n      sstore\n      pop\n        /* \"contracts/guardian.sol\":3218:3298  if (newOwner != _newOwner) {... */\n    tag_138:\n        /* \"contracts/guardian.sol\":3176:3308  if (newOwner != address(0)) {... */\n    tag_137:\n        /* \"contracts/guardian.sol\":3328:3337  _newOwner */\n      dup1\n        /* \"contracts/guardian.sol\":3317:3325  newOwner */\n      0x04\n      0x00\n        /* \"contracts/guardian.sol\":3317:3337  newOwner = _newOwner */\n      0x0100\n      exp\n      dup2\n      sload\n      dup2\n      0xffffffffffffffffffffffffffffffffffffffff\n      mul\n      not\n      and\n      swap1\n      dup4\n      0xffffffffffffffffffffffffffffffffffffffff\n      and\n      mul\n      or\n      swap1\n      sstore\n      pop\n        /* \"contracts/guardian.sol\":3347:3363  votesForNewOwner */\n      0x05\n      0x00\n        /* \"contracts/guardian.sol\":3347:3365  votesForNewOwner++ */\n      dup2\n      sload\n      dup1\n      swap3\n      swap2\n      swap1\n      tag_139\n      swap1\n      tag_93\n      jump\t// in\n    tag_139:\n      swap2\n      swap1\n      pop\n      sstore\n      pop\n        /* \"contracts/guardian.sol\":3421:3423  50 */\n      0x32\n        /* \"contracts/guardian.sol\":3406:3418  maxGuardians */\n      sload(0x01)\n        /* \"contracts/guardian.sol\":3399:3402  100 */\n      0x64\n        /* \"contracts/guardian.sol\":3380:3396  votesForNewOwner */\n      sload(0x05)\n        /* \"contracts/guardian.sol\":3380:3402  votesForNewOwner * 100 */\n      tag_140\n      swap2\n      swap1\n      tag_141\n      jump\t// in\n    tag_140:\n        /* \"contracts/guardian.sol\":3379:3418  (votesForNewOwner * 100) / maxGuardians */\n      tag_142\n      swap2\n      swap1\n      tag_143\n      jump\t// in\n    tag_142:\n        /* \"contracts/guardian.sol\":3379:3423  (votesForNewOwner * 100) / maxGuardians > 50 */\n      gt\n        /* \"contracts/guardian.sol\":3375:3579  if ((votesForNewOwner * 100) / maxGuardians > 50) {... */\n      iszero\n      tag_144\n      jumpi\n        /* \"contracts/guardian.sol\":3447:3455  newOwner */\n      0x04\n      0x00\n      swap1\n      sload\n      swap1\n      0x0100\n      exp\n      swap1\n      div\n      0xffffffffffffffffffffffffffffffffffffffff\n      and\n        /* \"contracts/guardian.sol\":3439:3444  owner */\n      0x00\n      dup1\n        /* \"contracts/guardian.sol\":3439:3455  owner = newOwner */\n      0x0100\n      exp\n      dup2\n      sload\n      dup2\n      0xffffffffffffffffffffffffffffffffffffffff\n      mul\n      not\n      and\n      swap1\n      dup4\n      0xffffffffffffffffffffffffffffffffffffffff\n      and\n      mul\n      or\n      swap1\n      sstore\n      pop\n        /* \"contracts/guardian.sol\":3496:3497  0 */\n      0x00\n        /* \"contracts/guardian.sol\":3469:3477  newOwner */\n      0x04\n      0x00\n        /* \"contracts/guardian.sol\":3469:3499  newOwner = payable(address(0)) */\n      0x0100\n      exp\n      dup2\n      sload\n      dup2\n      0xffffffffffffffffffffffffffffffffffffffff\n      mul\n      not\n      and\n      swap1\n      dup4\n      0xffffffffffffffffffffffffffffffffffffffff\n      and\n      mul\n      or\n      swap1\n      sstore\n      pop\n        /* \"contracts/guardian.sol\":3532:3533  0 */\n      0x00\n        /* \"contracts/guardian.sol\":3513:3529  votesForNewOwner */\n      0x05\n        /* \"contracts/guardian.sol\":3513:3533  votesForNewOwner = 0 */\n      dup2\n      swap1\n      sstore\n      pop\n        /* \"contracts/guardian.sol\":3554:3568  votedGuardians */\n      0x06\n      0x00\n        /* \"contracts/guardian.sol\":3547:3568  delete votedGuardians */\n      tag_145\n      swap2\n      swap1\n      tag_146\n      jump\t// in\n    tag_145:\n        /* \"contracts/guardian.sol\":3375:3579  if ((votesForNewOwner * 100) / maxGuardians > 50) {... */\n    tag_144:\n        /* \"contracts/guardian.sol\":2453:3585  function proposeNewOwner(address payable _newOwner) public {... */\n      pop\n      jump\t// out\n        /* \"contracts/guardian.sol\":716:817  function geTotalBalance() public view returns (uint256) {... */\n    tag_79:\n        /* \"contracts/guardian.sol\":763:770  uint256 */\n      0x00\n        /* \"contracts/guardian.sol\":789:810  address(this).balance */\n      selfbalance\n        /* \"contracts/guardian.sol\":782:810  return address(this).balance */\n      swap1\n      pop\n        /* \"contracts/guardian.sol\":716:817  function geTotalBalance() public view returns (uint256) {... */\n      swap1\n      jump\t// out\n        /* \"contracts/guardian.sol\":505:536  address payable public newOwner */\n    tag_83:\n      0x04\n      0x00\n      swap1\n      sload\n      swap1\n      0x0100\n      exp\n      swap1\n      div\n      0xffffffffffffffffffffffffffffffffffffffff\n      and\n      dup2\n      jump\t// out\n    tag_146:\n      pop\n      dup1\n      sload\n      0x00\n      dup3\n      sstore\n      swap1\n      0x00\n      mstore\n      keccak256(0x00, 0x20)\n      swap1\n      dup2\n      add\n      swap1\n      tag_149\n      swap2\n      swap1\n      tag_150\n      jump\t// in\n    tag_149:\n      pop\n      jump\t// out\n    tag_150:\n    tag_151:\n      dup1\n      dup3\n      gt\n      iszero\n      tag_152\n      jumpi\n      0x00\n      dup2\n      0x00\n      swap1\n      sstore\n      pop\n      0x01\n      add\n      jump(tag_151)\n    tag_152:\n      pop\n      swap1\n      jump\t// out\n        /* \"#utility.yul\":7:82   */\n    tag_153:\n        /* \"#utility.yul\":40:46   */\n      0x00\n        /* \"#utility.yul\":73:75   */\n      0x40\n        /* \"#utility.yul\":67:76   */\n      mload\n        /* \"#utility.yul\":57:76   */\n      swap1\n      pop\n        /* \"#utility.yul\":7:82   */\n      swap1\n      jump\t// out\n        /* \"#utility.yul\":88:205   */\n    tag_154:\n        /* \"#utility.yul\":197:198   */\n      0x00\n        /* \"#utility.yul\":194:195   */\n      dup1\n        /* \"#utility.yul\":187:199   */\n      revert\n        /* \"#utility.yul\":211:328   */\n    tag_155:\n        /* \"#utility.yul\":320:321   */\n      0x00\n        /* \"#utility.yul\":317:318   */\n      dup1\n        /* \"#utility.yul\":310:322   */\n      revert\n        /* \"#utility.yul\":334:460   */\n    tag_156:\n        /* \"#utility.yul\":371:378   */\n      0x00\n        /* \"#utility.yul\":411:453   */\n      0xffffffffffffffffffffffffffffffffffffffff\n        /* \"#utility.yul\":404:409   */\n      dup3\n        /* \"#utility.yul\":400:454   */\n      and\n        /* \"#utility.yul\":389:454   */\n      swap1\n      pop\n        /* \"#utility.yul\":334:460   */\n      swap2\n      swap1\n      pop\n      jump\t// out\n        /* \"#utility.yul\":466:562   */\n    tag_157:\n        /* \"#utility.yul\":503:510   */\n      0x00\n        /* \"#utility.yul\":532:556   */\n      tag_208\n        /* \"#utility.yul\":550:555   */\n      dup3\n        /* \"#utility.yul\":532:556   */\n      tag_156\n      jump\t// in\n    tag_208:\n        /* \"#utility.yul\":521:556   */\n      swap1\n      pop\n        /* \"#utility.yul\":466:562   */\n      swap2\n      swap1\n      pop\n      jump\t// out\n        /* \"#utility.yul\":568:690   */\n    tag_158:\n        /* \"#utility.yul\":641:665   */\n      tag_210\n        /* \"#utility.yul\":659:664   */\n      dup2\n        /* \"#utility.yul\":641:665   */\n      tag_157\n      jump\t// in\n    tag_210:\n        /* \"#utility.yul\":634:639   */\n      dup2\n        /* \"#utility.yul\":631:666   */\n      eq\n        /* \"#utility.yul\":621:684   */\n      tag_211\n      jumpi\n        /* \"#utility.yul\":680:681   */\n      0x00\n        /* \"#utility.yul\":677:678   */\n      dup1\n        /* \"#utility.yul\":670:682   */\n      revert\n        /* \"#utility.yul\":621:684   */\n    tag_211:\n        /* \"#utility.yul\":568:690   */\n      pop\n      jump\t// out\n        /* \"#utility.yul\":696:835   */\n    tag_159:\n        /* \"#utility.yul\":742:747   */\n      0x00\n        /* \"#utility.yul\":780:786   */\n      dup2\n        /* \"#utility.yul\":767:787   */\n      calldataload\n        /* \"#utility.yul\":758:787   */\n      swap1\n      pop\n        /* \"#utility.yul\":796:829   */\n      tag_213\n        /* \"#utility.yul\":823:828   */\n      dup2\n        /* \"#utility.yul\":796:829   */\n      tag_158\n      jump\t// in\n    tag_213:\n        /* \"#utility.yul\":696:835   */\n      swap3\n      swap2\n      pop\n      pop\n      jump\t// out\n        /* \"#utility.yul\":841:1170   */\n    tag_23:\n        /* \"#utility.yul\":900:906   */\n      0x00\n        /* \"#utility.yul\":949:951   */\n      0x20\n        /* \"#utility.yul\":937:946   */\n      dup3\n        /* \"#utility.yul\":928:935   */\n      dup5\n        /* \"#utility.yul\":924:947   */\n      sub\n        /* \"#utility.yul\":920:952   */\n      slt\n        /* \"#utility.yul\":917:1036   */\n      iszero\n      tag_215\n      jumpi\n        /* \"#utility.yul\":955:1034   */\n      tag_216\n      tag_154\n      jump\t// in\n    tag_216:\n        /* \"#utility.yul\":917:1036   */\n    tag_215:\n        /* \"#utility.yul\":1075:1076   */\n      0x00\n        /* \"#utility.yul\":1100:1153   */\n      tag_217\n        /* \"#utility.yul\":1145:1152   */\n      dup5\n        /* \"#utility.yul\":1136:1142   */\n      dup3\n        /* \"#utility.yul\":1125:1134   */\n      dup6\n        /* \"#utility.yul\":1121:1143   */\n      add\n        /* \"#utility.yul\":1100:1153   */\n      tag_159\n      jump\t// in\n    tag_217:\n        /* \"#utility.yul\":1090:1153   */\n      swap2\n      pop\n        /* \"#utility.yul\":1046:1163   */\n      pop\n        /* \"#utility.yul\":841:1170   */\n      swap3\n      swap2\n      pop\n      pop\n      jump\t// out\n        /* \"#utility.yul\":1176:1266   */\n    tag_160:\n        /* \"#utility.yul\":1210:1217   */\n      0x00\n        /* \"#utility.yul\":1253:1258   */\n      dup2\n        /* \"#utility.yul\":1246:1259   */\n      iszero\n        /* \"#utility.yul\":1239:1260   */\n      iszero\n        /* \"#utility.yul\":1228:1260   */\n      swap1\n      pop\n        /* \"#utility.yul\":1176:1266   */\n      swap2\n      swap1\n      pop\n      jump\t// out\n        /* \"#utility.yul\":1272:1381   */\n    tag_161:\n        /* \"#utility.yul\":1353:1374   */\n      tag_220\n        /* \"#utility.yul\":1368:1373   */\n      dup2\n        /* \"#utility.yul\":1353:1374   */\n      tag_160\n      jump\t// in\n    tag_220:\n        /* \"#utility.yul\":1348:1351   */\n      dup3\n        /* \"#utility.yul\":1341:1375   */\n      mstore\n        /* \"#utility.yul\":1272:1381   */\n      pop\n      pop\n      jump\t// out\n        /* \"#utility.yul\":1387:1464   */\n    tag_162:\n        /* \"#utility.yul\":1424:1431   */\n      0x00\n        /* \"#utility.yul\":1453:1458   */\n      dup2\n        /* \"#utility.yul\":1442:1458   */\n      swap1\n      pop\n        /* \"#utility.yul\":1387:1464   */\n      swap2\n      swap1\n      pop\n      jump\t// out\n        /* \"#utility.yul\":1470:1588   */\n    tag_163:\n        /* \"#utility.yul\":1557:1581   */\n      tag_223\n        /* \"#utility.yul\":1575:1580   */\n      dup2\n        /* \"#utility.yul\":1557:1581   */\n      tag_162\n      jump\t// in\n    tag_223:\n        /* \"#utility.yul\":1552:1555   */\n      dup3\n        /* \"#utility.yul\":1545:1582   */\n      mstore\n        /* \"#utility.yul\":1470:1588   */\n      pop\n      pop\n      jump\t// out\n        /* \"#utility.yul\":1594:1914   */\n    tag_26:\n        /* \"#utility.yul\":1709:1713   */\n      0x00\n        /* \"#utility.yul\":1747:1749   */\n      0x40\n        /* \"#utility.yul\":1736:1745   */\n      dup3\n        /* \"#utility.yul\":1732:1750   */\n      add\n        /* \"#utility.yul\":1724:1750   */\n      swap1\n      pop\n        /* \"#utility.yul\":1760:1825   */\n      tag_225\n        /* \"#utility.yul\":1822:1823   */\n      0x00\n        /* \"#utility.yul\":1811:1820   */\n      dup4\n        /* \"#utility.yul\":1807:1824   */\n      add\n        /* \"#utility.yul\":1798:1804   */\n      dup6\n        /* \"#utility.yul\":1760:1825   */\n      tag_161\n      jump\t// in\n    tag_225:\n        /* \"#utility.yul\":1835:1907   */\n      tag_226\n        /* \"#utility.yul\":1903:1905   */\n      0x20\n        /* \"#utility.yul\":1892:1901   */\n      dup4\n        /* \"#utility.yul\":1888:1906   */\n      add\n        /* \"#utility.yul\":1879:1885   */\n      dup5\n        /* \"#utility.yul\":1835:1907   */\n      tag_163\n      jump\t// in\n    tag_226:\n        /* \"#utility.yul\":1594:1914   */\n      swap4\n      swap3\n      pop\n      pop\n      pop\n      jump\t// out\n        /* \"#utility.yul\":1920:2042   */\n    tag_164:\n        /* \"#utility.yul\":1993:2017   */\n      tag_228\n        /* \"#utility.yul\":2011:2016   */\n      dup2\n        /* \"#utility.yul\":1993:2017   */\n      tag_162\n      jump\t// in\n    tag_228:\n        /* \"#utility.yul\":1986:1991   */\n      dup2\n        /* \"#utility.yul\":1983:2018   */\n      eq\n        /* \"#utility.yul\":1973:2036   */\n      tag_229\n      jumpi\n        /* \"#utility.yul\":2032:2033   */\n      0x00\n        /* \"#utility.yul\":2029:2030   */\n      dup1\n        /* \"#utility.yul\":2022:2034   */\n      revert\n        /* \"#utility.yul\":1973:2036   */\n    tag_229:\n        /* \"#utility.yul\":1920:2042   */\n      pop\n      jump\t// out\n        /* \"#utility.yul\":2048:2187   */\n    tag_165:\n        /* \"#utility.yul\":2094:2099   */\n      0x00\n        /* \"#utility.yul\":2132:2138   */\n      dup2\n        /* \"#utility.yul\":2119:2139   */\n      calldataload\n        /* \"#utility.yul\":2110:2139   */\n      swap1\n      pop\n        /* \"#utility.yul\":2148:2181   */\n      tag_231\n        /* \"#utility.yul\":2175:2180   */\n      dup2\n        /* \"#utility.yul\":2148:2181   */\n      tag_164\n      jump\t// in\n    tag_231:\n        /* \"#utility.yul\":2048:2187   */\n      swap3\n      swap2\n      pop\n      pop\n      jump\t// out\n        /* \"#utility.yul\":2193:2522   */\n    tag_30:\n        /* \"#utility.yul\":2252:2258   */\n      0x00\n        /* \"#utility.yul\":2301:2303   */\n      0x20\n        /* \"#utility.yul\":2289:2298   */\n      dup3\n        /* \"#utility.yul\":2280:2287   */\n      dup5\n        /* \"#utility.yul\":2276:2299   */\n      sub\n        /* \"#utility.yul\":2272:2304   */\n      slt\n        /* \"#utility.yul\":2269:2388   */\n      iszero\n      tag_233\n      jumpi\n        /* \"#utility.yul\":2307:2386   */\n      tag_234\n      tag_154\n      jump\t// in\n    tag_234:\n        /* \"#utility.yul\":2269:2388   */\n    tag_233:\n        /* \"#utility.yul\":2427:2428   */\n      0x00\n        /* \"#utility.yul\":2452:2505   */\n      tag_235\n        /* \"#utility.yul\":2497:2504   */\n      dup5\n        /* \"#utility.yul\":2488:2494   */\n      dup3\n        /* \"#utility.yul\":2477:2486   */\n      dup6\n        /* \"#utility.yul\":2473:2495   */\n      add\n        /* \"#utility.yul\":2452:2505   */\n      tag_165\n      jump\t// in\n    tag_235:\n        /* \"#utility.yul\":2442:2505   */\n      swap2\n      pop\n        /* \"#utility.yul\":2398:2515   */\n      pop\n        /* \"#utility.yul\":2193:2522   */\n      swap3\n      swap2\n      pop\n      pop\n      jump\t// out\n        /* \"#utility.yul\":2528:2646   */\n    tag_166:\n        /* \"#utility.yul\":2615:2639   */\n      tag_237\n        /* \"#utility.yul\":2633:2638   */\n      dup2\n        /* \"#utility.yul\":2615:2639   */\n      tag_157\n      jump\t// in\n    tag_237:\n        /* \"#utility.yul\":2610:2613   */\n      dup3\n        /* \"#utility.yul\":2603:2640   */\n      mstore\n        /* \"#utility.yul\":2528:2646   */\n      pop\n      pop\n      jump\t// out\n        /* \"#utility.yul\":2652:2874   */\n    tag_33:\n        /* \"#utility.yul\":2745:2749   */\n      0x00\n        /* \"#utility.yul\":2783:2785   */\n      0x20\n        /* \"#utility.yul\":2772:2781   */\n      dup3\n        /* \"#utility.yul\":2768:2786   */\n      add\n        /* \"#utility.yul\":2760:2786   */\n      swap1\n      pop\n        /* \"#utility.yul\":2796:2867   */\n      tag_239\n        /* \"#utility.yul\":2864:2865   */\n      0x00\n        /* \"#utility.yul\":2853:2862   */\n      dup4\n        /* \"#utility.yul\":2849:2866   */\n      add\n        /* \"#utility.yul\":2840:2846   */\n      dup5\n        /* \"#utility.yul\":2796:2867   */\n      tag_166\n      jump\t// in\n    tag_239:\n        /* \"#utility.yul\":2652:2874   */\n      swap3\n      swap2\n      pop\n      pop\n      jump\t// out\n        /* \"#utility.yul\":2880:3102   */\n    tag_38:\n        /* \"#utility.yul\":2973:2977   */\n      0x00\n        /* \"#utility.yul\":3011:3013   */\n      0x20\n        /* \"#utility.yul\":3000:3009   */\n      dup3\n        /* \"#utility.yul\":2996:3014   */\n      add\n        /* \"#utility.yul\":2988:3014   */\n      swap1\n      pop\n        /* \"#utility.yul\":3024:3095   */\n      tag_241\n        /* \"#utility.yul\":3092:3093   */\n      0x00\n        /* \"#utility.yul\":3081:3090   */\n      dup4\n        /* \"#utility.yul\":3077:3094   */\n      add\n        /* \"#utility.yul\":3068:3074   */\n      dup5\n        /* \"#utility.yul\":3024:3095   */\n      tag_163\n      jump\t// in\n    tag_241:\n        /* \"#utility.yul\":2880:3102   */\n      swap3\n      swap2\n      pop\n      pop\n      jump\t// out\n        /* \"#utility.yul\":3108:3212   */\n    tag_167:\n        /* \"#utility.yul\":3153:3160   */\n      0x00\n        /* \"#utility.yul\":3182:3206   */\n      tag_243\n        /* \"#utility.yul\":3200:3205   */\n      dup3\n        /* \"#utility.yul\":3182:3206   */\n      tag_156\n      jump\t// in\n    tag_243:\n        /* \"#utility.yul\":3171:3206   */\n      swap1\n      pop\n        /* \"#utility.yul\":3108:3212   */\n      swap2\n      swap1\n      pop\n      jump\t// out\n        /* \"#utility.yul\":3218:3360   */\n    tag_168:\n        /* \"#utility.yul\":3321:3353   */\n      tag_245\n        /* \"#utility.yul\":3347:3352   */\n      dup2\n        /* \"#utility.yul\":3321:3353   */\n      tag_167\n      jump\t// in\n    tag_245:\n        /* \"#utility.yul\":3316:3319   */\n      dup3\n        /* \"#utility.yul\":3309:3354   */\n      mstore\n        /* \"#utility.yul\":3218:3360   */\n      pop\n      pop\n      jump\t// out\n        /* \"#utility.yul\":3366:3620   */\n    tag_55:\n        /* \"#utility.yul\":3475:3479   */\n      0x00\n        /* \"#utility.yul\":3513:3515   */\n      0x20\n        /* \"#utility.yul\":3502:3511   */\n      dup3\n        /* \"#utility.yul\":3498:3516   */\n      add\n        /* \"#utility.yul\":3490:3516   */\n      swap1\n      pop\n        /* \"#utility.yul\":3526:3613   */\n      tag_247\n        /* \"#utility.yul\":3610:3611   */\n      0x00\n        /* \"#utility.yul\":3599:3608   */\n      dup4\n        /* \"#utility.yul\":3595:3612   */\n      add\n        /* \"#utility.yul\":3586:3592   */\n      dup5\n        /* \"#utility.yul\":3526:3613   */\n      tag_168\n      jump\t// in\n    tag_247:\n        /* \"#utility.yul\":3366:3620   */\n      swap3\n      swap2\n      pop\n      pop\n      jump\t// out\n        /* \"#utility.yul\":3626:3764   */\n    tag_169:\n        /* \"#utility.yul\":3707:3739   */\n      tag_249\n        /* \"#utility.yul\":3733:3738   */\n      dup2\n        /* \"#utility.yul\":3707:3739   */\n      tag_167\n      jump\t// in\n    tag_249:\n        /* \"#utility.yul\":3700:3705   */\n      dup2\n        /* \"#utility.yul\":3697:3740   */\n      eq\n        /* \"#utility.yul\":3687:3758   */\n      tag_250\n      jumpi\n        /* \"#utility.yul\":3754:3755   */\n      0x00\n        /* \"#utility.yul\":3751:3752   */\n      dup1\n        /* \"#utility.yul\":3744:3756   */\n      revert\n        /* \"#utility.yul\":3687:3758   */\n    tag_250:\n        /* \"#utility.yul\":3626:3764   */\n      pop\n      jump\t// out\n        /* \"#utility.yul\":3770:3925   */\n    tag_170:\n        /* \"#utility.yul\":3824:3829   */\n      0x00\n        /* \"#utility.yul\":3862:3868   */\n      dup2\n        /* \"#utility.yul\":3849:3869   */\n      calldataload\n        /* \"#utility.yul\":3840:3869   */\n      swap1\n      pop\n        /* \"#utility.yul\":3878:3919   */\n      tag_252\n        /* \"#utility.yul\":3913:3918   */\n      dup2\n        /* \"#utility.yul\":3878:3919   */\n      tag_169\n      jump\t// in\n    tag_252:\n        /* \"#utility.yul\":3770:3925   */\n      swap3\n      swap2\n      pop\n      pop\n      jump\t// out\n        /* \"#utility.yul\":3931:4048   */\n    tag_171:\n        /* \"#utility.yul\":4040:4041   */\n      0x00\n        /* \"#utility.yul\":4037:4038   */\n      dup1\n        /* \"#utility.yul\":4030:4042   */\n      revert\n        /* \"#utility.yul\":4054:4171   */\n    tag_172:\n        /* \"#utility.yul\":4163:4164   */\n      0x00\n        /* \"#utility.yul\":4160:4161   */\n      dup1\n        /* \"#utility.yul\":4153:4165   */\n      revert\n        /* \"#utility.yul\":4177:4279   */\n    tag_173:\n        /* \"#utility.yul\":4218:4224   */\n      0x00\n        /* \"#utility.yul\":4269:4271   */\n      0x1f\n        /* \"#utility.yul\":4265:4272   */\n      not\n        /* \"#utility.yul\":4260:4262   */\n      0x1f\n        /* \"#utility.yul\":4253:4258   */\n      dup4\n        /* \"#utility.yul\":4249:4263   */\n      add\n        /* \"#utility.yul\":4245:4273   */\n      and\n        /* \"#utility.yul\":4235:4273   */\n      swap1\n      pop\n        /* \"#utility.yul\":4177:4279   */\n      swap2\n      swap1\n      pop\n      jump\t// out\n        /* \"#utility.yul\":4285:4465   */\n    tag_174:\n        /* \"#utility.yul\":4333:4410   */\n      0x4e487b7100000000000000000000000000000000000000000000000000000000\n        /* \"#utility.yul\":4330:4331   */\n      0x00\n        /* \"#utility.yul\":4323:4411   */\n      mstore\n        /* \"#utility.yul\":4430:4434   */\n      0x41\n        /* \"#utility.yul\":4427:4428   */\n      0x04\n        /* \"#utility.yul\":4420:4435   */\n      mstore\n        /* \"#utility.yul\":4454:4458   */\n      0x24\n        /* \"#utility.yul\":4451:4452   */\n      0x00\n        /* \"#utility.yul\":4444:4459   */\n      revert\n        /* \"#utility.yul\":4471:4752   */\n    tag_175:\n        /* \"#utility.yul\":4554:4581   */\n      tag_258\n        /* \"#utility.yul\":4576:4580   */\n      dup3\n        /* \"#utility.yul\":4554:4581   */\n      tag_173\n      jump\t// in\n    tag_258:\n        /* \"#utility.yul\":4546:4552   */\n      dup2\n        /* \"#utility.yul\":4542:4582   */\n      add\n        /* \"#utility.yul\":4684:4690   */\n      dup2\n        /* \"#utility.yul\":4672:4682   */\n      dup2\n        /* \"#utility.yul\":4669:4691   */\n      lt\n        /* \"#utility.yul\":4648:4666   */\n      0xffffffffffffffff\n        /* \"#utility.yul\":4636:4646   */\n      dup3\n        /* \"#utility.yul\":4633:4667   */\n      gt\n        /* \"#utility.yul\":4630:4692   */\n      or\n        /* \"#utility.yul\":4627:4715   */\n      iszero\n      tag_259\n      jumpi\n        /* \"#utility.yul\":4695:4713   */\n      tag_260\n      tag_174\n      jump\t// in\n    tag_260:\n        /* \"#utility.yul\":4627:4715   */\n    tag_259:\n        /* \"#utility.yul\":4735:4745   */\n      dup1\n        /* \"#utility.yul\":4731:4733   */\n      0x40\n        /* \"#utility.yul\":4724:4746   */\n      mstore\n        /* \"#utility.yul\":4514:4752   */\n      pop\n        /* \"#utility.yul\":4471:4752   */\n      pop\n      pop\n      jump\t// out\n        /* \"#utility.yul\":4758:4887   */\n    tag_176:\n        /* \"#utility.yul\":4792:4798   */\n      0x00\n        /* \"#utility.yul\":4819:4839   */\n      tag_262\n      tag_153\n      jump\t// in\n    tag_262:\n        /* \"#utility.yul\":4809:4839   */\n      swap1\n      pop\n        /* \"#utility.yul\":4848:4881   */\n      tag_263\n        /* \"#utility.yul\":4876:4880   */\n      dup3\n        /* \"#utility.yul\":4868:4874   */\n      dup3\n        /* \"#utility.yul\":4848:4881   */\n      tag_175\n      jump\t// in\n    tag_263:\n        /* \"#utility.yul\":4758:4887   */\n      swap2\n      swap1\n      pop\n      jump\t// out\n        /* \"#utility.yul\":4893:5200   */\n    tag_177:\n        /* \"#utility.yul\":4954:4958   */\n      0x00\n        /* \"#utility.yul\":5044:5062   */\n      0xffffffffffffffff\n        /* \"#utility.yul\":5036:5042   */\n      dup3\n        /* \"#utility.yul\":5033:5063   */\n      gt\n        /* \"#utility.yul\":5030:5086   */\n      iszero\n      tag_265\n      jumpi\n        /* \"#utility.yul\":5066:5084   */\n      tag_266\n      tag_174\n      jump\t// in\n    tag_266:\n        /* \"#utility.yul\":5030:5086   */\n    tag_265:\n        /* \"#utility.yul\":5104:5133   */\n      tag_267\n        /* \"#utility.yul\":5126:5132   */\n      dup3\n        /* \"#utility.yul\":5104:5133   */\n      tag_173\n      jump\t// in\n    tag_267:\n        /* \"#utility.yul\":5096:5133   */\n      swap1\n      pop\n        /* \"#utility.yul\":5188:5192   */\n      0x20\n        /* \"#utility.yul\":5182:5186   */\n      dup2\n        /* \"#utility.yul\":5178:5193   */\n      add\n        /* \"#utility.yul\":5170:5193   */\n      swap1\n      pop\n        /* \"#utility.yul\":4893:5200   */\n      swap2\n      swap1\n      pop\n      jump\t// out\n        /* \"#utility.yul\":5206:5360   */\n    tag_178:\n        /* \"#utility.yul\":5290:5296   */\n      dup3\n        /* \"#utility.yul\":5285:5288   */\n      dup2\n        /* \"#utility.yul\":5280:5283   */\n      dup4\n        /* \"#utility.yul\":5267:5297   */\n      calldatacopy\n        /* \"#utility.yul\":5352:5353   */\n      0x00\n        /* \"#utility.yul\":5343:5349   */\n      dup4\n        /* \"#utility.yul\":5338:5341   */\n      dup4\n        /* \"#utility.yul\":5334:5350   */\n      add\n        /* \"#utility.yul\":5327:5354   */\n      mstore\n        /* \"#utility.yul\":5206:5360   */\n      pop\n      pop\n      pop\n      jump\t// out\n        /* \"#utility.yul\":5366:5776   */\n    tag_179:\n        /* \"#utility.yul\":5443:5448   */\n      0x00\n        /* \"#utility.yul\":5468:5533   */\n      tag_270\n        /* \"#utility.yul\":5484:5532   */\n      tag_271\n        /* \"#utility.yul\":5525:5531   */\n      dup5\n        /* \"#utility.yul\":5484:5532   */\n      tag_177\n      jump\t// in\n    tag_271:\n        /* \"#utility.yul\":5468:5533   */\n      tag_176\n      jump\t// in\n    tag_270:\n        /* \"#utility.yul\":5459:5533   */\n      swap1\n      pop\n        /* \"#utility.yul\":5556:5562   */\n      dup3\n        /* \"#utility.yul\":5549:5554   */\n      dup2\n        /* \"#utility.yul\":5542:5563   */\n      mstore\n        /* \"#utility.yul\":5594:5598   */\n      0x20\n        /* \"#utility.yul\":5587:5592   */\n      dup2\n        /* \"#utility.yul\":5583:5599   */\n      add\n        /* \"#utility.yul\":5632:5635   */\n      dup5\n        /* \"#utility.yul\":5623:5629   */\n      dup5\n        /* \"#utility.yul\":5618:5621   */\n      dup5\n        /* \"#utility.yul\":5614:5630   */\n      add\n        /* \"#utility.yul\":5611:5636   */\n      gt\n        /* \"#utility.yul\":5608:5720   */\n      iszero\n      tag_272\n      jumpi\n        /* \"#utility.yul\":5639:5718   */\n      tag_273\n      tag_172\n      jump\t// in\n    tag_273:\n        /* \"#utility.yul\":5608:5720   */\n    tag_272:\n        /* \"#utility.yul\":5729:5770   */\n      tag_274\n        /* \"#utility.yul\":5763:5769   */\n      dup5\n        /* \"#utility.yul\":5758:5761   */\n      dup3\n        /* \"#utility.yul\":5753:5756   */\n      dup6\n        /* \"#utility.yul\":5729:5770   */\n      tag_178\n      jump\t// in\n    tag_274:\n        /* \"#utility.yul\":5449:5776   */\n      pop\n        /* \"#utility.yul\":5366:5776   */\n      swap4\n      swap3\n      pop\n      pop\n      pop\n      jump\t// out\n        /* \"#utility.yul\":5795:6133   */\n    tag_180:\n        /* \"#utility.yul\":5850:5855   */\n      0x00\n        /* \"#utility.yul\":5899:5902   */\n      dup3\n        /* \"#utility.yul\":5892:5896   */\n      0x1f\n        /* \"#utility.yul\":5884:5890   */\n      dup4\n        /* \"#utility.yul\":5880:5897   */\n      add\n        /* \"#utility.yul\":5876:5903   */\n      slt\n        /* \"#utility.yul\":5866:5988   */\n      tag_276\n      jumpi\n        /* \"#utility.yul\":5907:5986   */\n      tag_277\n      tag_171\n      jump\t// in\n    tag_277:\n        /* \"#utility.yul\":5866:5988   */\n    tag_276:\n        /* \"#utility.yul\":6024:6030   */\n      dup2\n        /* \"#utility.yul\":6011:6031   */\n      calldataload\n        /* \"#utility.yul\":6049:6127   */\n      tag_278\n        /* \"#utility.yul\":6123:6126   */\n      dup5\n        /* \"#utility.yul\":6115:6121   */\n      dup3\n        /* \"#utility.yul\":6108:6112   */\n      0x20\n        /* \"#utility.yul\":6100:6106   */\n      dup7\n        /* \"#utility.yul\":6096:6113   */\n      add\n        /* \"#utility.yul\":6049:6127   */\n      tag_179\n      jump\t// in\n    tag_278:\n        /* \"#utility.yul\":6040:6127   */\n      swap2\n      pop\n        /* \"#utility.yul\":5856:6133   */\n      pop\n        /* \"#utility.yul\":5795:6133   */\n      swap3\n      swap2\n      pop\n      pop\n      jump\t// out\n        /* \"#utility.yul\":6139:6952   */\n    tag_63:\n        /* \"#utility.yul\":6233:6239   */\n      0x00\n        /* \"#utility.yul\":6241:6247   */\n      dup1\n        /* \"#utility.yul\":6249:6255   */\n      0x00\n        /* \"#utility.yul\":6298:6300   */\n      0x60\n        /* \"#utility.yul\":6286:6295   */\n      dup5\n        /* \"#utility.yul\":6277:6284   */\n      dup7\n        /* \"#utility.yul\":6273:6296   */\n      sub\n        /* \"#utility.yul\":6269:6301   */\n      slt\n        /* \"#utility.yul\":6266:6385   */\n      iszero\n      tag_280\n      jumpi\n        /* \"#utility.yul\":6304:6383   */\n      tag_281\n      tag_154\n      jump\t// in\n    tag_281:\n        /* \"#utility.yul\":6266:6385   */\n    tag_280:\n        /* \"#utility.yul\":6424:6425   */\n      0x00\n        /* \"#utility.yul\":6449:6502   */\n      tag_282\n        /* \"#utility.yul\":6494:6501   */\n      dup7\n        /* \"#utility.yul\":6485:6491   */\n      dup3\n        /* \"#utility.yul\":6474:6483   */\n      dup8\n        /* \"#utility.yul\":6470:6492   */\n      add\n        /* \"#utility.yul\":6449:6502   */\n      tag_165\n      jump\t// in\n    tag_282:\n        /* \"#utility.yul\":6439:6502   */\n      swap4\n      pop\n        /* \"#utility.yul\":6395:6512   */\n      pop\n        /* \"#utility.yul\":6551:6553   */\n      0x20\n        /* \"#utility.yul\":6577:6638   */\n      tag_283\n        /* \"#utility.yul\":6630:6637   */\n      dup7\n        /* \"#utility.yul\":6621:6627   */\n      dup3\n        /* \"#utility.yul\":6610:6619   */\n      dup8\n        /* \"#utility.yul\":6606:6628   */\n      add\n        /* \"#utility.yul\":6577:6638   */\n      tag_170\n      jump\t// in\n    tag_283:\n        /* \"#utility.yul\":6567:6638   */\n      swap3\n      pop\n        /* \"#utility.yul\":6522:6648   */\n      pop\n        /* \"#utility.yul\":6715:6717   */\n      0x40\n        /* \"#utility.yul\":6704:6713   */\n      dup5\n        /* \"#utility.yul\":6700:6718   */\n      add\n        /* \"#utility.yul\":6687:6719   */\n      calldataload\n        /* \"#utility.yul\":6746:6764   */\n      0xffffffffffffffff\n        /* \"#utility.yul\":6738:6744   */\n      dup2\n        /* \"#utility.yul\":6735:6765   */\n      gt\n        /* \"#utility.yul\":6732:6849   */\n      iszero\n      tag_284\n      jumpi\n        /* \"#utility.yul\":6768:6847   */\n      tag_285\n      tag_155\n      jump\t// in\n    tag_285:\n        /* \"#utility.yul\":6732:6849   */\n    tag_284:\n        /* \"#utility.yul\":6873:6935   */\n      tag_286\n        /* \"#utility.yul\":6927:6934   */\n      dup7\n        /* \"#utility.yul\":6918:6924   */\n      dup3\n        /* \"#utility.yul\":6907:6916   */\n      dup8\n        /* \"#utility.yul\":6903:6925   */\n      add\n        /* \"#utility.yul\":6873:6935   */\n      tag_180\n      jump\t// in\n    tag_286:\n        /* \"#utility.yul\":6863:6935   */\n      swap2\n      pop\n        /* \"#utility.yul\":6658:6945   */\n      pop\n        /* \"#utility.yul\":6139:6952   */\n      swap3\n      pop\n      swap3\n      pop\n      swap3\n      jump\t// out\n        /* \"#utility.yul\":6958:7056   */\n    tag_181:\n        /* \"#utility.yul\":7009:7015   */\n      0x00\n        /* \"#utility.yul\":7043:7048   */\n      dup2\n        /* \"#utility.yul\":7037:7049   */\n      mload\n        /* \"#utility.yul\":7027:7049   */\n      swap1\n      pop\n        /* \"#utility.yul\":6958:7056   */\n      swap2\n      swap1\n      pop\n      jump\t// out\n        /* \"#utility.yul\":7062:7230   */\n    tag_182:\n        /* \"#utility.yul\":7145:7156   */\n      0x00\n        /* \"#utility.yul\":7179:7185   */\n      dup3\n        /* \"#utility.yul\":7174:7177   */\n      dup3\n        /* \"#utility.yul\":7167:7186   */\n      mstore\n        /* \"#utility.yul\":7219:7223   */\n      0x20\n        /* \"#utility.yul\":7214:7217   */\n      dup3\n        /* \"#utility.yul\":7210:7224   */\n      add\n        /* \"#utility.yul\":7195:7224   */\n      swap1\n      pop\n        /* \"#utility.yul\":7062:7230   */\n      swap3\n      swap2\n      pop\n      pop\n      jump\t// out\n        /* \"#utility.yul\":7236:7543   */\n    tag_183:\n        /* \"#utility.yul\":7304:7305   */\n      0x00\n        /* \"#utility.yul\":7314:7427   */\n    tag_290:\n        /* \"#utility.yul\":7328:7334   */\n      dup4\n        /* \"#utility.yul\":7325:7326   */\n      dup2\n        /* \"#utility.yul\":7322:7335   */\n      lt\n        /* \"#utility.yul\":7314:7427   */\n      iszero\n      tag_292\n      jumpi\n        /* \"#utility.yul\":7413:7414   */\n      dup1\n        /* \"#utility.yul\":7408:7411   */\n      dup3\n        /* \"#utility.yul\":7404:7415   */\n      add\n        /* \"#utility.yul\":7398:7416   */\n      mload\n        /* \"#utility.yul\":7394:7395   */\n      dup2\n        /* \"#utility.yul\":7389:7392   */\n      dup5\n        /* \"#utility.yul\":7385:7396   */\n      add\n        /* \"#utility.yul\":7378:7417   */\n      mstore\n        /* \"#utility.yul\":7350:7352   */\n      0x20\n        /* \"#utility.yul\":7347:7348   */\n      dup2\n        /* \"#utility.yul\":7343:7353   */\n      add\n        /* \"#utility.yul\":7338:7353   */\n      swap1\n      pop\n        /* \"#utility.yul\":7314:7427   */\n      jump(tag_290)\n    tag_292:\n        /* \"#utility.yul\":7445:7451   */\n      dup4\n        /* \"#utility.yul\":7442:7443   */\n      dup2\n        /* \"#utility.yul\":7439:7452   */\n      gt\n        /* \"#utility.yul\":7436:7537   */\n      iszero\n      tag_293\n      jumpi\n        /* \"#utility.yul\":7525:7526   */\n      0x00\n        /* \"#utility.yul\":7516:7522   */\n      dup5\n        /* \"#utility.yul\":7511:7514   */\n      dup5\n        /* \"#utility.yul\":7507:7523   */\n      add\n        /* \"#utility.yul\":7500:7527   */\n      mstore\n        /* \"#utility.yul\":7436:7537   */\n    tag_293:\n        /* \"#utility.yul\":7285:7543   */\n      pop\n        /* \"#utility.yul\":7236:7543   */\n      pop\n      pop\n      pop\n      jump\t// out\n        /* \"#utility.yul\":7549:7909   */\n    tag_184:\n        /* \"#utility.yul\":7635:7638   */\n      0x00\n        /* \"#utility.yul\":7663:7701   */\n      tag_295\n        /* \"#utility.yul\":7695:7700   */\n      dup3\n        /* \"#utility.yul\":7663:7701   */\n      tag_181\n      jump\t// in\n    tag_295:\n        /* \"#utility.yul\":7717:7787   */\n      tag_296\n        /* \"#utility.yul\":7780:7786   */\n      dup2\n        /* \"#utility.yul\":7775:7778   */\n      dup6\n        /* \"#utility.yul\":7717:7787   */\n      tag_182\n      jump\t// in\n    tag_296:\n        /* \"#utility.yul\":7710:7787   */\n      swap4\n      pop\n        /* \"#utility.yul\":7796:7848   */\n      tag_297\n        /* \"#utility.yul\":7841:7847   */\n      dup2\n        /* \"#utility.yul\":7836:7839   */\n      dup6\n        /* \"#utility.yul\":7829:7833   */\n      0x20\n        /* \"#utility.yul\":7822:7827   */\n      dup7\n        /* \"#utility.yul\":7818:7834   */\n      add\n        /* \"#utility.yul\":7796:7848   */\n      tag_183\n      jump\t// in\n    tag_297:\n        /* \"#utility.yul\":7873:7902   */\n      tag_298\n        /* \"#utility.yul\":7895:7901   */\n      dup2\n        /* \"#utility.yul\":7873:7902   */\n      tag_173\n      jump\t// in\n    tag_298:\n        /* \"#utility.yul\":7868:7871   */\n      dup5\n        /* \"#utility.yul\":7864:7903   */\n      add\n        /* \"#utility.yul\":7857:7903   */\n      swap2\n      pop\n        /* \"#utility.yul\":7639:7909   */\n      pop\n        /* \"#utility.yul\":7549:7909   */\n      swap3\n      swap2\n      pop\n      pop\n      jump\t// out\n        /* \"#utility.yul\":7915:8224   */\n    tag_66:\n        /* \"#utility.yul\":8026:8030   */\n      0x00\n        /* \"#utility.yul\":8064:8066   */\n      0x20\n        /* \"#utility.yul\":8053:8062   */\n      dup3\n        /* \"#utility.yul\":8049:8067   */\n      add\n        /* \"#utility.yul\":8041:8067   */\n      swap1\n      pop\n        /* \"#utility.yul\":8113:8122   */\n      dup2\n        /* \"#utility.yul\":8107:8111   */\n      dup2\n        /* \"#utility.yul\":8103:8123   */\n      sub\n        /* \"#utility.yul\":8099:8100   */\n      0x00\n        /* \"#utility.yul\":8088:8097   */\n      dup4\n        /* \"#utility.yul\":8084:8101   */\n      add\n        /* \"#utility.yul\":8077:8124   */\n      mstore\n        /* \"#utility.yul\":8141:8217   */\n      tag_300\n        /* \"#utility.yul\":8212:8216   */\n      dup2\n        /* \"#utility.yul\":8203:8209   */\n      dup5\n        /* \"#utility.yul\":8141:8217   */\n      tag_184\n      jump\t// in\n    tag_300:\n        /* \"#utility.yul\":8133:8217   */\n      swap1\n      pop\n        /* \"#utility.yul\":7915:8224   */\n      swap3\n      swap2\n      pop\n      pop\n      jump\t// out\n        /* \"#utility.yul\":8230:8704   */\n    tag_70:\n        /* \"#utility.yul\":8298:8304   */\n      0x00\n        /* \"#utility.yul\":8306:8312   */\n      dup1\n        /* \"#utility.yul\":8355:8357   */\n      0x40\n        /* \"#utility.yul\":8343:8352   */\n      dup4\n        /* \"#utility.yul\":8334:8341   */\n      dup6\n        /* \"#utility.yul\":8330:8353   */\n      sub\n        /* \"#utility.yul\":8326:8358   */\n      slt\n        /* \"#utility.yul\":8323:8442   */\n      iszero\n      tag_302\n      jumpi\n        /* \"#utility.yul\":8361:8440   */\n      tag_303\n      tag_154\n      jump\t// in\n    tag_303:\n        /* \"#utility.yul\":8323:8442   */\n    tag_302:\n        /* \"#utility.yul\":8481:8482   */\n      0x00\n        /* \"#utility.yul\":8506:8559   */\n      tag_304\n        /* \"#utility.yul\":8551:8558   */\n      dup6\n        /* \"#utility.yul\":8542:8548   */\n      dup3\n        /* \"#utility.yul\":8531:8540   */\n      dup7\n        /* \"#utility.yul\":8527:8549   */\n      add\n        /* \"#utility.yul\":8506:8559   */\n      tag_159\n      jump\t// in\n    tag_304:\n        /* \"#utility.yul\":8496:8559   */\n      swap3\n      pop\n        /* \"#utility.yul\":8452:8569   */\n      pop\n        /* \"#utility.yul\":8608:8610   */\n      0x20\n        /* \"#utility.yul\":8634:8687   */\n      tag_305\n        /* \"#utility.yul\":8679:8686   */\n      dup6\n        /* \"#utility.yul\":8670:8676   */\n      dup3\n        /* \"#utility.yul\":8659:8668   */\n      dup7\n        /* \"#utility.yul\":8655:8677   */\n      add\n        /* \"#utility.yul\":8634:8687   */\n      tag_165\n      jump\t// in\n    tag_305:\n        /* \"#utility.yul\":8624:8687   */\n      swap2\n      pop\n        /* \"#utility.yul\":8579:8697   */\n      pop\n        /* \"#utility.yul\":8230:8704   */\n      swap3\n      pop\n      swap3\n      swap1\n      pop\n      jump\t// out\n        /* \"#utility.yul\":8710:9055   */\n    tag_75:\n        /* \"#utility.yul\":8777:8783   */\n      0x00\n        /* \"#utility.yul\":8826:8828   */\n      0x20\n        /* \"#utility.yul\":8814:8823   */\n      dup3\n        /* \"#utility.yul\":8805:8812   */\n      dup5\n        /* \"#utility.yul\":8801:8824   */\n      sub\n        /* \"#utility.yul\":8797:8829   */\n      slt\n        /* \"#utility.yul\":8794:8913   */\n      iszero\n      tag_307\n      jumpi\n        /* \"#utility.yul\":8832:8911   */\n      tag_308\n      tag_154\n      jump\t// in\n    tag_308:\n        /* \"#utility.yul\":8794:8913   */\n    tag_307:\n        /* \"#utility.yul\":8952:8953   */\n      0x00\n        /* \"#utility.yul\":8977:9038   */\n      tag_309\n        /* \"#utility.yul\":9030:9037   */\n      dup5\n        /* \"#utility.yul\":9021:9027   */\n      dup3\n        /* \"#utility.yul\":9010:9019   */\n      dup6\n        /* \"#utility.yul\":9006:9028   */\n      add\n        /* \"#utility.yul\":8977:9038   */\n      tag_170\n      jump\t// in\n    tag_309:\n        /* \"#utility.yul\":8967:9038   */\n      swap2\n      pop\n        /* \"#utility.yul\":8923:9048   */\n      pop\n        /* \"#utility.yul\":8710:9055   */\n      swap3\n      swap2\n      pop\n      pop\n      jump\t// out\n        /* \"#utility.yul\":9061:9230   */\n    tag_185:\n        /* \"#utility.yul\":9145:9156   */\n      0x00\n        /* \"#utility.yul\":9179:9185   */\n      dup3\n        /* \"#utility.yul\":9174:9177   */\n      dup3\n        /* \"#utility.yul\":9167:9186   */\n      mstore\n        /* \"#utility.yul\":9219:9223   */\n      0x20\n        /* \"#utility.yul\":9214:9217   */\n      dup3\n        /* \"#utility.yul\":9210:9224   */\n      add\n        /* \"#utility.yul\":9195:9224   */\n      swap1\n      pop\n        /* \"#utility.yul\":9061:9230   */\n      swap3\n      swap2\n      pop\n      pop\n      jump\t// out\n        /* \"#utility.yul\":9236:9487   */\n    tag_186:\n        /* \"#utility.yul\":9376:9410   */\n      0x596f75206e6565647320746f206265206f776e65722e20616e642063616e2774\n        /* \"#utility.yul\":9372:9373   */\n      0x00\n        /* \"#utility.yul\":9364:9370   */\n      dup3\n        /* \"#utility.yul\":9360:9374   */\n      add\n        /* \"#utility.yul\":9353:9411   */\n      mstore\n        /* \"#utility.yul\":9445:9479   */\n      0x20626520657863656564207468616e206d6178696d756d20677561726469616e\n        /* \"#utility.yul\":9440:9442   */\n      0x20\n        /* \"#utility.yul\":9432:9438   */\n      dup3\n        /* \"#utility.yul\":9428:9443   */\n      add\n        /* \"#utility.yul\":9421:9480   */\n      mstore\n        /* \"#utility.yul\":9236:9487   */\n      pop\n      jump\t// out\n        /* \"#utility.yul\":9493:9859   */\n    tag_187:\n        /* \"#utility.yul\":9635:9638   */\n      0x00\n        /* \"#utility.yul\":9656:9723   */\n      tag_313\n        /* \"#utility.yul\":9720:9722   */\n      0x40\n        /* \"#utility.yul\":9715:9718   */\n      dup4\n        /* \"#utility.yul\":9656:9723   */\n      tag_185\n      jump\t// in\n    tag_313:\n        /* \"#utility.yul\":9649:9723   */\n      swap2\n      pop\n        /* \"#utility.yul\":9732:9825   */\n      tag_314\n        /* \"#utility.yul\":9821:9824   */\n      dup3\n        /* \"#utility.yul\":9732:9825   */\n      tag_186\n      jump\t// in\n    tag_314:\n        /* \"#utility.yul\":9850:9852   */\n      0x40\n        /* \"#utility.yul\":9845:9848   */\n      dup3\n        /* \"#utility.yul\":9841:9853   */\n      add\n        /* \"#utility.yul\":9834:9853   */\n      swap1\n      pop\n        /* \"#utility.yul\":9493:9859   */\n      swap2\n      swap1\n      pop\n      jump\t// out\n        /* \"#utility.yul\":9865:10284   */\n    tag_91:\n        /* \"#utility.yul\":10031:10035   */\n      0x00\n        /* \"#utility.yul\":10069:10071   */\n      0x20\n        /* \"#utility.yul\":10058:10067   */\n      dup3\n        /* \"#utility.yul\":10054:10072   */\n      add\n        /* \"#utility.yul\":10046:10072   */\n      swap1\n      pop\n        /* \"#utility.yul\":10118:10127   */\n      dup2\n        /* \"#utility.yul\":10112:10116   */\n      dup2\n        /* \"#utility.yul\":10108:10128   */\n      sub\n        /* \"#utility.yul\":10104:10105   */\n      0x00\n        /* \"#utility.yul\":10093:10102   */\n      dup4\n        /* \"#utility.yul\":10089:10106   */\n      add\n        /* \"#utility.yul\":10082:10129   */\n      mstore\n        /* \"#utility.yul\":10146:10277   */\n      tag_316\n        /* \"#utility.yul\":10272:10276   */\n      dup2\n        /* \"#utility.yul\":10146:10277   */\n      tag_187\n      jump\t// in\n    tag_316:\n        /* \"#utility.yul\":10138:10277   */\n      swap1\n      pop\n        /* \"#utility.yul\":9865:10284   */\n      swap2\n      swap1\n      pop\n      jump\t// out\n        /* \"#utility.yul\":10290:10470   */\n    tag_188:\n        /* \"#utility.yul\":10338:10415   */\n      0x4e487b7100000000000000000000000000000000000000000000000000000000\n        /* \"#utility.yul\":10335:10336   */\n      0x00\n        /* \"#utility.yul\":10328:10416   */\n      mstore\n        /* \"#utility.yul\":10435:10439   */\n      0x11\n        /* \"#utility.yul\":10432:10433   */\n      0x04\n        /* \"#utility.yul\":10425:10440   */\n      mstore\n        /* \"#utility.yul\":10459:10463   */\n      0x24\n        /* \"#utility.yul\":10456:10457   */\n      0x00\n        /* \"#utility.yul\":10449:10464   */\n      revert\n        /* \"#utility.yul\":10476:10709   */\n    tag_93:\n        /* \"#utility.yul\":10515:10518   */\n      0x00\n        /* \"#utility.yul\":10538:10562   */\n      tag_319\n        /* \"#utility.yul\":10556:10561   */\n      dup3\n        /* \"#utility.yul\":10538:10562   */\n      tag_162\n      jump\t// in\n    tag_319:\n        /* \"#utility.yul\":10529:10562   */\n      swap2\n      pop\n        /* \"#utility.yul\":10584:10650   */\n      0xffffffffffffffffffffffffffffffffffffffffffffffffffffffffffffffff\n        /* \"#utility.yul\":10577:10582   */\n      dup3\n        /* \"#utility.yul\":10574:10651   */\n      sub\n        /* \"#utility.yul\":10571:10674   */\n      tag_320\n      jumpi\n        /* \"#utility.yul\":10654:10672   */\n      tag_321\n      tag_188\n      jump\t// in\n    tag_321:\n        /* \"#utility.yul\":10571:10674   */\n    tag_320:\n        /* \"#utility.yul\":10701:10702   */\n      0x01\n        /* \"#utility.yul\":10694:10699   */\n      dup3\n        /* \"#utility.yul\":10690:10703   */\n      add\n        /* \"#utility.yul\":10683:10703   */\n      swap1\n      pop\n        /* \"#utility.yul\":10476:10709   */\n      swap2\n      swap1\n      pop\n      jump\t// out\n        /* \"#utility.yul\":10715:10964   */\n    tag_189:\n        /* \"#utility.yul\":10855:10889   */\n      0x596f75206d75737420626520746865206f776e657220616e6420796f75206361\n        /* \"#utility.yul\":10851:10852   */\n      0x00\n        /* \"#utility.yul\":10843:10849   */\n      dup3\n        /* \"#utility.yul\":10839:10853   */\n      add\n        /* \"#utility.yul\":10832:10890   */\n      mstore\n        /* \"#utility.yul\":10924:10956   */\n      0x6e206f6e6c792072656d6f7665206578697374656420677561726469616e0000\n        /* \"#utility.yul\":10919:10921   */\n      0x20\n        /* \"#utility.yul\":10911:10917   */\n      dup3\n        /* \"#utility.yul\":10907:10922   */\n      add\n        /* \"#utility.yul\":10900:10957   */\n      mstore\n        /* \"#utility.yul\":10715:10964   */\n      pop\n      jump\t// out\n        /* \"#utility.yul\":10970:11336   */\n    tag_190:\n        /* \"#utility.yul\":11112:11115   */\n      0x00\n        /* \"#utility.yul\":11133:11200   */\n      tag_324\n        /* \"#utility.yul\":11197:11199   */\n      0x3e\n        /* \"#utility.yul\":11192:11195   */\n      dup4\n        /* \"#utility.yul\":11133:11200   */\n      tag_185\n      jump\t// in\n    tag_324:\n        /* \"#utility.yul\":11126:11200   */\n      swap2\n      pop\n        /* \"#utility.yul\":11209:11302   */\n      tag_325\n        /* \"#utility.yul\":11298:11301   */\n      dup3\n        /* \"#utility.yul\":11209:11302   */\n      tag_189\n      jump\t// in\n    tag_325:\n        /* \"#utility.yul\":11327:11329   */\n      0x40\n        /* \"#utility.yul\":11322:11325   */\n      dup3\n        /* \"#utility.yul\":11318:11330   */\n      add\n        /* \"#utility.yul\":11311:11330   */\n      swap1\n      pop\n        /* \"#utility.yul\":10970:11336   */\n      swap2\n      swap1\n      pop\n      jump\t// out\n        /* \"#utility.yul\":11342:11761   */\n    tag_98:\n        /* \"#utility.yul\":11508:11512   */\n      0x00\n        /* \"#utility.yul\":11546:11548   */\n      0x20\n        /* \"#utility.yul\":11535:11544   */\n      dup3\n        /* \"#utility.yul\":11531:11549   */\n      add\n        /* \"#utility.yul\":11523:11549   */\n      swap1\n      pop\n        /* \"#utility.yul\":11595:11604   */\n      dup2\n        /* \"#utility.yul\":11589:11593   */\n      dup2\n        /* \"#utility.yul\":11585:11605   */\n      sub\n        /* \"#utility.yul\":11581:11582   */\n      0x00\n        /* \"#utility.yul\":11570:11579   */\n      dup4\n        /* \"#utility.yul\":11566:11583   */\n      add\n        /* \"#utility.yul\":11559:11606   */\n      mstore\n        /* \"#utility.yul\":11623:11754   */\n      tag_327\n        /* \"#utility.yul\":11749:11753   */\n      dup2\n        /* \"#utility.yul\":11623:11754   */\n      tag_190\n      jump\t// in\n    tag_327:\n        /* \"#utility.yul\":11615:11754   */\n      swap1\n      pop\n        /* \"#utility.yul\":11342:11761   */\n      swap2\n      swap1\n      pop\n      jump\t// out\n        /* \"#utility.yul\":11767:11938   */\n    tag_100:\n        /* \"#utility.yul\":11806:11809   */\n      0x00\n        /* \"#utility.yul\":11829:11853   */\n      tag_329\n        /* \"#utility.yul\":11847:11852   */\n      dup3\n        /* \"#utility.yul\":11829:11853   */\n      tag_162\n      jump\t// in\n    tag_329:\n        /* \"#utility.yul\":11820:11853   */\n      swap2\n      pop\n        /* \"#utility.yul\":11875:11879   */\n      0x00\n        /* \"#utility.yul\":11868:11873   */\n      dup3\n        /* \"#utility.yul\":11865:11880   */\n      sub\n        /* \"#utility.yul\":11862:11903   */\n      tag_330\n      jumpi\n        /* \"#utility.yul\":11883:11901   */\n      tag_331\n      tag_188\n      jump\t// in\n    tag_331:\n        /* \"#utility.yul\":11862:11903   */\n    tag_330:\n        /* \"#utility.yul\":11930:11931   */\n      0x01\n        /* \"#utility.yul\":11923:11928   */\n      dup3\n        /* \"#utility.yul\":11919:11932   */\n      sub\n        /* \"#utility.yul\":11912:11932   */\n      swap1\n      pop\n        /* \"#utility.yul\":11767:11938   */\n      swap2\n      swap1\n      pop\n      jump\t// out\n        /* \"#utility.yul\":11944:12114   */\n    tag_191:\n        /* \"#utility.yul\":12084:12106   */\n      0x596f75206861766520746f206265206f776e6572000000000000000000000000\n        /* \"#utility.yul\":12080:12081   */\n      0x00\n        /* \"#utility.yul\":12072:12078   */\n      dup3\n        /* \"#utility.yul\":12068:12082   */\n      add\n        /* \"#utility.yul\":12061:12107   */\n      mstore\n        /* \"#utility.yul\":11944:12114   */\n      pop\n      jump\t// out\n        /* \"#utility.yul\":12120:12486   */\n    tag_192:\n        /* \"#utility.yul\":12262:12265   */\n      0x00\n        /* \"#utility.yul\":12283:12350   */\n      tag_334\n        /* \"#utility.yul\":12347:12349   */\n      0x14\n        /* \"#utility.yul\":12342:12345   */\n      dup4\n        /* \"#utility.yul\":12283:12350   */\n      tag_185\n      jump\t// in\n    tag_334:\n        /* \"#utility.yul\":12276:12350   */\n      swap2\n      pop\n        /* \"#utility.yul\":12359:12452   */\n      tag_335\n        /* \"#utility.yul\":12448:12451   */\n      dup3\n        /* \"#utility.yul\":12359:12452   */\n      tag_191\n      jump\t// in\n    tag_335:\n        /* \"#utility.yul\":12477:12479   */\n      0x20\n        /* \"#utility.yul\":12472:12475   */\n      dup3\n        /* \"#utility.yul\":12468:12480   */\n      add\n        /* \"#utility.yul\":12461:12480   */\n      swap1\n      pop\n        /* \"#utility.yul\":12120:12486   */\n      swap2\n      swap1\n      pop\n      jump\t// out\n        /* \"#utility.yul\":12492:12911   */\n    tag_107:\n        /* \"#utility.yul\":12658:12662   */\n      0x00\n        /* \"#utility.yul\":12696:12698   */\n      0x20\n        /* \"#utility.yul\":12685:12694   */\n      dup3\n        /* \"#utility.yul\":12681:12699   */\n      add\n        /* \"#utility.yul\":12673:12699   */\n      swap1\n      pop\n        /* \"#utility.yul\":12745:12754   */\n      dup2\n        /* \"#utility.yul\":12739:12743   */\n      dup2\n        /* \"#utility.yul\":12735:12755   */\n      sub\n        /* \"#utility.yul\":12731:12732   */\n      0x00\n        /* \"#utility.yul\":12720:12729   */\n      dup4\n        /* \"#utility.yul\":12716:12733   */\n      add\n        /* \"#utility.yul\":12709:12756   */\n      mstore\n        /* \"#utility.yul\":12773:12904   */\n      tag_337\n        /* \"#utility.yul\":12899:12903   */\n      dup2\n        /* \"#utility.yul\":12773:12904   */\n      tag_192\n      jump\t// in\n    tag_337:\n        /* \"#utility.yul\":12765:12904   */\n      swap1\n      pop\n        /* \"#utility.yul\":12492:12911   */\n      swap2\n      swap1\n      pop\n      jump\t// out\n        /* \"#utility.yul\":12917:13064   */\n    tag_193:\n        /* \"#utility.yul\":13018:13029   */\n      0x00\n        /* \"#utility.yul\":13055:13058   */\n      dup2\n        /* \"#utility.yul\":13040:13058   */\n      swap1\n      pop\n        /* \"#utility.yul\":12917:13064   */\n      swap3\n      swap2\n      pop\n      pop\n      jump\t// out\n        /* \"#utility.yul\":13070:13443   */\n    tag_194:\n        /* \"#utility.yul\":13174:13177   */\n      0x00\n        /* \"#utility.yul\":13202:13240   */\n      tag_340\n        /* \"#utility.yul\":13234:13239   */\n      dup3\n        /* \"#utility.yul\":13202:13240   */\n      tag_181\n      jump\t// in\n    tag_340:\n        /* \"#utility.yul\":13256:13344   */\n      tag_341\n        /* \"#utility.yul\":13337:13343   */\n      dup2\n        /* \"#utility.yul\":13332:13335   */\n      dup6\n        /* \"#utility.yul\":13256:13344   */\n      tag_193\n      jump\t// in\n    tag_341:\n        /* \"#utility.yul\":13249:13344   */\n      swap4\n      pop\n        /* \"#utility.yul\":13353:13405   */\n      tag_342\n        /* \"#utility.yul\":13398:13404   */\n      dup2\n        /* \"#utility.yul\":13393:13396   */\n      dup6\n        /* \"#utility.yul\":13386:13390   */\n      0x20\n        /* \"#utility.yul\":13379:13384   */\n      dup7\n        /* \"#utility.yul\":13375:13391   */\n      add\n        /* \"#utility.yul\":13353:13405   */\n      tag_183\n      jump\t// in\n    tag_342:\n        /* \"#utility.yul\":13430:13436   */\n      dup1\n        /* \"#utility.yul\":13425:13428   */\n      dup5\n        /* \"#utility.yul\":13421:13437   */\n      add\n        /* \"#utility.yul\":13414:13437   */\n      swap2\n      pop\n        /* \"#utility.yul\":13178:13443   */\n      pop\n        /* \"#utility.yul\":13070:13443   */\n      swap3\n      swap2\n      pop\n      pop\n      jump\t// out\n        /* \"#utility.yul\":13449:13720   */\n    tag_109:\n        /* \"#utility.yul\":13579:13582   */\n      0x00\n        /* \"#utility.yul\":13601:13694   */\n      tag_344\n        /* \"#utility.yul\":13690:13693   */\n      dup3\n        /* \"#utility.yul\":13681:13687   */\n      dup5\n        /* \"#utility.yul\":13601:13694   */\n      tag_194\n      jump\t// in\n    tag_344:\n        /* \"#utility.yul\":13594:13694   */\n      swap2\n      pop\n        /* \"#utility.yul\":13711:13714   */\n      dup2\n        /* \"#utility.yul\":13704:13714   */\n      swap1\n      pop\n        /* \"#utility.yul\":13449:13720   */\n      swap3\n      swap2\n      pop\n      pop\n      jump\t// out\n        /* \"#utility.yul\":13726:14091   */\n    tag_195:\n        /* \"#utility.yul\":13866:13900   */\n      0x596f75206e6565647320746f206265206f776e6572206f72206d757374206769\n        /* \"#utility.yul\":13862:13863   */\n      0x00\n        /* \"#utility.yul\":13854:13860   */\n      dup3\n        /* \"#utility.yul\":13850:13864   */\n      add\n        /* \"#utility.yul\":13843:13901   */\n      mstore\n        /* \"#utility.yul\":13935:13969   */\n      0x7665206f6e65206f662074686520677561726461696e7320616e6420636f6e74\n        /* \"#utility.yul\":13930:13932   */\n      0x20\n        /* \"#utility.yul\":13922:13928   */\n      dup3\n        /* \"#utility.yul\":13918:13933   */\n      add\n        /* \"#utility.yul\":13911:13970   */\n      mstore\n        /* \"#utility.yul\":14004:14038   */\n      0x726163742062616c616e6365206d757374206265206772656174657220746861\n        /* \"#utility.yul\":13999:14001   */\n      0x40\n        /* \"#utility.yul\":13991:13997   */\n      dup3\n        /* \"#utility.yul\":13987:14002   */\n      add\n        /* \"#utility.yul\":13980:14039   */\n      mstore\n        /* \"#utility.yul\":14073:14083   */\n      0x6e20616d6f756e74000000000000000000000000000000000000000000000000\n        /* \"#utility.yul\":14068:14070   */\n      0x60\n        /* \"#utility.yul\":14060:14066   */\n      dup3\n        /* \"#utility.yul\":14056:14071   */\n      add\n        /* \"#utility.yul\":14049:14084   */\n      mstore\n        /* \"#utility.yul\":13726:14091   */\n      pop\n      jump\t// out\n        /* \"#utility.yul\":14097:14465   */\n    tag_196:\n        /* \"#utility.yul\":14239:14242   */\n      0x00\n        /* \"#utility.yul\":14260:14328   */\n      tag_347\n        /* \"#utility.yul\":14324:14327   */\n      0x68\n        /* \"#utility.yul\":14319:14322   */\n      dup4\n        /* \"#utility.yul\":14260:14328   */\n      tag_185\n      jump\t// in\n    tag_347:\n        /* \"#utility.yul\":14253:14328   */\n      swap2\n      pop\n        /* \"#utility.yul\":14337:14430   */\n      tag_348\n        /* \"#utility.yul\":14426:14429   */\n      dup3\n        /* \"#utility.yul\":14337:14430   */\n      tag_195\n      jump\t// in\n    tag_348:\n        /* \"#utility.yul\":14455:14458   */\n      0x80\n        /* \"#utility.yul\":14450:14453   */\n      dup3\n        /* \"#utility.yul\":14446:14459   */\n      add\n        /* \"#utility.yul\":14439:14459   */\n      swap1\n      pop\n        /* \"#utility.yul\":14097:14465   */\n      swap2\n      swap1\n      pop\n      jump\t// out\n        /* \"#utility.yul\":14471:14890   */\n    tag_119:\n        /* \"#utility.yul\":14637:14641   */\n      0x00\n        /* \"#utility.yul\":14675:14677   */\n      0x20\n        /* \"#utility.yul\":14664:14673   */\n      dup3\n        /* \"#utility.yul\":14660:14678   */\n      add\n        /* \"#utility.yul\":14652:14678   */\n      swap1\n      pop\n        /* \"#utility.yul\":14724:14733   */\n      dup2\n        /* \"#utility.yul\":14718:14722   */\n      dup2\n        /* \"#utility.yul\":14714:14734   */\n      sub\n        /* \"#utility.yul\":14710:14711   */\n      0x00\n        /* \"#utility.yul\":14699:14708   */\n      dup4\n        /* \"#utility.yul\":14695:14712   */\n      add\n        /* \"#utility.yul\":14688:14735   */\n      mstore\n        /* \"#utility.yul\":14752:14883   */\n      tag_350\n        /* \"#utility.yul\":14878:14882   */\n      dup2\n        /* \"#utility.yul\":14752:14883   */\n      tag_196\n      jump\t// in\n    tag_350:\n        /* \"#utility.yul\":14744:14883   */\n      swap1\n      pop\n        /* \"#utility.yul\":14471:14890   */\n      swap2\n      swap1\n      pop\n      jump\t// out\n        /* \"#utility.yul\":14896:15078   */\n    tag_197:\n        /* \"#utility.yul\":15036:15070   */\n      0x596f75206e6565647320746f20626520677561726469616e20746f20766f7465\n        /* \"#utility.yul\":15032:15033   */\n      0x00\n        /* \"#utility.yul\":15024:15030   */\n      dup3\n        /* \"#utility.yul\":15020:15034   */\n      add\n        /* \"#utility.yul\":15013:15071   */\n      mstore\n        /* \"#utility.yul\":14896:15078   */\n      pop\n      jump\t// out\n        /* \"#utility.yul\":15084:15450   */\n    tag_198:\n        /* \"#utility.yul\":15226:15229   */\n      0x00\n        /* \"#utility.yul\":15247:15314   */\n      tag_353\n        /* \"#utility.yul\":15311:15313   */\n      0x20\n        /* \"#utility.yul\":15306:15309   */\n      dup4\n        /* \"#utility.yul\":15247:15314   */\n      tag_185\n      jump\t// in\n    tag_353:\n        /* \"#utility.yul\":15240:15314   */\n      swap2\n      pop\n        /* \"#utility.yul\":15323:15416   */\n      tag_354\n        /* \"#utility.yul\":15412:15415   */\n      dup3\n        /* \"#utility.yul\":15323:15416   */\n      tag_197\n      jump\t// in\n    tag_354:\n        /* \"#utility.yul\":15441:15443   */\n      0x20\n        /* \"#utility.yul\":15436:15439   */\n      dup3\n        /* \"#utility.yul\":15432:15444   */\n      add\n        /* \"#utility.yul\":15425:15444   */\n      swap1\n      pop\n        /* \"#utility.yul\":15084:15450   */\n      swap2\n      swap1\n      pop\n      jump\t// out\n        /* \"#utility.yul\":15456:15875   */\n    tag_124:\n        /* \"#utility.yul\":15622:15626   */\n      0x00\n        /* \"#utility.yul\":15660:15662   */\n      0x20\n        /* \"#utility.yul\":15649:15658   */\n      dup3\n        /* \"#utility.yul\":15645:15663   */\n      add\n        /* \"#utility.yul\":15637:15663   */\n      swap1\n      pop\n        /* \"#utility.yul\":15709:15718   */\n      dup2\n        /* \"#utility.yul\":15703:15707   */\n      dup2\n        /* \"#utility.yul\":15699:15719   */\n      sub\n        /* \"#utility.yul\":15695:15696   */\n      0x00\n        /* \"#utility.yul\":15684:15693   */\n      dup4\n        /* \"#utility.yul\":15680:15697   */\n      add\n        /* \"#utility.yul\":15673:15720   */\n      mstore\n        /* \"#utility.yul\":15737:15868   */\n      tag_356\n        /* \"#utility.yul\":15863:15867   */\n      dup2\n        /* \"#utility.yul\":15737:15868   */\n      tag_198\n      jump\t// in\n    tag_356:\n        /* \"#utility.yul\":15729:15868   */\n      swap1\n      pop\n        /* \"#utility.yul\":15456:15875   */\n      swap2\n      swap1\n      pop\n      jump\t// out\n        /* \"#utility.yul\":15881:16061   */\n    tag_130:\n        /* \"#utility.yul\":15929:16006   */\n      0x4e487b7100000000000000000000000000000000000000000000000000000000\n        /* \"#utility.yul\":15926:15927   */\n      0x00\n        /* \"#utility.yul\":15919:16007   */\n      mstore\n        /* \"#utility.yul\":16026:16030   */\n      0x32\n        /* \"#utility.yul\":16023:16024   */\n      0x04\n        /* \"#utility.yul\":16016:16031   */\n      mstore\n        /* \"#utility.yul\":16050:16054   */\n      0x24\n        /* \"#utility.yul\":16047:16048   */\n      0x00\n        /* \"#utility.yul\":16040:16055   */\n      revert\n        /* \"#utility.yul\":16067:16240   */\n    tag_199:\n        /* \"#utility.yul\":16207:16232   */\n      0x596f7520616c726561647920766f7465642c2064756821000000000000000000\n        /* \"#utility.yul\":16203:16204   */\n      0x00\n        /* \"#utility.yul\":16195:16201   */\n      dup3\n        /* \"#utility.yul\":16191:16205   */\n      add\n        /* \"#utility.yul\":16184:16233   */\n      mstore\n        /* \"#utility.yul\":16067:16240   */\n      pop\n      jump\t// out\n        /* \"#utility.yul\":16246:16612   */\n    tag_200:\n        /* \"#utility.yul\":16388:16391   */\n      0x00\n        /* \"#utility.yul\":16409:16476   */\n      tag_360\n        /* \"#utility.yul\":16473:16475   */\n      0x17\n        /* \"#utility.yul\":16468:16471   */\n      dup4\n        /* \"#utility.yul\":16409:16476   */\n      tag_185\n      jump\t// in\n    tag_360:\n        /* \"#utility.yul\":16402:16476   */\n      swap2\n      pop\n        /* \"#utility.yul\":16485:16578   */\n      tag_361\n        /* \"#utility.yul\":16574:16577   */\n      dup3\n        /* \"#utility.yul\":16485:16578   */\n      tag_199\n      jump\t// in\n    tag_361:\n        /* \"#utility.yul\":16603:16605   */\n      0x20\n        /* \"#utility.yul\":16598:16601   */\n      dup3\n        /* \"#utility.yul\":16594:16606   */\n      add\n        /* \"#utility.yul\":16587:16606   */\n      swap1\n      pop\n        /* \"#utility.yul\":16246:16612   */\n      swap2\n      swap1\n      pop\n      jump\t// out\n        /* \"#utility.yul\":16618:17037   */\n    tag_134:\n        /* \"#utility.yul\":16784:16788   */\n      0x00\n        /* \"#utility.yul\":16822:16824   */\n      0x20\n        /* \"#utility.yul\":16811:16820   */\n      dup3\n        /* \"#utility.yul\":16807:16825   */\n      add\n        /* \"#utility.yul\":16799:16825   */\n      swap1\n      pop\n        /* \"#utility.yul\":16871:16880   */\n      dup2\n        /* \"#utility.yul\":16865:16869   */\n      dup2\n        /* \"#utility.yul\":16861:16881   */\n      sub\n        /* \"#utility.yul\":16857:16858   */\n      0x00\n        /* \"#utility.yul\":16846:16855   */\n      dup4\n        /* \"#utility.yul\":16842:16859   */\n      add\n        /* \"#utility.yul\":16835:16882   */\n      mstore\n        /* \"#utility.yul\":16899:17030   */\n      tag_363\n        /* \"#utility.yul\":17025:17029   */\n      dup2\n        /* \"#utility.yul\":16899:17030   */\n      tag_200\n      jump\t// in\n    tag_363:\n        /* \"#utility.yul\":16891:17030   */\n      swap1\n      pop\n        /* \"#utility.yul\":16618:17037   */\n      swap2\n      swap1\n      pop\n      jump\t// out\n        /* \"#utility.yul\":17043:17391   */\n    tag_141:\n        /* \"#utility.yul\":17083:17090   */\n      0x00\n        /* \"#utility.yul\":17106:17126   */\n      tag_365\n        /* \"#utility.yul\":17124:17125   */\n      dup3\n        /* \"#utility.yul\":17106:17126   */\n      tag_162\n      jump\t// in\n    tag_365:\n        /* \"#utility.yul\":17101:17126   */\n      swap2\n      pop\n        /* \"#utility.yul\":17140:17160   */\n      tag_366\n        /* \"#utility.yul\":17158:17159   */\n      dup4\n        /* \"#utility.yul\":17140:17160   */\n      tag_162\n      jump\t// in\n    tag_366:\n        /* \"#utility.yul\":17135:17160   */\n      swap3\n      pop\n        /* \"#utility.yul\":17328:17329   */\n      dup2\n        /* \"#utility.yul\":17260:17326   */\n      0xffffffffffffffffffffffffffffffffffffffffffffffffffffffffffffffff\n        /* \"#utility.yul\":17256:17330   */\n      div\n        /* \"#utility.yul\":17253:17254   */\n      dup4\n        /* \"#utility.yul\":17250:17331   */\n      gt\n        /* \"#utility.yul\":17245:17246   */\n      dup3\n        /* \"#utility.yul\":17238:17247   */\n      iszero\n        /* \"#utility.yul\":17231:17248   */\n      iszero\n        /* \"#utility.yul\":17227:17332   */\n      and\n        /* \"#utility.yul\":17224:17355   */\n      iszero\n      tag_367\n      jumpi\n        /* \"#utility.yul\":17335:17353   */\n      tag_368\n      tag_188\n      jump\t// in\n    tag_368:\n        /* \"#utility.yul\":17224:17355   */\n    tag_367:\n        /* \"#utility.yul\":17383:17384   */\n      dup3\n        /* \"#utility.yul\":17380:17381   */\n      dup3\n        /* \"#utility.yul\":17376:17385   */\n      mul\n        /* \"#utility.yul\":17365:17385   */\n      swap1\n      pop\n        /* \"#utility.yul\":17043:17391   */\n      swap3\n      swap2\n      pop\n      pop\n      jump\t// out\n        /* \"#utility.yul\":17397:17577   */\n    tag_201:\n        /* \"#utility.yul\":17445:17522   */\n      0x4e487b7100000000000000000000000000000000000000000000000000000000\n        /* \"#utility.yul\":17442:17443   */\n      0x00\n        /* \"#utility.yul\":17435:17523   */\n      mstore\n        /* \"#utility.yul\":17542:17546   */\n      0x12\n        /* \"#utility.yul\":17539:17540   */\n      0x04\n        /* \"#utility.yul\":17532:17547   */\n      mstore\n        /* \"#utility.yul\":17566:17570   */\n      0x24\n        /* \"#utility.yul\":17563:17564   */\n      0x00\n        /* \"#utility.yul\":17556:17571   */\n      revert\n        /* \"#utility.yul\":17583:17768   */\n    tag_143:\n        /* \"#utility.yul\":17623:17624   */\n      0x00\n        /* \"#utility.yul\":17640:17660   */\n      tag_371\n        /* \"#utility.yul\":17658:17659   */\n      dup3\n        /* \"#utility.yul\":17640:17660   */\n      tag_162\n      jump\t// in\n    tag_371:\n        /* \"#utility.yul\":17635:17660   */\n      swap2\n      pop\n        /* \"#utility.yul\":17674:17694   */\n      tag_372\n        /* \"#utility.yul\":17692:17693   */\n      dup4\n        /* \"#utility.yul\":17674:17694   */\n      tag_162\n      jump\t// in\n    tag_372:\n        /* \"#utility.yul\":17669:17694   */\n      swap3\n      pop\n        /* \"#utility.yul\":17713:17714   */\n      dup3\n        /* \"#utility.yul\":17703:17738   */\n      tag_373\n      jumpi\n        /* \"#utility.yul\":17718:17736   */\n      tag_374\n      tag_201\n      jump\t// in\n    tag_374:\n        /* \"#utility.yul\":17703:17738   */\n    tag_373:\n        /* \"#utility.yul\":17760:17761   */\n      dup3\n        /* \"#utility.yul\":17757:17758   */\n      dup3\n        /* \"#utility.yul\":17753:17762   */\n      div\n        /* \"#utility.yul\":17748:17762   */\n      swap1\n      pop\n        /* \"#utility.yul\":17583:17768   */\n      swap3\n      swap2\n      pop\n      pop\n      jump\t// out\n\n    auxdata: 0xa26469706673582212203e56b56445538a4326e92758567fa871507a7e4a5be855e2bd577e00a424adf164736f6c634300080e0033\n}\n",
				"bytecode": {
					"linkReferences": {},
					"object": "6080604052600560015534801561001557600080fd5b50336000806101000a81548173ffffffffffffffffffffffffffffffffffffffff021916908373ffffffffffffffffffffffffffffffffffffffff160217905550611801806100656000396000f3fe6080604052600436106100c65760003560e01c80638da5cb5b1161007f578063958ff7fb11610059578063958ff7fb14610288578063b1f8100d146102b1578063babd957d146102da578063d4ee1d9014610305576100cd565b80638da5cb5b146101f55780638f6d38a51461022057806393046e731461024b576100cd565b80630633b14a146100d2578063110f6cf3146101105780633c9113471461014d5780635bf364231461017857806371404156146101a15780638be04352146101ca576100cd565b366100cd57005b600080fd5b3480156100de57600080fd5b506100f960048036038101906100f49190610e3c565b610330565b604051610107929190610e9d565b60405180910390f35b34801561011c57600080fd5b5061013760048036038101906101329190610ef2565b610361565b6040516101449190610f2e565b60405180910390f35b34801561015957600080fd5b506101626103a0565b60405161016f9190610f49565b60405180910390f35b34801561018457600080fd5b5061019f600480360381019061019a9190610e3c565b6103a6565b005b3480156101ad57600080fd5b506101c860048036038101906101c39190610e3c565b6104b9565b005b3480156101d657600080fd5b506101df61063f565b6040516101ec9190610f49565b60405180910390f35b34801561020157600080fd5b5061020a610645565b6040516102179190610f85565b60405180910390f35b34801561022c57600080fd5b50610235610669565b6040516102429190610f49565b60405180910390f35b34801561025757600080fd5b50610272600480360381019061026d9190611112565b61066f565b60405161027f9190611209565b60405180910390f35b34801561029457600080fd5b506102af60048036038101906102aa919061122b565b610836565b005b3480156102bd57600080fd5b506102d860048036038101906102d3919061126b565b610973565b005b3480156102e657600080fd5b506102ef610d5e565b6040516102fc9190610f49565b60405180910390f35b34801561031157600080fd5b5061031a610d66565b6040516103279190610f85565b60405180910390f35b60036020528060005260406000206000915090508060000160009054906101000a900460ff16908060010154905082565b6006818154811061037157600080fd5b906000526020600020016000915054906101000a900473ffffffffffffffffffffffffffffffffffffffff1681565b60025481565b60008054906101000a900473ffffffffffffffffffffffffffffffffffffffff1673ffffffffffffffffffffffffffffffffffffffff163373ffffffffffffffffffffffffffffffffffffffff161480156104045750600154600254105b610443576040517f08c379a000000000000000000000000000000000000000000000000000000000815260040161043a9061131b565b60405180910390fd5b600260008154809291906104569061136a565b91905055506001600360008373ffffffffffffffffffffffffffffffffffffffff1673ffffffffffffffffffffffffffffffffffffffff16815260200190815260200160002060000160006101000a81548160ff02191690831515021790555050565b60008054906101000a900473ffffffffffffffffffffffffffffffffffffffff1673ffffffffffffffffffffffffffffffffffffffff163373ffffffffffffffffffffffffffffffffffffffff161480156105605750600360008273ffffffffffffffffffffffffffffffffffffffff1673ffffffffffffffffffffffffffffffffffffffff16815260200190815260200160002060000160009054906101000a900460ff165b61059f576040517f08c379a000000000000000000000000000000000000000000000000000000000815260040161059690611424565b60405180910390fd5b600260008154809291906105b290611444565b919050555060405180604001604052806000151581526020016000815250600360008373ffffffffffffffffffffffffffffffffffffffff1673ffffffffffffffffffffffffffffffffffffffff16815260200190815260200160002060008201518160000160006101000a81548160ff0219169083151502179055506020820151816001015590505050565b60015481565b60008054906101000a900473ffffffffffffffffffffffffffffffffffffffff1681565b60055481565b6060478411158015610771575060008054906101000a900473ffffffffffffffffffffffffffffffffffffffff1673ffffffffffffffffffffffffffffffffffffffff163373ffffffffffffffffffffffffffffffffffffffff1614806107705750600360003373ffffffffffffffffffffffffffffffffffffffff1673ffffffffffffffffffffffffffffffffffffffff16815260200190815260200160002060000160009054906101000a900460ff16801561076f575083600360003373ffffffffffffffffffffffffffffffffffffffff1673ffffffffffffffffffffffffffffffffffffffff1681526020019081526020016000206001015410155b5b5b6107b0576040517f08c379a00000000000000000000000000000000000000000000000000000000081526004016107a7906114b9565b60405180910390fd5b6000808473ffffffffffffffffffffffffffffffffffffffff1686856040516107d99190611515565b60006040518083038185875af1925050503d8060008114610816576040519150601f19603f3d011682016040523d82523d6000602084013e61081b565b606091505b50915091508161082a57600080fd5b80925050509392505050565b60008054906101000a900473ffffffffffffffffffffffffffffffffffffffff1673ffffffffffffffffffffffffffffffffffffffff163373ffffffffffffffffffffffffffffffffffffffff161480156108dd5750600360008373ffffffffffffffffffffffffffffffffffffffff1673ffffffffffffffffffffffffffffffffffffffff16815260200190815260200160002060000160009054906101000a900460ff165b80156108e95750478111155b610928576040517f08c379a000000000000000000000000000000000000000000000000000000000815260040161091f906115ea565b60405180910390fd5b80600360008473ffffffffffffffffffffffffffffffffffffffff1673ffffffffffffffffffffffffffffffffffffffff168152602001908152602001600020600101819055505050565b600360003373ffffffffffffffffffffffffffffffffffffffff1673ffffffffffffffffffffffffffffffffffffffff16815260200190815260200160002060000160009054906101000a900460ff1680156109fc5750600073ffffffffffffffffffffffffffffffffffffffff168173ffffffffffffffffffffffffffffffffffffffff1614155b610a3b576040517f08c379a0000000000000000000000000000000000000000000000000000000008152600401610a3290611656565b60405180910390fd5b60005b600680549050811015610b0a573373ffffffffffffffffffffffffffffffffffffffff1660068281548110610a7657610a75611676565b5b9060005260206000200160009054906101000a900473ffffffffffffffffffffffffffffffffffffffff1673ffffffffffffffffffffffffffffffffffffffff1603610af7576040517f08c379a0000000000000000000000000000000000000000000000000000000008152600401610aee906116f1565b60405180910390fd5b8080610b029061136a565b915050610a3e565b506006339080600181540180825580915050600190039060005260206000200160009091909190916101000a81548173ffffffffffffffffffffffffffffffffffffffff021916908373ffffffffffffffffffffffffffffffffffffffff160217905550600073ffffffffffffffffffffffffffffffffffffffff16600460009054906101000a900473ffffffffffffffffffffffffffffffffffffffff1673ffffffffffffffffffffffffffffffffffffffff1614610c23578073ffffffffffffffffffffffffffffffffffffffff16600460009054906101000a900473ffffffffffffffffffffffffffffffffffffffff1673ffffffffffffffffffffffffffffffffffffffff1614610c225760006005819055505b5b80600460006101000a81548173ffffffffffffffffffffffffffffffffffffffff021916908373ffffffffffffffffffffffffffffffffffffffff16021790555060056000815480929190610c779061136a565b919050555060326001546064600554610c909190611711565b610c9a919061179a565b1115610d5b57600460009054906101000a900473ffffffffffffffffffffffffffffffffffffffff166000806101000a81548173ffffffffffffffffffffffffffffffffffffffff021916908373ffffffffffffffffffffffffffffffffffffffff1602179055506000600460006101000a81548173ffffffffffffffffffffffffffffffffffffffff021916908373ffffffffffffffffffffffffffffffffffffffff160217905550600060058190555060066000610d5a9190610d8c565b5b50565b600047905090565b600460009054906101000a900473ffffffffffffffffffffffffffffffffffffffff1681565b5080546000825590600052602060002090810190610daa9190610dad565b50565b5b80821115610dc6576000816000905550600101610dae565b5090565b6000604051905090565b600080fd5b600080fd5b600073ffffffffffffffffffffffffffffffffffffffff82169050919050565b6000610e0982610dde565b9050919050565b610e1981610dfe565b8114610e2457600080fd5b50565b600081359050610e3681610e10565b92915050565b600060208284031215610e5257610e51610dd4565b5b6000610e6084828501610e27565b91505092915050565b60008115159050919050565b610e7e81610e69565b82525050565b6000819050919050565b610e9781610e84565b82525050565b6000604082019050610eb26000830185610e75565b610ebf6020830184610e8e565b9392505050565b610ecf81610e84565b8114610eda57600080fd5b50565b600081359050610eec81610ec6565b92915050565b600060208284031215610f0857610f07610dd4565b5b6000610f1684828501610edd565b91505092915050565b610f2881610dfe565b82525050565b6000602082019050610f436000830184610f1f565b92915050565b6000602082019050610f5e6000830184610e8e565b92915050565b6000610f6f82610dde565b9050919050565b610f7f81610f64565b82525050565b6000602082019050610f9a6000830184610f76565b92915050565b610fa981610f64565b8114610fb457600080fd5b50565b600081359050610fc681610fa0565b92915050565b600080fd5b600080fd5b6000601f19601f8301169050919050565b7f4e487b7100000000000000000000000000000000000000000000000000000000600052604160045260246000fd5b61101f82610fd6565b810181811067ffffffffffffffff8211171561103e5761103d610fe7565b5b80604052505050565b6000611051610dca565b905061105d8282611016565b919050565b600067ffffffffffffffff82111561107d5761107c610fe7565b5b61108682610fd6565b9050602081019050919050565b82818337600083830152505050565b60006110b56110b084611062565b611047565b9050828152602081018484840111156110d1576110d0610fd1565b5b6110dc848285611093565b509392505050565b600082601f8301126110f9576110f8610fcc565b5b81356111098482602086016110a2565b91505092915050565b60008060006060848603121561112b5761112a610dd4565b5b600061113986828701610edd565b935050602061114a86828701610fb7565b925050604084013567ffffffffffffffff81111561116b5761116a610dd9565b5b611177868287016110e4565b9150509250925092565b600081519050919050565b600082825260208201905092915050565b60005b838110156111bb5780820151818401526020810190506111a0565b838111156111ca576000848401525b50505050565b60006111db82611181565b6111e5818561118c565b93506111f581856020860161119d565b6111fe81610fd6565b840191505092915050565b6000602082019050818103600083015261122381846111d0565b905092915050565b6000806040838503121561124257611241610dd4565b5b600061125085828601610e27565b925050602061126185828601610edd565b9150509250929050565b60006020828403121561128157611280610dd4565b5b600061128f84828501610fb7565b91505092915050565b600082825260208201905092915050565b7f596f75206e6565647320746f206265206f776e65722e20616e642063616e277460008201527f20626520657863656564207468616e206d6178696d756d20677561726469616e602082015250565b6000611305604083611298565b9150611310826112a9565b604082019050919050565b60006020820190508181036000830152611334816112f8565b9050919050565b7f4e487b7100000000000000000000000000000000000000000000000000000000600052601160045260246000fd5b600061137582610e84565b91507fffffffffffffffffffffffffffffffffffffffffffffffffffffffffffffffff82036113a7576113a661133b565b5b600182019050919050565b7f596f75206d75737420626520746865206f776e657220616e6420796f7520636160008201527f6e206f6e6c792072656d6f7665206578697374656420677561726469616e0000602082015250565b600061140e603e83611298565b9150611419826113b2565b604082019050919050565b6000602082019050818103600083015261143d81611401565b9050919050565b600061144f82610e84565b9150600082036114625761146161133b565b5b600182039050919050565b7f596f75206861766520746f206265206f776e6572000000000000000000000000600082015250565b60006114a3601483611298565b91506114ae8261146d565b602082019050919050565b600060208201905081810360008301526114d281611496565b9050919050565b600081905092915050565b60006114ef82611181565b6114f981856114d9565b935061150981856020860161119d565b80840191505092915050565b600061152182846114e4565b915081905092915050565b7f596f75206e6565647320746f206265206f776e6572206f72206d75737420676960008201527f7665206f6e65206f662074686520677561726461696e7320616e6420636f6e7460208201527f726163742062616c616e6365206d75737420626520677265617465722074686160408201527f6e20616d6f756e74000000000000000000000000000000000000000000000000606082015250565b60006115d4606883611298565b91506115df8261152c565b608082019050919050565b60006020820190508181036000830152611603816115c7565b9050919050565b7f596f75206e6565647320746f20626520677561726469616e20746f20766f7465600082015250565b6000611640602083611298565b915061164b8261160a565b602082019050919050565b6000602082019050818103600083015261166f81611633565b9050919050565b7f4e487b7100000000000000000000000000000000000000000000000000000000600052603260045260246000fd5b7f596f7520616c726561647920766f7465642c2064756821000000000000000000600082015250565b60006116db601783611298565b91506116e6826116a5565b602082019050919050565b6000602082019050818103600083015261170a816116ce565b9050919050565b600061171c82610e84565b915061172783610e84565b9250817fffffffffffffffffffffffffffffffffffffffffffffffffffffffffffffffff04831182151516156117605761175f61133b565b5b828202905092915050565b7f4e487b7100000000000000000000000000000000000000000000000000000000600052601260045260246000fd5b60006117a582610e84565b91506117b083610e84565b9250826117c0576117bf61176b565b5b82820490509291505056fea26469706673582212203e56b56445538a4326e92758567fa871507a7e4a5be855e2bd577e00a424adf164736f6c634300080e0033",
					"opcodes": "PUSH1 0x80 PUSH1 0x40 MSTORE PUSH1 0x5 PUSH1 0x1 SSTORE CALLVALUE DUP1 ISZERO PUSH2 0x15 JUMPI PUSH1 0x0 DUP1 REVERT JUMPDEST POP CALLER PUSH1 0x0 DUP1 PUSH2 0x100 EXP DUP2 SLOAD DUP2 PUSH20 0xFFFFFFFFFFFFFFFFFFFFFFFFFFFFFFFFFFFFFFFF MUL NOT AND SWAP1 DUP4 PUSH20 0xFFFFFFFFFFFFFFFFFFFFFFFFFFFFFFFFFFFFFFFF AND MUL OR SWAP1 SSTORE POP PUSH2 0x1801 DUP1 PUSH2 0x65 PUSH1 0x0 CODECOPY PUSH1 0x0 RETURN INVALID PUSH1 0x80 PUSH1 0x40 MSTORE PUSH1 0x4 CALLDATASIZE LT PUSH2 0xC6 JUMPI PUSH1 0x0 CALLDATALOAD PUSH1 0xE0 SHR DUP1 PUSH4 0x8DA5CB5B GT PUSH2 0x7F JUMPI DUP1 PUSH4 0x958FF7FB GT PUSH2 0x59 JUMPI DUP1 PUSH4 0x958FF7FB EQ PUSH2 0x288 JUMPI DUP1 PUSH4 0xB1F8100D EQ PUSH2 0x2B1 JUMPI DUP1 PUSH4 0xBABD957D EQ PUSH2 0x2DA JUMPI DUP1 PUSH4 0xD4EE1D90 EQ PUSH2 0x305 JUMPI PUSH2 0xCD JUMP JUMPDEST DUP1 PUSH4 0x8DA5CB5B EQ PUSH2 0x1F5 JUMPI DUP1 PUSH4 0x8F6D38A5 EQ PUSH2 0x220 JUMPI DUP1 PUSH4 0x93046E73 EQ PUSH2 0x24B JUMPI PUSH2 0xCD JUMP JUMPDEST DUP1 PUSH4 0x633B14A EQ PUSH2 0xD2 JUMPI DUP1 PUSH4 0x110F6CF3 EQ PUSH2 0x110 JUMPI DUP1 PUSH4 0x3C911347 EQ PUSH2 0x14D JUMPI DUP1 PUSH4 0x5BF36423 EQ PUSH2 0x178 JUMPI DUP1 PUSH4 0x71404156 EQ PUSH2 0x1A1 JUMPI DUP1 PUSH4 0x8BE04352 EQ PUSH2 0x1CA JUMPI PUSH2 0xCD JUMP JUMPDEST CALLDATASIZE PUSH2 0xCD JUMPI STOP JUMPDEST PUSH1 0x0 DUP1 REVERT JUMPDEST CALLVALUE DUP1 ISZERO PUSH2 0xDE JUMPI PUSH1 0x0 DUP1 REVERT JUMPDEST POP PUSH2 0xF9 PUSH1 0x4 DUP1 CALLDATASIZE SUB DUP2 ADD SWAP1 PUSH2 0xF4 SWAP2 SWAP1 PUSH2 0xE3C JUMP JUMPDEST PUSH2 0x330 JUMP JUMPDEST PUSH1 0x40 MLOAD PUSH2 0x107 SWAP3 SWAP2 SWAP1 PUSH2 0xE9D JUMP JUMPDEST PUSH1 0x40 MLOAD DUP1 SWAP2 SUB SWAP1 RETURN JUMPDEST CALLVALUE DUP1 ISZERO PUSH2 0x11C JUMPI PUSH1 0x0 DUP1 REVERT JUMPDEST POP PUSH2 0x137 PUSH1 0x4 DUP1 CALLDATASIZE SUB DUP2 ADD SWAP1 PUSH2 0x132 SWAP2 SWAP1 PUSH2 0xEF2 JUMP JUMPDEST PUSH2 0x361 JUMP JUMPDEST PUSH1 0x40 MLOAD PUSH2 0x144 SWAP2 SWAP1 PUSH2 0xF2E JUMP JUMPDEST PUSH1 0x40 MLOAD DUP1 SWAP2 SUB SWAP1 RETURN JUMPDEST CALLVALUE DUP1 ISZERO PUSH2 0x159 JUMPI PUSH1 0x0 DUP1 REVERT JUMPDEST POP PUSH2 0x162 PUSH2 0x3A0 JUMP JUMPDEST PUSH1 0x40 MLOAD PUSH2 0x16F SWAP2 SWAP1 PUSH2 0xF49 JUMP JUMPDEST PUSH1 0x40 MLOAD DUP1 SWAP2 SUB SWAP1 RETURN JUMPDEST CALLVALUE DUP1 ISZERO PUSH2 0x184 JUMPI PUSH1 0x0 DUP1 REVERT JUMPDEST POP PUSH2 0x19F PUSH1 0x4 DUP1 CALLDATASIZE SUB DUP2 ADD SWAP1 PUSH2 0x19A SWAP2 SWAP1 PUSH2 0xE3C JUMP JUMPDEST PUSH2 0x3A6 JUMP JUMPDEST STOP JUMPDEST CALLVALUE DUP1 ISZERO PUSH2 0x1AD JUMPI PUSH1 0x0 DUP1 REVERT JUMPDEST POP PUSH2 0x1C8 PUSH1 0x4 DUP1 CALLDATASIZE SUB DUP2 ADD SWAP1 PUSH2 0x1C3 SWAP2 SWAP1 PUSH2 0xE3C JUMP JUMPDEST PUSH2 0x4B9 JUMP JUMPDEST STOP JUMPDEST CALLVALUE DUP1 ISZERO PUSH2 0x1D6 JUMPI PUSH1 0x0 DUP1 REVERT JUMPDEST POP PUSH2 0x1DF PUSH2 0x63F JUMP JUMPDEST PUSH1 0x40 MLOAD PUSH2 0x1EC SWAP2 SWAP1 PUSH2 0xF49 JUMP JUMPDEST PUSH1 0x40 MLOAD DUP1 SWAP2 SUB SWAP1 RETURN JUMPDEST CALLVALUE DUP1 ISZERO PUSH2 0x201 JUMPI PUSH1 0x0 DUP1 REVERT JUMPDEST POP PUSH2 0x20A PUSH2 0x645 JUMP JUMPDEST PUSH1 0x40 MLOAD PUSH2 0x217 SWAP2 SWAP1 PUSH2 0xF85 JUMP JUMPDEST PUSH1 0x40 MLOAD DUP1 SWAP2 SUB SWAP1 RETURN JUMPDEST CALLVALUE DUP1 ISZERO PUSH2 0x22C JUMPI PUSH1 0x0 DUP1 REVERT JUMPDEST POP PUSH2 0x235 PUSH2 0x669 JUMP JUMPDEST PUSH1 0x40 MLOAD PUSH2 0x242 SWAP2 SWAP1 PUSH2 0xF49 JUMP JUMPDEST PUSH1 0x40 MLOAD DUP1 SWAP2 SUB SWAP1 RETURN JUMPDEST CALLVALUE DUP1 ISZERO PUSH2 0x257 JUMPI PUSH1 0x0 DUP1 REVERT JUMPDEST POP PUSH2 0x272 PUSH1 0x4 DUP1 CALLDATASIZE SUB DUP2 ADD SWAP1 PUSH2 0x26D SWAP2 SWAP1 PUSH2 0x1112 JUMP JUMPDEST PUSH2 0x66F JUMP JUMPDEST PUSH1 0x40 MLOAD PUSH2 0x27F SWAP2 SWAP1 PUSH2 0x1209 JUMP JUMPDEST PUSH1 0x40 MLOAD DUP1 SWAP2 SUB SWAP1 RETURN JUMPDEST CALLVALUE DUP1 ISZERO PUSH2 0x294 JUMPI PUSH1 0x0 DUP1 REVERT JUMPDEST POP PUSH2 0x2AF PUSH1 0x4 DUP1 CALLDATASIZE SUB DUP2 ADD SWAP1 PUSH2 0x2AA SWAP2 SWAP1 PUSH2 0x122B JUMP JUMPDEST PUSH2 0x836 JUMP JUMPDEST STOP JUMPDEST CALLVALUE DUP1 ISZERO PUSH2 0x2BD JUMPI PUSH1 0x0 DUP1 REVERT JUMPDEST POP PUSH2 0x2D8 PUSH1 0x4 DUP1 CALLDATASIZE SUB DUP2 ADD SWAP1 PUSH2 0x2D3 SWAP2 SWAP1 PUSH2 0x126B JUMP JUMPDEST PUSH2 0x973 JUMP JUMPDEST STOP JUMPDEST CALLVALUE DUP1 ISZERO PUSH2 0x2E6 JUMPI PUSH1 0x0 DUP1 REVERT JUMPDEST POP PUSH2 0x2EF PUSH2 0xD5E JUMP JUMPDEST PUSH1 0x40 MLOAD PUSH2 0x2FC SWAP2 SWAP1 PUSH2 0xF49 JUMP JUMPDEST PUSH1 0x40 MLOAD DUP1 SWAP2 SUB SWAP1 RETURN JUMPDEST CALLVALUE DUP1 ISZERO PUSH2 0x311 JUMPI PUSH1 0x0 DUP1 REVERT JUMPDEST POP PUSH2 0x31A PUSH2 0xD66 JUMP JUMPDEST PUSH1 0x40 MLOAD PUSH2 0x327 SWAP2 SWAP1 PUSH2 0xF85 JUMP JUMPDEST PUSH1 0x40 MLOAD DUP1 SWAP2 SUB SWAP1 RETURN JUMPDEST PUSH1 0x3 PUSH1 0x20 MSTORE DUP1 PUSH1 0x0 MSTORE PUSH1 0x40 PUSH1 0x0 KECCAK256 PUSH1 0x0 SWAP2 POP SWAP1 POP DUP1 PUSH1 0x0 ADD PUSH1 0x0 SWAP1 SLOAD SWAP1 PUSH2 0x100 EXP SWAP1 DIV PUSH1 0xFF AND SWAP1 DUP1 PUSH1 0x1 ADD SLOAD SWAP1 POP DUP3 JUMP JUMPDEST PUSH1 0x6 DUP2 DUP2 SLOAD DUP2 LT PUSH2 0x371 JUMPI PUSH1 0x0 DUP1 REVERT JUMPDEST SWAP1 PUSH1 0x0 MSTORE PUSH1 0x20 PUSH1 0x0 KECCAK256 ADD PUSH1 0x0 SWAP2 POP SLOAD SWAP1 PUSH2 0x100 EXP SWAP1 DIV PUSH20 0xFFFFFFFFFFFFFFFFFFFFFFFFFFFFFFFFFFFFFFFF AND DUP2 JUMP JUMPDEST PUSH1 0x2 SLOAD DUP2 JUMP JUMPDEST PUSH1 0x0 DUP1 SLOAD SWAP1 PUSH2 0x100 EXP SWAP1 DIV PUSH20 0xFFFFFFFFFFFFFFFFFFFFFFFFFFFFFFFFFFFFFFFF AND PUSH20 0xFFFFFFFFFFFFFFFFFFFFFFFFFFFFFFFFFFFFFFFF AND CALLER PUSH20 0xFFFFFFFFFFFFFFFFFFFFFFFFFFFFFFFFFFFFFFFF AND EQ DUP1 ISZERO PUSH2 0x404 JUMPI POP PUSH1 0x1 SLOAD PUSH1 0x2 SLOAD LT JUMPDEST PUSH2 0x443 JUMPI PUSH1 0x40 MLOAD PUSH32 0x8C379A000000000000000000000000000000000000000000000000000000000 DUP2 MSTORE PUSH1 0x4 ADD PUSH2 0x43A SWAP1 PUSH2 0x131B JUMP JUMPDEST PUSH1 0x40 MLOAD DUP1 SWAP2 SUB SWAP1 REVERT JUMPDEST PUSH1 0x2 PUSH1 0x0 DUP2 SLOAD DUP1 SWAP3 SWAP2 SWAP1 PUSH2 0x456 SWAP1 PUSH2 0x136A JUMP JUMPDEST SWAP2 SWAP1 POP SSTORE POP PUSH1 0x1 PUSH1 0x3 PUSH1 0x0 DUP4 PUSH20 0xFFFFFFFFFFFFFFFFFFFFFFFFFFFFFFFFFFFFFFFF AND PUSH20 0xFFFFFFFFFFFFFFFFFFFFFFFFFFFFFFFFFFFFFFFF AND DUP2 MSTORE PUSH1 0x20 ADD SWAP1 DUP2 MSTORE PUSH1 0x20 ADD PUSH1 0x0 KECCAK256 PUSH1 0x0 ADD PUSH1 0x0 PUSH2 0x100 EXP DUP2 SLOAD DUP2 PUSH1 0xFF MUL NOT AND SWAP1 DUP4 ISZERO ISZERO MUL OR SWAP1 SSTORE POP POP JUMP JUMPDEST PUSH1 0x0 DUP1 SLOAD SWAP1 PUSH2 0x100 EXP SWAP1 DIV PUSH20 0xFFFFFFFFFFFFFFFFFFFFFFFFFFFFFFFFFFFFFFFF AND PUSH20 0xFFFFFFFFFFFFFFFFFFFFFFFFFFFFFFFFFFFFFFFF AND CALLER PUSH20 0xFFFFFFFFFFFFFFFFFFFFFFFFFFFFFFFFFFFFFFFF AND EQ DUP1 ISZERO PUSH2 0x560 JUMPI POP PUSH1 0x3 PUSH1 0x0 DUP3 PUSH20 0xFFFFFFFFFFFFFFFFFFFFFFFFFFFFFFFFFFFFFFFF AND PUSH20 0xFFFFFFFFFFFFFFFFFFFFFFFFFFFFFFFFFFFFFFFF AND DUP2 MSTORE PUSH1 0x20 ADD SWAP1 DUP2 MSTORE PUSH1 0x20 ADD PUSH1 0x0 KECCAK256 PUSH1 0x0 ADD PUSH1 0x0 SWAP1 SLOAD SWAP1 PUSH2 0x100 EXP SWAP1 DIV PUSH1 0xFF AND JUMPDEST PUSH2 0x59F JUMPI PUSH1 0x40 MLOAD PUSH32 0x8C379A000000000000000000000000000000000000000000000000000000000 DUP2 MSTORE PUSH1 0x4 ADD PUSH2 0x596 SWAP1 PUSH2 0x1424 JUMP JUMPDEST PUSH1 0x40 MLOAD DUP1 SWAP2 SUB SWAP1 REVERT JUMPDEST PUSH1 0x2 PUSH1 0x0 DUP2 SLOAD DUP1 SWAP3 SWAP2 SWAP1 PUSH2 0x5B2 SWAP1 PUSH2 0x1444 JUMP JUMPDEST SWAP2 SWAP1 POP SSTORE POP PUSH1 0x40 MLOAD DUP1 PUSH1 0x40 ADD PUSH1 0x40 MSTORE DUP1 PUSH1 0x0 ISZERO ISZERO DUP2 MSTORE PUSH1 0x20 ADD PUSH1 0x0 DUP2 MSTORE POP PUSH1 0x3 PUSH1 0x0 DUP4 PUSH20 0xFFFFFFFFFFFFFFFFFFFFFFFFFFFFFFFFFFFFFFFF AND PUSH20 0xFFFFFFFFFFFFFFFFFFFFFFFFFFFFFFFFFFFFFFFF AND DUP2 MSTORE PUSH1 0x20 ADD SWAP1 DUP2 MSTORE PUSH1 0x20 ADD PUSH1 0x0 KECCAK256 PUSH1 0x0 DUP3 ADD MLOAD DUP2 PUSH1 0x0 ADD PUSH1 0x0 PUSH2 0x100 EXP DUP2 SLOAD DUP2 PUSH1 0xFF MUL NOT AND SWAP1 DUP4 ISZERO ISZERO MUL OR SWAP1 SSTORE POP PUSH1 0x20 DUP3 ADD MLOAD DUP2 PUSH1 0x1 ADD SSTORE SWAP1 POP POP POP JUMP JUMPDEST PUSH1 0x1 SLOAD DUP2 JUMP JUMPDEST PUSH1 0x0 DUP1 SLOAD SWAP1 PUSH2 0x100 EXP SWAP1 DIV PUSH20 0xFFFFFFFFFFFFFFFFFFFFFFFFFFFFFFFFFFFFFFFF AND DUP2 JUMP JUMPDEST PUSH1 0x5 SLOAD DUP2 JUMP JUMPDEST PUSH1 0x60 SELFBALANCE DUP5 GT ISZERO DUP1 ISZERO PUSH2 0x771 JUMPI POP PUSH1 0x0 DUP1 SLOAD SWAP1 PUSH2 0x100 EXP SWAP1 DIV PUSH20 0xFFFFFFFFFFFFFFFFFFFFFFFFFFFFFFFFFFFFFFFF AND PUSH20 0xFFFFFFFFFFFFFFFFFFFFFFFFFFFFFFFFFFFFFFFF AND CALLER PUSH20 0xFFFFFFFFFFFFFFFFFFFFFFFFFFFFFFFFFFFFFFFF AND EQ DUP1 PUSH2 0x770 JUMPI POP PUSH1 0x3 PUSH1 0x0 CALLER PUSH20 0xFFFFFFFFFFFFFFFFFFFFFFFFFFFFFFFFFFFFFFFF AND PUSH20 0xFFFFFFFFFFFFFFFFFFFFFFFFFFFFFFFFFFFFFFFF AND DUP2 MSTORE PUSH1 0x20 ADD SWAP1 DUP2 MSTORE PUSH1 0x20 ADD PUSH1 0x0 KECCAK256 PUSH1 0x0 ADD PUSH1 0x0 SWAP1 SLOAD SWAP1 PUSH2 0x100 EXP SWAP1 DIV PUSH1 0xFF AND DUP1 ISZERO PUSH2 0x76F JUMPI POP DUP4 PUSH1 0x3 PUSH1 0x0 CALLER PUSH20 0xFFFFFFFFFFFFFFFFFFFFFFFFFFFFFFFFFFFFFFFF AND PUSH20 0xFFFFFFFFFFFFFFFFFFFFFFFFFFFFFFFFFFFFFFFF AND DUP2 MSTORE PUSH1 0x20 ADD SWAP1 DUP2 MSTORE PUSH1 0x20 ADD PUSH1 0x0 KECCAK256 PUSH1 0x1 ADD SLOAD LT ISZERO JUMPDEST JUMPDEST JUMPDEST PUSH2 0x7B0 JUMPI PUSH1 0x40 MLOAD PUSH32 0x8C379A000000000000000000000000000000000000000000000000000000000 DUP2 MSTORE PUSH1 0x4 ADD PUSH2 0x7A7 SWAP1 PUSH2 0x14B9 JUMP JUMPDEST PUSH1 0x40 MLOAD DUP1 SWAP2 SUB SWAP1 REVERT JUMPDEST PUSH1 0x0 DUP1 DUP5 PUSH20 0xFFFFFFFFFFFFFFFFFFFFFFFFFFFFFFFFFFFFFFFF AND DUP7 DUP6 PUSH1 0x40 MLOAD PUSH2 0x7D9 SWAP2 SWAP1 PUSH2 0x1515 JUMP JUMPDEST PUSH1 0x0 PUSH1 0x40 MLOAD DUP1 DUP4 SUB DUP2 DUP6 DUP8 GAS CALL SWAP3 POP POP POP RETURNDATASIZE DUP1 PUSH1 0x0 DUP2 EQ PUSH2 0x816 JUMPI PUSH1 0x40 MLOAD SWAP2 POP PUSH1 0x1F NOT PUSH1 0x3F RETURNDATASIZE ADD AND DUP3 ADD PUSH1 0x40 MSTORE RETURNDATASIZE DUP3 MSTORE RETURNDATASIZE PUSH1 0x0 PUSH1 0x20 DUP5 ADD RETURNDATACOPY PUSH2 0x81B JUMP JUMPDEST PUSH1 0x60 SWAP2 POP JUMPDEST POP SWAP2 POP SWAP2 POP DUP2 PUSH2 0x82A JUMPI PUSH1 0x0 DUP1 REVERT JUMPDEST DUP1 SWAP3 POP POP POP SWAP4 SWAP3 POP POP POP JUMP JUMPDEST PUSH1 0x0 DUP1 SLOAD SWAP1 PUSH2 0x100 EXP SWAP1 DIV PUSH20 0xFFFFFFFFFFFFFFFFFFFFFFFFFFFFFFFFFFFFFFFF AND PUSH20 0xFFFFFFFFFFFFFFFFFFFFFFFFFFFFFFFFFFFFFFFF AND CALLER PUSH20 0xFFFFFFFFFFFFFFFFFFFFFFFFFFFFFFFFFFFFFFFF AND EQ DUP1 ISZERO PUSH2 0x8DD JUMPI POP PUSH1 0x3 PUSH1 0x0 DUP4 PUSH20 0xFFFFFFFFFFFFFFFFFFFFFFFFFFFFFFFFFFFFFFFF AND PUSH20 0xFFFFFFFFFFFFFFFFFFFFFFFFFFFFFFFFFFFFFFFF AND DUP2 MSTORE PUSH1 0x20 ADD SWAP1 DUP2 MSTORE PUSH1 0x20 ADD PUSH1 0x0 KECCAK256 PUSH1 0x0 ADD PUSH1 0x0 SWAP1 SLOAD SWAP1 PUSH2 0x100 EXP SWAP1 DIV PUSH1 0xFF AND JUMPDEST DUP1 ISZERO PUSH2 0x8E9 JUMPI POP SELFBALANCE DUP2 GT ISZERO JUMPDEST PUSH2 0x928 JUMPI PUSH1 0x40 MLOAD PUSH32 0x8C379A000000000000000000000000000000000000000000000000000000000 DUP2 MSTORE PUSH1 0x4 ADD PUSH2 0x91F SWAP1 PUSH2 0x15EA JUMP JUMPDEST PUSH1 0x40 MLOAD DUP1 SWAP2 SUB SWAP1 REVERT JUMPDEST DUP1 PUSH1 0x3 PUSH1 0x0 DUP5 PUSH20 0xFFFFFFFFFFFFFFFFFFFFFFFFFFFFFFFFFFFFFFFF AND PUSH20 0xFFFFFFFFFFFFFFFFFFFFFFFFFFFFFFFFFFFFFFFF AND DUP2 MSTORE PUSH1 0x20 ADD SWAP1 DUP2 MSTORE PUSH1 0x20 ADD PUSH1 0x0 KECCAK256 PUSH1 0x1 ADD DUP2 SWAP1 SSTORE POP POP POP JUMP JUMPDEST PUSH1 0x3 PUSH1 0x0 CALLER PUSH20 0xFFFFFFFFFFFFFFFFFFFFFFFFFFFFFFFFFFFFFFFF AND PUSH20 0xFFFFFFFFFFFFFFFFFFFFFFFFFFFFFFFFFFFFFFFF AND DUP2 MSTORE PUSH1 0x20 ADD SWAP1 DUP2 MSTORE PUSH1 0x20 ADD PUSH1 0x0 KECCAK256 PUSH1 0x0 ADD PUSH1 0x0 SWAP1 SLOAD SWAP1 PUSH2 0x100 EXP SWAP1 DIV PUSH1 0xFF AND DUP1 ISZERO PUSH2 0x9FC JUMPI POP PUSH1 0x0 PUSH20 0xFFFFFFFFFFFFFFFFFFFFFFFFFFFFFFFFFFFFFFFF AND DUP2 PUSH20 0xFFFFFFFFFFFFFFFFFFFFFFFFFFFFFFFFFFFFFFFF AND EQ ISZERO JUMPDEST PUSH2 0xA3B JUMPI PUSH1 0x40 MLOAD PUSH32 0x8C379A000000000000000000000000000000000000000000000000000000000 DUP2 MSTORE PUSH1 0x4 ADD PUSH2 0xA32 SWAP1 PUSH2 0x1656 JUMP JUMPDEST PUSH1 0x40 MLOAD DUP1 SWAP2 SUB SWAP1 REVERT JUMPDEST PUSH1 0x0 JUMPDEST PUSH1 0x6 DUP1 SLOAD SWAP1 POP DUP2 LT ISZERO PUSH2 0xB0A JUMPI CALLER PUSH20 0xFFFFFFFFFFFFFFFFFFFFFFFFFFFFFFFFFFFFFFFF AND PUSH1 0x6 DUP3 DUP2 SLOAD DUP2 LT PUSH2 0xA76 JUMPI PUSH2 0xA75 PUSH2 0x1676 JUMP JUMPDEST JUMPDEST SWAP1 PUSH1 0x0 MSTORE PUSH1 0x20 PUSH1 0x0 KECCAK256 ADD PUSH1 0x0 SWAP1 SLOAD SWAP1 PUSH2 0x100 EXP SWAP1 DIV PUSH20 0xFFFFFFFFFFFFFFFFFFFFFFFFFFFFFFFFFFFFFFFF AND PUSH20 0xFFFFFFFFFFFFFFFFFFFFFFFFFFFFFFFFFFFFFFFF AND SUB PUSH2 0xAF7 JUMPI PUSH1 0x40 MLOAD PUSH32 0x8C379A000000000000000000000000000000000000000000000000000000000 DUP2 MSTORE PUSH1 0x4 ADD PUSH2 0xAEE SWAP1 PUSH2 0x16F1 JUMP JUMPDEST PUSH1 0x40 MLOAD DUP1 SWAP2 SUB SWAP1 REVERT JUMPDEST DUP1 DUP1 PUSH2 0xB02 SWAP1 PUSH2 0x136A JUMP JUMPDEST SWAP2 POP POP PUSH2 0xA3E JUMP JUMPDEST POP PUSH1 0x6 CALLER SWAP1 DUP1 PUSH1 0x1 DUP2 SLOAD ADD DUP1 DUP3 SSTORE DUP1 SWAP2 POP POP PUSH1 0x1 SWAP1 SUB SWAP1 PUSH1 0x0 MSTORE PUSH1 0x20 PUSH1 0x0 KECCAK256 ADD PUSH1 0x0 SWAP1 SWAP2 SWAP1 SWAP2 SWAP1 SWAP2 PUSH2 0x100 EXP DUP2 SLOAD DUP2 PUSH20 0xFFFFFFFFFFFFFFFFFFFFFFFFFFFFFFFFFFFFFFFF MUL NOT AND SWAP1 DUP4 PUSH20 0xFFFFFFFFFFFFFFFFFFFFFFFFFFFFFFFFFFFFFFFF AND MUL OR SWAP1 SSTORE POP PUSH1 0x0 PUSH20 0xFFFFFFFFFFFFFFFFFFFFFFFFFFFFFFFFFFFFFFFF AND PUSH1 0x4 PUSH1 0x0 SWAP1 SLOAD SWAP1 PUSH2 0x100 EXP SWAP1 DIV PUSH20 0xFFFFFFFFFFFFFFFFFFFFFFFFFFFFFFFFFFFFFFFF AND PUSH20 0xFFFFFFFFFFFFFFFFFFFFFFFFFFFFFFFFFFFFFFFF AND EQ PUSH2 0xC23 JUMPI DUP1 PUSH20 0xFFFFFFFFFFFFFFFFFFFFFFFFFFFFFFFFFFFFFFFF AND PUSH1 0x4 PUSH1 0x0 SWAP1 SLOAD SWAP1 PUSH2 0x100 EXP SWAP1 DIV PUSH20 0xFFFFFFFFFFFFFFFFFFFFFFFFFFFFFFFFFFFFFFFF AND PUSH20 0xFFFFFFFFFFFFFFFFFFFFFFFFFFFFFFFFFFFFFFFF AND EQ PUSH2 0xC22 JUMPI PUSH1 0x0 PUSH1 0x5 DUP2 SWAP1 SSTORE POP JUMPDEST JUMPDEST DUP1 PUSH1 0x4 PUSH1 0x0 PUSH2 0x100 EXP DUP2 SLOAD DUP2 PUSH20 0xFFFFFFFFFFFFFFFFFFFFFFFFFFFFFFFFFFFFFFFF MUL NOT AND SWAP1 DUP4 PUSH20 0xFFFFFFFFFFFFFFFFFFFFFFFFFFFFFFFFFFFFFFFF AND MUL OR SWAP1 SSTORE POP PUSH1 0x5 PUSH1 0x0 DUP2 SLOAD DUP1 SWAP3 SWAP2 SWAP1 PUSH2 0xC77 SWAP1 PUSH2 0x136A JUMP JUMPDEST SWAP2 SWAP1 POP SSTORE POP PUSH1 0x32 PUSH1 0x1 SLOAD PUSH1 0x64 PUSH1 0x5 SLOAD PUSH2 0xC90 SWAP2 SWAP1 PUSH2 0x1711 JUMP JUMPDEST PUSH2 0xC9A SWAP2 SWAP1 PUSH2 0x179A JUMP JUMPDEST GT ISZERO PUSH2 0xD5B JUMPI PUSH1 0x4 PUSH1 0x0 SWAP1 SLOAD SWAP1 PUSH2 0x100 EXP SWAP1 DIV PUSH20 0xFFFFFFFFFFFFFFFFFFFFFFFFFFFFFFFFFFFFFFFF AND PUSH1 0x0 DUP1 PUSH2 0x100 EXP DUP2 SLOAD DUP2 PUSH20 0xFFFFFFFFFFFFFFFFFFFFFFFFFFFFFFFFFFFFFFFF MUL NOT AND SWAP1 DUP4 PUSH20 0xFFFFFFFFFFFFFFFFFFFFFFFFFFFFFFFFFFFFFFFF AND MUL OR SWAP1 SSTORE POP PUSH1 0x0 PUSH1 0x4 PUSH1 0x0 PUSH2 0x100 EXP DUP2 SLOAD DUP2 PUSH20 0xFFFFFFFFFFFFFFFFFFFFFFFFFFFFFFFFFFFFFFFF MUL NOT AND SWAP1 DUP4 PUSH20 0xFFFFFFFFFFFFFFFFFFFFFFFFFFFFFFFFFFFFFFFF AND MUL OR SWAP1 SSTORE POP PUSH1 0x0 PUSH1 0x5 DUP2 SWAP1 SSTORE POP PUSH1 0x6 PUSH1 0x0 PUSH2 0xD5A SWAP2 SWAP1 PUSH2 0xD8C JUMP JUMPDEST JUMPDEST POP JUMP JUMPDEST PUSH1 0x0 SELFBALANCE SWAP1 POP SWAP1 JUMP JUMPDEST PUSH1 0x4 PUSH1 0x0 SWAP1 SLOAD SWAP1 PUSH2 0x100 EXP SWAP1 DIV PUSH20 0xFFFFFFFFFFFFFFFFFFFFFFFFFFFFFFFFFFFFFFFF AND DUP2 JUMP JUMPDEST POP DUP1 SLOAD PUSH1 0x0 DUP3 SSTORE SWAP1 PUSH1 0x0 MSTORE PUSH1 0x20 PUSH1 0x0 KECCAK256 SWAP1 DUP2 ADD SWAP1 PUSH2 0xDAA SWAP2 SWAP1 PUSH2 0xDAD JUMP JUMPDEST POP JUMP JUMPDEST JUMPDEST DUP1 DUP3 GT ISZERO PUSH2 0xDC6 JUMPI PUSH1 0x0 DUP2 PUSH1 0x0 SWAP1 SSTORE POP PUSH1 0x1 ADD PUSH2 0xDAE JUMP JUMPDEST POP SWAP1 JUMP JUMPDEST PUSH1 0x0 PUSH1 0x40 MLOAD SWAP1 POP SWAP1 JUMP JUMPDEST PUSH1 0x0 DUP1 REVERT JUMPDEST PUSH1 0x0 DUP1 REVERT JUMPDEST PUSH1 0x0 PUSH20 0xFFFFFFFFFFFFFFFFFFFFFFFFFFFFFFFFFFFFFFFF DUP3 AND SWAP1 POP SWAP2 SWAP1 POP JUMP JUMPDEST PUSH1 0x0 PUSH2 0xE09 DUP3 PUSH2 0xDDE JUMP JUMPDEST SWAP1 POP SWAP2 SWAP1 POP JUMP JUMPDEST PUSH2 0xE19 DUP2 PUSH2 0xDFE JUMP JUMPDEST DUP2 EQ PUSH2 0xE24 JUMPI PUSH1 0x0 DUP1 REVERT JUMPDEST POP JUMP JUMPDEST PUSH1 0x0 DUP2 CALLDATALOAD SWAP1 POP PUSH2 0xE36 DUP2 PUSH2 0xE10 JUMP JUMPDEST SWAP3 SWAP2 POP POP JUMP JUMPDEST PUSH1 0x0 PUSH1 0x20 DUP3 DUP5 SUB SLT ISZERO PUSH2 0xE52 JUMPI PUSH2 0xE51 PUSH2 0xDD4 JUMP JUMPDEST JUMPDEST PUSH1 0x0 PUSH2 0xE60 DUP5 DUP3 DUP6 ADD PUSH2 0xE27 JUMP JUMPDEST SWAP2 POP POP SWAP3 SWAP2 POP POP JUMP JUMPDEST PUSH1 0x0 DUP2 ISZERO ISZERO SWAP1 POP SWAP2 SWAP1 POP JUMP JUMPDEST PUSH2 0xE7E DUP2 PUSH2 0xE69 JUMP JUMPDEST DUP3 MSTORE POP POP JUMP JUMPDEST PUSH1 0x0 DUP2 SWAP1 POP SWAP2 SWAP1 POP JUMP JUMPDEST PUSH2 0xE97 DUP2 PUSH2 0xE84 JUMP JUMPDEST DUP3 MSTORE POP POP JUMP JUMPDEST PUSH1 0x0 PUSH1 0x40 DUP3 ADD SWAP1 POP PUSH2 0xEB2 PUSH1 0x0 DUP4 ADD DUP6 PUSH2 0xE75 JUMP JUMPDEST PUSH2 0xEBF PUSH1 0x20 DUP4 ADD DUP5 PUSH2 0xE8E JUMP JUMPDEST SWAP4 SWAP3 POP POP POP JUMP JUMPDEST PUSH2 0xECF DUP2 PUSH2 0xE84 JUMP JUMPDEST DUP2 EQ PUSH2 0xEDA JUMPI PUSH1 0x0 DUP1 REVERT JUMPDEST POP JUMP JUMPDEST PUSH1 0x0 DUP2 CALLDATALOAD SWAP1 POP PUSH2 0xEEC DUP2 PUSH2 0xEC6 JUMP JUMPDEST SWAP3 SWAP2 POP POP JUMP JUMPDEST PUSH1 0x0 PUSH1 0x20 DUP3 DUP5 SUB SLT ISZERO PUSH2 0xF08 JUMPI PUSH2 0xF07 PUSH2 0xDD4 JUMP JUMPDEST JUMPDEST PUSH1 0x0 PUSH2 0xF16 DUP5 DUP3 DUP6 ADD PUSH2 0xEDD JUMP JUMPDEST SWAP2 POP POP SWAP3 SWAP2 POP POP JUMP JUMPDEST PUSH2 0xF28 DUP2 PUSH2 0xDFE JUMP JUMPDEST DUP3 MSTORE POP POP JUMP JUMPDEST PUSH1 0x0 PUSH1 0x20 DUP3 ADD SWAP1 POP PUSH2 0xF43 PUSH1 0x0 DUP4 ADD DUP5 PUSH2 0xF1F JUMP JUMPDEST SWAP3 SWAP2 POP POP JUMP JUMPDEST PUSH1 0x0 PUSH1 0x20 DUP3 ADD SWAP1 POP PUSH2 0xF5E PUSH1 0x0 DUP4 ADD DUP5 PUSH2 0xE8E JUMP JUMPDEST SWAP3 SWAP2 POP POP JUMP JUMPDEST PUSH1 0x0 PUSH2 0xF6F DUP3 PUSH2 0xDDE JUMP JUMPDEST SWAP1 POP SWAP2 SWAP1 POP JUMP JUMPDEST PUSH2 0xF7F DUP2 PUSH2 0xF64 JUMP JUMPDEST DUP3 MSTORE POP POP JUMP JUMPDEST PUSH1 0x0 PUSH1 0x20 DUP3 ADD SWAP1 POP PUSH2 0xF9A PUSH1 0x0 DUP4 ADD DUP5 PUSH2 0xF76 JUMP JUMPDEST SWAP3 SWAP2 POP POP JUMP JUMPDEST PUSH2 0xFA9 DUP2 PUSH2 0xF64 JUMP JUMPDEST DUP2 EQ PUSH2 0xFB4 JUMPI PUSH1 0x0 DUP1 REVERT JUMPDEST POP JUMP JUMPDEST PUSH1 0x0 DUP2 CALLDATALOAD SWAP1 POP PUSH2 0xFC6 DUP2 PUSH2 0xFA0 JUMP JUMPDEST SWAP3 SWAP2 POP POP JUMP JUMPDEST PUSH1 0x0 DUP1 REVERT JUMPDEST PUSH1 0x0 DUP1 REVERT JUMPDEST PUSH1 0x0 PUSH1 0x1F NOT PUSH1 0x1F DUP4 ADD AND SWAP1 POP SWAP2 SWAP1 POP JUMP JUMPDEST PUSH32 0x4E487B7100000000000000000000000000000000000000000000000000000000 PUSH1 0x0 MSTORE PUSH1 0x41 PUSH1 0x4 MSTORE PUSH1 0x24 PUSH1 0x0 REVERT JUMPDEST PUSH2 0x101F DUP3 PUSH2 0xFD6 JUMP JUMPDEST DUP2 ADD DUP2 DUP2 LT PUSH8 0xFFFFFFFFFFFFFFFF DUP3 GT OR ISZERO PUSH2 0x103E JUMPI PUSH2 0x103D PUSH2 0xFE7 JUMP JUMPDEST JUMPDEST DUP1 PUSH1 0x40 MSTORE POP POP POP JUMP JUMPDEST PUSH1 0x0 PUSH2 0x1051 PUSH2 0xDCA JUMP JUMPDEST SWAP1 POP PUSH2 0x105D DUP3 DUP3 PUSH2 0x1016 JUMP JUMPDEST SWAP2 SWAP1 POP JUMP JUMPDEST PUSH1 0x0 PUSH8 0xFFFFFFFFFFFFFFFF DUP3 GT ISZERO PUSH2 0x107D JUMPI PUSH2 0x107C PUSH2 0xFE7 JUMP JUMPDEST JUMPDEST PUSH2 0x1086 DUP3 PUSH2 0xFD6 JUMP JUMPDEST SWAP1 POP PUSH1 0x20 DUP2 ADD SWAP1 POP SWAP2 SWAP1 POP JUMP JUMPDEST DUP3 DUP2 DUP4 CALLDATACOPY PUSH1 0x0 DUP4 DUP4 ADD MSTORE POP POP POP JUMP JUMPDEST PUSH1 0x0 PUSH2 0x10B5 PUSH2 0x10B0 DUP5 PUSH2 0x1062 JUMP JUMPDEST PUSH2 0x1047 JUMP JUMPDEST SWAP1 POP DUP3 DUP2 MSTORE PUSH1 0x20 DUP2 ADD DUP5 DUP5 DUP5 ADD GT ISZERO PUSH2 0x10D1 JUMPI PUSH2 0x10D0 PUSH2 0xFD1 JUMP JUMPDEST JUMPDEST PUSH2 0x10DC DUP5 DUP3 DUP6 PUSH2 0x1093 JUMP JUMPDEST POP SWAP4 SWAP3 POP POP POP JUMP JUMPDEST PUSH1 0x0 DUP3 PUSH1 0x1F DUP4 ADD SLT PUSH2 0x10F9 JUMPI PUSH2 0x10F8 PUSH2 0xFCC JUMP JUMPDEST JUMPDEST DUP2 CALLDATALOAD PUSH2 0x1109 DUP5 DUP3 PUSH1 0x20 DUP7 ADD PUSH2 0x10A2 JUMP JUMPDEST SWAP2 POP POP SWAP3 SWAP2 POP POP JUMP JUMPDEST PUSH1 0x0 DUP1 PUSH1 0x0 PUSH1 0x60 DUP5 DUP7 SUB SLT ISZERO PUSH2 0x112B JUMPI PUSH2 0x112A PUSH2 0xDD4 JUMP JUMPDEST JUMPDEST PUSH1 0x0 PUSH2 0x1139 DUP7 DUP3 DUP8 ADD PUSH2 0xEDD JUMP JUMPDEST SWAP4 POP POP PUSH1 0x20 PUSH2 0x114A DUP7 DUP3 DUP8 ADD PUSH2 0xFB7 JUMP JUMPDEST SWAP3 POP POP PUSH1 0x40 DUP5 ADD CALLDATALOAD PUSH8 0xFFFFFFFFFFFFFFFF DUP2 GT ISZERO PUSH2 0x116B JUMPI PUSH2 0x116A PUSH2 0xDD9 JUMP JUMPDEST JUMPDEST PUSH2 0x1177 DUP7 DUP3 DUP8 ADD PUSH2 0x10E4 JUMP JUMPDEST SWAP2 POP POP SWAP3 POP SWAP3 POP SWAP3 JUMP JUMPDEST PUSH1 0x0 DUP2 MLOAD SWAP1 POP SWAP2 SWAP1 POP JUMP JUMPDEST PUSH1 0x0 DUP3 DUP3 MSTORE PUSH1 0x20 DUP3 ADD SWAP1 POP SWAP3 SWAP2 POP POP JUMP JUMPDEST PUSH1 0x0 JUMPDEST DUP4 DUP2 LT ISZERO PUSH2 0x11BB JUMPI DUP1 DUP3 ADD MLOAD DUP2 DUP5 ADD MSTORE PUSH1 0x20 DUP2 ADD SWAP1 POP PUSH2 0x11A0 JUMP JUMPDEST DUP4 DUP2 GT ISZERO PUSH2 0x11CA JUMPI PUSH1 0x0 DUP5 DUP5 ADD MSTORE JUMPDEST POP POP POP POP JUMP JUMPDEST PUSH1 0x0 PUSH2 0x11DB DUP3 PUSH2 0x1181 JUMP JUMPDEST PUSH2 0x11E5 DUP2 DUP6 PUSH2 0x118C JUMP JUMPDEST SWAP4 POP PUSH2 0x11F5 DUP2 DUP6 PUSH1 0x20 DUP7 ADD PUSH2 0x119D JUMP JUMPDEST PUSH2 0x11FE DUP2 PUSH2 0xFD6 JUMP JUMPDEST DUP5 ADD SWAP2 POP POP SWAP3 SWAP2 POP POP JUMP JUMPDEST PUSH1 0x0 PUSH1 0x20 DUP3 ADD SWAP1 POP DUP2 DUP2 SUB PUSH1 0x0 DUP4 ADD MSTORE PUSH2 0x1223 DUP2 DUP5 PUSH2 0x11D0 JUMP JUMPDEST SWAP1 POP SWAP3 SWAP2 POP POP JUMP JUMPDEST PUSH1 0x0 DUP1 PUSH1 0x40 DUP4 DUP6 SUB SLT ISZERO PUSH2 0x1242 JUMPI PUSH2 0x1241 PUSH2 0xDD4 JUMP JUMPDEST JUMPDEST PUSH1 0x0 PUSH2 0x1250 DUP6 DUP3 DUP7 ADD PUSH2 0xE27 JUMP JUMPDEST SWAP3 POP POP PUSH1 0x20 PUSH2 0x1261 DUP6 DUP3 DUP7 ADD PUSH2 0xEDD JUMP JUMPDEST SWAP2 POP POP SWAP3 POP SWAP3 SWAP1 POP JUMP JUMPDEST PUSH1 0x0 PUSH1 0x20 DUP3 DUP5 SUB SLT ISZERO PUSH2 0x1281 JUMPI PUSH2 0x1280 PUSH2 0xDD4 JUMP JUMPDEST JUMPDEST PUSH1 0x0 PUSH2 0x128F DUP5 DUP3 DUP6 ADD PUSH2 0xFB7 JUMP JUMPDEST SWAP2 POP POP SWAP3 SWAP2 POP POP JUMP JUMPDEST PUSH1 0x0 DUP3 DUP3 MSTORE PUSH1 0x20 DUP3 ADD SWAP1 POP SWAP3 SWAP2 POP POP JUMP JUMPDEST PUSH32 0x596F75206E6565647320746F206265206F776E65722E20616E642063616E2774 PUSH1 0x0 DUP3 ADD MSTORE PUSH32 0x20626520657863656564207468616E206D6178696D756D20677561726469616E PUSH1 0x20 DUP3 ADD MSTORE POP JUMP JUMPDEST PUSH1 0x0 PUSH2 0x1305 PUSH1 0x40 DUP4 PUSH2 0x1298 JUMP JUMPDEST SWAP2 POP PUSH2 0x1310 DUP3 PUSH2 0x12A9 JUMP JUMPDEST PUSH1 0x40 DUP3 ADD SWAP1 POP SWAP2 SWAP1 POP JUMP JUMPDEST PUSH1 0x0 PUSH1 0x20 DUP3 ADD SWAP1 POP DUP2 DUP2 SUB PUSH1 0x0 DUP4 ADD MSTORE PUSH2 0x1334 DUP2 PUSH2 0x12F8 JUMP JUMPDEST SWAP1 POP SWAP2 SWAP1 POP JUMP JUMPDEST PUSH32 0x4E487B7100000000000000000000000000000000000000000000000000000000 PUSH1 0x0 MSTORE PUSH1 0x11 PUSH1 0x4 MSTORE PUSH1 0x24 PUSH1 0x0 REVERT JUMPDEST PUSH1 0x0 PUSH2 0x1375 DUP3 PUSH2 0xE84 JUMP JUMPDEST SWAP2 POP PUSH32 0xFFFFFFFFFFFFFFFFFFFFFFFFFFFFFFFFFFFFFFFFFFFFFFFFFFFFFFFFFFFFFFFF DUP3 SUB PUSH2 0x13A7 JUMPI PUSH2 0x13A6 PUSH2 0x133B JUMP JUMPDEST JUMPDEST PUSH1 0x1 DUP3 ADD SWAP1 POP SWAP2 SWAP1 POP JUMP JUMPDEST PUSH32 0x596F75206D75737420626520746865206F776E657220616E6420796F75206361 PUSH1 0x0 DUP3 ADD MSTORE PUSH32 0x6E206F6E6C792072656D6F7665206578697374656420677561726469616E0000 PUSH1 0x20 DUP3 ADD MSTORE POP JUMP JUMPDEST PUSH1 0x0 PUSH2 0x140E PUSH1 0x3E DUP4 PUSH2 0x1298 JUMP JUMPDEST SWAP2 POP PUSH2 0x1419 DUP3 PUSH2 0x13B2 JUMP JUMPDEST PUSH1 0x40 DUP3 ADD SWAP1 POP SWAP2 SWAP1 POP JUMP JUMPDEST PUSH1 0x0 PUSH1 0x20 DUP3 ADD SWAP1 POP DUP2 DUP2 SUB PUSH1 0x0 DUP4 ADD MSTORE PUSH2 0x143D DUP2 PUSH2 0x1401 JUMP JUMPDEST SWAP1 POP SWAP2 SWAP1 POP JUMP JUMPDEST PUSH1 0x0 PUSH2 0x144F DUP3 PUSH2 0xE84 JUMP JUMPDEST SWAP2 POP PUSH1 0x0 DUP3 SUB PUSH2 0x1462 JUMPI PUSH2 0x1461 PUSH2 0x133B JUMP JUMPDEST JUMPDEST PUSH1 0x1 DUP3 SUB SWAP1 POP SWAP2 SWAP1 POP JUMP JUMPDEST PUSH32 0x596F75206861766520746F206265206F776E6572000000000000000000000000 PUSH1 0x0 DUP3 ADD MSTORE POP JUMP JUMPDEST PUSH1 0x0 PUSH2 0x14A3 PUSH1 0x14 DUP4 PUSH2 0x1298 JUMP JUMPDEST SWAP2 POP PUSH2 0x14AE DUP3 PUSH2 0x146D JUMP JUMPDEST PUSH1 0x20 DUP3 ADD SWAP1 POP SWAP2 SWAP1 POP JUMP JUMPDEST PUSH1 0x0 PUSH1 0x20 DUP3 ADD SWAP1 POP DUP2 DUP2 SUB PUSH1 0x0 DUP4 ADD MSTORE PUSH2 0x14D2 DUP2 PUSH2 0x1496 JUMP JUMPDEST SWAP1 POP SWAP2 SWAP1 POP JUMP JUMPDEST PUSH1 0x0 DUP2 SWAP1 POP SWAP3 SWAP2 POP POP JUMP JUMPDEST PUSH1 0x0 PUSH2 0x14EF DUP3 PUSH2 0x1181 JUMP JUMPDEST PUSH2 0x14F9 DUP2 DUP6 PUSH2 0x14D9 JUMP JUMPDEST SWAP4 POP PUSH2 0x1509 DUP2 DUP6 PUSH1 0x20 DUP7 ADD PUSH2 0x119D JUMP JUMPDEST DUP1 DUP5 ADD SWAP2 POP POP SWAP3 SWAP2 POP POP JUMP JUMPDEST PUSH1 0x0 PUSH2 0x1521 DUP3 DUP5 PUSH2 0x14E4 JUMP JUMPDEST SWAP2 POP DUP2 SWAP1 POP SWAP3 SWAP2 POP POP JUMP JUMPDEST PUSH32 0x596F75206E6565647320746F206265206F776E6572206F72206D757374206769 PUSH1 0x0 DUP3 ADD MSTORE PUSH32 0x7665206F6E65206F662074686520677561726461696E7320616E6420636F6E74 PUSH1 0x20 DUP3 ADD MSTORE PUSH32 0x726163742062616C616E6365206D757374206265206772656174657220746861 PUSH1 0x40 DUP3 ADD MSTORE PUSH32 0x6E20616D6F756E74000000000000000000000000000000000000000000000000 PUSH1 0x60 DUP3 ADD MSTORE POP JUMP JUMPDEST PUSH1 0x0 PUSH2 0x15D4 PUSH1 0x68 DUP4 PUSH2 0x1298 JUMP JUMPDEST SWAP2 POP PUSH2 0x15DF DUP3 PUSH2 0x152C JUMP JUMPDEST PUSH1 0x80 DUP3 ADD SWAP1 POP SWAP2 SWAP1 POP JUMP JUMPDEST PUSH1 0x0 PUSH1 0x20 DUP3 ADD SWAP1 POP DUP2 DUP2 SUB PUSH1 0x0 DUP4 ADD MSTORE PUSH2 0x1603 DUP2 PUSH2 0x15C7 JUMP JUMPDEST SWAP1 POP SWAP2 SWAP1 POP JUMP JUMPDEST PUSH32 0x596F75206E6565647320746F20626520677561726469616E20746F20766F7465 PUSH1 0x0 DUP3 ADD MSTORE POP JUMP JUMPDEST PUSH1 0x0 PUSH2 0x1640 PUSH1 0x20 DUP4 PUSH2 0x1298 JUMP JUMPDEST SWAP2 POP PUSH2 0x164B DUP3 PUSH2 0x160A JUMP JUMPDEST PUSH1 0x20 DUP3 ADD SWAP1 POP SWAP2 SWAP1 POP JUMP JUMPDEST PUSH1 0x0 PUSH1 0x20 DUP3 ADD SWAP1 POP DUP2 DUP2 SUB PUSH1 0x0 DUP4 ADD MSTORE PUSH2 0x166F DUP2 PUSH2 0x1633 JUMP JUMPDEST SWAP1 POP SWAP2 SWAP1 POP JUMP JUMPDEST PUSH32 0x4E487B7100000000000000000000000000000000000000000000000000000000 PUSH1 0x0 MSTORE PUSH1 0x32 PUSH1 0x4 MSTORE PUSH1 0x24 PUSH1 0x0 REVERT JUMPDEST PUSH32 0x596F7520616C726561647920766F7465642C2064756821000000000000000000 PUSH1 0x0 DUP3 ADD MSTORE POP JUMP JUMPDEST PUSH1 0x0 PUSH2 0x16DB PUSH1 0x17 DUP4 PUSH2 0x1298 JUMP JUMPDEST SWAP2 POP PUSH2 0x16E6 DUP3 PUSH2 0x16A5 JUMP JUMPDEST PUSH1 0x20 DUP3 ADD SWAP1 POP SWAP2 SWAP1 POP JUMP JUMPDEST PUSH1 0x0 PUSH1 0x20 DUP3 ADD SWAP1 POP DUP2 DUP2 SUB PUSH1 0x0 DUP4 ADD MSTORE PUSH2 0x170A DUP2 PUSH2 0x16CE JUMP JUMPDEST SWAP1 POP SWAP2 SWAP1 POP JUMP JUMPDEST PUSH1 0x0 PUSH2 0x171C DUP3 PUSH2 0xE84 JUMP JUMPDEST SWAP2 POP PUSH2 0x1727 DUP4 PUSH2 0xE84 JUMP JUMPDEST SWAP3 POP DUP2 PUSH32 0xFFFFFFFFFFFFFFFFFFFFFFFFFFFFFFFFFFFFFFFFFFFFFFFFFFFFFFFFFFFFFFFF DIV DUP4 GT DUP3 ISZERO ISZERO AND ISZERO PUSH2 0x1760 JUMPI PUSH2 0x175F PUSH2 0x133B JUMP JUMPDEST JUMPDEST DUP3 DUP3 MUL SWAP1 POP SWAP3 SWAP2 POP POP JUMP JUMPDEST PUSH32 0x4E487B7100000000000000000000000000000000000000000000000000000000 PUSH1 0x0 MSTORE PUSH1 0x12 PUSH1 0x4 MSTORE PUSH1 0x24 PUSH1 0x0 REVERT JUMPDEST PUSH1 0x0 PUSH2 0x17A5 DUP3 PUSH2 0xE84 JUMP JUMPDEST SWAP2 POP PUSH2 0x17B0 DUP4 PUSH2 0xE84 JUMP JUMPDEST SWAP3 POP DUP3 PUSH2 0x17C0 JUMPI PUSH2 0x17BF PUSH2 0x176B JUMP JUMPDEST JUMPDEST DUP3 DUP3 DIV SWAP1 POP SWAP3 SWAP2 POP POP JUMP INVALID LOG2 PUSH5 0x6970667358 0x22 SLT KECCAK256 RETURNDATACOPY JUMP 0xB5 PUSH5 0x45538A4326 0xE9 0x27 PC JUMP PUSH32 0xA871507A7E4A5BE855E2BD577E00A424ADF164736F6C634300080E0033000000 "
				},
				"gasEstimates": {
					"creation": {
						"codeDepositCost": "1229000",
						"executionCost": "47653",
						"totalCost": "1276653"
					},
					"external": {
						"addGuardain(address)": "55640",
						"currentGuardians()": "2474",
						"geTotalBalance()": "405",
						"giveAllowance(address,uint256)": "27320",
						"guardians(address)": "5083",
						"maxGuardians()": "2540",
						"newOwner()": "2602",
						"owner()": "2534",
						"proposeNewOwner(address)": "infinite",
						"removeGuardian(address)": "58793",
						"sendMoney(uint256,address,bytes)": "infinite",
						"votedGuardians(uint256)": "4979",
						"votesForNewOwner()": "2474"
					}
				},
				"methodIdentifiers": {
					"addGuardain(address)": "5bf36423",
					"currentGuardians()": "3c911347",
					"geTotalBalance()": "babd957d",
					"giveAllowance(address,uint256)": "958ff7fb",
					"guardians(address)": "0633b14a",
					"maxGuardians()": "8be04352",
					"newOwner()": "d4ee1d90",
					"owner()": "8da5cb5b",
					"proposeNewOwner(address)": "b1f8100d",
					"removeGuardian(address)": "71404156",
					"sendMoney(uint256,address,bytes)": "93046e73",
					"votedGuardians(uint256)": "110f6cf3",
					"votesForNewOwner()": "8f6d38a5"
				}
			},
			"storageLayout": {
				"storage": [
					{
						"astId": 20,
						"contract": "contracts/guardian.sol:GuardianContract",
						"label": "owner",
						"offset": 0,
						"slot": "0",
						"type": "t_address_payable"
					},
					{
						"astId": 28,
						"contract": "contracts/guardian.sol:GuardianContract",
						"label": "maxGuardians",
						"offset": 0,
						"slot": "1",
						"type": "t_uint256"
					},
					{
						"astId": 30,
						"contract": "contracts/guardian.sol:GuardianContract",
						"label": "currentGuardians",
						"offset": 0,
						"slot": "2",
						"type": "t_uint256"
					},
					{
						"astId": 35,
						"contract": "contracts/guardian.sol:GuardianContract",
						"label": "guardians",
						"offset": 0,
						"slot": "3",
						"type": "t_mapping(t_address,t_struct(GuardianInfo)25_storage)"
					},
					{
						"astId": 37,
						"contract": "contracts/guardian.sol:GuardianContract",
						"label": "newOwner",
						"offset": 0,
						"slot": "4",
						"type": "t_address_payable"
					},
					{
						"astId": 39,
						"contract": "contracts/guardian.sol:GuardianContract",
						"label": "votesForNewOwner",
						"offset": 0,
						"slot": "5",
						"type": "t_uint256"
					},
					{
						"astId": 42,
						"contract": "contracts/guardian.sol:GuardianContract",
						"label": "votedGuardians",
						"offset": 0,
						"slot": "6",
						"type": "t_array(t_address)dyn_storage"
					}
				],
				"types": {
					"t_address": {
						"encoding": "inplace",
						"label": "address",
						"numberOfBytes": "20"
					},
					"t_address_payable": {
						"encoding": "inplace",
						"label": "address payable",
						"numberOfBytes": "20"
					},
					"t_array(t_address)dyn_storage": {
						"base": "t_address",
						"encoding": "dynamic_array",
						"label": "address[]",
						"numberOfBytes": "32"
					},
					"t_bool": {
						"encoding": "inplace",
						"label": "bool",
						"numberOfBytes": "1"
					},
					"t_mapping(t_address,t_struct(GuardianInfo)25_storage)": {
						"encoding": "mapping",
						"key": "t_address",
						"label": "mapping(address => struct GuardianContract.GuardianInfo)",
						"numberOfBytes": "32",
						"value": "t_struct(GuardianInfo)25_storage"
					},
					"t_struct(GuardianInfo)25_storage": {
						"encoding": "inplace",
						"label": "struct GuardianContract.GuardianInfo",
						"members": [
							{
								"astId": 22,
								"contract": "contracts/guardian.sol:GuardianContract",
								"label": "isGuardian",
								"offset": 0,
								"slot": "0",
								"type": "t_bool"
							},
							{
								"astId": 24,
								"contract": "contracts/guardian.sol:GuardianContract",
								"label": "balance",
								"offset": 0,
								"slot": "1",
								"type": "t_uint256"
							}
						],
						"numberOfBytes": "64"
					},
					"t_uint256": {
						"encoding": "inplace",
						"label": "uint256",
						"numberOfBytes": "32"
					}
				}
			},
			"userdoc": {
				"kind": "user",
				"methods": {},
				"version": 1
			}
		}
	}
}