{
	"contracts/mybank.sol": {
		"SimpleWallet": {
			"abi": [
				{
					"inputs": [],
					"stateMutability": "nonpayable",
					"type": "constructor"
				},
				{
					"anonymous": false,
					"inputs": [
						{
							"indexed": false,
							"internalType": "uint256",
							"name": "amount",
							"type": "uint256"
						},
						{
							"indexed": true,
							"internalType": "address",
							"name": "sender",
							"type": "address"
						}
					],
					"name": "LogDeposit",
					"type": "event"
				},
				{
					"anonymous": false,
					"inputs": [
						{
							"indexed": false,
							"internalType": "uint256",
							"name": "amount",
							"type": "uint256"
						},
						{
							"indexed": true,
							"internalType": "address",
							"name": "recipient",
							"type": "address"
						}
					],
					"name": "LogWithdrawal",
					"type": "event"
				},
				{
					"inputs": [],
					"name": "deposit",
					"outputs": [],
					"stateMutability": "payable",
					"type": "function"
				},
				{
					"inputs": [
						{
							"internalType": "uint256",
							"name": "amount",
							"type": "uint256"
						},
						{
							"internalType": "address payable",
							"name": "recipient",
							"type": "address"
						}
					],
					"name": "withdraw",
					"outputs": [],
					"stateMutability": "nonpayable",
					"type": "function"
				}
			],
			"devdoc": {
				"kind": "dev",
				"methods": {},
				"version": 1
			},
			"evm": {
				"assembly": "    /* \"contracts/mybank.sol\":146:1349  contract SimpleWallet {... */\n  mstore(0x40, 0x80)\n    /* \"contracts/mybank.sol\":688:746  constructor() {... */\n  callvalue\n  dup1\n  iszero\n  tag_1\n  jumpi\n  0x00\n  dup1\n  revert\ntag_1:\n  pop\n    /* \"contracts/mybank.sol\":728:738  msg.sender */\n  caller\n    /* \"contracts/mybank.sol\":712:717  owner */\n  0x00\n  dup1\n    /* \"contracts/mybank.sol\":712:739  owner = payable(msg.sender) */\n  0x0100\n  exp\n  dup2\n  sload\n  dup2\n  0xffffffffffffffffffffffffffffffffffffffff\n  mul\n  not\n  and\n  swap1\n  dup4\n  0xffffffffffffffffffffffffffffffffffffffff\n  and\n  mul\n  or\n  swap1\n  sstore\n  pop\n    /* \"contracts/mybank.sol\":146:1349  contract SimpleWallet {... */\n  dataSize(sub_0)\n  dup1\n  dataOffset(sub_0)\n  0x00\n  codecopy\n  0x00\n  return\nstop\n\nsub_0: assembly {\n        /* \"contracts/mybank.sol\":146:1349  contract SimpleWallet {... */\n      mstore(0x40, 0x80)\n      jumpi(tag_1, lt(calldatasize, 0x04))\n      shr(0xe0, calldataload(0x00))\n      dup1\n      0xf714ce\n      eq\n      tag_2\n      jumpi\n      dup1\n      0xd0e30db0\n      eq\n      tag_3\n      jumpi\n    tag_1:\n      0x00\n      dup1\n      revert\n        /* \"contracts/mybank.sol\":1036:1347  function withdraw(uint amount, address payable recipient) public {... */\n    tag_2:\n      callvalue\n      dup1\n      iszero\n      tag_4\n      jumpi\n      0x00\n      dup1\n      revert\n    tag_4:\n      pop\n      tag_5\n      0x04\n      dup1\n      calldatasize\n      sub\n      dup2\n      add\n      swap1\n      tag_6\n      swap2\n      swap1\n      tag_7\n      jump\t// in\n    tag_6:\n      tag_8\n      jump\t// in\n    tag_5:\n      stop\n        /* \"contracts/mybank.sol\":822:961  function deposit() public payable {... */\n    tag_3:\n      tag_9\n      tag_10\n      jump\t// in\n    tag_9:\n      stop\n        /* \"contracts/mybank.sol\":1036:1347  function withdraw(uint amount, address payable recipient) public {... */\n    tag_8:\n        /* \"contracts/mybank.sol\":1133:1138  owner */\n      0x00\n      dup1\n      sload\n      swap1\n      0x0100\n      exp\n      swap1\n      div\n      0xffffffffffffffffffffffffffffffffffffffff\n      and\n        /* \"contracts/mybank.sol\":1119:1138  msg.sender == owner */\n      0xffffffffffffffffffffffffffffffffffffffff\n      and\n        /* \"contracts/mybank.sol\":1119:1129  msg.sender */\n      caller\n        /* \"contracts/mybank.sol\":1119:1138  msg.sender == owner */\n      0xffffffffffffffffffffffffffffffffffffffff\n      and\n      eq\n        /* \"contracts/mybank.sol\":1111:1186  require(msg.sender == owner, \"Only the owner of this wallet can withdraw.\") */\n      tag_12\n      jumpi\n      mload(0x40)\n      0x08c379a000000000000000000000000000000000000000000000000000000000\n      dup2\n      mstore\n      0x04\n      add\n      tag_13\n      swap1\n      tag_14\n      jump\t// in\n    tag_13:\n      mload(0x40)\n      dup1\n      swap2\n      sub\n      swap1\n      revert\n    tag_12:\n        /* \"contracts/mybank.sol\":1229:1235  amount */\n      dup2\n        /* \"contracts/mybank.sol\":1204:1225  address(this).balance */\n      selfbalance\n        /* \"contracts/mybank.sol\":1204:1235  address(this).balance >= amount */\n      lt\n      iszero\n        /* \"contracts/mybank.sol\":1196:1257  require(address(this).balance >= amount, \"Not enough funds.\") */\n      tag_15\n      jumpi\n      mload(0x40)\n      0x08c379a000000000000000000000000000000000000000000000000000000000\n      dup2\n      mstore\n      0x04\n      add\n      tag_16\n      swap1\n      tag_17\n      jump\t// in\n    tag_16:\n      mload(0x40)\n      dup1\n      swap2\n      sub\n      swap1\n      revert\n    tag_15:\n        /* \"contracts/mybank.sol\":1294:1303  recipient */\n      dup1\n        /* \"contracts/mybank.sol\":1272:1304  LogWithdrawal(amount, recipient) */\n      0xffffffffffffffffffffffffffffffffffffffff\n      and\n      0xef232fa02b2633bddc860db9d0d9b1c57fd83b506398b134edaebb6783d41e94\n        /* \"contracts/mybank.sol\":1286:1292  amount */\n      dup4\n        /* \"contracts/mybank.sol\":1272:1304  LogWithdrawal(amount, recipient) */\n      mload(0x40)\n      tag_18\n      swap2\n      swap1\n      tag_19\n      jump\t// in\n    tag_18:\n      mload(0x40)\n      dup1\n      swap2\n      sub\n      swap1\n      log2\n        /* \"contracts/mybank.sol\":1314:1323  recipient */\n      dup1\n        /* \"contracts/mybank.sol\":1314:1332  recipient.transfer */\n      0xffffffffffffffffffffffffffffffffffffffff\n      and\n        /* \"contracts/mybank.sol\":1314:1340  recipient.transfer(amount) */\n      0x08fc\n        /* \"contracts/mybank.sol\":1333:1339  amount */\n      dup4\n        /* \"contracts/mybank.sol\":1314:1340  recipient.transfer(amount) */\n      swap1\n      dup2\n      iszero\n      mul\n      swap1\n      mload(0x40)\n      0x00\n      mload(0x40)\n      dup1\n      dup4\n      sub\n      dup2\n      dup6\n      dup9\n      dup9\n      call\n      swap4\n      pop\n      pop\n      pop\n      pop\n      iszero\n      dup1\n      iszero\n      tag_21\n      jumpi\n      returndatasize\n      0x00\n      dup1\n      returndatacopy\n      revert(0x00, returndatasize)\n    tag_21:\n      pop\n        /* \"contracts/mybank.sol\":1036:1347  function withdraw(uint amount, address payable recipient) public {... */\n      pop\n      pop\n      jump\t// out\n        /* \"contracts/mybank.sol\":822:961  function deposit() public payable {... */\n    tag_10:\n        /* \"contracts/mybank.sol\":886:887  0 */\n      0x00\n        /* \"contracts/mybank.sol\":874:883  msg.value */\n      callvalue\n        /* \"contracts/mybank.sol\":874:887  msg.value > 0 */\n      gt\n        /* \"contracts/mybank.sol\":866:906  require(msg.value > 0, \"Must send ETH.\") */\n      tag_23\n      jumpi\n      mload(0x40)\n      0x08c379a000000000000000000000000000000000000000000000000000000000\n      dup2\n      mstore\n      0x04\n      add\n      tag_24\n      swap1\n      tag_25\n      jump\t// in\n    tag_24:\n      mload(0x40)\n      dup1\n      swap2\n      sub\n      swap1\n      revert\n    tag_23:\n        /* \"contracts/mybank.sol\":943:953  msg.sender */\n      caller\n        /* \"contracts/mybank.sol\":921:954  LogDeposit(msg.value, msg.sender) */\n      0xffffffffffffffffffffffffffffffffffffffff\n      and\n      0xe89ad522dd11083142290ca875da39a094bbae4f867e639b44b630d3106c44d3\n        /* \"contracts/mybank.sol\":932:941  msg.value */\n      callvalue\n        /* \"contracts/mybank.sol\":921:954  LogDeposit(msg.value, msg.sender) */\n      mload(0x40)\n      tag_26\n      swap2\n      swap1\n      tag_19\n      jump\t// in\n    tag_26:\n      mload(0x40)\n      dup1\n      swap2\n      sub\n      swap1\n      log2\n        /* \"contracts/mybank.sol\":822:961  function deposit() public payable {... */\n      jump\t// out\n        /* \"#utility.yul\":88:205   */\n    tag_28:\n        /* \"#utility.yul\":197:198   */\n      0x00\n        /* \"#utility.yul\":194:195   */\n      dup1\n        /* \"#utility.yul\":187:199   */\n      revert\n        /* \"#utility.yul\":334:411   */\n    tag_30:\n        /* \"#utility.yul\":371:378   */\n      0x00\n        /* \"#utility.yul\":400:405   */\n      dup2\n        /* \"#utility.yul\":389:405   */\n      swap1\n      pop\n        /* \"#utility.yul\":334:411   */\n      swap2\n      swap1\n      pop\n      jump\t// out\n        /* \"#utility.yul\":417:539   */\n    tag_31:\n        /* \"#utility.yul\":490:514   */\n      tag_51\n        /* \"#utility.yul\":508:513   */\n      dup2\n        /* \"#utility.yul\":490:514   */\n      tag_30\n      jump\t// in\n    tag_51:\n        /* \"#utility.yul\":483:488   */\n      dup2\n        /* \"#utility.yul\":480:515   */\n      eq\n        /* \"#utility.yul\":470:533   */\n      tag_52\n      jumpi\n        /* \"#utility.yul\":529:530   */\n      0x00\n        /* \"#utility.yul\":526:527   */\n      dup1\n        /* \"#utility.yul\":519:531   */\n      revert\n        /* \"#utility.yul\":470:533   */\n    tag_52:\n        /* \"#utility.yul\":417:539   */\n      pop\n      jump\t// out\n        /* \"#utility.yul\":545:684   */\n    tag_32:\n        /* \"#utility.yul\":591:596   */\n      0x00\n        /* \"#utility.yul\":629:635   */\n      dup2\n        /* \"#utility.yul\":616:636   */\n      calldataload\n        /* \"#utility.yul\":607:636   */\n      swap1\n      pop\n        /* \"#utility.yul\":645:678   */\n      tag_54\n        /* \"#utility.yul\":672:677   */\n      dup2\n        /* \"#utility.yul\":645:678   */\n      tag_31\n      jump\t// in\n    tag_54:\n        /* \"#utility.yul\":545:684   */\n      swap3\n      swap2\n      pop\n      pop\n      jump\t// out\n        /* \"#utility.yul\":690:816   */\n    tag_33:\n        /* \"#utility.yul\":727:734   */\n      0x00\n        /* \"#utility.yul\":767:809   */\n      0xffffffffffffffffffffffffffffffffffffffff\n        /* \"#utility.yul\":760:765   */\n      dup3\n        /* \"#utility.yul\":756:810   */\n      and\n        /* \"#utility.yul\":745:810   */\n      swap1\n      pop\n        /* \"#utility.yul\":690:816   */\n      swap2\n      swap1\n      pop\n      jump\t// out\n        /* \"#utility.yul\":822:926   */\n    tag_34:\n        /* \"#utility.yul\":867:874   */\n      0x00\n        /* \"#utility.yul\":896:920   */\n      tag_57\n        /* \"#utility.yul\":914:919   */\n      dup3\n        /* \"#utility.yul\":896:920   */\n      tag_33\n      jump\t// in\n    tag_57:\n        /* \"#utility.yul\":885:920   */\n      swap1\n      pop\n        /* \"#utility.yul\":822:926   */\n      swap2\n      swap1\n      pop\n      jump\t// out\n        /* \"#utility.yul\":932:1070   */\n    tag_35:\n        /* \"#utility.yul\":1013:1045   */\n      tag_59\n        /* \"#utility.yul\":1039:1044   */\n      dup2\n        /* \"#utility.yul\":1013:1045   */\n      tag_34\n      jump\t// in\n    tag_59:\n        /* \"#utility.yul\":1006:1011   */\n      dup2\n        /* \"#utility.yul\":1003:1046   */\n      eq\n        /* \"#utility.yul\":993:1064   */\n      tag_60\n      jumpi\n        /* \"#utility.yul\":1060:1061   */\n      0x00\n        /* \"#utility.yul\":1057:1058   */\n      dup1\n        /* \"#utility.yul\":1050:1062   */\n      revert\n        /* \"#utility.yul\":993:1064   */\n    tag_60:\n        /* \"#utility.yul\":932:1070   */\n      pop\n      jump\t// out\n        /* \"#utility.yul\":1076:1231   */\n    tag_36:\n        /* \"#utility.yul\":1130:1135   */\n      0x00\n        /* \"#utility.yul\":1168:1174   */\n      dup2\n        /* \"#utility.yul\":1155:1175   */\n      calldataload\n        /* \"#utility.yul\":1146:1175   */\n      swap1\n      pop\n        /* \"#utility.yul\":1184:1225   */\n      tag_62\n        /* \"#utility.yul\":1219:1224   */\n      dup2\n        /* \"#utility.yul\":1184:1225   */\n      tag_35\n      jump\t// in\n    tag_62:\n        /* \"#utility.yul\":1076:1231   */\n      swap3\n      swap2\n      pop\n      pop\n      jump\t// out\n        /* \"#utility.yul\":1237:1727   */\n    tag_7:\n        /* \"#utility.yul\":1313:1319   */\n      0x00\n        /* \"#utility.yul\":1321:1327   */\n      dup1\n        /* \"#utility.yul\":1370:1372   */\n      0x40\n        /* \"#utility.yul\":1358:1367   */\n      dup4\n        /* \"#utility.yul\":1349:1356   */\n      dup6\n        /* \"#utility.yul\":1345:1368   */\n      sub\n        /* \"#utility.yul\":1341:1373   */\n      slt\n        /* \"#utility.yul\":1338:1457   */\n      iszero\n      tag_64\n      jumpi\n        /* \"#utility.yul\":1376:1455   */\n      tag_65\n      tag_28\n      jump\t// in\n    tag_65:\n        /* \"#utility.yul\":1338:1457   */\n    tag_64:\n        /* \"#utility.yul\":1496:1497   */\n      0x00\n        /* \"#utility.yul\":1521:1574   */\n      tag_66\n        /* \"#utility.yul\":1566:1573   */\n      dup6\n        /* \"#utility.yul\":1557:1563   */\n      dup3\n        /* \"#utility.yul\":1546:1555   */\n      dup7\n        /* \"#utility.yul\":1542:1564   */\n      add\n        /* \"#utility.yul\":1521:1574   */\n      tag_32\n      jump\t// in\n    tag_66:\n        /* \"#utility.yul\":1511:1574   */\n      swap3\n      pop\n        /* \"#utility.yul\":1467:1584   */\n      pop\n        /* \"#utility.yul\":1623:1625   */\n      0x20\n        /* \"#utility.yul\":1649:1710   */\n      tag_67\n        /* \"#utility.yul\":1702:1709   */\n      dup6\n        /* \"#utility.yul\":1693:1699   */\n      dup3\n        /* \"#utility.yul\":1682:1691   */\n      dup7\n        /* \"#utility.yul\":1678:1700   */\n      add\n        /* \"#utility.yul\":1649:1710   */\n      tag_36\n      jump\t// in\n    tag_67:\n        /* \"#utility.yul\":1639:1710   */\n      swap2\n      pop\n        /* \"#utility.yul\":1594:1720   */\n      pop\n        /* \"#utility.yul\":1237:1727   */\n      swap3\n      pop\n      swap3\n      swap1\n      pop\n      jump\t// out\n        /* \"#utility.yul\":1733:1902   */\n    tag_37:\n        /* \"#utility.yul\":1817:1828   */\n      0x00\n        /* \"#utility.yul\":1851:1857   */\n      dup3\n        /* \"#utility.yul\":1846:1849   */\n      dup3\n        /* \"#utility.yul\":1839:1858   */\n      mstore\n        /* \"#utility.yul\":1891:1895   */\n      0x20\n        /* \"#utility.yul\":1886:1889   */\n      dup3\n        /* \"#utility.yul\":1882:1896   */\n      add\n        /* \"#utility.yul\":1867:1896   */\n      swap1\n      pop\n        /* \"#utility.yul\":1733:1902   */\n      swap3\n      swap2\n      pop\n      pop\n      jump\t// out\n        /* \"#utility.yul\":1908:2138   */\n    tag_38:\n        /* \"#utility.yul\":2048:2082   */\n      0x4f6e6c7920746865206f776e6572206f6620746869732077616c6c6574206361\n        /* \"#utility.yul\":2044:2045   */\n      0x00\n        /* \"#utility.yul\":2036:2042   */\n      dup3\n        /* \"#utility.yul\":2032:2046   */\n      add\n        /* \"#utility.yul\":2025:2083   */\n      mstore\n        /* \"#utility.yul\":2117:2130   */\n      0x6e2077697468647261772e000000000000000000000000000000000000000000\n        /* \"#utility.yul\":2112:2114   */\n      0x20\n        /* \"#utility.yul\":2104:2110   */\n      dup3\n        /* \"#utility.yul\":2100:2115   */\n      add\n        /* \"#utility.yul\":2093:2131   */\n      mstore\n        /* \"#utility.yul\":1908:2138   */\n      pop\n      jump\t// out\n        /* \"#utility.yul\":2144:2510   */\n    tag_39:\n        /* \"#utility.yul\":2286:2289   */\n      0x00\n        /* \"#utility.yul\":2307:2374   */\n      tag_71\n        /* \"#utility.yul\":2371:2373   */\n      0x2b\n        /* \"#utility.yul\":2366:2369   */\n      dup4\n        /* \"#utility.yul\":2307:2374   */\n      tag_37\n      jump\t// in\n    tag_71:\n        /* \"#utility.yul\":2300:2374   */\n      swap2\n      pop\n        /* \"#utility.yul\":2383:2476   */\n      tag_72\n        /* \"#utility.yul\":2472:2475   */\n      dup3\n        /* \"#utility.yul\":2383:2476   */\n      tag_38\n      jump\t// in\n    tag_72:\n        /* \"#utility.yul\":2501:2503   */\n      0x40\n        /* \"#utility.yul\":2496:2499   */\n      dup3\n        /* \"#utility.yul\":2492:2504   */\n      add\n        /* \"#utility.yul\":2485:2504   */\n      swap1\n      pop\n        /* \"#utility.yul\":2144:2510   */\n      swap2\n      swap1\n      pop\n      jump\t// out\n        /* \"#utility.yul\":2516:2935   */\n    tag_14:\n        /* \"#utility.yul\":2682:2686   */\n      0x00\n        /* \"#utility.yul\":2720:2722   */\n      0x20\n        /* \"#utility.yul\":2709:2718   */\n      dup3\n        /* \"#utility.yul\":2705:2723   */\n      add\n        /* \"#utility.yul\":2697:2723   */\n      swap1\n      pop\n        /* \"#utility.yul\":2769:2778   */\n      dup2\n        /* \"#utility.yul\":2763:2767   */\n      dup2\n        /* \"#utility.yul\":2759:2779   */\n      sub\n        /* \"#utility.yul\":2755:2756   */\n      0x00\n        /* \"#utility.yul\":2744:2753   */\n      dup4\n        /* \"#utility.yul\":2740:2757   */\n      add\n        /* \"#utility.yul\":2733:2780   */\n      mstore\n        /* \"#utility.yul\":2797:2928   */\n      tag_74\n        /* \"#utility.yul\":2923:2927   */\n      dup2\n        /* \"#utility.yul\":2797:2928   */\n      tag_39\n      jump\t// in\n    tag_74:\n        /* \"#utility.yul\":2789:2928   */\n      swap1\n      pop\n        /* \"#utility.yul\":2516:2935   */\n      swap2\n      swap1\n      pop\n      jump\t// out\n        /* \"#utility.yul\":2941:3108   */\n    tag_40:\n        /* \"#utility.yul\":3081:3100   */\n      0x4e6f7420656e6f7567682066756e64732e000000000000000000000000000000\n        /* \"#utility.yul\":3077:3078   */\n      0x00\n        /* \"#utility.yul\":3069:3075   */\n      dup3\n        /* \"#utility.yul\":3065:3079   */\n      add\n        /* \"#utility.yul\":3058:3101   */\n      mstore\n        /* \"#utility.yul\":2941:3108   */\n      pop\n      jump\t// out\n        /* \"#utility.yul\":3114:3480   */\n    tag_41:\n        /* \"#utility.yul\":3256:3259   */\n      0x00\n        /* \"#utility.yul\":3277:3344   */\n      tag_77\n        /* \"#utility.yul\":3341:3343   */\n      0x11\n        /* \"#utility.yul\":3336:3339   */\n      dup4\n        /* \"#utility.yul\":3277:3344   */\n      tag_37\n      jump\t// in\n    tag_77:\n        /* \"#utility.yul\":3270:3344   */\n      swap2\n      pop\n        /* \"#utility.yul\":3353:3446   */\n      tag_78\n        /* \"#utility.yul\":3442:3445   */\n      dup3\n        /* \"#utility.yul\":3353:3446   */\n      tag_40\n      jump\t// in\n    tag_78:\n        /* \"#utility.yul\":3471:3473   */\n      0x20\n        /* \"#utility.yul\":3466:3469   */\n      dup3\n        /* \"#utility.yul\":3462:3474   */\n      add\n        /* \"#utility.yul\":3455:3474   */\n      swap1\n      pop\n        /* \"#utility.yul\":3114:3480   */\n      swap2\n      swap1\n      pop\n      jump\t// out\n        /* \"#utility.yul\":3486:3905   */\n    tag_17:\n        /* \"#utility.yul\":3652:3656   */\n      0x00\n        /* \"#utility.yul\":3690:3692   */\n      0x20\n        /* \"#utility.yul\":3679:3688   */\n      dup3\n        /* \"#utility.yul\":3675:3693   */\n      add\n        /* \"#utility.yul\":3667:3693   */\n      swap1\n      pop\n        /* \"#utility.yul\":3739:3748   */\n      dup2\n        /* \"#utility.yul\":3733:3737   */\n      dup2\n        /* \"#utility.yul\":3729:3749   */\n      sub\n        /* \"#utility.yul\":3725:3726   */\n      0x00\n        /* \"#utility.yul\":3714:3723   */\n      dup4\n        /* \"#utility.yul\":3710:3727   */\n      add\n        /* \"#utility.yul\":3703:3750   */\n      mstore\n        /* \"#utility.yul\":3767:3898   */\n      tag_80\n        /* \"#utility.yul\":3893:3897   */\n      dup2\n        /* \"#utility.yul\":3767:3898   */\n      tag_41\n      jump\t// in\n    tag_80:\n        /* \"#utility.yul\":3759:3898   */\n      swap1\n      pop\n        /* \"#utility.yul\":3486:3905   */\n      swap2\n      swap1\n      pop\n      jump\t// out\n        /* \"#utility.yul\":3911:4029   */\n    tag_42:\n        /* \"#utility.yul\":3998:4022   */\n      tag_82\n        /* \"#utility.yul\":4016:4021   */\n      dup2\n        /* \"#utility.yul\":3998:4022   */\n      tag_30\n      jump\t// in\n    tag_82:\n        /* \"#utility.yul\":3993:3996   */\n      dup3\n        /* \"#utility.yul\":3986:4023   */\n      mstore\n        /* \"#utility.yul\":3911:4029   */\n      pop\n      pop\n      jump\t// out\n        /* \"#utility.yul\":4035:4257   */\n    tag_19:\n        /* \"#utility.yul\":4128:4132   */\n      0x00\n        /* \"#utility.yul\":4166:4168   */\n      0x20\n        /* \"#utility.yul\":4155:4164   */\n      dup3\n        /* \"#utility.yul\":4151:4169   */\n      add\n        /* \"#utility.yul\":4143:4169   */\n      swap1\n      pop\n        /* \"#utility.yul\":4179:4250   */\n      tag_84\n        /* \"#utility.yul\":4247:4248   */\n      0x00\n        /* \"#utility.yul\":4236:4245   */\n      dup4\n        /* \"#utility.yul\":4232:4249   */\n      add\n        /* \"#utility.yul\":4223:4229   */\n      dup5\n        /* \"#utility.yul\":4179:4250   */\n      tag_42\n      jump\t// in\n    tag_84:\n        /* \"#utility.yul\":4035:4257   */\n      swap3\n      swap2\n      pop\n      pop\n      jump\t// out\n        /* \"#utility.yul\":4263:4427   */\n    tag_43:\n        /* \"#utility.yul\":4403:4419   */\n      0x4d7573742073656e64204554482e000000000000000000000000000000000000\n        /* \"#utility.yul\":4399:4400   */\n      0x00\n        /* \"#utility.yul\":4391:4397   */\n      dup3\n        /* \"#utility.yul\":4387:4401   */\n      add\n        /* \"#utility.yul\":4380:4420   */\n      mstore\n        /* \"#utility.yul\":4263:4427   */\n      pop\n      jump\t// out\n        /* \"#utility.yul\":4433:4799   */\n    tag_44:\n        /* \"#utility.yul\":4575:4578   */\n      0x00\n        /* \"#utility.yul\":4596:4663   */\n      tag_87\n        /* \"#utility.yul\":4660:4662   */\n      0x0e\n        /* \"#utility.yul\":4655:4658   */\n      dup4\n        /* \"#utility.yul\":4596:4663   */\n      tag_37\n      jump\t// in\n    tag_87:\n        /* \"#utility.yul\":4589:4663   */\n      swap2\n      pop\n        /* \"#utility.yul\":4672:4765   */\n      tag_88\n        /* \"#utility.yul\":4761:4764   */\n      dup3\n        /* \"#utility.yul\":4672:4765   */\n      tag_43\n      jump\t// in\n    tag_88:\n        /* \"#utility.yul\":4790:4792   */\n      0x20\n        /* \"#utility.yul\":4785:4788   */\n      dup3\n        /* \"#utility.yul\":4781:4793   */\n      add\n        /* \"#utility.yul\":4774:4793   */\n      swap1\n      pop\n        /* \"#utility.yul\":4433:4799   */\n      swap2\n      swap1\n      pop\n      jump\t// out\n        /* \"#utility.yul\":4805:5224   */\n    tag_25:\n        /* \"#utility.yul\":4971:4975   */\n      0x00\n        /* \"#utility.yul\":5009:5011   */\n      0x20\n        /* \"#utility.yul\":4998:5007   */\n      dup3\n        /* \"#utility.yul\":4994:5012   */\n      add\n        /* \"#utility.yul\":4986:5012   */\n      swap1\n      pop\n        /* \"#utility.yul\":5058:5067   */\n      dup2\n        /* \"#utility.yul\":5052:5056   */\n      dup2\n        /* \"#utility.yul\":5048:5068   */\n      sub\n        /* \"#utility.yul\":5044:5045   */\n      0x00\n        /* \"#utility.yul\":5033:5042   */\n      dup4\n        /* \"#utility.yul\":5029:5046   */\n      add\n        /* \"#utility.yul\":5022:5069   */\n      mstore\n        /* \"#utility.yul\":5086:5217   */\n      tag_90\n        /* \"#utility.yul\":5212:5216   */\n      dup2\n        /* \"#utility.yul\":5086:5217   */\n      tag_44\n      jump\t// in\n    tag_90:\n        /* \"#utility.yul\":5078:5217   */\n      swap1\n      pop\n        /* \"#utility.yul\":4805:5224   */\n      swap2\n      swap1\n      pop\n      jump\t// out\n\n    auxdata: 0xa2646970667358221220d7d39be9fbc063d85ba18914d9114967db909b1dc83d3e6a12b09b04412169c564736f6c634300080f0033\n}\n",
				"bytecode": {
					"linkReferences": {},
					"object": "608060405234801561001057600080fd5b50336000806101000a81548173ffffffffffffffffffffffffffffffffffffffff021916908373ffffffffffffffffffffffffffffffffffffffff160217905550610511806100606000396000f3fe6080604052600436106100285760003560e01c8062f714ce1461002d578063d0e30db014610056575b600080fd5b34801561003957600080fd5b50610054600480360381019061004f91906102f6565b610060565b005b61005e6101ca565b005b60008054906101000a900473ffffffffffffffffffffffffffffffffffffffff1673ffffffffffffffffffffffffffffffffffffffff163373ffffffffffffffffffffffffffffffffffffffff16146100ee576040517f08c379a00000000000000000000000000000000000000000000000000000000081526004016100e5906103b9565b60405180910390fd5b81471015610131576040517f08c379a000000000000000000000000000000000000000000000000000000000815260040161012890610425565b60405180910390fd5b8073ffffffffffffffffffffffffffffffffffffffff167fef232fa02b2633bddc860db9d0d9b1c57fd83b506398b134edaebb6783d41e94836040516101779190610454565b60405180910390a28073ffffffffffffffffffffffffffffffffffffffff166108fc839081150290604051600060405180830381858888f193505050501580156101c5573d6000803e3d6000fd5b505050565b6000341161020d576040517f08c379a0000000000000000000000000000000000000000000000000000000008152600401610204906104bb565b60405180910390fd5b3373ffffffffffffffffffffffffffffffffffffffff167fe89ad522dd11083142290ca875da39a094bbae4f867e639b44b630d3106c44d3346040516102539190610454565b60405180910390a2565b600080fd5b6000819050919050565b61027581610262565b811461028057600080fd5b50565b6000813590506102928161026c565b92915050565b600073ffffffffffffffffffffffffffffffffffffffff82169050919050565b60006102c382610298565b9050919050565b6102d3816102b8565b81146102de57600080fd5b50565b6000813590506102f0816102ca565b92915050565b6000806040838503121561030d5761030c61025d565b5b600061031b85828601610283565b925050602061032c858286016102e1565b9150509250929050565b600082825260208201905092915050565b7f4f6e6c7920746865206f776e6572206f6620746869732077616c6c657420636160008201527f6e2077697468647261772e000000000000000000000000000000000000000000602082015250565b60006103a3602b83610336565b91506103ae82610347565b604082019050919050565b600060208201905081810360008301526103d281610396565b9050919050565b7f4e6f7420656e6f7567682066756e64732e000000000000000000000000000000600082015250565b600061040f601183610336565b915061041a826103d9565b602082019050919050565b6000602082019050818103600083015261043e81610402565b9050919050565b61044e81610262565b82525050565b60006020820190506104696000830184610445565b92915050565b7f4d7573742073656e64204554482e000000000000000000000000000000000000600082015250565b60006104a5600e83610336565b91506104b08261046f565b602082019050919050565b600060208201905081810360008301526104d481610498565b905091905056fea2646970667358221220d7d39be9fbc063d85ba18914d9114967db909b1dc83d3e6a12b09b04412169c564736f6c634300080f0033",
					"opcodes": "PUSH1 0x80 PUSH1 0x40 MSTORE CALLVALUE DUP1 ISZERO PUSH2 0x10 JUMPI PUSH1 0x0 DUP1 REVERT JUMPDEST POP CALLER PUSH1 0x0 DUP1 PUSH2 0x100 EXP DUP2 SLOAD DUP2 PUSH20 0xFFFFFFFFFFFFFFFFFFFFFFFFFFFFFFFFFFFFFFFF MUL NOT AND SWAP1 DUP4 PUSH20 0xFFFFFFFFFFFFFFFFFFFFFFFFFFFFFFFFFFFFFFFF AND MUL OR SWAP1 SSTORE POP PUSH2 0x511 DUP1 PUSH2 0x60 PUSH1 0x0 CODECOPY PUSH1 0x0 RETURN INVALID PUSH1 0x80 PUSH1 0x40 MSTORE PUSH1 0x4 CALLDATASIZE LT PUSH2 0x28 JUMPI PUSH1 0x0 CALLDATALOAD PUSH1 0xE0 SHR DUP1 PUSH3 0xF714CE EQ PUSH2 0x2D JUMPI DUP1 PUSH4 0xD0E30DB0 EQ PUSH2 0x56 JUMPI JUMPDEST PUSH1 0x0 DUP1 REVERT JUMPDEST CALLVALUE DUP1 ISZERO PUSH2 0x39 JUMPI PUSH1 0x0 DUP1 REVERT JUMPDEST POP PUSH2 0x54 PUSH1 0x4 DUP1 CALLDATASIZE SUB DUP2 ADD SWAP1 PUSH2 0x4F SWAP2 SWAP1 PUSH2 0x2F6 JUMP JUMPDEST PUSH2 0x60 JUMP JUMPDEST STOP JUMPDEST PUSH2 0x5E PUSH2 0x1CA JUMP JUMPDEST STOP JUMPDEST PUSH1 0x0 DUP1 SLOAD SWAP1 PUSH2 0x100 EXP SWAP1 DIV PUSH20 0xFFFFFFFFFFFFFFFFFFFFFFFFFFFFFFFFFFFFFFFF AND PUSH20 0xFFFFFFFFFFFFFFFFFFFFFFFFFFFFFFFFFFFFFFFF AND CALLER PUSH20 0xFFFFFFFFFFFFFFFFFFFFFFFFFFFFFFFFFFFFFFFF AND EQ PUSH2 0xEE JUMPI PUSH1 0x40 MLOAD PUSH32 0x8C379A000000000000000000000000000000000000000000000000000000000 DUP2 MSTORE PUSH1 0x4 ADD PUSH2 0xE5 SWAP1 PUSH2 0x3B9 JUMP JUMPDEST PUSH1 0x40 MLOAD DUP1 SWAP2 SUB SWAP1 REVERT JUMPDEST DUP2 SELFBALANCE LT ISZERO PUSH2 0x131 JUMPI PUSH1 0x40 MLOAD PUSH32 0x8C379A000000000000000000000000000000000000000000000000000000000 DUP2 MSTORE PUSH1 0x4 ADD PUSH2 0x128 SWAP1 PUSH2 0x425 JUMP JUMPDEST PUSH1 0x40 MLOAD DUP1 SWAP2 SUB SWAP1 REVERT JUMPDEST DUP1 PUSH20 0xFFFFFFFFFFFFFFFFFFFFFFFFFFFFFFFFFFFFFFFF AND PUSH32 0xEF232FA02B2633BDDC860DB9D0D9B1C57FD83B506398B134EDAEBB6783D41E94 DUP4 PUSH1 0x40 MLOAD PUSH2 0x177 SWAP2 SWAP1 PUSH2 0x454 JUMP JUMPDEST PUSH1 0x40 MLOAD DUP1 SWAP2 SUB SWAP1 LOG2 DUP1 PUSH20 0xFFFFFFFFFFFFFFFFFFFFFFFFFFFFFFFFFFFFFFFF AND PUSH2 0x8FC DUP4 SWAP1 DUP2 ISZERO MUL SWAP1 PUSH1 0x40 MLOAD PUSH1 0x0 PUSH1 0x40 MLOAD DUP1 DUP4 SUB DUP2 DUP6 DUP9 DUP9 CALL SWAP4 POP POP POP POP ISZERO DUP1 ISZERO PUSH2 0x1C5 JUMPI RETURNDATASIZE PUSH1 0x0 DUP1 RETURNDATACOPY RETURNDATASIZE PUSH1 0x0 REVERT JUMPDEST POP POP POP JUMP JUMPDEST PUSH1 0x0 CALLVALUE GT PUSH2 0x20D JUMPI PUSH1 0x40 MLOAD PUSH32 0x8C379A000000000000000000000000000000000000000000000000000000000 DUP2 MSTORE PUSH1 0x4 ADD PUSH2 0x204 SWAP1 PUSH2 0x4BB JUMP JUMPDEST PUSH1 0x40 MLOAD DUP1 SWAP2 SUB SWAP1 REVERT JUMPDEST CALLER PUSH20 0xFFFFFFFFFFFFFFFFFFFFFFFFFFFFFFFFFFFFFFFF AND PUSH32 0xE89AD522DD11083142290CA875DA39A094BBAE4F867E639B44B630D3106C44D3 CALLVALUE PUSH1 0x40 MLOAD PUSH2 0x253 SWAP2 SWAP1 PUSH2 0x454 JUMP JUMPDEST PUSH1 0x40 MLOAD DUP1 SWAP2 SUB SWAP1 LOG2 JUMP JUMPDEST PUSH1 0x0 DUP1 REVERT JUMPDEST PUSH1 0x0 DUP2 SWAP1 POP SWAP2 SWAP1 POP JUMP JUMPDEST PUSH2 0x275 DUP2 PUSH2 0x262 JUMP JUMPDEST DUP2 EQ PUSH2 0x280 JUMPI PUSH1 0x0 DUP1 REVERT JUMPDEST POP JUMP JUMPDEST PUSH1 0x0 DUP2 CALLDATALOAD SWAP1 POP PUSH2 0x292 DUP2 PUSH2 0x26C JUMP JUMPDEST SWAP3 SWAP2 POP POP JUMP JUMPDEST PUSH1 0x0 PUSH20 0xFFFFFFFFFFFFFFFFFFFFFFFFFFFFFFFFFFFFFFFF DUP3 AND SWAP1 POP SWAP2 SWAP1 POP JUMP JUMPDEST PUSH1 0x0 PUSH2 0x2C3 DUP3 PUSH2 0x298 JUMP JUMPDEST SWAP1 POP SWAP2 SWAP1 POP JUMP JUMPDEST PUSH2 0x2D3 DUP2 PUSH2 0x2B8 JUMP JUMPDEST DUP2 EQ PUSH2 0x2DE JUMPI PUSH1 0x0 DUP1 REVERT JUMPDEST POP JUMP JUMPDEST PUSH1 0x0 DUP2 CALLDATALOAD SWAP1 POP PUSH2 0x2F0 DUP2 PUSH2 0x2CA JUMP JUMPDEST SWAP3 SWAP2 POP POP JUMP JUMPDEST PUSH1 0x0 DUP1 PUSH1 0x40 DUP4 DUP6 SUB SLT ISZERO PUSH2 0x30D JUMPI PUSH2 0x30C PUSH2 0x25D JUMP JUMPDEST JUMPDEST PUSH1 0x0 PUSH2 0x31B DUP6 DUP3 DUP7 ADD PUSH2 0x283 JUMP JUMPDEST SWAP3 POP POP PUSH1 0x20 PUSH2 0x32C DUP6 DUP3 DUP7 ADD PUSH2 0x2E1 JUMP JUMPDEST SWAP2 POP POP SWAP3 POP SWAP3 SWAP1 POP JUMP JUMPDEST PUSH1 0x0 DUP3 DUP3 MSTORE PUSH1 0x20 DUP3 ADD SWAP1 POP SWAP3 SWAP2 POP POP JUMP JUMPDEST PUSH32 0x4F6E6C7920746865206F776E6572206F6620746869732077616C6C6574206361 PUSH1 0x0 DUP3 ADD MSTORE PUSH32 0x6E2077697468647261772E000000000000000000000000000000000000000000 PUSH1 0x20 DUP3 ADD MSTORE POP JUMP JUMPDEST PUSH1 0x0 PUSH2 0x3A3 PUSH1 0x2B DUP4 PUSH2 0x336 JUMP JUMPDEST SWAP2 POP PUSH2 0x3AE DUP3 PUSH2 0x347 JUMP JUMPDEST PUSH1 0x40 DUP3 ADD SWAP1 POP SWAP2 SWAP1 POP JUMP JUMPDEST PUSH1 0x0 PUSH1 0x20 DUP3 ADD SWAP1 POP DUP2 DUP2 SUB PUSH1 0x0 DUP4 ADD MSTORE PUSH2 0x3D2 DUP2 PUSH2 0x396 JUMP JUMPDEST SWAP1 POP SWAP2 SWAP1 POP JUMP JUMPDEST PUSH32 0x4E6F7420656E6F7567682066756E64732E000000000000000000000000000000 PUSH1 0x0 DUP3 ADD MSTORE POP JUMP JUMPDEST PUSH1 0x0 PUSH2 0x40F PUSH1 0x11 DUP4 PUSH2 0x336 JUMP JUMPDEST SWAP2 POP PUSH2 0x41A DUP3 PUSH2 0x3D9 JUMP JUMPDEST PUSH1 0x20 DUP3 ADD SWAP1 POP SWAP2 SWAP1 POP JUMP JUMPDEST PUSH1 0x0 PUSH1 0x20 DUP3 ADD SWAP1 POP DUP2 DUP2 SUB PUSH1 0x0 DUP4 ADD MSTORE PUSH2 0x43E DUP2 PUSH2 0x402 JUMP JUMPDEST SWAP1 POP SWAP2 SWAP1 POP JUMP JUMPDEST PUSH2 0x44E DUP2 PUSH2 0x262 JUMP JUMPDEST DUP3 MSTORE POP POP JUMP JUMPDEST PUSH1 0x0 PUSH1 0x20 DUP3 ADD SWAP1 POP PUSH2 0x469 PUSH1 0x0 DUP4 ADD DUP5 PUSH2 0x445 JUMP JUMPDEST SWAP3 SWAP2 POP POP JUMP JUMPDEST PUSH32 0x4D7573742073656E64204554482E000000000000000000000000000000000000 PUSH1 0x0 DUP3 ADD MSTORE POP JUMP JUMPDEST PUSH1 0x0 PUSH2 0x4A5 PUSH1 0xE DUP4 PUSH2 0x336 JUMP JUMPDEST SWAP2 POP PUSH2 0x4B0 DUP3 PUSH2 0x46F JUMP JUMPDEST PUSH1 0x20 DUP3 ADD SWAP1 POP SWAP2 SWAP1 POP JUMP JUMPDEST PUSH1 0x0 PUSH1 0x20 DUP3 ADD SWAP1 POP DUP2 DUP2 SUB PUSH1 0x0 DUP4 ADD MSTORE PUSH2 0x4D4 DUP2 PUSH2 0x498 JUMP JUMPDEST SWAP1 POP SWAP2 SWAP1 POP JUMP INVALID LOG2 PUSH5 0x6970667358 0x22 SLT KECCAK256 0xD7 0xD3 SWAP12 0xE9 0xFB 0xC0 PUSH4 0xD85BA189 EQ 0xD9 GT 0x49 PUSH8 0xDB909B1DC83D3E6A SLT 0xB0 SWAP12 DIV COINBASE 0x21 PUSH10 0xC564736F6C634300080F STOP CALLER "
				},
				"gasEstimates": {
					"creation": {
						"codeDepositCost": "259400",
						"executionCost": "24566",
						"totalCost": "283966"
					},
					"external": {
						"deposit()": "1715",
						"withdraw(uint256,address)": "infinite"
					}
				},
				"methodIdentifiers": {
					"deposit()": "d0e30db0",
					"withdraw(uint256,address)": "00f714ce"
				}
			},
			"storageLayout": {
				"storage": [
					{
						"astId": 3,
						"contract": "contracts/mybank.sol:SimpleWallet",
						"label": "owner",
						"offset": 0,
						"slot": "0",
						"type": "t_address_payable"
					}
				],
				"types": {
					"t_address_payable": {
						"encoding": "inplace",
						"label": "address payable",
						"numberOfBytes": "20"
					}
				}
			},
			"userdoc": {
				"kind": "user",
				"methods": {},
				"version": 1
			}
		}
	}
}