{
	"contracts/MappingStruct.sol": {
		"MappingStruct": {
			"abi": [
				{
					"inputs": [
						{
							"internalType": "address",
							"name": "",
							"type": "address"
						}
					],
					"name": "balanceReceived",
					"outputs": [
						{
							"internalType": "uint256",
							"name": "totalBalance",
							"type": "uint256"
						},
						{
							"internalType": "uint256",
							"name": "numDeposits",
							"type": "uint256"
						},
						{
							"internalType": "uint256",
							"name": "numWithdrawals",
							"type": "uint256"
						}
					],
					"stateMutability": "view",
					"type": "function"
				},
				{
					"inputs": [],
					"name": "depositMoney",
					"outputs": [],
					"stateMutability": "payable",
					"type": "function"
				},
				{
					"inputs": [
						{
							"internalType": "address",
							"name": "_addr",
							"type": "address"
						}
					],
					"name": "getBalance",
					"outputs": [
						{
							"internalType": "uint256",
							"name": "",
							"type": "uint256"
						}
					],
					"stateMutability": "view",
					"type": "function"
				},
				{
					"inputs": [
						{
							"internalType": "address",
							"name": "_addr",
							"type": "address"
						},
						{
							"internalType": "uint256",
							"name": "_nod",
							"type": "uint256"
						}
					],
					"name": "getDepositNum",
					"outputs": [
						{
							"components": [
								{
									"internalType": "uint256",
									"name": "amount",
									"type": "uint256"
								},
								{
									"internalType": "uint256",
									"name": "timestamp",
									"type": "uint256"
								}
							],
							"internalType": "struct MappingStruct.Transaction",
							"name": "",
							"type": "tuple"
						}
					],
					"stateMutability": "view",
					"type": "function"
				},
				{
					"inputs": [
						{
							"internalType": "address payable",
							"name": "_to",
							"type": "address"
						},
						{
							"internalType": "uint256",
							"name": "_amount",
							"type": "uint256"
						}
					],
					"name": "withdrawMoney",
					"outputs": [],
					"stateMutability": "payable",
					"type": "function"
				}
			],
			"devdoc": {
				"kind": "dev",
				"methods": {},
				"version": 1
			},
			"evm": {
				"assembly": "    /* \"contracts/MappingStruct.sol\":59:1588  contract MappingStruct {... */\n  mstore(0x40, 0x80)\n  callvalue\n  dup1\n  iszero\n  tag_1\n  jumpi\n  0x00\n  dup1\n  revert\ntag_1:\n  pop\n  dataSize(sub_0)\n  dup1\n  dataOffset(sub_0)\n  0x00\n  codecopy\n  0x00\n  return\nstop\n\nsub_0: assembly {\n        /* \"contracts/MappingStruct.sol\":59:1588  contract MappingStruct {... */\n      mstore(0x40, 0x80)\n      jumpi(tag_1, lt(calldatasize, 0x04))\n      shr(0xe0, calldataload(0x00))\n      dup1\n      0x16c05aa2\n      eq\n      tag_2\n      jumpi\n      dup1\n      0x55e14fe6\n      eq\n      tag_3\n      jumpi\n      dup1\n      0xd18a42e1\n      eq\n      tag_4\n      jumpi\n      dup1\n      0xf274c897\n      eq\n      tag_5\n      jumpi\n      dup1\n      0xf8b2cb4f\n      eq\n      tag_6\n      jumpi\n    tag_1:\n      0x00\n      dup1\n      revert\n        /* \"contracts/MappingStruct.sol\":711:1048  function depositMoney() public payable {... */\n    tag_2:\n      tag_7\n      tag_8\n      jump\t// in\n    tag_7:\n      stop\n        /* \"contracts/MappingStruct.sol\":555:705  function getDepositNum(address _addr, uint _nod) public view returns(Transaction memory) {... */\n    tag_3:\n      callvalue\n      dup1\n      iszero\n      tag_9\n      jumpi\n      0x00\n      dup1\n      revert\n    tag_9:\n      pop\n      tag_10\n      0x04\n      dup1\n      calldatasize\n      sub\n      dup2\n      add\n      swap1\n      tag_11\n      swap2\n      swap1\n      tag_12\n      jump\t// in\n    tag_11:\n      tag_13\n      jump\t// in\n    tag_10:\n      mload(0x40)\n      tag_14\n      swap2\n      swap1\n      tag_15\n      jump\t// in\n    tag_14:\n      mload(0x40)\n      dup1\n      swap2\n      sub\n      swap1\n      return\n        /* \"contracts/MappingStruct.sol\":372:422  mapping(address => Balance) public balanceReceived */\n    tag_4:\n      callvalue\n      dup1\n      iszero\n      tag_16\n      jumpi\n      0x00\n      dup1\n      revert\n    tag_16:\n      pop\n      tag_17\n      0x04\n      dup1\n      calldatasize\n      sub\n      dup2\n      add\n      swap1\n      tag_18\n      swap2\n      swap1\n      tag_19\n      jump\t// in\n    tag_18:\n      tag_20\n      jump\t// in\n    tag_17:\n      mload(0x40)\n      tag_21\n      swap4\n      swap3\n      swap2\n      swap1\n      tag_22\n      jump\t// in\n    tag_21:\n      mload(0x40)\n      dup1\n      swap2\n      sub\n      swap1\n      return\n        /* \"contracts/MappingStruct.sol\":1054:1586  function withdrawMoney(address payable _to, uint _amount) public payable {... */\n    tag_5:\n      tag_23\n      0x04\n      dup1\n      calldatasize\n      sub\n      dup2\n      add\n      swap1\n      tag_24\n      swap2\n      swap1\n      tag_25\n      jump\t// in\n    tag_24:\n      tag_26\n      jump\t// in\n    tag_23:\n      stop\n        /* \"contracts/MappingStruct.sol\":429:549  function getBalance(address _addr) public view returns(uint) {... */\n    tag_6:\n      callvalue\n      dup1\n      iszero\n      tag_27\n      jumpi\n      0x00\n      dup1\n      revert\n    tag_27:\n      pop\n      tag_28\n      0x04\n      dup1\n      calldatasize\n      sub\n      dup2\n      add\n      swap1\n      tag_29\n      swap2\n      swap1\n      tag_19\n      jump\t// in\n    tag_29:\n      tag_30\n      jump\t// in\n    tag_28:\n      mload(0x40)\n      tag_31\n      swap2\n      swap1\n      tag_32\n      jump\t// in\n    tag_31:\n      mload(0x40)\n      dup1\n      swap2\n      sub\n      swap1\n      return\n        /* \"contracts/MappingStruct.sol\":711:1048  function depositMoney() public payable {... */\n    tag_8:\n        /* \"contracts/MappingStruct.sol\":804:813  msg.value */\n      callvalue\n        /* \"contracts/MappingStruct.sol\":760:775  balanceReceived */\n      0x00\n        /* \"contracts/MappingStruct.sol\":760:787  balanceReceived[msg.sender] */\n      dup1\n        /* \"contracts/MappingStruct.sol\":776:786  msg.sender */\n      caller\n        /* \"contracts/MappingStruct.sol\":760:787  balanceReceived[msg.sender] */\n      0xffffffffffffffffffffffffffffffffffffffff\n      and\n      0xffffffffffffffffffffffffffffffffffffffff\n      and\n      dup2\n      mstore\n      0x20\n      add\n      swap1\n      dup2\n      mstore\n      0x20\n      add\n      0x00\n      keccak256\n        /* \"contracts/MappingStruct.sol\":760:800  balanceReceived[msg.sender].totalBalance */\n      0x00\n      add\n      0x00\n        /* \"contracts/MappingStruct.sol\":760:813  balanceReceived[msg.sender].totalBalance += msg.value */\n      dup3\n      dup3\n      sload\n      tag_34\n      swap2\n      swap1\n      tag_35\n      jump\t// in\n    tag_34:\n      swap3\n      pop\n      pop\n      dup2\n      swap1\n      sstore\n      pop\n        /* \"contracts/MappingStruct.sol\":824:850  Transaction memory deposit */\n      0x00\n        /* \"contracts/MappingStruct.sol\":853:892  Transaction(msg.value, block.timestamp) */\n      mload(0x40)\n      dup1\n      0x40\n      add\n      0x40\n      mstore\n      dup1\n        /* \"contracts/MappingStruct.sol\":865:874  msg.value */\n      callvalue\n        /* \"contracts/MappingStruct.sol\":853:892  Transaction(msg.value, block.timestamp) */\n      dup2\n      mstore\n      0x20\n      add\n        /* \"contracts/MappingStruct.sol\":876:891  block.timestamp */\n      timestamp\n        /* \"contracts/MappingStruct.sol\":853:892  Transaction(msg.value, block.timestamp) */\n      dup2\n      mstore\n      pop\n        /* \"contracts/MappingStruct.sol\":824:892  Transaction memory deposit = Transaction(msg.value, block.timestamp) */\n      swap1\n      pop\n        /* \"contracts/MappingStruct.sol\":982:989  deposit */\n      dup1\n        /* \"contracts/MappingStruct.sol\":902:917  balanceReceived */\n      0x00\n        /* \"contracts/MappingStruct.sol\":902:929  balanceReceived[msg.sender] */\n      dup1\n        /* \"contracts/MappingStruct.sol\":918:928  msg.sender */\n      caller\n        /* \"contracts/MappingStruct.sol\":902:929  balanceReceived[msg.sender] */\n      0xffffffffffffffffffffffffffffffffffffffff\n      and\n      0xffffffffffffffffffffffffffffffffffffffff\n      and\n      dup2\n      mstore\n      0x20\n      add\n      swap1\n      dup2\n      mstore\n      0x20\n      add\n      0x00\n      keccak256\n        /* \"contracts/MappingStruct.sol\":902:938  balanceReceived[msg.sender].deposits */\n      0x02\n      add\n        /* \"contracts/MappingStruct.sol\":902:979  balanceReceived[msg.sender].deposits[balanceReceived[msg.sender].numDeposits] */\n      0x00\n        /* \"contracts/MappingStruct.sol\":939:954  balanceReceived */\n      dup1\n        /* \"contracts/MappingStruct.sol\":939:966  balanceReceived[msg.sender] */\n      0x00\n        /* \"contracts/MappingStruct.sol\":955:965  msg.sender */\n      caller\n        /* \"contracts/MappingStruct.sol\":939:966  balanceReceived[msg.sender] */\n      0xffffffffffffffffffffffffffffffffffffffff\n      and\n      0xffffffffffffffffffffffffffffffffffffffff\n      and\n      dup2\n      mstore\n      0x20\n      add\n      swap1\n      dup2\n      mstore\n      0x20\n      add\n      0x00\n      keccak256\n        /* \"contracts/MappingStruct.sol\":939:978  balanceReceived[msg.sender].numDeposits */\n      0x01\n      add\n      sload\n        /* \"contracts/MappingStruct.sol\":902:979  balanceReceived[msg.sender].deposits[balanceReceived[msg.sender].numDeposits] */\n      dup2\n      mstore\n      0x20\n      add\n      swap1\n      dup2\n      mstore\n      0x20\n      add\n      0x00\n      keccak256\n        /* \"contracts/MappingStruct.sol\":902:989  balanceReceived[msg.sender].deposits[balanceReceived[msg.sender].numDeposits] = deposit */\n      0x00\n      dup3\n      add\n      mload\n      dup2\n      0x00\n      add\n      sstore\n      0x20\n      dup3\n      add\n      mload\n      dup2\n      0x01\n      add\n      sstore\n      swap1\n      pop\n      pop\n        /* \"contracts/MappingStruct.sol\":999:1014  balanceReceived */\n      0x00\n        /* \"contracts/MappingStruct.sol\":999:1026  balanceReceived[msg.sender] */\n      dup1\n        /* \"contracts/MappingStruct.sol\":1015:1025  msg.sender */\n      caller\n        /* \"contracts/MappingStruct.sol\":999:1026  balanceReceived[msg.sender] */\n      0xffffffffffffffffffffffffffffffffffffffff\n      and\n      0xffffffffffffffffffffffffffffffffffffffff\n      and\n      dup2\n      mstore\n      0x20\n      add\n      swap1\n      dup2\n      mstore\n      0x20\n      add\n      0x00\n      keccak256\n        /* \"contracts/MappingStruct.sol\":999:1038  balanceReceived[msg.sender].numDeposits */\n      0x01\n      add\n      0x00\n        /* \"contracts/MappingStruct.sol\":999:1040  balanceReceived[msg.sender].numDeposits++ */\n      dup2\n      sload\n      dup1\n      swap3\n      swap2\n      swap1\n      tag_36\n      swap1\n      tag_37\n      jump\t// in\n    tag_36:\n      swap2\n      swap1\n      pop\n      sstore\n      pop\n        /* \"contracts/MappingStruct.sol\":750:1048  {... */\n      pop\n        /* \"contracts/MappingStruct.sol\":711:1048  function depositMoney() public payable {... */\n      jump\t// out\n        /* \"contracts/MappingStruct.sol\":555:705  function getDepositNum(address _addr, uint _nod) public view returns(Transaction memory) {... */\n    tag_13:\n        /* \"contracts/MappingStruct.sol\":624:642  Transaction memory */\n      tag_38\n      tag_39\n      jump\t// in\n    tag_38:\n        /* \"contracts/MappingStruct.sol\":661:676  balanceReceived */\n      0x00\n        /* \"contracts/MappingStruct.sol\":661:683  balanceReceived[_addr] */\n      dup1\n        /* \"contracts/MappingStruct.sol\":677:682  _addr */\n      dup5\n        /* \"contracts/MappingStruct.sol\":661:683  balanceReceived[_addr] */\n      0xffffffffffffffffffffffffffffffffffffffff\n      and\n      0xffffffffffffffffffffffffffffffffffffffff\n      and\n      dup2\n      mstore\n      0x20\n      add\n      swap1\n      dup2\n      mstore\n      0x20\n      add\n      0x00\n      keccak256\n        /* \"contracts/MappingStruct.sol\":661:692  balanceReceived[_addr].deposits */\n      0x02\n      add\n        /* \"contracts/MappingStruct.sol\":661:698  balanceReceived[_addr].deposits[_nod] */\n      0x00\n        /* \"contracts/MappingStruct.sol\":693:697  _nod */\n      dup4\n        /* \"contracts/MappingStruct.sol\":661:698  balanceReceived[_addr].deposits[_nod] */\n      dup2\n      mstore\n      0x20\n      add\n      swap1\n      dup2\n      mstore\n      0x20\n      add\n      0x00\n      keccak256\n        /* \"contracts/MappingStruct.sol\":654:698  return balanceReceived[_addr].deposits[_nod] */\n      mload(0x40)\n      dup1\n      0x40\n      add\n      0x40\n      mstore\n      swap1\n      dup2\n      0x00\n      dup3\n      add\n      sload\n      dup2\n      mstore\n      0x20\n      add\n      0x01\n      dup3\n      add\n      sload\n      dup2\n      mstore\n      pop\n      pop\n      swap1\n      pop\n        /* \"contracts/MappingStruct.sol\":555:705  function getDepositNum(address _addr, uint _nod) public view returns(Transaction memory) {... */\n      swap3\n      swap2\n      pop\n      pop\n      jump\t// out\n        /* \"contracts/MappingStruct.sol\":372:422  mapping(address => Balance) public balanceReceived */\n    tag_20:\n      mstore(0x20, 0x00)\n      dup1\n      0x00\n      mstore\n      keccak256(0x00, 0x40)\n      0x00\n      swap2\n      pop\n      swap1\n      pop\n      dup1\n      0x00\n      add\n      sload\n      swap1\n      dup1\n      0x01\n      add\n      sload\n      swap1\n      dup1\n      0x03\n      add\n      sload\n      swap1\n      pop\n      dup4\n      jump\t// out\n        /* \"contracts/MappingStruct.sol\":1054:1586  function withdrawMoney(address payable _to, uint _amount) public payable {... */\n    tag_26:\n        /* \"contracts/MappingStruct.sol\":1181:1188  _amount */\n      dup1\n        /* \"contracts/MappingStruct.sol\":1137:1152  balanceReceived */\n      0x00\n        /* \"contracts/MappingStruct.sol\":1137:1164  balanceReceived[msg.sender] */\n      dup1\n        /* \"contracts/MappingStruct.sol\":1153:1163  msg.sender */\n      caller\n        /* \"contracts/MappingStruct.sol\":1137:1164  balanceReceived[msg.sender] */\n      0xffffffffffffffffffffffffffffffffffffffff\n      and\n      0xffffffffffffffffffffffffffffffffffffffff\n      and\n      dup2\n      mstore\n      0x20\n      add\n      swap1\n      dup2\n      mstore\n      0x20\n      add\n      0x00\n      keccak256\n        /* \"contracts/MappingStruct.sol\":1137:1177  balanceReceived[msg.sender].totalBalance */\n      0x00\n      add\n      0x00\n        /* \"contracts/MappingStruct.sol\":1137:1188  balanceReceived[msg.sender].totalBalance -= _amount */\n      dup3\n      dup3\n      sload\n      tag_42\n      swap2\n      swap1\n      tag_43\n      jump\t// in\n    tag_42:\n      swap3\n      pop\n      pop\n      dup2\n      swap1\n      sstore\n      pop\n        /* \"contracts/MappingStruct.sol\":1284:1313  Transaction memory withdrawal */\n      0x00\n        /* \"contracts/MappingStruct.sol\":1316:1355  Transaction(msg.value, block.timestamp) */\n      mload(0x40)\n      dup1\n      0x40\n      add\n      0x40\n      mstore\n      dup1\n        /* \"contracts/MappingStruct.sol\":1328:1337  msg.value */\n      callvalue\n        /* \"contracts/MappingStruct.sol\":1316:1355  Transaction(msg.value, block.timestamp) */\n      dup2\n      mstore\n      0x20\n      add\n        /* \"contracts/MappingStruct.sol\":1339:1354  block.timestamp */\n      timestamp\n        /* \"contracts/MappingStruct.sol\":1316:1355  Transaction(msg.value, block.timestamp) */\n      dup2\n      mstore\n      pop\n        /* \"contracts/MappingStruct.sol\":1284:1355  Transaction memory withdrawal = Transaction(msg.value, block.timestamp) */\n      swap1\n      pop\n        /* \"contracts/MappingStruct.sol\":1451:1461  withdrawal */\n      dup1\n        /* \"contracts/MappingStruct.sol\":1365:1380  balanceReceived */\n      0x00\n        /* \"contracts/MappingStruct.sol\":1365:1392  balanceReceived[msg.sender] */\n      dup1\n        /* \"contracts/MappingStruct.sol\":1381:1391  msg.sender */\n      caller\n        /* \"contracts/MappingStruct.sol\":1365:1392  balanceReceived[msg.sender] */\n      0xffffffffffffffffffffffffffffffffffffffff\n      and\n      0xffffffffffffffffffffffffffffffffffffffff\n      and\n      dup2\n      mstore\n      0x20\n      add\n      swap1\n      dup2\n      mstore\n      0x20\n      add\n      0x00\n      keccak256\n        /* \"contracts/MappingStruct.sol\":1365:1404  balanceReceived[msg.sender].withdrawals */\n      0x04\n      add\n        /* \"contracts/MappingStruct.sol\":1365:1448  balanceReceived[msg.sender].withdrawals[balanceReceived[msg.sender].numWithdrawals] */\n      0x00\n        /* \"contracts/MappingStruct.sol\":1405:1420  balanceReceived */\n      dup1\n        /* \"contracts/MappingStruct.sol\":1405:1432  balanceReceived[msg.sender] */\n      0x00\n        /* \"contracts/MappingStruct.sol\":1421:1431  msg.sender */\n      caller\n        /* \"contracts/MappingStruct.sol\":1405:1432  balanceReceived[msg.sender] */\n      0xffffffffffffffffffffffffffffffffffffffff\n      and\n      0xffffffffffffffffffffffffffffffffffffffff\n      and\n      dup2\n      mstore\n      0x20\n      add\n      swap1\n      dup2\n      mstore\n      0x20\n      add\n      0x00\n      keccak256\n        /* \"contracts/MappingStruct.sol\":1405:1447  balanceReceived[msg.sender].numWithdrawals */\n      0x03\n      add\n      sload\n        /* \"contracts/MappingStruct.sol\":1365:1448  balanceReceived[msg.sender].withdrawals[balanceReceived[msg.sender].numWithdrawals] */\n      dup2\n      mstore\n      0x20\n      add\n      swap1\n      dup2\n      mstore\n      0x20\n      add\n      0x00\n      keccak256\n        /* \"contracts/MappingStruct.sol\":1365:1461  balanceReceived[msg.sender].withdrawals[balanceReceived[msg.sender].numWithdrawals] = withdrawal */\n      0x00\n      dup3\n      add\n      mload\n      dup2\n      0x00\n      add\n      sstore\n      0x20\n      dup3\n      add\n      mload\n      dup2\n      0x01\n      add\n      sstore\n      swap1\n      pop\n      pop\n        /* \"contracts/MappingStruct.sol\":1471:1486  balanceReceived */\n      0x00\n        /* \"contracts/MappingStruct.sol\":1471:1498  balanceReceived[msg.sender] */\n      dup1\n        /* \"contracts/MappingStruct.sol\":1487:1497  msg.sender */\n      caller\n        /* \"contracts/MappingStruct.sol\":1471:1498  balanceReceived[msg.sender] */\n      0xffffffffffffffffffffffffffffffffffffffff\n      and\n      0xffffffffffffffffffffffffffffffffffffffff\n      and\n      dup2\n      mstore\n      0x20\n      add\n      swap1\n      dup2\n      mstore\n      0x20\n      add\n      0x00\n      keccak256\n        /* \"contracts/MappingStruct.sol\":1471:1513  balanceReceived[msg.sender].numWithdrawals */\n      0x03\n      add\n      0x00\n        /* \"contracts/MappingStruct.sol\":1471:1515  balanceReceived[msg.sender].numWithdrawals++ */\n      dup2\n      sload\n      dup1\n      swap3\n      swap2\n      swap1\n      tag_44\n      swap1\n      tag_37\n      jump\t// in\n    tag_44:\n      swap2\n      swap1\n      pop\n      sstore\n      pop\n        /* \"contracts/MappingStruct.sol\":1558:1561  _to */\n      dup3\n        /* \"contracts/MappingStruct.sol\":1558:1570  _to.transfer */\n      0xffffffffffffffffffffffffffffffffffffffff\n      and\n        /* \"contracts/MappingStruct.sol\":1558:1579  _to.transfer(_amount) */\n      0x08fc\n        /* \"contracts/MappingStruct.sol\":1571:1578  _amount */\n      dup4\n        /* \"contracts/MappingStruct.sol\":1558:1579  _to.transfer(_amount) */\n      swap1\n      dup2\n      iszero\n      mul\n      swap1\n      mload(0x40)\n      0x00\n      mload(0x40)\n      dup1\n      dup4\n      sub\n      dup2\n      dup6\n      dup9\n      dup9\n      call\n      swap4\n      pop\n      pop\n      pop\n      pop\n      iszero\n      dup1\n      iszero\n      tag_46\n      jumpi\n      returndatasize\n      0x00\n      dup1\n      returndatacopy\n      revert(0x00, returndatasize)\n    tag_46:\n      pop\n        /* \"contracts/MappingStruct.sol\":1127:1586  {... */\n      pop\n        /* \"contracts/MappingStruct.sol\":1054:1586  function withdrawMoney(address payable _to, uint _amount) public payable {... */\n      pop\n      pop\n      jump\t// out\n        /* \"contracts/MappingStruct.sol\":429:549  function getBalance(address _addr) public view returns(uint) {... */\n    tag_30:\n        /* \"contracts/MappingStruct.sol\":484:488  uint */\n      0x00\n        /* \"contracts/MappingStruct.sol\":507:522  balanceReceived */\n      dup1\n        /* \"contracts/MappingStruct.sol\":507:529  balanceReceived[_addr] */\n      0x00\n        /* \"contracts/MappingStruct.sol\":523:528  _addr */\n      dup4\n        /* \"contracts/MappingStruct.sol\":507:529  balanceReceived[_addr] */\n      0xffffffffffffffffffffffffffffffffffffffff\n      and\n      0xffffffffffffffffffffffffffffffffffffffff\n      and\n      dup2\n      mstore\n      0x20\n      add\n      swap1\n      dup2\n      mstore\n      0x20\n      add\n      0x00\n      keccak256\n        /* \"contracts/MappingStruct.sol\":507:542  balanceReceived[_addr].totalBalance */\n      0x00\n      add\n      sload\n        /* \"contracts/MappingStruct.sol\":500:542  return balanceReceived[_addr].totalBalance */\n      swap1\n      pop\n        /* \"contracts/MappingStruct.sol\":429:549  function getBalance(address _addr) public view returns(uint) {... */\n      swap2\n      swap1\n      pop\n      jump\t// out\n    tag_39:\n      mload(0x40)\n      dup1\n      0x40\n      add\n      0x40\n      mstore\n      dup1\n      0x00\n      dup2\n      mstore\n      0x20\n      add\n      0x00\n      dup2\n      mstore\n      pop\n      swap1\n      jump\t// out\n        /* \"#utility.yul\":88:205   */\n    tag_49:\n        /* \"#utility.yul\":197:198   */\n      0x00\n        /* \"#utility.yul\":194:195   */\n      dup1\n        /* \"#utility.yul\":187:199   */\n      revert\n        /* \"#utility.yul\":334:460   */\n    tag_51:\n        /* \"#utility.yul\":371:378   */\n      0x00\n        /* \"#utility.yul\":411:453   */\n      0xffffffffffffffffffffffffffffffffffffffff\n        /* \"#utility.yul\":404:409   */\n      dup3\n        /* \"#utility.yul\":400:454   */\n      and\n        /* \"#utility.yul\":389:454   */\n      swap1\n      pop\n        /* \"#utility.yul\":334:460   */\n      swap2\n      swap1\n      pop\n      jump\t// out\n        /* \"#utility.yul\":466:562   */\n    tag_52:\n        /* \"#utility.yul\":503:510   */\n      0x00\n        /* \"#utility.yul\":532:556   */\n      tag_71\n        /* \"#utility.yul\":550:555   */\n      dup3\n        /* \"#utility.yul\":532:556   */\n      tag_51\n      jump\t// in\n    tag_71:\n        /* \"#utility.yul\":521:556   */\n      swap1\n      pop\n        /* \"#utility.yul\":466:562   */\n      swap2\n      swap1\n      pop\n      jump\t// out\n        /* \"#utility.yul\":568:690   */\n    tag_53:\n        /* \"#utility.yul\":641:665   */\n      tag_73\n        /* \"#utility.yul\":659:664   */\n      dup2\n        /* \"#utility.yul\":641:665   */\n      tag_52\n      jump\t// in\n    tag_73:\n        /* \"#utility.yul\":634:639   */\n      dup2\n        /* \"#utility.yul\":631:666   */\n      eq\n        /* \"#utility.yul\":621:684   */\n      tag_74\n      jumpi\n        /* \"#utility.yul\":680:681   */\n      0x00\n        /* \"#utility.yul\":677:678   */\n      dup1\n        /* \"#utility.yul\":670:682   */\n      revert\n        /* \"#utility.yul\":621:684   */\n    tag_74:\n        /* \"#utility.yul\":568:690   */\n      pop\n      jump\t// out\n        /* \"#utility.yul\":696:835   */\n    tag_54:\n        /* \"#utility.yul\":742:747   */\n      0x00\n        /* \"#utility.yul\":780:786   */\n      dup2\n        /* \"#utility.yul\":767:787   */\n      calldataload\n        /* \"#utility.yul\":758:787   */\n      swap1\n      pop\n        /* \"#utility.yul\":796:829   */\n      tag_76\n        /* \"#utility.yul\":823:828   */\n      dup2\n        /* \"#utility.yul\":796:829   */\n      tag_53\n      jump\t// in\n    tag_76:\n        /* \"#utility.yul\":696:835   */\n      swap3\n      swap2\n      pop\n      pop\n      jump\t// out\n        /* \"#utility.yul\":841:918   */\n    tag_55:\n        /* \"#utility.yul\":878:885   */\n      0x00\n        /* \"#utility.yul\":907:912   */\n      dup2\n        /* \"#utility.yul\":896:912   */\n      swap1\n      pop\n        /* \"#utility.yul\":841:918   */\n      swap2\n      swap1\n      pop\n      jump\t// out\n        /* \"#utility.yul\":924:1046   */\n    tag_56:\n        /* \"#utility.yul\":997:1021   */\n      tag_79\n        /* \"#utility.yul\":1015:1020   */\n      dup2\n        /* \"#utility.yul\":997:1021   */\n      tag_55\n      jump\t// in\n    tag_79:\n        /* \"#utility.yul\":990:995   */\n      dup2\n        /* \"#utility.yul\":987:1022   */\n      eq\n        /* \"#utility.yul\":977:1040   */\n      tag_80\n      jumpi\n        /* \"#utility.yul\":1036:1037   */\n      0x00\n        /* \"#utility.yul\":1033:1034   */\n      dup1\n        /* \"#utility.yul\":1026:1038   */\n      revert\n        /* \"#utility.yul\":977:1040   */\n    tag_80:\n        /* \"#utility.yul\":924:1046   */\n      pop\n      jump\t// out\n        /* \"#utility.yul\":1052:1191   */\n    tag_57:\n        /* \"#utility.yul\":1098:1103   */\n      0x00\n        /* \"#utility.yul\":1136:1142   */\n      dup2\n        /* \"#utility.yul\":1123:1143   */\n      calldataload\n        /* \"#utility.yul\":1114:1143   */\n      swap1\n      pop\n        /* \"#utility.yul\":1152:1185   */\n      tag_82\n        /* \"#utility.yul\":1179:1184   */\n      dup2\n        /* \"#utility.yul\":1152:1185   */\n      tag_56\n      jump\t// in\n    tag_82:\n        /* \"#utility.yul\":1052:1191   */\n      swap3\n      swap2\n      pop\n      pop\n      jump\t// out\n        /* \"#utility.yul\":1197:1671   */\n    tag_12:\n        /* \"#utility.yul\":1265:1271   */\n      0x00\n        /* \"#utility.yul\":1273:1279   */\n      dup1\n        /* \"#utility.yul\":1322:1324   */\n      0x40\n        /* \"#utility.yul\":1310:1319   */\n      dup4\n        /* \"#utility.yul\":1301:1308   */\n      dup6\n        /* \"#utility.yul\":1297:1320   */\n      sub\n        /* \"#utility.yul\":1293:1325   */\n      slt\n        /* \"#utility.yul\":1290:1409   */\n      iszero\n      tag_84\n      jumpi\n        /* \"#utility.yul\":1328:1407   */\n      tag_85\n      tag_49\n      jump\t// in\n    tag_85:\n        /* \"#utility.yul\":1290:1409   */\n    tag_84:\n        /* \"#utility.yul\":1448:1449   */\n      0x00\n        /* \"#utility.yul\":1473:1526   */\n      tag_86\n        /* \"#utility.yul\":1518:1525   */\n      dup6\n        /* \"#utility.yul\":1509:1515   */\n      dup3\n        /* \"#utility.yul\":1498:1507   */\n      dup7\n        /* \"#utility.yul\":1494:1516   */\n      add\n        /* \"#utility.yul\":1473:1526   */\n      tag_54\n      jump\t// in\n    tag_86:\n        /* \"#utility.yul\":1463:1526   */\n      swap3\n      pop\n        /* \"#utility.yul\":1419:1536   */\n      pop\n        /* \"#utility.yul\":1575:1577   */\n      0x20\n        /* \"#utility.yul\":1601:1654   */\n      tag_87\n        /* \"#utility.yul\":1646:1653   */\n      dup6\n        /* \"#utility.yul\":1637:1643   */\n      dup3\n        /* \"#utility.yul\":1626:1635   */\n      dup7\n        /* \"#utility.yul\":1622:1644   */\n      add\n        /* \"#utility.yul\":1601:1654   */\n      tag_57\n      jump\t// in\n    tag_87:\n        /* \"#utility.yul\":1591:1654   */\n      swap2\n      pop\n        /* \"#utility.yul\":1546:1664   */\n      pop\n        /* \"#utility.yul\":1197:1671   */\n      swap3\n      pop\n      swap3\n      swap1\n      pop\n      jump\t// out\n        /* \"#utility.yul\":1677:1785   */\n    tag_58:\n        /* \"#utility.yul\":1754:1778   */\n      tag_89\n        /* \"#utility.yul\":1772:1777   */\n      dup2\n        /* \"#utility.yul\":1754:1778   */\n      tag_55\n      jump\t// in\n    tag_89:\n        /* \"#utility.yul\":1749:1752   */\n      dup3\n        /* \"#utility.yul\":1742:1779   */\n      mstore\n        /* \"#utility.yul\":1677:1785   */\n      pop\n      pop\n      jump\t// out\n        /* \"#utility.yul\":1867:2383   */\n    tag_59:\n        /* \"#utility.yul\":2016:2020   */\n      0x40\n        /* \"#utility.yul\":2011:2014   */\n      dup3\n        /* \"#utility.yul\":2007:2021   */\n      add\n        /* \"#utility.yul\":2105:2109   */\n      0x00\n        /* \"#utility.yul\":2098:2103   */\n      dup3\n        /* \"#utility.yul\":2094:2110   */\n      add\n        /* \"#utility.yul\":2088:2111   */\n      mload\n        /* \"#utility.yul\":2124:2187   */\n      tag_91\n        /* \"#utility.yul\":2181:2185   */\n      0x00\n        /* \"#utility.yul\":2176:2179   */\n      dup6\n        /* \"#utility.yul\":2172:2186   */\n      add\n        /* \"#utility.yul\":2158:2170   */\n      dup3\n        /* \"#utility.yul\":2124:2187   */\n      tag_58\n      jump\t// in\n    tag_91:\n        /* \"#utility.yul\":2031:2197   */\n      pop\n        /* \"#utility.yul\":2284:2288   */\n      0x20\n        /* \"#utility.yul\":2277:2282   */\n      dup3\n        /* \"#utility.yul\":2273:2289   */\n      add\n        /* \"#utility.yul\":2267:2290   */\n      mload\n        /* \"#utility.yul\":2303:2366   */\n      tag_92\n        /* \"#utility.yul\":2360:2364   */\n      0x20\n        /* \"#utility.yul\":2355:2358   */\n      dup6\n        /* \"#utility.yul\":2351:2365   */\n      add\n        /* \"#utility.yul\":2337:2349   */\n      dup3\n        /* \"#utility.yul\":2303:2366   */\n      tag_58\n      jump\t// in\n    tag_92:\n        /* \"#utility.yul\":2207:2376   */\n      pop\n        /* \"#utility.yul\":1985:2383   */\n      pop\n        /* \"#utility.yul\":1867:2383   */\n      pop\n      pop\n      jump\t// out\n        /* \"#utility.yul\":2389:2715   */\n    tag_15:\n        /* \"#utility.yul\":2534:2538   */\n      0x00\n        /* \"#utility.yul\":2572:2574   */\n      0x40\n        /* \"#utility.yul\":2561:2570   */\n      dup3\n        /* \"#utility.yul\":2557:2575   */\n      add\n        /* \"#utility.yul\":2549:2575   */\n      swap1\n      pop\n        /* \"#utility.yul\":2585:2708   */\n      tag_94\n        /* \"#utility.yul\":2705:2706   */\n      0x00\n        /* \"#utility.yul\":2694:2703   */\n      dup4\n        /* \"#utility.yul\":2690:2707   */\n      add\n        /* \"#utility.yul\":2681:2687   */\n      dup5\n        /* \"#utility.yul\":2585:2708   */\n      tag_59\n      jump\t// in\n    tag_94:\n        /* \"#utility.yul\":2389:2715   */\n      swap3\n      swap2\n      pop\n      pop\n      jump\t// out\n        /* \"#utility.yul\":2721:3050   */\n    tag_19:\n        /* \"#utility.yul\":2780:2786   */\n      0x00\n        /* \"#utility.yul\":2829:2831   */\n      0x20\n        /* \"#utility.yul\":2817:2826   */\n      dup3\n        /* \"#utility.yul\":2808:2815   */\n      dup5\n        /* \"#utility.yul\":2804:2827   */\n      sub\n        /* \"#utility.yul\":2800:2832   */\n      slt\n        /* \"#utility.yul\":2797:2916   */\n      iszero\n      tag_96\n      jumpi\n        /* \"#utility.yul\":2835:2914   */\n      tag_97\n      tag_49\n      jump\t// in\n    tag_97:\n        /* \"#utility.yul\":2797:2916   */\n    tag_96:\n        /* \"#utility.yul\":2955:2956   */\n      0x00\n        /* \"#utility.yul\":2980:3033   */\n      tag_98\n        /* \"#utility.yul\":3025:3032   */\n      dup5\n        /* \"#utility.yul\":3016:3022   */\n      dup3\n        /* \"#utility.yul\":3005:3014   */\n      dup6\n        /* \"#utility.yul\":3001:3023   */\n      add\n        /* \"#utility.yul\":2980:3033   */\n      tag_54\n      jump\t// in\n    tag_98:\n        /* \"#utility.yul\":2970:3033   */\n      swap2\n      pop\n        /* \"#utility.yul\":2926:3043   */\n      pop\n        /* \"#utility.yul\":2721:3050   */\n      swap3\n      swap2\n      pop\n      pop\n      jump\t// out\n        /* \"#utility.yul\":3056:3174   */\n    tag_60:\n        /* \"#utility.yul\":3143:3167   */\n      tag_100\n        /* \"#utility.yul\":3161:3166   */\n      dup2\n        /* \"#utility.yul\":3143:3167   */\n      tag_55\n      jump\t// in\n    tag_100:\n        /* \"#utility.yul\":3138:3141   */\n      dup3\n        /* \"#utility.yul\":3131:3168   */\n      mstore\n        /* \"#utility.yul\":3056:3174   */\n      pop\n      pop\n      jump\t// out\n        /* \"#utility.yul\":3180:3622   */\n    tag_22:\n        /* \"#utility.yul\":3329:3333   */\n      0x00\n        /* \"#utility.yul\":3367:3369   */\n      0x60\n        /* \"#utility.yul\":3356:3365   */\n      dup3\n        /* \"#utility.yul\":3352:3370   */\n      add\n        /* \"#utility.yul\":3344:3370   */\n      swap1\n      pop\n        /* \"#utility.yul\":3380:3451   */\n      tag_102\n        /* \"#utility.yul\":3448:3449   */\n      0x00\n        /* \"#utility.yul\":3437:3446   */\n      dup4\n        /* \"#utility.yul\":3433:3450   */\n      add\n        /* \"#utility.yul\":3424:3430   */\n      dup7\n        /* \"#utility.yul\":3380:3451   */\n      tag_60\n      jump\t// in\n    tag_102:\n        /* \"#utility.yul\":3461:3533   */\n      tag_103\n        /* \"#utility.yul\":3529:3531   */\n      0x20\n        /* \"#utility.yul\":3518:3527   */\n      dup4\n        /* \"#utility.yul\":3514:3532   */\n      add\n        /* \"#utility.yul\":3505:3511   */\n      dup6\n        /* \"#utility.yul\":3461:3533   */\n      tag_60\n      jump\t// in\n    tag_103:\n        /* \"#utility.yul\":3543:3615   */\n      tag_104\n        /* \"#utility.yul\":3611:3613   */\n      0x40\n        /* \"#utility.yul\":3600:3609   */\n      dup4\n        /* \"#utility.yul\":3596:3614   */\n      add\n        /* \"#utility.yul\":3587:3593   */\n      dup5\n        /* \"#utility.yul\":3543:3615   */\n      tag_60\n      jump\t// in\n    tag_104:\n        /* \"#utility.yul\":3180:3622   */\n      swap5\n      swap4\n      pop\n      pop\n      pop\n      pop\n      jump\t// out\n        /* \"#utility.yul\":3628:3732   */\n    tag_61:\n        /* \"#utility.yul\":3673:3680   */\n      0x00\n        /* \"#utility.yul\":3702:3726   */\n      tag_106\n        /* \"#utility.yul\":3720:3725   */\n      dup3\n        /* \"#utility.yul\":3702:3726   */\n      tag_51\n      jump\t// in\n    tag_106:\n        /* \"#utility.yul\":3691:3726   */\n      swap1\n      pop\n        /* \"#utility.yul\":3628:3732   */\n      swap2\n      swap1\n      pop\n      jump\t// out\n        /* \"#utility.yul\":3738:3876   */\n    tag_62:\n        /* \"#utility.yul\":3819:3851   */\n      tag_108\n        /* \"#utility.yul\":3845:3850   */\n      dup2\n        /* \"#utility.yul\":3819:3851   */\n      tag_61\n      jump\t// in\n    tag_108:\n        /* \"#utility.yul\":3812:3817   */\n      dup2\n        /* \"#utility.yul\":3809:3852   */\n      eq\n        /* \"#utility.yul\":3799:3870   */\n      tag_109\n      jumpi\n        /* \"#utility.yul\":3866:3867   */\n      0x00\n        /* \"#utility.yul\":3863:3864   */\n      dup1\n        /* \"#utility.yul\":3856:3868   */\n      revert\n        /* \"#utility.yul\":3799:3870   */\n    tag_109:\n        /* \"#utility.yul\":3738:3876   */\n      pop\n      jump\t// out\n        /* \"#utility.yul\":3882:4037   */\n    tag_63:\n        /* \"#utility.yul\":3936:3941   */\n      0x00\n        /* \"#utility.yul\":3974:3980   */\n      dup2\n        /* \"#utility.yul\":3961:3981   */\n      calldataload\n        /* \"#utility.yul\":3952:3981   */\n      swap1\n      pop\n        /* \"#utility.yul\":3990:4031   */\n      tag_111\n        /* \"#utility.yul\":4025:4030   */\n      dup2\n        /* \"#utility.yul\":3990:4031   */\n      tag_62\n      jump\t// in\n    tag_111:\n        /* \"#utility.yul\":3882:4037   */\n      swap3\n      swap2\n      pop\n      pop\n      jump\t// out\n        /* \"#utility.yul\":4043:4533   */\n    tag_25:\n        /* \"#utility.yul\":4119:4125   */\n      0x00\n        /* \"#utility.yul\":4127:4133   */\n      dup1\n        /* \"#utility.yul\":4176:4178   */\n      0x40\n        /* \"#utility.yul\":4164:4173   */\n      dup4\n        /* \"#utility.yul\":4155:4162   */\n      dup6\n        /* \"#utility.yul\":4151:4174   */\n      sub\n        /* \"#utility.yul\":4147:4179   */\n      slt\n        /* \"#utility.yul\":4144:4263   */\n      iszero\n      tag_113\n      jumpi\n        /* \"#utility.yul\":4182:4261   */\n      tag_114\n      tag_49\n      jump\t// in\n    tag_114:\n        /* \"#utility.yul\":4144:4263   */\n    tag_113:\n        /* \"#utility.yul\":4302:4303   */\n      0x00\n        /* \"#utility.yul\":4327:4388   */\n      tag_115\n        /* \"#utility.yul\":4380:4387   */\n      dup6\n        /* \"#utility.yul\":4371:4377   */\n      dup3\n        /* \"#utility.yul\":4360:4369   */\n      dup7\n        /* \"#utility.yul\":4356:4378   */\n      add\n        /* \"#utility.yul\":4327:4388   */\n      tag_63\n      jump\t// in\n    tag_115:\n        /* \"#utility.yul\":4317:4388   */\n      swap3\n      pop\n        /* \"#utility.yul\":4273:4398   */\n      pop\n        /* \"#utility.yul\":4437:4439   */\n      0x20\n        /* \"#utility.yul\":4463:4516   */\n      tag_116\n        /* \"#utility.yul\":4508:4515   */\n      dup6\n        /* \"#utility.yul\":4499:4505   */\n      dup3\n        /* \"#utility.yul\":4488:4497   */\n      dup7\n        /* \"#utility.yul\":4484:4506   */\n      add\n        /* \"#utility.yul\":4463:4516   */\n      tag_57\n      jump\t// in\n    tag_116:\n        /* \"#utility.yul\":4453:4516   */\n      swap2\n      pop\n        /* \"#utility.yul\":4408:4526   */\n      pop\n        /* \"#utility.yul\":4043:4533   */\n      swap3\n      pop\n      swap3\n      swap1\n      pop\n      jump\t// out\n        /* \"#utility.yul\":4539:4761   */\n    tag_32:\n        /* \"#utility.yul\":4632:4636   */\n      0x00\n        /* \"#utility.yul\":4670:4672   */\n      0x20\n        /* \"#utility.yul\":4659:4668   */\n      dup3\n        /* \"#utility.yul\":4655:4673   */\n      add\n        /* \"#utility.yul\":4647:4673   */\n      swap1\n      pop\n        /* \"#utility.yul\":4683:4754   */\n      tag_118\n        /* \"#utility.yul\":4751:4752   */\n      0x00\n        /* \"#utility.yul\":4740:4749   */\n      dup4\n        /* \"#utility.yul\":4736:4753   */\n      add\n        /* \"#utility.yul\":4727:4733   */\n      dup5\n        /* \"#utility.yul\":4683:4754   */\n      tag_60\n      jump\t// in\n    tag_118:\n        /* \"#utility.yul\":4539:4761   */\n      swap3\n      swap2\n      pop\n      pop\n      jump\t// out\n        /* \"#utility.yul\":4767:4947   */\n    tag_64:\n        /* \"#utility.yul\":4815:4892   */\n      0x4e487b7100000000000000000000000000000000000000000000000000000000\n        /* \"#utility.yul\":4812:4813   */\n      0x00\n        /* \"#utility.yul\":4805:4893   */\n      mstore\n        /* \"#utility.yul\":4912:4916   */\n      0x11\n        /* \"#utility.yul\":4909:4910   */\n      0x04\n        /* \"#utility.yul\":4902:4917   */\n      mstore\n        /* \"#utility.yul\":4936:4940   */\n      0x24\n        /* \"#utility.yul\":4933:4934   */\n      0x00\n        /* \"#utility.yul\":4926:4941   */\n      revert\n        /* \"#utility.yul\":4953:5144   */\n    tag_35:\n        /* \"#utility.yul\":4993:4996   */\n      0x00\n        /* \"#utility.yul\":5012:5032   */\n      tag_121\n        /* \"#utility.yul\":5030:5031   */\n      dup3\n        /* \"#utility.yul\":5012:5032   */\n      tag_55\n      jump\t// in\n    tag_121:\n        /* \"#utility.yul\":5007:5032   */\n      swap2\n      pop\n        /* \"#utility.yul\":5046:5066   */\n      tag_122\n        /* \"#utility.yul\":5064:5065   */\n      dup4\n        /* \"#utility.yul\":5046:5066   */\n      tag_55\n      jump\t// in\n    tag_122:\n        /* \"#utility.yul\":5041:5066   */\n      swap3\n      pop\n        /* \"#utility.yul\":5089:5090   */\n      dup3\n        /* \"#utility.yul\":5086:5087   */\n      dup3\n        /* \"#utility.yul\":5082:5091   */\n      add\n        /* \"#utility.yul\":5075:5091   */\n      swap1\n      pop\n        /* \"#utility.yul\":5110:5113   */\n      dup1\n        /* \"#utility.yul\":5107:5108   */\n      dup3\n        /* \"#utility.yul\":5104:5114   */\n      gt\n        /* \"#utility.yul\":5101:5137   */\n      iszero\n      tag_123\n      jumpi\n        /* \"#utility.yul\":5117:5135   */\n      tag_124\n      tag_64\n      jump\t// in\n    tag_124:\n        /* \"#utility.yul\":5101:5137   */\n    tag_123:\n        /* \"#utility.yul\":4953:5144   */\n      swap3\n      swap2\n      pop\n      pop\n      jump\t// out\n        /* \"#utility.yul\":5150:5383   */\n    tag_37:\n        /* \"#utility.yul\":5189:5192   */\n      0x00\n        /* \"#utility.yul\":5212:5236   */\n      tag_126\n        /* \"#utility.yul\":5230:5235   */\n      dup3\n        /* \"#utility.yul\":5212:5236   */\n      tag_55\n      jump\t// in\n    tag_126:\n        /* \"#utility.yul\":5203:5236   */\n      swap2\n      pop\n        /* \"#utility.yul\":5258:5324   */\n      0xffffffffffffffffffffffffffffffffffffffffffffffffffffffffffffffff\n        /* \"#utility.yul\":5251:5256   */\n      dup3\n        /* \"#utility.yul\":5248:5325   */\n      sub\n        /* \"#utility.yul\":5245:5348   */\n      tag_127\n      jumpi\n        /* \"#utility.yul\":5328:5346   */\n      tag_128\n      tag_64\n      jump\t// in\n    tag_128:\n        /* \"#utility.yul\":5245:5348   */\n    tag_127:\n        /* \"#utility.yul\":5375:5376   */\n      0x01\n        /* \"#utility.yul\":5368:5373   */\n      dup3\n        /* \"#utility.yul\":5364:5377   */\n      add\n        /* \"#utility.yul\":5357:5377   */\n      swap1\n      pop\n        /* \"#utility.yul\":5150:5383   */\n      swap2\n      swap1\n      pop\n      jump\t// out\n        /* \"#utility.yul\":5389:5583   */\n    tag_43:\n        /* \"#utility.yul\":5429:5433   */\n      0x00\n        /* \"#utility.yul\":5449:5469   */\n      tag_130\n        /* \"#utility.yul\":5467:5468   */\n      dup3\n        /* \"#utility.yul\":5449:5469   */\n      tag_55\n      jump\t// in\n    tag_130:\n        /* \"#utility.yul\":5444:5469   */\n      swap2\n      pop\n        /* \"#utility.yul\":5483:5503   */\n      tag_131\n        /* \"#utility.yul\":5501:5502   */\n      dup4\n        /* \"#utility.yul\":5483:5503   */\n      tag_55\n      jump\t// in\n    tag_131:\n        /* \"#utility.yul\":5478:5503   */\n      swap3\n      pop\n        /* \"#utility.yul\":5527:5528   */\n      dup3\n        /* \"#utility.yul\":5524:5525   */\n      dup3\n        /* \"#utility.yul\":5520:5529   */\n      sub\n        /* \"#utility.yul\":5512:5529   */\n      swap1\n      pop\n        /* \"#utility.yul\":5551:5552   */\n      dup2\n        /* \"#utility.yul\":5545:5549   */\n      dup2\n        /* \"#utility.yul\":5542:5553   */\n      gt\n        /* \"#utility.yul\":5539:5576   */\n      iszero\n      tag_132\n      jumpi\n        /* \"#utility.yul\":5556:5574   */\n      tag_133\n      tag_64\n      jump\t// in\n    tag_133:\n        /* \"#utility.yul\":5539:5576   */\n    tag_132:\n        /* \"#utility.yul\":5389:5583   */\n      swap3\n      swap2\n      pop\n      pop\n      jump\t// out\n\n    auxdata: 0xa2646970667358221220ffbaa886204172531990b126be881e22c078f012630a4652a556b28d9a38b7af64736f6c63430008120033\n}\n",
				"bytecode": {
					"linkReferences": {},
					"object": "608060405234801561001057600080fd5b506108c6806100206000396000f3fe60806040526004361061004a5760003560e01c806316c05aa21461004f57806355e14fe614610059578063d18a42e114610096578063f274c897146100d5578063f8b2cb4f146100f1575b600080fd5b61005761012e565b005b34801561006557600080fd5b50610080600480360381019061007b919061060c565b6102a4565b60405161008d919061068a565b60405180910390f35b3480156100a257600080fd5b506100bd60048036038101906100b891906106a5565b610325565b6040516100cc939291906106e1565b60405180910390f35b6100ef60048036038101906100ea9190610756565b61034f565b005b3480156100fd57600080fd5b50610118600480360381019061011391906106a5565b61050e565b6040516101259190610796565b60405180910390f35b346000803373ffffffffffffffffffffffffffffffffffffffff1673ffffffffffffffffffffffffffffffffffffffff168152602001908152602001600020600001600082825461017f91906107e0565b9250508190555060006040518060400160405280348152602001428152509050806000803373ffffffffffffffffffffffffffffffffffffffff1673ffffffffffffffffffffffffffffffffffffffff16815260200190815260200160002060020160008060003373ffffffffffffffffffffffffffffffffffffffff1673ffffffffffffffffffffffffffffffffffffffff16815260200190815260200160002060010154815260200190815260200160002060008201518160000155602082015181600101559050506000803373ffffffffffffffffffffffffffffffffffffffff1673ffffffffffffffffffffffffffffffffffffffff168152602001908152602001600020600101600081548092919061029c90610814565b919050555050565b6102ac610559565b6000808473ffffffffffffffffffffffffffffffffffffffff1673ffffffffffffffffffffffffffffffffffffffff168152602001908152602001600020600201600083815260200190815260200160002060405180604001604052908160008201548152602001600182015481525050905092915050565b60006020528060005260406000206000915090508060000154908060010154908060030154905083565b806000803373ffffffffffffffffffffffffffffffffffffffff1673ffffffffffffffffffffffffffffffffffffffff16815260200190815260200160002060000160008282546103a0919061085c565b9250508190555060006040518060400160405280348152602001428152509050806000803373ffffffffffffffffffffffffffffffffffffffff1673ffffffffffffffffffffffffffffffffffffffff16815260200190815260200160002060040160008060003373ffffffffffffffffffffffffffffffffffffffff1673ffffffffffffffffffffffffffffffffffffffff16815260200190815260200160002060030154815260200190815260200160002060008201518160000155602082015181600101559050506000803373ffffffffffffffffffffffffffffffffffffffff1673ffffffffffffffffffffffffffffffffffffffff16815260200190815260200160002060030160008154809291906104bd90610814565b91905055508273ffffffffffffffffffffffffffffffffffffffff166108fc839081150290604051600060405180830381858888f19350505050158015610508573d6000803e3d6000fd5b50505050565b60008060008373ffffffffffffffffffffffffffffffffffffffff1673ffffffffffffffffffffffffffffffffffffffff168152602001908152602001600020600001549050919050565b604051806040016040528060008152602001600081525090565b600080fd5b600073ffffffffffffffffffffffffffffffffffffffff82169050919050565b60006105a382610578565b9050919050565b6105b381610598565b81146105be57600080fd5b50565b6000813590506105d0816105aa565b92915050565b6000819050919050565b6105e9816105d6565b81146105f457600080fd5b50565b600081359050610606816105e0565b92915050565b6000806040838503121561062357610622610573565b5b6000610631858286016105c1565b9250506020610642858286016105f7565b9150509250929050565b610655816105d6565b82525050565b604082016000820151610671600085018261064c565b506020820151610684602085018261064c565b50505050565b600060408201905061069f600083018461065b565b92915050565b6000602082840312156106bb576106ba610573565b5b60006106c9848285016105c1565b91505092915050565b6106db816105d6565b82525050565b60006060820190506106f660008301866106d2565b61070360208301856106d2565b61071060408301846106d2565b949350505050565b600061072382610578565b9050919050565b61073381610718565b811461073e57600080fd5b50565b6000813590506107508161072a565b92915050565b6000806040838503121561076d5761076c610573565b5b600061077b85828601610741565b925050602061078c858286016105f7565b9150509250929050565b60006020820190506107ab60008301846106d2565b92915050565b7f4e487b7100000000000000000000000000000000000000000000000000000000600052601160045260246000fd5b60006107eb826105d6565b91506107f6836105d6565b925082820190508082111561080e5761080d6107b1565b5b92915050565b600061081f826105d6565b91507fffffffffffffffffffffffffffffffffffffffffffffffffffffffffffffffff8203610851576108506107b1565b5b600182019050919050565b6000610867826105d6565b9150610872836105d6565b925082820390508181111561088a576108896107b1565b5b9291505056fea2646970667358221220ffbaa886204172531990b126be881e22c078f012630a4652a556b28d9a38b7af64736f6c63430008120033",
					"opcodes": "PUSH1 0x80 PUSH1 0x40 MSTORE CALLVALUE DUP1 ISZERO PUSH2 0x10 JUMPI PUSH1 0x0 DUP1 REVERT JUMPDEST POP PUSH2 0x8C6 DUP1 PUSH2 0x20 PUSH1 0x0 CODECOPY PUSH1 0x0 RETURN INVALID PUSH1 0x80 PUSH1 0x40 MSTORE PUSH1 0x4 CALLDATASIZE LT PUSH2 0x4A JUMPI PUSH1 0x0 CALLDATALOAD PUSH1 0xE0 SHR DUP1 PUSH4 0x16C05AA2 EQ PUSH2 0x4F JUMPI DUP1 PUSH4 0x55E14FE6 EQ PUSH2 0x59 JUMPI DUP1 PUSH4 0xD18A42E1 EQ PUSH2 0x96 JUMPI DUP1 PUSH4 0xF274C897 EQ PUSH2 0xD5 JUMPI DUP1 PUSH4 0xF8B2CB4F EQ PUSH2 0xF1 JUMPI JUMPDEST PUSH1 0x0 DUP1 REVERT JUMPDEST PUSH2 0x57 PUSH2 0x12E JUMP JUMPDEST STOP JUMPDEST CALLVALUE DUP1 ISZERO PUSH2 0x65 JUMPI PUSH1 0x0 DUP1 REVERT JUMPDEST POP PUSH2 0x80 PUSH1 0x4 DUP1 CALLDATASIZE SUB DUP2 ADD SWAP1 PUSH2 0x7B SWAP2 SWAP1 PUSH2 0x60C JUMP JUMPDEST PUSH2 0x2A4 JUMP JUMPDEST PUSH1 0x40 MLOAD PUSH2 0x8D SWAP2 SWAP1 PUSH2 0x68A JUMP JUMPDEST PUSH1 0x40 MLOAD DUP1 SWAP2 SUB SWAP1 RETURN JUMPDEST CALLVALUE DUP1 ISZERO PUSH2 0xA2 JUMPI PUSH1 0x0 DUP1 REVERT JUMPDEST POP PUSH2 0xBD PUSH1 0x4 DUP1 CALLDATASIZE SUB DUP2 ADD SWAP1 PUSH2 0xB8 SWAP2 SWAP1 PUSH2 0x6A5 JUMP JUMPDEST PUSH2 0x325 JUMP JUMPDEST PUSH1 0x40 MLOAD PUSH2 0xCC SWAP4 SWAP3 SWAP2 SWAP1 PUSH2 0x6E1 JUMP JUMPDEST PUSH1 0x40 MLOAD DUP1 SWAP2 SUB SWAP1 RETURN JUMPDEST PUSH2 0xEF PUSH1 0x4 DUP1 CALLDATASIZE SUB DUP2 ADD SWAP1 PUSH2 0xEA SWAP2 SWAP1 PUSH2 0x756 JUMP JUMPDEST PUSH2 0x34F JUMP JUMPDEST STOP JUMPDEST CALLVALUE DUP1 ISZERO PUSH2 0xFD JUMPI PUSH1 0x0 DUP1 REVERT JUMPDEST POP PUSH2 0x118 PUSH1 0x4 DUP1 CALLDATASIZE SUB DUP2 ADD SWAP1 PUSH2 0x113 SWAP2 SWAP1 PUSH2 0x6A5 JUMP JUMPDEST PUSH2 0x50E JUMP JUMPDEST PUSH1 0x40 MLOAD PUSH2 0x125 SWAP2 SWAP1 PUSH2 0x796 JUMP JUMPDEST PUSH1 0x40 MLOAD DUP1 SWAP2 SUB SWAP1 RETURN JUMPDEST CALLVALUE PUSH1 0x0 DUP1 CALLER PUSH20 0xFFFFFFFFFFFFFFFFFFFFFFFFFFFFFFFFFFFFFFFF AND PUSH20 0xFFFFFFFFFFFFFFFFFFFFFFFFFFFFFFFFFFFFFFFF AND DUP2 MSTORE PUSH1 0x20 ADD SWAP1 DUP2 MSTORE PUSH1 0x20 ADD PUSH1 0x0 KECCAK256 PUSH1 0x0 ADD PUSH1 0x0 DUP3 DUP3 SLOAD PUSH2 0x17F SWAP2 SWAP1 PUSH2 0x7E0 JUMP JUMPDEST SWAP3 POP POP DUP2 SWAP1 SSTORE POP PUSH1 0x0 PUSH1 0x40 MLOAD DUP1 PUSH1 0x40 ADD PUSH1 0x40 MSTORE DUP1 CALLVALUE DUP2 MSTORE PUSH1 0x20 ADD TIMESTAMP DUP2 MSTORE POP SWAP1 POP DUP1 PUSH1 0x0 DUP1 CALLER PUSH20 0xFFFFFFFFFFFFFFFFFFFFFFFFFFFFFFFFFFFFFFFF AND PUSH20 0xFFFFFFFFFFFFFFFFFFFFFFFFFFFFFFFFFFFFFFFF AND DUP2 MSTORE PUSH1 0x20 ADD SWAP1 DUP2 MSTORE PUSH1 0x20 ADD PUSH1 0x0 KECCAK256 PUSH1 0x2 ADD PUSH1 0x0 DUP1 PUSH1 0x0 CALLER PUSH20 0xFFFFFFFFFFFFFFFFFFFFFFFFFFFFFFFFFFFFFFFF AND PUSH20 0xFFFFFFFFFFFFFFFFFFFFFFFFFFFFFFFFFFFFFFFF AND DUP2 MSTORE PUSH1 0x20 ADD SWAP1 DUP2 MSTORE PUSH1 0x20 ADD PUSH1 0x0 KECCAK256 PUSH1 0x1 ADD SLOAD DUP2 MSTORE PUSH1 0x20 ADD SWAP1 DUP2 MSTORE PUSH1 0x20 ADD PUSH1 0x0 KECCAK256 PUSH1 0x0 DUP3 ADD MLOAD DUP2 PUSH1 0x0 ADD SSTORE PUSH1 0x20 DUP3 ADD MLOAD DUP2 PUSH1 0x1 ADD SSTORE SWAP1 POP POP PUSH1 0x0 DUP1 CALLER PUSH20 0xFFFFFFFFFFFFFFFFFFFFFFFFFFFFFFFFFFFFFFFF AND PUSH20 0xFFFFFFFFFFFFFFFFFFFFFFFFFFFFFFFFFFFFFFFF AND DUP2 MSTORE PUSH1 0x20 ADD SWAP1 DUP2 MSTORE PUSH1 0x20 ADD PUSH1 0x0 KECCAK256 PUSH1 0x1 ADD PUSH1 0x0 DUP2 SLOAD DUP1 SWAP3 SWAP2 SWAP1 PUSH2 0x29C SWAP1 PUSH2 0x814 JUMP JUMPDEST SWAP2 SWAP1 POP SSTORE POP POP JUMP JUMPDEST PUSH2 0x2AC PUSH2 0x559 JUMP JUMPDEST PUSH1 0x0 DUP1 DUP5 PUSH20 0xFFFFFFFFFFFFFFFFFFFFFFFFFFFFFFFFFFFFFFFF AND PUSH20 0xFFFFFFFFFFFFFFFFFFFFFFFFFFFFFFFFFFFFFFFF AND DUP2 MSTORE PUSH1 0x20 ADD SWAP1 DUP2 MSTORE PUSH1 0x20 ADD PUSH1 0x0 KECCAK256 PUSH1 0x2 ADD PUSH1 0x0 DUP4 DUP2 MSTORE PUSH1 0x20 ADD SWAP1 DUP2 MSTORE PUSH1 0x20 ADD PUSH1 0x0 KECCAK256 PUSH1 0x40 MLOAD DUP1 PUSH1 0x40 ADD PUSH1 0x40 MSTORE SWAP1 DUP2 PUSH1 0x0 DUP3 ADD SLOAD DUP2 MSTORE PUSH1 0x20 ADD PUSH1 0x1 DUP3 ADD SLOAD DUP2 MSTORE POP POP SWAP1 POP SWAP3 SWAP2 POP POP JUMP JUMPDEST PUSH1 0x0 PUSH1 0x20 MSTORE DUP1 PUSH1 0x0 MSTORE PUSH1 0x40 PUSH1 0x0 KECCAK256 PUSH1 0x0 SWAP2 POP SWAP1 POP DUP1 PUSH1 0x0 ADD SLOAD SWAP1 DUP1 PUSH1 0x1 ADD SLOAD SWAP1 DUP1 PUSH1 0x3 ADD SLOAD SWAP1 POP DUP4 JUMP JUMPDEST DUP1 PUSH1 0x0 DUP1 CALLER PUSH20 0xFFFFFFFFFFFFFFFFFFFFFFFFFFFFFFFFFFFFFFFF AND PUSH20 0xFFFFFFFFFFFFFFFFFFFFFFFFFFFFFFFFFFFFFFFF AND DUP2 MSTORE PUSH1 0x20 ADD SWAP1 DUP2 MSTORE PUSH1 0x20 ADD PUSH1 0x0 KECCAK256 PUSH1 0x0 ADD PUSH1 0x0 DUP3 DUP3 SLOAD PUSH2 0x3A0 SWAP2 SWAP1 PUSH2 0x85C JUMP JUMPDEST SWAP3 POP POP DUP2 SWAP1 SSTORE POP PUSH1 0x0 PUSH1 0x40 MLOAD DUP1 PUSH1 0x40 ADD PUSH1 0x40 MSTORE DUP1 CALLVALUE DUP2 MSTORE PUSH1 0x20 ADD TIMESTAMP DUP2 MSTORE POP SWAP1 POP DUP1 PUSH1 0x0 DUP1 CALLER PUSH20 0xFFFFFFFFFFFFFFFFFFFFFFFFFFFFFFFFFFFFFFFF AND PUSH20 0xFFFFFFFFFFFFFFFFFFFFFFFFFFFFFFFFFFFFFFFF AND DUP2 MSTORE PUSH1 0x20 ADD SWAP1 DUP2 MSTORE PUSH1 0x20 ADD PUSH1 0x0 KECCAK256 PUSH1 0x4 ADD PUSH1 0x0 DUP1 PUSH1 0x0 CALLER PUSH20 0xFFFFFFFFFFFFFFFFFFFFFFFFFFFFFFFFFFFFFFFF AND PUSH20 0xFFFFFFFFFFFFFFFFFFFFFFFFFFFFFFFFFFFFFFFF AND DUP2 MSTORE PUSH1 0x20 ADD SWAP1 DUP2 MSTORE PUSH1 0x20 ADD PUSH1 0x0 KECCAK256 PUSH1 0x3 ADD SLOAD DUP2 MSTORE PUSH1 0x20 ADD SWAP1 DUP2 MSTORE PUSH1 0x20 ADD PUSH1 0x0 KECCAK256 PUSH1 0x0 DUP3 ADD MLOAD DUP2 PUSH1 0x0 ADD SSTORE PUSH1 0x20 DUP3 ADD MLOAD DUP2 PUSH1 0x1 ADD SSTORE SWAP1 POP POP PUSH1 0x0 DUP1 CALLER PUSH20 0xFFFFFFFFFFFFFFFFFFFFFFFFFFFFFFFFFFFFFFFF AND PUSH20 0xFFFFFFFFFFFFFFFFFFFFFFFFFFFFFFFFFFFFFFFF AND DUP2 MSTORE PUSH1 0x20 ADD SWAP1 DUP2 MSTORE PUSH1 0x20 ADD PUSH1 0x0 KECCAK256 PUSH1 0x3 ADD PUSH1 0x0 DUP2 SLOAD DUP1 SWAP3 SWAP2 SWAP1 PUSH2 0x4BD SWAP1 PUSH2 0x814 JUMP JUMPDEST SWAP2 SWAP1 POP SSTORE POP DUP3 PUSH20 0xFFFFFFFFFFFFFFFFFFFFFFFFFFFFFFFFFFFFFFFF AND PUSH2 0x8FC DUP4 SWAP1 DUP2 ISZERO MUL SWAP1 PUSH1 0x40 MLOAD PUSH1 0x0 PUSH1 0x40 MLOAD DUP1 DUP4 SUB DUP2 DUP6 DUP9 DUP9 CALL SWAP4 POP POP POP POP ISZERO DUP1 ISZERO PUSH2 0x508 JUMPI RETURNDATASIZE PUSH1 0x0 DUP1 RETURNDATACOPY RETURNDATASIZE PUSH1 0x0 REVERT JUMPDEST POP POP POP POP JUMP JUMPDEST PUSH1 0x0 DUP1 PUSH1 0x0 DUP4 PUSH20 0xFFFFFFFFFFFFFFFFFFFFFFFFFFFFFFFFFFFFFFFF AND PUSH20 0xFFFFFFFFFFFFFFFFFFFFFFFFFFFFFFFFFFFFFFFF AND DUP2 MSTORE PUSH1 0x20 ADD SWAP1 DUP2 MSTORE PUSH1 0x20 ADD PUSH1 0x0 KECCAK256 PUSH1 0x0 ADD SLOAD SWAP1 POP SWAP2 SWAP1 POP JUMP JUMPDEST PUSH1 0x40 MLOAD DUP1 PUSH1 0x40 ADD PUSH1 0x40 MSTORE DUP1 PUSH1 0x0 DUP2 MSTORE PUSH1 0x20 ADD PUSH1 0x0 DUP2 MSTORE POP SWAP1 JUMP JUMPDEST PUSH1 0x0 DUP1 REVERT JUMPDEST PUSH1 0x0 PUSH20 0xFFFFFFFFFFFFFFFFFFFFFFFFFFFFFFFFFFFFFFFF DUP3 AND SWAP1 POP SWAP2 SWAP1 POP JUMP JUMPDEST PUSH1 0x0 PUSH2 0x5A3 DUP3 PUSH2 0x578 JUMP JUMPDEST SWAP1 POP SWAP2 SWAP1 POP JUMP JUMPDEST PUSH2 0x5B3 DUP2 PUSH2 0x598 JUMP JUMPDEST DUP2 EQ PUSH2 0x5BE JUMPI PUSH1 0x0 DUP1 REVERT JUMPDEST POP JUMP JUMPDEST PUSH1 0x0 DUP2 CALLDATALOAD SWAP1 POP PUSH2 0x5D0 DUP2 PUSH2 0x5AA JUMP JUMPDEST SWAP3 SWAP2 POP POP JUMP JUMPDEST PUSH1 0x0 DUP2 SWAP1 POP SWAP2 SWAP1 POP JUMP JUMPDEST PUSH2 0x5E9 DUP2 PUSH2 0x5D6 JUMP JUMPDEST DUP2 EQ PUSH2 0x5F4 JUMPI PUSH1 0x0 DUP1 REVERT JUMPDEST POP JUMP JUMPDEST PUSH1 0x0 DUP2 CALLDATALOAD SWAP1 POP PUSH2 0x606 DUP2 PUSH2 0x5E0 JUMP JUMPDEST SWAP3 SWAP2 POP POP JUMP JUMPDEST PUSH1 0x0 DUP1 PUSH1 0x40 DUP4 DUP6 SUB SLT ISZERO PUSH2 0x623 JUMPI PUSH2 0x622 PUSH2 0x573 JUMP JUMPDEST JUMPDEST PUSH1 0x0 PUSH2 0x631 DUP6 DUP3 DUP7 ADD PUSH2 0x5C1 JUMP JUMPDEST SWAP3 POP POP PUSH1 0x20 PUSH2 0x642 DUP6 DUP3 DUP7 ADD PUSH2 0x5F7 JUMP JUMPDEST SWAP2 POP POP SWAP3 POP SWAP3 SWAP1 POP JUMP JUMPDEST PUSH2 0x655 DUP2 PUSH2 0x5D6 JUMP JUMPDEST DUP3 MSTORE POP POP JUMP JUMPDEST PUSH1 0x40 DUP3 ADD PUSH1 0x0 DUP3 ADD MLOAD PUSH2 0x671 PUSH1 0x0 DUP6 ADD DUP3 PUSH2 0x64C JUMP JUMPDEST POP PUSH1 0x20 DUP3 ADD MLOAD PUSH2 0x684 PUSH1 0x20 DUP6 ADD DUP3 PUSH2 0x64C JUMP JUMPDEST POP POP POP POP JUMP JUMPDEST PUSH1 0x0 PUSH1 0x40 DUP3 ADD SWAP1 POP PUSH2 0x69F PUSH1 0x0 DUP4 ADD DUP5 PUSH2 0x65B JUMP JUMPDEST SWAP3 SWAP2 POP POP JUMP JUMPDEST PUSH1 0x0 PUSH1 0x20 DUP3 DUP5 SUB SLT ISZERO PUSH2 0x6BB JUMPI PUSH2 0x6BA PUSH2 0x573 JUMP JUMPDEST JUMPDEST PUSH1 0x0 PUSH2 0x6C9 DUP5 DUP3 DUP6 ADD PUSH2 0x5C1 JUMP JUMPDEST SWAP2 POP POP SWAP3 SWAP2 POP POP JUMP JUMPDEST PUSH2 0x6DB DUP2 PUSH2 0x5D6 JUMP JUMPDEST DUP3 MSTORE POP POP JUMP JUMPDEST PUSH1 0x0 PUSH1 0x60 DUP3 ADD SWAP1 POP PUSH2 0x6F6 PUSH1 0x0 DUP4 ADD DUP7 PUSH2 0x6D2 JUMP JUMPDEST PUSH2 0x703 PUSH1 0x20 DUP4 ADD DUP6 PUSH2 0x6D2 JUMP JUMPDEST PUSH2 0x710 PUSH1 0x40 DUP4 ADD DUP5 PUSH2 0x6D2 JUMP JUMPDEST SWAP5 SWAP4 POP POP POP POP JUMP JUMPDEST PUSH1 0x0 PUSH2 0x723 DUP3 PUSH2 0x578 JUMP JUMPDEST SWAP1 POP SWAP2 SWAP1 POP JUMP JUMPDEST PUSH2 0x733 DUP2 PUSH2 0x718 JUMP JUMPDEST DUP2 EQ PUSH2 0x73E JUMPI PUSH1 0x0 DUP1 REVERT JUMPDEST POP JUMP JUMPDEST PUSH1 0x0 DUP2 CALLDATALOAD SWAP1 POP PUSH2 0x750 DUP2 PUSH2 0x72A JUMP JUMPDEST SWAP3 SWAP2 POP POP JUMP JUMPDEST PUSH1 0x0 DUP1 PUSH1 0x40 DUP4 DUP6 SUB SLT ISZERO PUSH2 0x76D JUMPI PUSH2 0x76C PUSH2 0x573 JUMP JUMPDEST JUMPDEST PUSH1 0x0 PUSH2 0x77B DUP6 DUP3 DUP7 ADD PUSH2 0x741 JUMP JUMPDEST SWAP3 POP POP PUSH1 0x20 PUSH2 0x78C DUP6 DUP3 DUP7 ADD PUSH2 0x5F7 JUMP JUMPDEST SWAP2 POP POP SWAP3 POP SWAP3 SWAP1 POP JUMP JUMPDEST PUSH1 0x0 PUSH1 0x20 DUP3 ADD SWAP1 POP PUSH2 0x7AB PUSH1 0x0 DUP4 ADD DUP5 PUSH2 0x6D2 JUMP JUMPDEST SWAP3 SWAP2 POP POP JUMP JUMPDEST PUSH32 0x4E487B7100000000000000000000000000000000000000000000000000000000 PUSH1 0x0 MSTORE PUSH1 0x11 PUSH1 0x4 MSTORE PUSH1 0x24 PUSH1 0x0 REVERT JUMPDEST PUSH1 0x0 PUSH2 0x7EB DUP3 PUSH2 0x5D6 JUMP JUMPDEST SWAP2 POP PUSH2 0x7F6 DUP4 PUSH2 0x5D6 JUMP JUMPDEST SWAP3 POP DUP3 DUP3 ADD SWAP1 POP DUP1 DUP3 GT ISZERO PUSH2 0x80E JUMPI PUSH2 0x80D PUSH2 0x7B1 JUMP JUMPDEST JUMPDEST SWAP3 SWAP2 POP POP JUMP JUMPDEST PUSH1 0x0 PUSH2 0x81F DUP3 PUSH2 0x5D6 JUMP JUMPDEST SWAP2 POP PUSH32 0xFFFFFFFFFFFFFFFFFFFFFFFFFFFFFFFFFFFFFFFFFFFFFFFFFFFFFFFFFFFFFFFF DUP3 SUB PUSH2 0x851 JUMPI PUSH2 0x850 PUSH2 0x7B1 JUMP JUMPDEST JUMPDEST PUSH1 0x1 DUP3 ADD SWAP1 POP SWAP2 SWAP1 POP JUMP JUMPDEST PUSH1 0x0 PUSH2 0x867 DUP3 PUSH2 0x5D6 JUMP JUMPDEST SWAP2 POP PUSH2 0x872 DUP4 PUSH2 0x5D6 JUMP JUMPDEST SWAP3 POP DUP3 DUP3 SUB SWAP1 POP DUP2 DUP2 GT ISZERO PUSH2 0x88A JUMPI PUSH2 0x889 PUSH2 0x7B1 JUMP JUMPDEST JUMPDEST SWAP3 SWAP2 POP POP JUMP INVALID LOG2 PUSH5 0x6970667358 0x22 SLT KECCAK256 SELFDESTRUCT 0xBA 0xA8 DUP7 KECCAK256 COINBASE PUSH19 0x531990B126BE881E22C078F012630A4652A556 0xB2 DUP14 SWAP11 CODESIZE 0xB7 0xAF PUSH5 0x736F6C6343 STOP ADDMOD SLT STOP CALLER "
				},
				"gasEstimates": {
					"creation": {
						"codeDepositCost": "449200",
						"executionCost": "486",
						"totalCost": "449686"
					},
					"external": {
						"balanceReceived(address)": "infinite",
						"depositMoney()": "infinite",
						"getBalance(address)": "2913",
						"getDepositNum(address,uint256)": "infinite",
						"withdrawMoney(address,uint256)": "infinite"
					}
				},
				"methodIdentifiers": {
					"balanceReceived(address)": "d18a42e1",
					"depositMoney()": "16c05aa2",
					"getBalance(address)": "f8b2cb4f",
					"getDepositNum(address,uint256)": "55e14fe6",
					"withdrawMoney(address,uint256)": "f274c897"
				}
			},
			"storageLayout": {
				"storage": [
					{
						"astId": 28,
						"contract": "contracts/MappingStruct.sol:MappingStruct",
						"label": "balanceReceived",
						"offset": 0,
						"slot": "0",
						"type": "t_mapping(t_address,t_struct(Balance)23_storage)"
					}
				],
				"types": {
					"t_address": {
						"encoding": "inplace",
						"label": "address",
						"numberOfBytes": "20"
					},
					"t_mapping(t_address,t_struct(Balance)23_storage)": {
						"encoding": "mapping",
						"key": "t_address",
						"label": "mapping(address => struct MappingStruct.Balance)",
						"numberOfBytes": "32",
						"value": "t_struct(Balance)23_storage"
					},
					"t_mapping(t_uint256,t_struct(Transaction)6_storage)": {
						"encoding": "mapping",
						"key": "t_uint256",
						"label": "mapping(uint256 => struct MappingStruct.Transaction)",
						"numberOfBytes": "32",
						"value": "t_struct(Transaction)6_storage"
					},
					"t_struct(Balance)23_storage": {
						"encoding": "inplace",
						"label": "struct MappingStruct.Balance",
						"members": [
							{
								"astId": 8,
								"contract": "contracts/MappingStruct.sol:MappingStruct",
								"label": "totalBalance",
								"offset": 0,
								"slot": "0",
								"type": "t_uint256"
							},
							{
								"astId": 10,
								"contract": "contracts/MappingStruct.sol:MappingStruct",
								"label": "numDeposits",
								"offset": 0,
								"slot": "1",
								"type": "t_uint256"
							},
							{
								"astId": 15,
								"contract": "contracts/MappingStruct.sol:MappingStruct",
								"label": "deposits",
								"offset": 0,
								"slot": "2",
								"type": "t_mapping(t_uint256,t_struct(Transaction)6_storage)"
							},
							{
								"astId": 17,
								"contract": "contracts/MappingStruct.sol:MappingStruct",
								"label": "numWithdrawals",
								"offset": 0,
								"slot": "3",
								"type": "t_uint256"
							},
							{
								"astId": 22,
								"contract": "contracts/MappingStruct.sol:MappingStruct",
								"label": "withdrawals",
								"offset": 0,
								"slot": "4",
								"type": "t_mapping(t_uint256,t_struct(Transaction)6_storage)"
							}
						],
						"numberOfBytes": "160"
					},
					"t_struct(Transaction)6_storage": {
						"encoding": "inplace",
						"label": "struct MappingStruct.Transaction",
						"members": [
							{
								"astId": 3,
								"contract": "contracts/MappingStruct.sol:MappingStruct",
								"label": "amount",
								"offset": 0,
								"slot": "0",
								"type": "t_uint256"
							},
							{
								"astId": 5,
								"contract": "contracts/MappingStruct.sol:MappingStruct",
								"label": "timestamp",
								"offset": 0,
								"slot": "1",
								"type": "t_uint256"
							}
						],
						"numberOfBytes": "64"
					},
					"t_uint256": {
						"encoding": "inplace",
						"label": "uint256",
						"numberOfBytes": "32"
					}
				}
			},
			"userdoc": {
				"kind": "user",
				"methods": {},
				"version": 1
			}
		}
	}
}