{
	"contracts/multiholder.sol": {
		"MultiHolder": {
			"abi": [
				{
					"inputs": [
						{
							"internalType": "address",
							"name": "_member",
							"type": "address"
						}
					],
					"name": "addMember",
					"outputs": [],
					"stateMutability": "nonpayable",
					"type": "function"
				},
				{
					"inputs": [],
					"name": "countMembers",
					"outputs": [
						{
							"internalType": "uint8",
							"name": "",
							"type": "uint8"
						}
					],
					"stateMutability": "view",
					"type": "function"
				},
				{
					"inputs": [],
					"name": "getBalance",
					"outputs": [
						{
							"internalType": "uint256",
							"name": "",
							"type": "uint256"
						}
					],
					"stateMutability": "view",
					"type": "function"
				},
				{
					"inputs": [],
					"name": "maxMembers",
					"outputs": [
						{
							"internalType": "uint8",
							"name": "",
							"type": "uint8"
						}
					],
					"stateMutability": "view",
					"type": "function"
				},
				{
					"inputs": [
						{
							"internalType": "address",
							"name": "",
							"type": "address"
						}
					],
					"name": "members",
					"outputs": [
						{
							"internalType": "bool",
							"name": "",
							"type": "bool"
						}
					],
					"stateMutability": "view",
					"type": "function"
				},
				{
					"inputs": [],
					"name": "owner",
					"outputs": [
						{
							"internalType": "address",
							"name": "",
							"type": "address"
						}
					],
					"stateMutability": "view",
					"type": "function"
				},
				{
					"inputs": [
						{
							"internalType": "address",
							"name": "_member",
							"type": "address"
						}
					],
					"name": "removeMember",
					"outputs": [],
					"stateMutability": "nonpayable",
					"type": "function"
				},
				{
					"inputs": [
						{
							"internalType": "uint256",
							"name": "_amount",
							"type": "uint256"
						},
						{
							"internalType": "address payable",
							"name": "_toAddress",
							"type": "address"
						}
					],
					"name": "sendMoney",
					"outputs": [],
					"stateMutability": "nonpayable",
					"type": "function"
				},
				{
					"inputs": [
						{
							"internalType": "uint256",
							"name": "",
							"type": "uint256"
						}
					],
					"name": "votesAddM",
					"outputs": [
						{
							"internalType": "address",
							"name": "",
							"type": "address"
						}
					],
					"stateMutability": "view",
					"type": "function"
				}
			],
			"devdoc": {
				"kind": "dev",
				"methods": {},
				"version": 1
			},
			"evm": {
				"assembly": "    /* \"contracts/multiholder.sol\":58:1178  contract MultiHolder {... */\n  mstore(0x40, 0x80)\n    /* \"contracts/multiholder.sol\":138:139  5 */\n  0x05\n    /* \"contracts/multiholder.sol\":112:139  uint8 public maxMembers = 5 */\n  0x00\n  exp(0x0100, 0x14)\n  dup2\n  sload\n  dup2\n  0xff\n  mul\n  not\n  and\n  swap1\n  dup4\n  0xff\n  and\n  mul\n  or\n  swap1\n  sstore\n  pop\n    /* \"contracts/multiholder.sol\":58:1178  contract MultiHolder {... */\n  callvalue\n  dup1\n  iszero\n  tag_1\n  jumpi\n  0x00\n  dup1\n  revert\ntag_1:\n  pop\n  dataSize(sub_0)\n  dup1\n  dataOffset(sub_0)\n  0x00\n  codecopy\n  0x00\n  return\nstop\n\nsub_0: assembly {\n        /* \"contracts/multiholder.sol\":58:1178  contract MultiHolder {... */\n      mstore(0x40, 0x80)\n      callvalue\n      dup1\n      iszero\n      tag_1\n      jumpi\n      0x00\n      dup1\n      revert\n    tag_1:\n      pop\n      jumpi(tag_2, lt(calldatasize, 0x04))\n      shr(0xe0, calldataload(0x00))\n      dup1\n      0x1ea8a4f9\n      gt\n      tag_12\n      jumpi\n      dup1\n      0x1ea8a4f9\n      eq\n      tag_7\n      jumpi\n      dup1\n      0x2cd046eb\n      eq\n      tag_8\n      jumpi\n      dup1\n      0x8da5cb5b\n      eq\n      tag_9\n      jumpi\n      dup1\n      0xbf4386a0\n      eq\n      tag_10\n      jumpi\n      dup1\n      0xca6d56dc\n      eq\n      tag_11\n      jumpi\n      jump(tag_2)\n    tag_12:\n      dup1\n      0x062a7544\n      eq\n      tag_3\n      jumpi\n      dup1\n      0x08ae4b0c\n      eq\n      tag_4\n      jumpi\n      dup1\n      0x0b1ca49a\n      eq\n      tag_5\n      jumpi\n      dup1\n      0x12065fe0\n      eq\n      tag_6\n      jumpi\n    tag_2:\n      0x00\n      dup1\n      revert\n        /* \"contracts/multiholder.sol\":354:570  function sendMoney(uint256 _amount, address payable _toAddress) public {... */\n    tag_3:\n      tag_13\n      0x04\n      dup1\n      calldatasize\n      sub\n      dup2\n      add\n      swap1\n      tag_14\n      swap2\n      swap1\n      tag_15\n      jump\t// in\n    tag_14:\n      tag_16\n      jump\t// in\n    tag_13:\n      stop\n        /* \"contracts/multiholder.sol\":177:216  mapping(address => bool) public members */\n    tag_4:\n      tag_17\n      0x04\n      dup1\n      calldatasize\n      sub\n      dup2\n      add\n      swap1\n      tag_18\n      swap2\n      swap1\n      tag_19\n      jump\t// in\n    tag_18:\n      tag_20\n      jump\t// in\n    tag_17:\n      mload(0x40)\n      tag_21\n      swap2\n      swap1\n      tag_22\n      jump\t// in\n    tag_21:\n      mload(0x40)\n      dup1\n      swap2\n      sub\n      swap1\n      return\n        /* \"contracts/multiholder.sol\":811:1014  function removeMember(address _member) public {... */\n    tag_5:\n      tag_23\n      0x04\n      dup1\n      calldatasize\n      sub\n      dup2\n      add\n      swap1\n      tag_24\n      swap2\n      swap1\n      tag_19\n      jump\t// in\n    tag_24:\n      tag_25\n      jump\t// in\n    tag_23:\n      stop\n        /* \"contracts/multiholder.sol\":255:348  function getBalance() public view returns(uint) {... */\n    tag_6:\n      tag_26\n      tag_27\n      jump\t// in\n    tag_26:\n      mload(0x40)\n      tag_28\n      swap2\n      swap1\n      tag_29\n      jump\t// in\n    tag_28:\n      mload(0x40)\n      dup1\n      swap2\n      sub\n      swap1\n      return\n        /* \"contracts/multiholder.sol\":222:248  address[] public votesAddM */\n    tag_7:\n      tag_30\n      0x04\n      dup1\n      calldatasize\n      sub\n      dup2\n      add\n      swap1\n      tag_31\n      swap2\n      swap1\n      tag_32\n      jump\t// in\n    tag_31:\n      tag_33\n      jump\t// in\n    tag_30:\n      mload(0x40)\n      tag_34\n      swap2\n      swap1\n      tag_35\n      jump\t// in\n    tag_34:\n      mload(0x40)\n      dup1\n      swap2\n      sub\n      swap1\n      return\n        /* \"contracts/multiholder.sol\":145:170  uint8 public countMembers */\n    tag_8:\n      tag_36\n      tag_37\n      jump\t// in\n    tag_36:\n      mload(0x40)\n      tag_38\n      swap2\n      swap1\n      tag_39\n      jump\t// in\n    tag_38:\n      mload(0x40)\n      dup1\n      swap2\n      sub\n      swap1\n      return\n        /* \"contracts/multiholder.sol\":85:105  address public owner */\n    tag_9:\n      tag_40\n      tag_41\n      jump\t// in\n    tag_40:\n      mload(0x40)\n      tag_42\n      swap2\n      swap1\n      tag_35\n      jump\t// in\n    tag_42:\n      mload(0x40)\n      dup1\n      swap2\n      sub\n      swap1\n      return\n        /* \"contracts/multiholder.sol\":112:139  uint8 public maxMembers = 5 */\n    tag_10:\n      tag_43\n      tag_44\n      jump\t// in\n    tag_43:\n      mload(0x40)\n      tag_45\n      swap2\n      swap1\n      tag_39\n      jump\t// in\n    tag_45:\n      mload(0x40)\n      dup1\n      swap2\n      sub\n      swap1\n      return\n        /* \"contracts/multiholder.sol\":576:805  function addMember(address _member) public {... */\n    tag_11:\n      tag_46\n      0x04\n      dup1\n      calldatasize\n      sub\n      dup2\n      add\n      swap1\n      tag_47\n      swap2\n      swap1\n      tag_19\n      jump\t// in\n    tag_47:\n      tag_48\n      jump\t// in\n    tag_46:\n      stop\n        /* \"contracts/multiholder.sol\":354:570  function sendMoney(uint256 _amount, address payable _toAddress) public {... */\n    tag_16:\n        /* \"contracts/multiholder.sol\":468:475  _amount */\n      dup2\n        /* \"contracts/multiholder.sol\":443:464  address(this).balance */\n      selfbalance\n        /* \"contracts/multiholder.sol\":443:475  address(this).balance >= _amount */\n      lt\n      iszero\n        /* \"contracts/multiholder.sol\":435:476  require(address(this).balance >= _amount) */\n      tag_50\n      jumpi\n      0x00\n      dup1\n      revert\n    tag_50:\n        /* \"contracts/multiholder.sol\":504:509  owner */\n      0x00\n      dup1\n      sload\n      swap1\n      0x0100\n      exp\n      swap1\n      div\n      0xffffffffffffffffffffffffffffffffffffffff\n      and\n        /* \"contracts/multiholder.sol\":490:509  msg.sender == owner */\n      0xffffffffffffffffffffffffffffffffffffffff\n      and\n        /* \"contracts/multiholder.sol\":490:500  msg.sender */\n      caller\n        /* \"contracts/multiholder.sol\":490:509  msg.sender == owner */\n      0xffffffffffffffffffffffffffffffffffffffff\n      and\n      sub\n        /* \"contracts/multiholder.sol\":486:564  if (msg.sender == owner) {... */\n      tag_51\n      jumpi\n        /* \"contracts/multiholder.sol\":525:535  _toAddress */\n      dup1\n        /* \"contracts/multiholder.sol\":525:544  _toAddress.transfer */\n      0xffffffffffffffffffffffffffffffffffffffff\n      and\n        /* \"contracts/multiholder.sol\":525:553  _toAddress.transfer(_amount) */\n      0x08fc\n        /* \"contracts/multiholder.sol\":545:552  _amount */\n      dup4\n        /* \"contracts/multiholder.sol\":525:553  _toAddress.transfer(_amount) */\n      swap1\n      dup2\n      iszero\n      mul\n      swap1\n      mload(0x40)\n      0x00\n      mload(0x40)\n      dup1\n      dup4\n      sub\n      dup2\n      dup6\n      dup9\n      dup9\n      call\n      swap4\n      pop\n      pop\n      pop\n      pop\n      iszero\n      dup1\n      iszero\n      tag_53\n      jumpi\n      returndatasize\n      0x00\n      dup1\n      returndatacopy\n      revert(0x00, returndatasize)\n    tag_53:\n      pop\n        /* \"contracts/multiholder.sol\":486:564  if (msg.sender == owner) {... */\n    tag_51:\n        /* \"contracts/multiholder.sol\":354:570  function sendMoney(uint256 _amount, address payable _toAddress) public {... */\n      pop\n      pop\n      jump\t// out\n        /* \"contracts/multiholder.sol\":177:216  mapping(address => bool) public members */\n    tag_20:\n      mstore(0x20, 0x01)\n      dup1\n      0x00\n      mstore\n      keccak256(0x00, 0x40)\n      0x00\n      swap2\n      pop\n      sload\n      swap1\n      0x0100\n      exp\n      swap1\n      div\n      0xff\n      and\n      dup2\n      jump\t// out\n        /* \"contracts/multiholder.sol\":811:1014  function removeMember(address _member) public {... */\n    tag_25:\n        /* \"contracts/multiholder.sol\":885:890  owner */\n      0x00\n      dup1\n      sload\n      swap1\n      0x0100\n      exp\n      swap1\n      div\n      0xffffffffffffffffffffffffffffffffffffffff\n      and\n        /* \"contracts/multiholder.sol\":871:890  msg.sender == owner */\n      0xffffffffffffffffffffffffffffffffffffffff\n      and\n        /* \"contracts/multiholder.sol\":871:881  msg.sender */\n      caller\n        /* \"contracts/multiholder.sol\":871:890  msg.sender == owner */\n      0xffffffffffffffffffffffffffffffffffffffff\n      and\n      sub\n        /* \"contracts/multiholder.sol\":867:1008  if (msg.sender == owner) {... */\n      tag_55\n      jumpi\n        /* \"contracts/multiholder.sol\":914:921  members */\n      0x01\n        /* \"contracts/multiholder.sol\":914:930  members[_member] */\n      0x00\n        /* \"contracts/multiholder.sol\":922:929  _member */\n      dup3\n        /* \"contracts/multiholder.sol\":914:930  members[_member] */\n      0xffffffffffffffffffffffffffffffffffffffff\n      and\n      0xffffffffffffffffffffffffffffffffffffffff\n      and\n      dup2\n      mstore\n      0x20\n      add\n      swap1\n      dup2\n      mstore\n      0x20\n      add\n      0x00\n      keccak256\n      0x00\n      swap1\n      sload\n      swap1\n      0x0100\n      exp\n      swap1\n      div\n      0xff\n      and\n        /* \"contracts/multiholder.sol\":906:931  require(members[_member]) */\n      tag_56\n      jumpi\n      0x00\n      dup1\n      revert\n    tag_56:\n        /* \"contracts/multiholder.sol\":945:957  countMembers */\n      0x00\n      0x15\n        /* \"contracts/multiholder.sol\":945:959  countMembers-- */\n      dup2\n      dup2\n      swap1\n      sload\n      swap1\n      0x0100\n      exp\n      swap1\n      div\n      0xff\n      and\n      dup1\n      swap3\n      swap2\n      swap1\n      tag_57\n      swap1\n      tag_58\n      jump\t// in\n    tag_57:\n      swap2\n      swap1\n      0x0100\n      exp\n      dup2\n      sload\n      dup2\n      0xff\n      mul\n      not\n      and\n      swap1\n      dup4\n      0xff\n      and\n      mul\n      or\n      swap1\n      sstore\n      pop\n      pop\n        /* \"contracts/multiholder.sol\":992:997  false */\n      0x00\n        /* \"contracts/multiholder.sol\":973:980  members */\n      0x01\n        /* \"contracts/multiholder.sol\":973:989  members[_member] */\n      0x00\n        /* \"contracts/multiholder.sol\":981:988  _member */\n      dup4\n        /* \"contracts/multiholder.sol\":973:989  members[_member] */\n      0xffffffffffffffffffffffffffffffffffffffff\n      and\n      0xffffffffffffffffffffffffffffffffffffffff\n      and\n      dup2\n      mstore\n      0x20\n      add\n      swap1\n      dup2\n      mstore\n      0x20\n      add\n      0x00\n      keccak256\n      0x00\n        /* \"contracts/multiholder.sol\":973:997  members[_member] = false */\n      0x0100\n      exp\n      dup2\n      sload\n      dup2\n      0xff\n      mul\n      not\n      and\n      swap1\n      dup4\n      iszero\n      iszero\n      mul\n      or\n      swap1\n      sstore\n      pop\n        /* \"contracts/multiholder.sol\":867:1008  if (msg.sender == owner) {... */\n    tag_55:\n        /* \"contracts/multiholder.sol\":811:1014  function removeMember(address _member) public {... */\n      pop\n      jump\t// out\n        /* \"contracts/multiholder.sol\":255:348  function getBalance() public view returns(uint) {... */\n    tag_27:\n        /* \"contracts/multiholder.sol\":297:301  uint */\n      0x00\n        /* \"contracts/multiholder.sol\":320:341  address(this).balance */\n      selfbalance\n        /* \"contracts/multiholder.sol\":313:341  return address(this).balance */\n      swap1\n      pop\n        /* \"contracts/multiholder.sol\":255:348  function getBalance() public view returns(uint) {... */\n      swap1\n      jump\t// out\n        /* \"contracts/multiholder.sol\":222:248  address[] public votesAddM */\n    tag_33:\n      0x02\n      dup2\n      dup2\n      sload\n      dup2\n      lt\n      tag_60\n      jumpi\n      0x00\n      dup1\n      revert\n    tag_60:\n      swap1\n      0x00\n      mstore\n      keccak256(0x00, 0x20)\n      add\n      0x00\n      swap2\n      pop\n      sload\n      swap1\n      0x0100\n      exp\n      swap1\n      div\n      0xffffffffffffffffffffffffffffffffffffffff\n      and\n      dup2\n      jump\t// out\n        /* \"contracts/multiholder.sol\":145:170  uint8 public countMembers */\n    tag_37:\n      0x00\n      0x15\n      swap1\n      sload\n      swap1\n      0x0100\n      exp\n      swap1\n      div\n      0xff\n      and\n      dup2\n      jump\t// out\n        /* \"contracts/multiholder.sol\":85:105  address public owner */\n    tag_41:\n      0x00\n      dup1\n      sload\n      swap1\n      0x0100\n      exp\n      swap1\n      div\n      0xffffffffffffffffffffffffffffffffffffffff\n      and\n      dup2\n      jump\t// out\n        /* \"contracts/multiholder.sol\":112:139  uint8 public maxMembers = 5 */\n    tag_44:\n      0x00\n      0x14\n      swap1\n      sload\n      swap1\n      0x0100\n      exp\n      swap1\n      div\n      0xff\n      and\n      dup2\n      jump\t// out\n        /* \"contracts/multiholder.sol\":576:805  function addMember(address _member) public {... */\n    tag_48:\n        /* \"contracts/multiholder.sol\":647:652  owner */\n      0x00\n      dup1\n      sload\n      swap1\n      0x0100\n      exp\n      swap1\n      div\n      0xffffffffffffffffffffffffffffffffffffffff\n      and\n        /* \"contracts/multiholder.sol\":633:652  msg.sender == owner */\n      0xffffffffffffffffffffffffffffffffffffffff\n      and\n        /* \"contracts/multiholder.sol\":633:643  msg.sender */\n      caller\n        /* \"contracts/multiholder.sol\":633:652  msg.sender == owner */\n      0xffffffffffffffffffffffffffffffffffffffff\n      and\n      sub\n        /* \"contracts/multiholder.sol\":629:799  if (msg.sender == owner) {... */\n      tag_63\n      jumpi\n        /* \"contracts/multiholder.sol\":677:684  members */\n      0x01\n        /* \"contracts/multiholder.sol\":677:693  members[_member] */\n      0x00\n        /* \"contracts/multiholder.sol\":685:692  _member */\n      dup3\n        /* \"contracts/multiholder.sol\":677:693  members[_member] */\n      0xffffffffffffffffffffffffffffffffffffffff\n      and\n      0xffffffffffffffffffffffffffffffffffffffff\n      and\n      dup2\n      mstore\n      0x20\n      add\n      swap1\n      dup2\n      mstore\n      0x20\n      add\n      0x00\n      keccak256\n      0x00\n      swap1\n      sload\n      swap1\n      0x0100\n      exp\n      swap1\n      div\n      0xff\n      and\n        /* \"contracts/multiholder.sol\":676:693  !members[_member] */\n      iszero\n        /* \"contracts/multiholder.sol\":676:722  !members[_member] && countMembers < maxMembers */\n      dup1\n      iszero\n      tag_64\n      jumpi\n      pop\n        /* \"contracts/multiholder.sol\":712:722  maxMembers */\n      0x00\n      0x14\n      swap1\n      sload\n      swap1\n      0x0100\n      exp\n      swap1\n      div\n      0xff\n      and\n        /* \"contracts/multiholder.sol\":697:722  countMembers < maxMembers */\n      0xff\n      and\n        /* \"contracts/multiholder.sol\":697:709  countMembers */\n      0x00\n      0x15\n      swap1\n      sload\n      swap1\n      0x0100\n      exp\n      swap1\n      div\n      0xff\n      and\n        /* \"contracts/multiholder.sol\":697:722  countMembers < maxMembers */\n      0xff\n      and\n      lt\n        /* \"contracts/multiholder.sol\":676:722  !members[_member] && countMembers < maxMembers */\n    tag_64:\n        /* \"contracts/multiholder.sol\":668:723  require(!members[_member] && countMembers < maxMembers) */\n      tag_65\n      jumpi\n      0x00\n      dup1\n      revert\n    tag_65:\n        /* \"contracts/multiholder.sol\":737:749  countMembers */\n      0x00\n      0x15\n        /* \"contracts/multiholder.sol\":737:751  countMembers++ */\n      dup2\n      dup2\n      swap1\n      sload\n      swap1\n      0x0100\n      exp\n      swap1\n      div\n      0xff\n      and\n      dup1\n      swap3\n      swap2\n      swap1\n      tag_66\n      swap1\n      tag_67\n      jump\t// in\n    tag_66:\n      swap2\n      swap1\n      0x0100\n      exp\n      dup2\n      sload\n      dup2\n      0xff\n      mul\n      not\n      and\n      swap1\n      dup4\n      0xff\n      and\n      mul\n      or\n      swap1\n      sstore\n      pop\n      pop\n        /* \"contracts/multiholder.sol\":784:788  true */\n      0x01\n        /* \"contracts/multiholder.sol\":765:772  members */\n      dup1\n        /* \"contracts/multiholder.sol\":765:781  members[_member] */\n      0x00\n        /* \"contracts/multiholder.sol\":773:780  _member */\n      dup4\n        /* \"contracts/multiholder.sol\":765:781  members[_member] */\n      0xffffffffffffffffffffffffffffffffffffffff\n      and\n      0xffffffffffffffffffffffffffffffffffffffff\n      and\n      dup2\n      mstore\n      0x20\n      add\n      swap1\n      dup2\n      mstore\n      0x20\n      add\n      0x00\n      keccak256\n      0x00\n        /* \"contracts/multiholder.sol\":765:788  members[_member] = true */\n      0x0100\n      exp\n      dup2\n      sload\n      dup2\n      0xff\n      mul\n      not\n      and\n      swap1\n      dup4\n      iszero\n      iszero\n      mul\n      or\n      swap1\n      sstore\n      pop\n        /* \"contracts/multiholder.sol\":629:799  if (msg.sender == owner) {... */\n    tag_63:\n        /* \"contracts/multiholder.sol\":576:805  function addMember(address _member) public {... */\n      pop\n      jump\t// out\n        /* \"#utility.yul\":88:205   */\n    tag_69:\n        /* \"#utility.yul\":197:198   */\n      0x00\n        /* \"#utility.yul\":194:195   */\n      dup1\n        /* \"#utility.yul\":187:199   */\n      revert\n        /* \"#utility.yul\":334:411   */\n    tag_71:\n        /* \"#utility.yul\":371:378   */\n      0x00\n        /* \"#utility.yul\":400:405   */\n      dup2\n        /* \"#utility.yul\":389:405   */\n      swap1\n      pop\n        /* \"#utility.yul\":334:411   */\n      swap2\n      swap1\n      pop\n      jump\t// out\n        /* \"#utility.yul\":417:539   */\n    tag_72:\n        /* \"#utility.yul\":490:514   */\n      tag_94\n        /* \"#utility.yul\":508:513   */\n      dup2\n        /* \"#utility.yul\":490:514   */\n      tag_71\n      jump\t// in\n    tag_94:\n        /* \"#utility.yul\":483:488   */\n      dup2\n        /* \"#utility.yul\":480:515   */\n      eq\n        /* \"#utility.yul\":470:533   */\n      tag_95\n      jumpi\n        /* \"#utility.yul\":529:530   */\n      0x00\n        /* \"#utility.yul\":526:527   */\n      dup1\n        /* \"#utility.yul\":519:531   */\n      revert\n        /* \"#utility.yul\":470:533   */\n    tag_95:\n        /* \"#utility.yul\":417:539   */\n      pop\n      jump\t// out\n        /* \"#utility.yul\":545:684   */\n    tag_73:\n        /* \"#utility.yul\":591:596   */\n      0x00\n        /* \"#utility.yul\":629:635   */\n      dup2\n        /* \"#utility.yul\":616:636   */\n      calldataload\n        /* \"#utility.yul\":607:636   */\n      swap1\n      pop\n        /* \"#utility.yul\":645:678   */\n      tag_97\n        /* \"#utility.yul\":672:677   */\n      dup2\n        /* \"#utility.yul\":645:678   */\n      tag_72\n      jump\t// in\n    tag_97:\n        /* \"#utility.yul\":545:684   */\n      swap3\n      swap2\n      pop\n      pop\n      jump\t// out\n        /* \"#utility.yul\":690:816   */\n    tag_74:\n        /* \"#utility.yul\":727:734   */\n      0x00\n        /* \"#utility.yul\":767:809   */\n      0xffffffffffffffffffffffffffffffffffffffff\n        /* \"#utility.yul\":760:765   */\n      dup3\n        /* \"#utility.yul\":756:810   */\n      and\n        /* \"#utility.yul\":745:810   */\n      swap1\n      pop\n        /* \"#utility.yul\":690:816   */\n      swap2\n      swap1\n      pop\n      jump\t// out\n        /* \"#utility.yul\":822:926   */\n    tag_75:\n        /* \"#utility.yul\":867:874   */\n      0x00\n        /* \"#utility.yul\":896:920   */\n      tag_100\n        /* \"#utility.yul\":914:919   */\n      dup3\n        /* \"#utility.yul\":896:920   */\n      tag_74\n      jump\t// in\n    tag_100:\n        /* \"#utility.yul\":885:920   */\n      swap1\n      pop\n        /* \"#utility.yul\":822:926   */\n      swap2\n      swap1\n      pop\n      jump\t// out\n        /* \"#utility.yul\":932:1070   */\n    tag_76:\n        /* \"#utility.yul\":1013:1045   */\n      tag_102\n        /* \"#utility.yul\":1039:1044   */\n      dup2\n        /* \"#utility.yul\":1013:1045   */\n      tag_75\n      jump\t// in\n    tag_102:\n        /* \"#utility.yul\":1006:1011   */\n      dup2\n        /* \"#utility.yul\":1003:1046   */\n      eq\n        /* \"#utility.yul\":993:1064   */\n      tag_103\n      jumpi\n        /* \"#utility.yul\":1060:1061   */\n      0x00\n        /* \"#utility.yul\":1057:1058   */\n      dup1\n        /* \"#utility.yul\":1050:1062   */\n      revert\n        /* \"#utility.yul\":993:1064   */\n    tag_103:\n        /* \"#utility.yul\":932:1070   */\n      pop\n      jump\t// out\n        /* \"#utility.yul\":1076:1231   */\n    tag_77:\n        /* \"#utility.yul\":1130:1135   */\n      0x00\n        /* \"#utility.yul\":1168:1174   */\n      dup2\n        /* \"#utility.yul\":1155:1175   */\n      calldataload\n        /* \"#utility.yul\":1146:1175   */\n      swap1\n      pop\n        /* \"#utility.yul\":1184:1225   */\n      tag_105\n        /* \"#utility.yul\":1219:1224   */\n      dup2\n        /* \"#utility.yul\":1184:1225   */\n      tag_76\n      jump\t// in\n    tag_105:\n        /* \"#utility.yul\":1076:1231   */\n      swap3\n      swap2\n      pop\n      pop\n      jump\t// out\n        /* \"#utility.yul\":1237:1727   */\n    tag_15:\n        /* \"#utility.yul\":1313:1319   */\n      0x00\n        /* \"#utility.yul\":1321:1327   */\n      dup1\n        /* \"#utility.yul\":1370:1372   */\n      0x40\n        /* \"#utility.yul\":1358:1367   */\n      dup4\n        /* \"#utility.yul\":1349:1356   */\n      dup6\n        /* \"#utility.yul\":1345:1368   */\n      sub\n        /* \"#utility.yul\":1341:1373   */\n      slt\n        /* \"#utility.yul\":1338:1457   */\n      iszero\n      tag_107\n      jumpi\n        /* \"#utility.yul\":1376:1455   */\n      tag_108\n      tag_69\n      jump\t// in\n    tag_108:\n        /* \"#utility.yul\":1338:1457   */\n    tag_107:\n        /* \"#utility.yul\":1496:1497   */\n      0x00\n        /* \"#utility.yul\":1521:1574   */\n      tag_109\n        /* \"#utility.yul\":1566:1573   */\n      dup6\n        /* \"#utility.yul\":1557:1563   */\n      dup3\n        /* \"#utility.yul\":1546:1555   */\n      dup7\n        /* \"#utility.yul\":1542:1564   */\n      add\n        /* \"#utility.yul\":1521:1574   */\n      tag_73\n      jump\t// in\n    tag_109:\n        /* \"#utility.yul\":1511:1574   */\n      swap3\n      pop\n        /* \"#utility.yul\":1467:1584   */\n      pop\n        /* \"#utility.yul\":1623:1625   */\n      0x20\n        /* \"#utility.yul\":1649:1710   */\n      tag_110\n        /* \"#utility.yul\":1702:1709   */\n      dup6\n        /* \"#utility.yul\":1693:1699   */\n      dup3\n        /* \"#utility.yul\":1682:1691   */\n      dup7\n        /* \"#utility.yul\":1678:1700   */\n      add\n        /* \"#utility.yul\":1649:1710   */\n      tag_77\n      jump\t// in\n    tag_110:\n        /* \"#utility.yul\":1639:1710   */\n      swap2\n      pop\n        /* \"#utility.yul\":1594:1720   */\n      pop\n        /* \"#utility.yul\":1237:1727   */\n      swap3\n      pop\n      swap3\n      swap1\n      pop\n      jump\t// out\n        /* \"#utility.yul\":1733:1829   */\n    tag_78:\n        /* \"#utility.yul\":1770:1777   */\n      0x00\n        /* \"#utility.yul\":1799:1823   */\n      tag_112\n        /* \"#utility.yul\":1817:1822   */\n      dup3\n        /* \"#utility.yul\":1799:1823   */\n      tag_74\n      jump\t// in\n    tag_112:\n        /* \"#utility.yul\":1788:1823   */\n      swap1\n      pop\n        /* \"#utility.yul\":1733:1829   */\n      swap2\n      swap1\n      pop\n      jump\t// out\n        /* \"#utility.yul\":1835:1957   */\n    tag_79:\n        /* \"#utility.yul\":1908:1932   */\n      tag_114\n        /* \"#utility.yul\":1926:1931   */\n      dup2\n        /* \"#utility.yul\":1908:1932   */\n      tag_78\n      jump\t// in\n    tag_114:\n        /* \"#utility.yul\":1901:1906   */\n      dup2\n        /* \"#utility.yul\":1898:1933   */\n      eq\n        /* \"#utility.yul\":1888:1951   */\n      tag_115\n      jumpi\n        /* \"#utility.yul\":1947:1948   */\n      0x00\n        /* \"#utility.yul\":1944:1945   */\n      dup1\n        /* \"#utility.yul\":1937:1949   */\n      revert\n        /* \"#utility.yul\":1888:1951   */\n    tag_115:\n        /* \"#utility.yul\":1835:1957   */\n      pop\n      jump\t// out\n        /* \"#utility.yul\":1963:2102   */\n    tag_80:\n        /* \"#utility.yul\":2009:2014   */\n      0x00\n        /* \"#utility.yul\":2047:2053   */\n      dup2\n        /* \"#utility.yul\":2034:2054   */\n      calldataload\n        /* \"#utility.yul\":2025:2054   */\n      swap1\n      pop\n        /* \"#utility.yul\":2063:2096   */\n      tag_117\n        /* \"#utility.yul\":2090:2095   */\n      dup2\n        /* \"#utility.yul\":2063:2096   */\n      tag_79\n      jump\t// in\n    tag_117:\n        /* \"#utility.yul\":1963:2102   */\n      swap3\n      swap2\n      pop\n      pop\n      jump\t// out\n        /* \"#utility.yul\":2108:2437   */\n    tag_19:\n        /* \"#utility.yul\":2167:2173   */\n      0x00\n        /* \"#utility.yul\":2216:2218   */\n      0x20\n        /* \"#utility.yul\":2204:2213   */\n      dup3\n        /* \"#utility.yul\":2195:2202   */\n      dup5\n        /* \"#utility.yul\":2191:2214   */\n      sub\n        /* \"#utility.yul\":2187:2219   */\n      slt\n        /* \"#utility.yul\":2184:2303   */\n      iszero\n      tag_119\n      jumpi\n        /* \"#utility.yul\":2222:2301   */\n      tag_120\n      tag_69\n      jump\t// in\n    tag_120:\n        /* \"#utility.yul\":2184:2303   */\n    tag_119:\n        /* \"#utility.yul\":2342:2343   */\n      0x00\n        /* \"#utility.yul\":2367:2420   */\n      tag_121\n        /* \"#utility.yul\":2412:2419   */\n      dup5\n        /* \"#utility.yul\":2403:2409   */\n      dup3\n        /* \"#utility.yul\":2392:2401   */\n      dup6\n        /* \"#utility.yul\":2388:2410   */\n      add\n        /* \"#utility.yul\":2367:2420   */\n      tag_80\n      jump\t// in\n    tag_121:\n        /* \"#utility.yul\":2357:2420   */\n      swap2\n      pop\n        /* \"#utility.yul\":2313:2430   */\n      pop\n        /* \"#utility.yul\":2108:2437   */\n      swap3\n      swap2\n      pop\n      pop\n      jump\t// out\n        /* \"#utility.yul\":2443:2533   */\n    tag_81:\n        /* \"#utility.yul\":2477:2484   */\n      0x00\n        /* \"#utility.yul\":2520:2525   */\n      dup2\n        /* \"#utility.yul\":2513:2526   */\n      iszero\n        /* \"#utility.yul\":2506:2527   */\n      iszero\n        /* \"#utility.yul\":2495:2527   */\n      swap1\n      pop\n        /* \"#utility.yul\":2443:2533   */\n      swap2\n      swap1\n      pop\n      jump\t// out\n        /* \"#utility.yul\":2539:2648   */\n    tag_82:\n        /* \"#utility.yul\":2620:2641   */\n      tag_124\n        /* \"#utility.yul\":2635:2640   */\n      dup2\n        /* \"#utility.yul\":2620:2641   */\n      tag_81\n      jump\t// in\n    tag_124:\n        /* \"#utility.yul\":2615:2618   */\n      dup3\n        /* \"#utility.yul\":2608:2642   */\n      mstore\n        /* \"#utility.yul\":2539:2648   */\n      pop\n      pop\n      jump\t// out\n        /* \"#utility.yul\":2654:2864   */\n    tag_22:\n        /* \"#utility.yul\":2741:2745   */\n      0x00\n        /* \"#utility.yul\":2779:2781   */\n      0x20\n        /* \"#utility.yul\":2768:2777   */\n      dup3\n        /* \"#utility.yul\":2764:2782   */\n      add\n        /* \"#utility.yul\":2756:2782   */\n      swap1\n      pop\n        /* \"#utility.yul\":2792:2857   */\n      tag_126\n        /* \"#utility.yul\":2854:2855   */\n      0x00\n        /* \"#utility.yul\":2843:2852   */\n      dup4\n        /* \"#utility.yul\":2839:2856   */\n      add\n        /* \"#utility.yul\":2830:2836   */\n      dup5\n        /* \"#utility.yul\":2792:2857   */\n      tag_82\n      jump\t// in\n    tag_126:\n        /* \"#utility.yul\":2654:2864   */\n      swap3\n      swap2\n      pop\n      pop\n      jump\t// out\n        /* \"#utility.yul\":2870:2988   */\n    tag_83:\n        /* \"#utility.yul\":2957:2981   */\n      tag_128\n        /* \"#utility.yul\":2975:2980   */\n      dup2\n        /* \"#utility.yul\":2957:2981   */\n      tag_71\n      jump\t// in\n    tag_128:\n        /* \"#utility.yul\":2952:2955   */\n      dup3\n        /* \"#utility.yul\":2945:2982   */\n      mstore\n        /* \"#utility.yul\":2870:2988   */\n      pop\n      pop\n      jump\t// out\n        /* \"#utility.yul\":2994:3216   */\n    tag_29:\n        /* \"#utility.yul\":3087:3091   */\n      0x00\n        /* \"#utility.yul\":3125:3127   */\n      0x20\n        /* \"#utility.yul\":3114:3123   */\n      dup3\n        /* \"#utility.yul\":3110:3128   */\n      add\n        /* \"#utility.yul\":3102:3128   */\n      swap1\n      pop\n        /* \"#utility.yul\":3138:3209   */\n      tag_130\n        /* \"#utility.yul\":3206:3207   */\n      0x00\n        /* \"#utility.yul\":3195:3204   */\n      dup4\n        /* \"#utility.yul\":3191:3208   */\n      add\n        /* \"#utility.yul\":3182:3188   */\n      dup5\n        /* \"#utility.yul\":3138:3209   */\n      tag_83\n      jump\t// in\n    tag_130:\n        /* \"#utility.yul\":2994:3216   */\n      swap3\n      swap2\n      pop\n      pop\n      jump\t// out\n        /* \"#utility.yul\":3222:3551   */\n    tag_32:\n        /* \"#utility.yul\":3281:3287   */\n      0x00\n        /* \"#utility.yul\":3330:3332   */\n      0x20\n        /* \"#utility.yul\":3318:3327   */\n      dup3\n        /* \"#utility.yul\":3309:3316   */\n      dup5\n        /* \"#utility.yul\":3305:3328   */\n      sub\n        /* \"#utility.yul\":3301:3333   */\n      slt\n        /* \"#utility.yul\":3298:3417   */\n      iszero\n      tag_132\n      jumpi\n        /* \"#utility.yul\":3336:3415   */\n      tag_133\n      tag_69\n      jump\t// in\n    tag_133:\n        /* \"#utility.yul\":3298:3417   */\n    tag_132:\n        /* \"#utility.yul\":3456:3457   */\n      0x00\n        /* \"#utility.yul\":3481:3534   */\n      tag_134\n        /* \"#utility.yul\":3526:3533   */\n      dup5\n        /* \"#utility.yul\":3517:3523   */\n      dup3\n        /* \"#utility.yul\":3506:3515   */\n      dup6\n        /* \"#utility.yul\":3502:3524   */\n      add\n        /* \"#utility.yul\":3481:3534   */\n      tag_73\n      jump\t// in\n    tag_134:\n        /* \"#utility.yul\":3471:3534   */\n      swap2\n      pop\n        /* \"#utility.yul\":3427:3544   */\n      pop\n        /* \"#utility.yul\":3222:3551   */\n      swap3\n      swap2\n      pop\n      pop\n      jump\t// out\n        /* \"#utility.yul\":3557:3675   */\n    tag_84:\n        /* \"#utility.yul\":3644:3668   */\n      tag_136\n        /* \"#utility.yul\":3662:3667   */\n      dup2\n        /* \"#utility.yul\":3644:3668   */\n      tag_78\n      jump\t// in\n    tag_136:\n        /* \"#utility.yul\":3639:3642   */\n      dup3\n        /* \"#utility.yul\":3632:3669   */\n      mstore\n        /* \"#utility.yul\":3557:3675   */\n      pop\n      pop\n      jump\t// out\n        /* \"#utility.yul\":3681:3903   */\n    tag_35:\n        /* \"#utility.yul\":3774:3778   */\n      0x00\n        /* \"#utility.yul\":3812:3814   */\n      0x20\n        /* \"#utility.yul\":3801:3810   */\n      dup3\n        /* \"#utility.yul\":3797:3815   */\n      add\n        /* \"#utility.yul\":3789:3815   */\n      swap1\n      pop\n        /* \"#utility.yul\":3825:3896   */\n      tag_138\n        /* \"#utility.yul\":3893:3894   */\n      0x00\n        /* \"#utility.yul\":3882:3891   */\n      dup4\n        /* \"#utility.yul\":3878:3895   */\n      add\n        /* \"#utility.yul\":3869:3875   */\n      dup5\n        /* \"#utility.yul\":3825:3896   */\n      tag_84\n      jump\t// in\n    tag_138:\n        /* \"#utility.yul\":3681:3903   */\n      swap3\n      swap2\n      pop\n      pop\n      jump\t// out\n        /* \"#utility.yul\":3909:3995   */\n    tag_85:\n        /* \"#utility.yul\":3944:3951   */\n      0x00\n        /* \"#utility.yul\":3984:3988   */\n      0xff\n        /* \"#utility.yul\":3977:3982   */\n      dup3\n        /* \"#utility.yul\":3973:3989   */\n      and\n        /* \"#utility.yul\":3962:3989   */\n      swap1\n      pop\n        /* \"#utility.yul\":3909:3995   */\n      swap2\n      swap1\n      pop\n      jump\t// out\n        /* \"#utility.yul\":4001:4113   */\n    tag_86:\n        /* \"#utility.yul\":4084:4106   */\n      tag_141\n        /* \"#utility.yul\":4100:4105   */\n      dup2\n        /* \"#utility.yul\":4084:4106   */\n      tag_85\n      jump\t// in\n    tag_141:\n        /* \"#utility.yul\":4079:4082   */\n      dup3\n        /* \"#utility.yul\":4072:4107   */\n      mstore\n        /* \"#utility.yul\":4001:4113   */\n      pop\n      pop\n      jump\t// out\n        /* \"#utility.yul\":4119:4333   */\n    tag_39:\n        /* \"#utility.yul\":4208:4212   */\n      0x00\n        /* \"#utility.yul\":4246:4248   */\n      0x20\n        /* \"#utility.yul\":4235:4244   */\n      dup3\n        /* \"#utility.yul\":4231:4249   */\n      add\n        /* \"#utility.yul\":4223:4249   */\n      swap1\n      pop\n        /* \"#utility.yul\":4259:4326   */\n      tag_143\n        /* \"#utility.yul\":4323:4324   */\n      0x00\n        /* \"#utility.yul\":4312:4321   */\n      dup4\n        /* \"#utility.yul\":4308:4325   */\n      add\n        /* \"#utility.yul\":4299:4305   */\n      dup5\n        /* \"#utility.yul\":4259:4326   */\n      tag_86\n      jump\t// in\n    tag_143:\n        /* \"#utility.yul\":4119:4333   */\n      swap3\n      swap2\n      pop\n      pop\n      jump\t// out\n        /* \"#utility.yul\":4339:4519   */\n    tag_87:\n        /* \"#utility.yul\":4387:4464   */\n      0x4e487b7100000000000000000000000000000000000000000000000000000000\n        /* \"#utility.yul\":4384:4385   */\n      0x00\n        /* \"#utility.yul\":4377:4465   */\n      mstore\n        /* \"#utility.yul\":4484:4488   */\n      0x11\n        /* \"#utility.yul\":4481:4482   */\n      0x04\n        /* \"#utility.yul\":4474:4489   */\n      mstore\n        /* \"#utility.yul\":4508:4512   */\n      0x24\n        /* \"#utility.yul\":4505:4506   */\n      0x00\n        /* \"#utility.yul\":4498:4513   */\n      revert\n        /* \"#utility.yul\":4525:4692   */\n    tag_58:\n        /* \"#utility.yul\":4562:4565   */\n      0x00\n        /* \"#utility.yul\":4585:4607   */\n      tag_146\n        /* \"#utility.yul\":4601:4606   */\n      dup3\n        /* \"#utility.yul\":4585:4607   */\n      tag_85\n      jump\t// in\n    tag_146:\n        /* \"#utility.yul\":4576:4607   */\n      swap2\n      pop\n        /* \"#utility.yul\":4629:4633   */\n      0x00\n        /* \"#utility.yul\":4622:4627   */\n      dup3\n        /* \"#utility.yul\":4619:4634   */\n      sub\n        /* \"#utility.yul\":4616:4657   */\n      tag_147\n      jumpi\n        /* \"#utility.yul\":4637:4655   */\n      tag_148\n      tag_87\n      jump\t// in\n    tag_148:\n        /* \"#utility.yul\":4616:4657   */\n    tag_147:\n        /* \"#utility.yul\":4684:4685   */\n      0x01\n        /* \"#utility.yul\":4677:4682   */\n      dup3\n        /* \"#utility.yul\":4673:4686   */\n      sub\n        /* \"#utility.yul\":4666:4686   */\n      swap1\n      pop\n        /* \"#utility.yul\":4525:4692   */\n      swap2\n      swap1\n      pop\n      jump\t// out\n        /* \"#utility.yul\":4698:4865   */\n    tag_67:\n        /* \"#utility.yul\":4735:4738   */\n      0x00\n        /* \"#utility.yul\":4758:4780   */\n      tag_150\n        /* \"#utility.yul\":4774:4779   */\n      dup3\n        /* \"#utility.yul\":4758:4780   */\n      tag_85\n      jump\t// in\n    tag_150:\n        /* \"#utility.yul\":4749:4780   */\n      swap2\n      pop\n        /* \"#utility.yul\":4802:4806   */\n      0xff\n        /* \"#utility.yul\":4795:4800   */\n      dup3\n        /* \"#utility.yul\":4792:4807   */\n      sub\n        /* \"#utility.yul\":4789:4830   */\n      tag_151\n      jumpi\n        /* \"#utility.yul\":4810:4828   */\n      tag_152\n      tag_87\n      jump\t// in\n    tag_152:\n        /* \"#utility.yul\":4789:4830   */\n    tag_151:\n        /* \"#utility.yul\":4857:4858   */\n      0x01\n        /* \"#utility.yul\":4850:4855   */\n      dup3\n        /* \"#utility.yul\":4846:4859   */\n      add\n        /* \"#utility.yul\":4839:4859   */\n      swap1\n      pop\n        /* \"#utility.yul\":4698:4865   */\n      swap2\n      swap1\n      pop\n      jump\t// out\n\n    auxdata: 0xa2646970667358221220f809a9fd827438fd9ac6275de0ac765d7c5fa62a5f50d6da02644cedf3df461a64736f6c63430008120033\n}\n",
				"bytecode": {
					"linkReferences": {},
					"object": "60806040526005600060146101000a81548160ff021916908360ff16021790555034801561002c57600080fd5b506108b38061003c6000396000f3fe608060405234801561001057600080fd5b50600436106100935760003560e01c80631ea8a4f9116100665780631ea8a4f91461011e5780632cd046eb1461014e5780638da5cb5b1461016c578063bf4386a01461018a578063ca6d56dc146101a857610093565b8063062a75441461009857806308ae4b0c146100b45780630b1ca49a146100e457806312065fe014610100575b600080fd5b6100b260048036038101906100ad9190610663565b6101c4565b005b6100ce60048036038101906100c991906106e1565b610270565b6040516100db9190610729565b60405180910390f35b6100fe60048036038101906100f991906106e1565b610290565b005b6101086103cd565b6040516101159190610753565b60405180910390f35b6101386004803603810190610133919061076e565b6103d5565b60405161014591906107aa565b60405180910390f35b610156610414565b60405161016391906107e1565b60405180910390f35b610174610427565b60405161018191906107aa565b60405180910390f35b61019261044b565b60405161019f91906107e1565b60405180910390f35b6101c260048036038101906101bd91906106e1565b61045e565b005b814710156101d157600080fd5b60008054906101000a900473ffffffffffffffffffffffffffffffffffffffff1673ffffffffffffffffffffffffffffffffffffffff163373ffffffffffffffffffffffffffffffffffffffff160361026c578073ffffffffffffffffffffffffffffffffffffffff166108fc839081150290604051600060405180830381858888f1935050505015801561026a573d6000803e3d6000fd5b505b5050565b60016020528060005260406000206000915054906101000a900460ff1681565b60008054906101000a900473ffffffffffffffffffffffffffffffffffffffff1673ffffffffffffffffffffffffffffffffffffffff163373ffffffffffffffffffffffffffffffffffffffff16036103ca57600160008273ffffffffffffffffffffffffffffffffffffffff1673ffffffffffffffffffffffffffffffffffffffff16815260200190815260200160002060009054906101000a900460ff1661033957600080fd5b6000601581819054906101000a900460ff16809291906103589061082b565b91906101000a81548160ff021916908360ff160217905550506000600160008373ffffffffffffffffffffffffffffffffffffffff1673ffffffffffffffffffffffffffffffffffffffff16815260200190815260200160002060006101000a81548160ff0219169083151502179055505b50565b600047905090565b600281815481106103e557600080fd5b906000526020600020016000915054906101000a900473ffffffffffffffffffffffffffffffffffffffff1681565b600060159054906101000a900460ff1681565b60008054906101000a900473ffffffffffffffffffffffffffffffffffffffff1681565b600060149054906101000a900460ff1681565b60008054906101000a900473ffffffffffffffffffffffffffffffffffffffff1673ffffffffffffffffffffffffffffffffffffffff163373ffffffffffffffffffffffffffffffffffffffff16036105c757600160008273ffffffffffffffffffffffffffffffffffffffff1673ffffffffffffffffffffffffffffffffffffffff16815260200190815260200160002060009054906101000a900460ff1615801561052e5750600060149054906101000a900460ff1660ff16600060159054906101000a900460ff1660ff16105b61053757600080fd5b6000601581819054906101000a900460ff168092919061055690610854565b91906101000a81548160ff021916908360ff1602179055505060018060008373ffffffffffffffffffffffffffffffffffffffff1673ffffffffffffffffffffffffffffffffffffffff16815260200190815260200160002060006101000a81548160ff0219169083151502179055505b50565b600080fd5b6000819050919050565b6105e2816105cf565b81146105ed57600080fd5b50565b6000813590506105ff816105d9565b92915050565b600073ffffffffffffffffffffffffffffffffffffffff82169050919050565b600061063082610605565b9050919050565b61064081610625565b811461064b57600080fd5b50565b60008135905061065d81610637565b92915050565b6000806040838503121561067a576106796105ca565b5b6000610688858286016105f0565b92505060206106998582860161064e565b9150509250929050565b60006106ae82610605565b9050919050565b6106be816106a3565b81146106c957600080fd5b50565b6000813590506106db816106b5565b92915050565b6000602082840312156106f7576106f66105ca565b5b6000610705848285016106cc565b91505092915050565b60008115159050919050565b6107238161070e565b82525050565b600060208201905061073e600083018461071a565b92915050565b61074d816105cf565b82525050565b60006020820190506107686000830184610744565b92915050565b600060208284031215610784576107836105ca565b5b6000610792848285016105f0565b91505092915050565b6107a4816106a3565b82525050565b60006020820190506107bf600083018461079b565b92915050565b600060ff82169050919050565b6107db816107c5565b82525050565b60006020820190506107f660008301846107d2565b92915050565b7f4e487b7100000000000000000000000000000000000000000000000000000000600052601160045260246000fd5b6000610836826107c5565b915060008203610849576108486107fc565b5b600182039050919050565b600061085f826107c5565b915060ff8203610872576108716107fc565b5b60018201905091905056fea2646970667358221220f809a9fd827438fd9ac6275de0ac765d7c5fa62a5f50d6da02644cedf3df461a64736f6c63430008120033",
					"opcodes": "PUSH1 0x80 PUSH1 0x40 MSTORE PUSH1 0x5 PUSH1 0x0 PUSH1 0x14 PUSH2 0x100 EXP DUP2 SLOAD DUP2 PUSH1 0xFF MUL NOT AND SWAP1 DUP4 PUSH1 0xFF AND MUL OR SWAP1 SSTORE POP CALLVALUE DUP1 ISZERO PUSH2 0x2C JUMPI PUSH1 0x0 DUP1 REVERT JUMPDEST POP PUSH2 0x8B3 DUP1 PUSH2 0x3C PUSH1 0x0 CODECOPY PUSH1 0x0 RETURN INVALID PUSH1 0x80 PUSH1 0x40 MSTORE CALLVALUE DUP1 ISZERO PUSH2 0x10 JUMPI PUSH1 0x0 DUP1 REVERT JUMPDEST POP PUSH1 0x4 CALLDATASIZE LT PUSH2 0x93 JUMPI PUSH1 0x0 CALLDATALOAD PUSH1 0xE0 SHR DUP1 PUSH4 0x1EA8A4F9 GT PUSH2 0x66 JUMPI DUP1 PUSH4 0x1EA8A4F9 EQ PUSH2 0x11E JUMPI DUP1 PUSH4 0x2CD046EB EQ PUSH2 0x14E JUMPI DUP1 PUSH4 0x8DA5CB5B EQ PUSH2 0x16C JUMPI DUP1 PUSH4 0xBF4386A0 EQ PUSH2 0x18A JUMPI DUP1 PUSH4 0xCA6D56DC EQ PUSH2 0x1A8 JUMPI PUSH2 0x93 JUMP JUMPDEST DUP1 PUSH4 0x62A7544 EQ PUSH2 0x98 JUMPI DUP1 PUSH4 0x8AE4B0C EQ PUSH2 0xB4 JUMPI DUP1 PUSH4 0xB1CA49A EQ PUSH2 0xE4 JUMPI DUP1 PUSH4 0x12065FE0 EQ PUSH2 0x100 JUMPI JUMPDEST PUSH1 0x0 DUP1 REVERT JUMPDEST PUSH2 0xB2 PUSH1 0x4 DUP1 CALLDATASIZE SUB DUP2 ADD SWAP1 PUSH2 0xAD SWAP2 SWAP1 PUSH2 0x663 JUMP JUMPDEST PUSH2 0x1C4 JUMP JUMPDEST STOP JUMPDEST PUSH2 0xCE PUSH1 0x4 DUP1 CALLDATASIZE SUB DUP2 ADD SWAP1 PUSH2 0xC9 SWAP2 SWAP1 PUSH2 0x6E1 JUMP JUMPDEST PUSH2 0x270 JUMP JUMPDEST PUSH1 0x40 MLOAD PUSH2 0xDB SWAP2 SWAP1 PUSH2 0x729 JUMP JUMPDEST PUSH1 0x40 MLOAD DUP1 SWAP2 SUB SWAP1 RETURN JUMPDEST PUSH2 0xFE PUSH1 0x4 DUP1 CALLDATASIZE SUB DUP2 ADD SWAP1 PUSH2 0xF9 SWAP2 SWAP1 PUSH2 0x6E1 JUMP JUMPDEST PUSH2 0x290 JUMP JUMPDEST STOP JUMPDEST PUSH2 0x108 PUSH2 0x3CD JUMP JUMPDEST PUSH1 0x40 MLOAD PUSH2 0x115 SWAP2 SWAP1 PUSH2 0x753 JUMP JUMPDEST PUSH1 0x40 MLOAD DUP1 SWAP2 SUB SWAP1 RETURN JUMPDEST PUSH2 0x138 PUSH1 0x4 DUP1 CALLDATASIZE SUB DUP2 ADD SWAP1 PUSH2 0x133 SWAP2 SWAP1 PUSH2 0x76E JUMP JUMPDEST PUSH2 0x3D5 JUMP JUMPDEST PUSH1 0x40 MLOAD PUSH2 0x145 SWAP2 SWAP1 PUSH2 0x7AA JUMP JUMPDEST PUSH1 0x40 MLOAD DUP1 SWAP2 SUB SWAP1 RETURN JUMPDEST PUSH2 0x156 PUSH2 0x414 JUMP JUMPDEST PUSH1 0x40 MLOAD PUSH2 0x163 SWAP2 SWAP1 PUSH2 0x7E1 JUMP JUMPDEST PUSH1 0x40 MLOAD DUP1 SWAP2 SUB SWAP1 RETURN JUMPDEST PUSH2 0x174 PUSH2 0x427 JUMP JUMPDEST PUSH1 0x40 MLOAD PUSH2 0x181 SWAP2 SWAP1 PUSH2 0x7AA JUMP JUMPDEST PUSH1 0x40 MLOAD DUP1 SWAP2 SUB SWAP1 RETURN JUMPDEST PUSH2 0x192 PUSH2 0x44B JUMP JUMPDEST PUSH1 0x40 MLOAD PUSH2 0x19F SWAP2 SWAP1 PUSH2 0x7E1 JUMP JUMPDEST PUSH1 0x40 MLOAD DUP1 SWAP2 SUB SWAP1 RETURN JUMPDEST PUSH2 0x1C2 PUSH1 0x4 DUP1 CALLDATASIZE SUB DUP2 ADD SWAP1 PUSH2 0x1BD SWAP2 SWAP1 PUSH2 0x6E1 JUMP JUMPDEST PUSH2 0x45E JUMP JUMPDEST STOP JUMPDEST DUP2 SELFBALANCE LT ISZERO PUSH2 0x1D1 JUMPI PUSH1 0x0 DUP1 REVERT JUMPDEST PUSH1 0x0 DUP1 SLOAD SWAP1 PUSH2 0x100 EXP SWAP1 DIV PUSH20 0xFFFFFFFFFFFFFFFFFFFFFFFFFFFFFFFFFFFFFFFF AND PUSH20 0xFFFFFFFFFFFFFFFFFFFFFFFFFFFFFFFFFFFFFFFF AND CALLER PUSH20 0xFFFFFFFFFFFFFFFFFFFFFFFFFFFFFFFFFFFFFFFF AND SUB PUSH2 0x26C JUMPI DUP1 PUSH20 0xFFFFFFFFFFFFFFFFFFFFFFFFFFFFFFFFFFFFFFFF AND PUSH2 0x8FC DUP4 SWAP1 DUP2 ISZERO MUL SWAP1 PUSH1 0x40 MLOAD PUSH1 0x0 PUSH1 0x40 MLOAD DUP1 DUP4 SUB DUP2 DUP6 DUP9 DUP9 CALL SWAP4 POP POP POP POP ISZERO DUP1 ISZERO PUSH2 0x26A JUMPI RETURNDATASIZE PUSH1 0x0 DUP1 RETURNDATACOPY RETURNDATASIZE PUSH1 0x0 REVERT JUMPDEST POP JUMPDEST POP POP JUMP JUMPDEST PUSH1 0x1 PUSH1 0x20 MSTORE DUP1 PUSH1 0x0 MSTORE PUSH1 0x40 PUSH1 0x0 KECCAK256 PUSH1 0x0 SWAP2 POP SLOAD SWAP1 PUSH2 0x100 EXP SWAP1 DIV PUSH1 0xFF AND DUP2 JUMP JUMPDEST PUSH1 0x0 DUP1 SLOAD SWAP1 PUSH2 0x100 EXP SWAP1 DIV PUSH20 0xFFFFFFFFFFFFFFFFFFFFFFFFFFFFFFFFFFFFFFFF AND PUSH20 0xFFFFFFFFFFFFFFFFFFFFFFFFFFFFFFFFFFFFFFFF AND CALLER PUSH20 0xFFFFFFFFFFFFFFFFFFFFFFFFFFFFFFFFFFFFFFFF AND SUB PUSH2 0x3CA JUMPI PUSH1 0x1 PUSH1 0x0 DUP3 PUSH20 0xFFFFFFFFFFFFFFFFFFFFFFFFFFFFFFFFFFFFFFFF AND PUSH20 0xFFFFFFFFFFFFFFFFFFFFFFFFFFFFFFFFFFFFFFFF AND DUP2 MSTORE PUSH1 0x20 ADD SWAP1 DUP2 MSTORE PUSH1 0x20 ADD PUSH1 0x0 KECCAK256 PUSH1 0x0 SWAP1 SLOAD SWAP1 PUSH2 0x100 EXP SWAP1 DIV PUSH1 0xFF AND PUSH2 0x339 JUMPI PUSH1 0x0 DUP1 REVERT JUMPDEST PUSH1 0x0 PUSH1 0x15 DUP2 DUP2 SWAP1 SLOAD SWAP1 PUSH2 0x100 EXP SWAP1 DIV PUSH1 0xFF AND DUP1 SWAP3 SWAP2 SWAP1 PUSH2 0x358 SWAP1 PUSH2 0x82B JUMP JUMPDEST SWAP2 SWAP1 PUSH2 0x100 EXP DUP2 SLOAD DUP2 PUSH1 0xFF MUL NOT AND SWAP1 DUP4 PUSH1 0xFF AND MUL OR SWAP1 SSTORE POP POP PUSH1 0x0 PUSH1 0x1 PUSH1 0x0 DUP4 PUSH20 0xFFFFFFFFFFFFFFFFFFFFFFFFFFFFFFFFFFFFFFFF AND PUSH20 0xFFFFFFFFFFFFFFFFFFFFFFFFFFFFFFFFFFFFFFFF AND DUP2 MSTORE PUSH1 0x20 ADD SWAP1 DUP2 MSTORE PUSH1 0x20 ADD PUSH1 0x0 KECCAK256 PUSH1 0x0 PUSH2 0x100 EXP DUP2 SLOAD DUP2 PUSH1 0xFF MUL NOT AND SWAP1 DUP4 ISZERO ISZERO MUL OR SWAP1 SSTORE POP JUMPDEST POP JUMP JUMPDEST PUSH1 0x0 SELFBALANCE SWAP1 POP SWAP1 JUMP JUMPDEST PUSH1 0x2 DUP2 DUP2 SLOAD DUP2 LT PUSH2 0x3E5 JUMPI PUSH1 0x0 DUP1 REVERT JUMPDEST SWAP1 PUSH1 0x0 MSTORE PUSH1 0x20 PUSH1 0x0 KECCAK256 ADD PUSH1 0x0 SWAP2 POP SLOAD SWAP1 PUSH2 0x100 EXP SWAP1 DIV PUSH20 0xFFFFFFFFFFFFFFFFFFFFFFFFFFFFFFFFFFFFFFFF AND DUP2 JUMP JUMPDEST PUSH1 0x0 PUSH1 0x15 SWAP1 SLOAD SWAP1 PUSH2 0x100 EXP SWAP1 DIV PUSH1 0xFF AND DUP2 JUMP JUMPDEST PUSH1 0x0 DUP1 SLOAD SWAP1 PUSH2 0x100 EXP SWAP1 DIV PUSH20 0xFFFFFFFFFFFFFFFFFFFFFFFFFFFFFFFFFFFFFFFF AND DUP2 JUMP JUMPDEST PUSH1 0x0 PUSH1 0x14 SWAP1 SLOAD SWAP1 PUSH2 0x100 EXP SWAP1 DIV PUSH1 0xFF AND DUP2 JUMP JUMPDEST PUSH1 0x0 DUP1 SLOAD SWAP1 PUSH2 0x100 EXP SWAP1 DIV PUSH20 0xFFFFFFFFFFFFFFFFFFFFFFFFFFFFFFFFFFFFFFFF AND PUSH20 0xFFFFFFFFFFFFFFFFFFFFFFFFFFFFFFFFFFFFFFFF AND CALLER PUSH20 0xFFFFFFFFFFFFFFFFFFFFFFFFFFFFFFFFFFFFFFFF AND SUB PUSH2 0x5C7 JUMPI PUSH1 0x1 PUSH1 0x0 DUP3 PUSH20 0xFFFFFFFFFFFFFFFFFFFFFFFFFFFFFFFFFFFFFFFF AND PUSH20 0xFFFFFFFFFFFFFFFFFFFFFFFFFFFFFFFFFFFFFFFF AND DUP2 MSTORE PUSH1 0x20 ADD SWAP1 DUP2 MSTORE PUSH1 0x20 ADD PUSH1 0x0 KECCAK256 PUSH1 0x0 SWAP1 SLOAD SWAP1 PUSH2 0x100 EXP SWAP1 DIV PUSH1 0xFF AND ISZERO DUP1 ISZERO PUSH2 0x52E JUMPI POP PUSH1 0x0 PUSH1 0x14 SWAP1 SLOAD SWAP1 PUSH2 0x100 EXP SWAP1 DIV PUSH1 0xFF AND PUSH1 0xFF AND PUSH1 0x0 PUSH1 0x15 SWAP1 SLOAD SWAP1 PUSH2 0x100 EXP SWAP1 DIV PUSH1 0xFF AND PUSH1 0xFF AND LT JUMPDEST PUSH2 0x537 JUMPI PUSH1 0x0 DUP1 REVERT JUMPDEST PUSH1 0x0 PUSH1 0x15 DUP2 DUP2 SWAP1 SLOAD SWAP1 PUSH2 0x100 EXP SWAP1 DIV PUSH1 0xFF AND DUP1 SWAP3 SWAP2 SWAP1 PUSH2 0x556 SWAP1 PUSH2 0x854 JUMP JUMPDEST SWAP2 SWAP1 PUSH2 0x100 EXP DUP2 SLOAD DUP2 PUSH1 0xFF MUL NOT AND SWAP1 DUP4 PUSH1 0xFF AND MUL OR SWAP1 SSTORE POP POP PUSH1 0x1 DUP1 PUSH1 0x0 DUP4 PUSH20 0xFFFFFFFFFFFFFFFFFFFFFFFFFFFFFFFFFFFFFFFF AND PUSH20 0xFFFFFFFFFFFFFFFFFFFFFFFFFFFFFFFFFFFFFFFF AND DUP2 MSTORE PUSH1 0x20 ADD SWAP1 DUP2 MSTORE PUSH1 0x20 ADD PUSH1 0x0 KECCAK256 PUSH1 0x0 PUSH2 0x100 EXP DUP2 SLOAD DUP2 PUSH1 0xFF MUL NOT AND SWAP1 DUP4 ISZERO ISZERO MUL OR SWAP1 SSTORE POP JUMPDEST POP JUMP JUMPDEST PUSH1 0x0 DUP1 REVERT JUMPDEST PUSH1 0x0 DUP2 SWAP1 POP SWAP2 SWAP1 POP JUMP JUMPDEST PUSH2 0x5E2 DUP2 PUSH2 0x5CF JUMP JUMPDEST DUP2 EQ PUSH2 0x5ED JUMPI PUSH1 0x0 DUP1 REVERT JUMPDEST POP JUMP JUMPDEST PUSH1 0x0 DUP2 CALLDATALOAD SWAP1 POP PUSH2 0x5FF DUP2 PUSH2 0x5D9 JUMP JUMPDEST SWAP3 SWAP2 POP POP JUMP JUMPDEST PUSH1 0x0 PUSH20 0xFFFFFFFFFFFFFFFFFFFFFFFFFFFFFFFFFFFFFFFF DUP3 AND SWAP1 POP SWAP2 SWAP1 POP JUMP JUMPDEST PUSH1 0x0 PUSH2 0x630 DUP3 PUSH2 0x605 JUMP JUMPDEST SWAP1 POP SWAP2 SWAP1 POP JUMP JUMPDEST PUSH2 0x640 DUP2 PUSH2 0x625 JUMP JUMPDEST DUP2 EQ PUSH2 0x64B JUMPI PUSH1 0x0 DUP1 REVERT JUMPDEST POP JUMP JUMPDEST PUSH1 0x0 DUP2 CALLDATALOAD SWAP1 POP PUSH2 0x65D DUP2 PUSH2 0x637 JUMP JUMPDEST SWAP3 SWAP2 POP POP JUMP JUMPDEST PUSH1 0x0 DUP1 PUSH1 0x40 DUP4 DUP6 SUB SLT ISZERO PUSH2 0x67A JUMPI PUSH2 0x679 PUSH2 0x5CA JUMP JUMPDEST JUMPDEST PUSH1 0x0 PUSH2 0x688 DUP6 DUP3 DUP7 ADD PUSH2 0x5F0 JUMP JUMPDEST SWAP3 POP POP PUSH1 0x20 PUSH2 0x699 DUP6 DUP3 DUP7 ADD PUSH2 0x64E JUMP JUMPDEST SWAP2 POP POP SWAP3 POP SWAP3 SWAP1 POP JUMP JUMPDEST PUSH1 0x0 PUSH2 0x6AE DUP3 PUSH2 0x605 JUMP JUMPDEST SWAP1 POP SWAP2 SWAP1 POP JUMP JUMPDEST PUSH2 0x6BE DUP2 PUSH2 0x6A3 JUMP JUMPDEST DUP2 EQ PUSH2 0x6C9 JUMPI PUSH1 0x0 DUP1 REVERT JUMPDEST POP JUMP JUMPDEST PUSH1 0x0 DUP2 CALLDATALOAD SWAP1 POP PUSH2 0x6DB DUP2 PUSH2 0x6B5 JUMP JUMPDEST SWAP3 SWAP2 POP POP JUMP JUMPDEST PUSH1 0x0 PUSH1 0x20 DUP3 DUP5 SUB SLT ISZERO PUSH2 0x6F7 JUMPI PUSH2 0x6F6 PUSH2 0x5CA JUMP JUMPDEST JUMPDEST PUSH1 0x0 PUSH2 0x705 DUP5 DUP3 DUP6 ADD PUSH2 0x6CC JUMP JUMPDEST SWAP2 POP POP SWAP3 SWAP2 POP POP JUMP JUMPDEST PUSH1 0x0 DUP2 ISZERO ISZERO SWAP1 POP SWAP2 SWAP1 POP JUMP JUMPDEST PUSH2 0x723 DUP2 PUSH2 0x70E JUMP JUMPDEST DUP3 MSTORE POP POP JUMP JUMPDEST PUSH1 0x0 PUSH1 0x20 DUP3 ADD SWAP1 POP PUSH2 0x73E PUSH1 0x0 DUP4 ADD DUP5 PUSH2 0x71A JUMP JUMPDEST SWAP3 SWAP2 POP POP JUMP JUMPDEST PUSH2 0x74D DUP2 PUSH2 0x5CF JUMP JUMPDEST DUP3 MSTORE POP POP JUMP JUMPDEST PUSH1 0x0 PUSH1 0x20 DUP3 ADD SWAP1 POP PUSH2 0x768 PUSH1 0x0 DUP4 ADD DUP5 PUSH2 0x744 JUMP JUMPDEST SWAP3 SWAP2 POP POP JUMP JUMPDEST PUSH1 0x0 PUSH1 0x20 DUP3 DUP5 SUB SLT ISZERO PUSH2 0x784 JUMPI PUSH2 0x783 PUSH2 0x5CA JUMP JUMPDEST JUMPDEST PUSH1 0x0 PUSH2 0x792 DUP5 DUP3 DUP6 ADD PUSH2 0x5F0 JUMP JUMPDEST SWAP2 POP POP SWAP3 SWAP2 POP POP JUMP JUMPDEST PUSH2 0x7A4 DUP2 PUSH2 0x6A3 JUMP JUMPDEST DUP3 MSTORE POP POP JUMP JUMPDEST PUSH1 0x0 PUSH1 0x20 DUP3 ADD SWAP1 POP PUSH2 0x7BF PUSH1 0x0 DUP4 ADD DUP5 PUSH2 0x79B JUMP JUMPDEST SWAP3 SWAP2 POP POP JUMP JUMPDEST PUSH1 0x0 PUSH1 0xFF DUP3 AND SWAP1 POP SWAP2 SWAP1 POP JUMP JUMPDEST PUSH2 0x7DB DUP2 PUSH2 0x7C5 JUMP JUMPDEST DUP3 MSTORE POP POP JUMP JUMPDEST PUSH1 0x0 PUSH1 0x20 DUP3 ADD SWAP1 POP PUSH2 0x7F6 PUSH1 0x0 DUP4 ADD DUP5 PUSH2 0x7D2 JUMP JUMPDEST SWAP3 SWAP2 POP POP JUMP JUMPDEST PUSH32 0x4E487B7100000000000000000000000000000000000000000000000000000000 PUSH1 0x0 MSTORE PUSH1 0x11 PUSH1 0x4 MSTORE PUSH1 0x24 PUSH1 0x0 REVERT JUMPDEST PUSH1 0x0 PUSH2 0x836 DUP3 PUSH2 0x7C5 JUMP JUMPDEST SWAP2 POP PUSH1 0x0 DUP3 SUB PUSH2 0x849 JUMPI PUSH2 0x848 PUSH2 0x7FC JUMP JUMPDEST JUMPDEST PUSH1 0x1 DUP3 SUB SWAP1 POP SWAP2 SWAP1 POP JUMP JUMPDEST PUSH1 0x0 PUSH2 0x85F DUP3 PUSH2 0x7C5 JUMP JUMPDEST SWAP2 POP PUSH1 0xFF DUP3 SUB PUSH2 0x872 JUMPI PUSH2 0x871 PUSH2 0x7FC JUMP JUMPDEST JUMPDEST PUSH1 0x1 DUP3 ADD SWAP1 POP SWAP2 SWAP1 POP JUMP INVALID LOG2 PUSH5 0x6970667358 0x22 SLT KECCAK256 0xF8 MULMOD 0xA9 REVERT DUP3 PUSH21 0x38FD9AC6275DE0AC765D7C5FA62A5F50D6DA02644C 0xED RETURN 0xDF CHAINID BYTE PUSH5 0x736F6C6343 STOP ADDMOD SLT STOP CALLER "
				},
				"gasEstimates": {
					"creation": {
						"codeDepositCost": "445400",
						"executionCost": "24797",
						"totalCost": "470197"
					},
					"external": {
						"addMember(address)": "60383",
						"countMembers()": "2543",
						"getBalance()": "406",
						"maxMembers()": "2587",
						"members(address)": "2868",
						"owner()": "2555",
						"removeMember(address)": "55922",
						"sendMoney(uint256,address)": "infinite",
						"votesAddM(uint256)": "4956"
					}
				},
				"methodIdentifiers": {
					"addMember(address)": "ca6d56dc",
					"countMembers()": "2cd046eb",
					"getBalance()": "12065fe0",
					"maxMembers()": "bf4386a0",
					"members(address)": "08ae4b0c",
					"owner()": "8da5cb5b",
					"removeMember(address)": "0b1ca49a",
					"sendMoney(uint256,address)": "062a7544",
					"votesAddM(uint256)": "1ea8a4f9"
				}
			},
			"storageLayout": {
				"storage": [
					{
						"astId": 3,
						"contract": "contracts/multiholder.sol:MultiHolder",
						"label": "owner",
						"offset": 0,
						"slot": "0",
						"type": "t_address"
					},
					{
						"astId": 6,
						"contract": "contracts/multiholder.sol:MultiHolder",
						"label": "maxMembers",
						"offset": 20,
						"slot": "0",
						"type": "t_uint8"
					},
					{
						"astId": 8,
						"contract": "contracts/multiholder.sol:MultiHolder",
						"label": "countMembers",
						"offset": 21,
						"slot": "0",
						"type": "t_uint8"
					},
					{
						"astId": 12,
						"contract": "contracts/multiholder.sol:MultiHolder",
						"label": "members",
						"offset": 0,
						"slot": "1",
						"type": "t_mapping(t_address,t_bool)"
					},
					{
						"astId": 15,
						"contract": "contracts/multiholder.sol:MultiHolder",
						"label": "votesAddM",
						"offset": 0,
						"slot": "2",
						"type": "t_array(t_address)dyn_storage"
					}
				],
				"types": {
					"t_address": {
						"encoding": "inplace",
						"label": "address",
						"numberOfBytes": "20"
					},
					"t_array(t_address)dyn_storage": {
						"base": "t_address",
						"encoding": "dynamic_array",
						"label": "address[]",
						"numberOfBytes": "32"
					},
					"t_bool": {
						"encoding": "inplace",
						"label": "bool",
						"numberOfBytes": "1"
					},
					"t_mapping(t_address,t_bool)": {
						"encoding": "mapping",
						"key": "t_address",
						"label": "mapping(address => bool)",
						"numberOfBytes": "32",
						"value": "t_bool"
					},
					"t_uint8": {
						"encoding": "inplace",
						"label": "uint8",
						"numberOfBytes": "1"
					}
				}
			},
			"userdoc": {
				"kind": "user",
				"methods": {},
				"version": 1
			}
		}
	}
}